:020000040800F2
:10000000000003202DAC00089D890008AB89000882
:10001000B3890008BB890008C389000800000000FC
:10002000000000000000000000000000CB89000874
:10003000D989000800000000E7890008F589000858
:1000400081AC000881AC000881AC0008018A00087E
:1000500081AC000881AC00088F8A00089D8A0008E6
:1000600081AC000881AC0008818A000881AC0008DE
:1000700081AC000881AC00080D8A000881AC000842
:1000800081AC000881AC000881AC000881AC00089C
:1000900081AC000881AC000881AC000881AC00088C
:1000A00081AC000881AC000881AC000881AC00087C
:1000B00081AC000881AC000881AC000881AC00086C
:1000C00081AC000881AC000881AC000881AC00085C
:1000D000218A0008358A000881AC000881AC00083C
:1000E00081AC000881AC000881AC000881AC00083C
:1000F000498A0008558A0008618A000881AC000816
:1001000081AC000881AC000881AC000881AC00081B
:1001100081AC000881AC000881AC000881AC00080B
:1001200081AC000881AC00086D8A000881AC000831
:0C01300081AC000881AC000881AC000824
:1001400010B5054C237833B9044B13B10448AFF311
:1001500000800123237010BD500200200000000029
:10016000D465010808B5034B1BB103490348AFF33D
:10017000008008BD0000000054020020D465010882
:1001800010F8012B11F8013B012A28BF9A42F7D041
:10019000D01A7047000000000000000000000000BE
:1001A00001F0FF01102A2BDB10F0070F08D010F828
:1001B000013B013A8B422DD010F0070F42B3F6D12C
:1001C000F0B441EA012141EA014122F007047FF045
:1001D00000070023F0E80256083C85EA010586EA9C
:1001E000010685FA47F5A3FA87F586FA47F6A5FAD8
:1001F00087F68EB9EED1F0BC01F0FF0102F00702E4
:1002000032B110F8013B013A83EA010313B1F8D18E
:100210000020704701387047002D06BF354603386F
:10022000073815F0010F07D1013015F4807F02BFA8
:10023000013015F4C03F0130F0BC0138704700BFF9
:10024000034613F8012B002AFBD1181A0138704716
:1002500081F0004102E000BF83F0004330B54FEA77
:1002600041044FEA430594EA050F08BF90EA020FE4
:100270001FBF54EA000C55EA020C7FEA645C7FEA77
:10028000655C00F0E2804FEA5454D4EB5555B8BF9A
:100290006D420CDD2C4480EA020281EA030382EA0B
:1002A000000083EA010180EA020281EA0303362D9D
:1002B00088BF30BD11F0004F4FEA01314FF4801C70
:1002C0004CEA113102D0404261EB410113F0004F82
:1002D0004FEA03334CEA133302D0524263EB430339
:1002E00094EA050F00F0A780A4F10104D5F1200ED7
:1002F0000DDB02FA0EFC22FA05F2801841F1000132
:1003000003FA0EF2801843FA05F359410EE0A5F105
:1003100020050EF1200E012A03FA0EFC28BF4CF036
:10032000020C43FA05F3C01851EBE37101F00045EC
:1003300007D54FF0000EDCF1000C7EEB00006EEBF9
:100340000101B1F5801F1BD3B1F5001F0CD3490883
:100350005FEA30004FEA3C0C04F101044FEA4452DA
:1003600012F5800F80F09A80BCF1004F08BF5FEA61
:10037000500C50F1000041EB045141EA050130BD41
:100380005FEA4C0C404141EB0101013C28BFB1F553
:10039000801FE9D291F0000F04BF01460020B1FA9E
:1003A00081F308BF2033A3F10B03B3F120020CDA71
:1003B0000C3208DD02F1140CC2F10C0201FA0CF04F
:1003C00021FA02F10CE002F11402D8BFC2F1200CB4
:1003D00001FA02F120FA0CFCDCBF41EA0C0190406A
:1003E000E41AA2BF01EB0451294330BD6FEA0404B3
:1003F0001F3C1CDA0C340EDC04F11404C4F120029E
:1004000020FA04F001FA02F340EA030021FA04F3AF
:1004100045EA030130BDC4F10C04C4F1200220FA06
:1004200002F001FA04F340EA0300294630BD21FA44
:1004300004F0294630BD94F0000F83F4801306BF0A
:1004400081F480110134013D4EE77FEA645C18BFFE
:100450007FEA655C29D094EA050F08BF90EA020F95
:1004600005D054EA000C04BF1946104630BD91EA8D
:10047000030F1EBF0021002030BD5FEA545C05D190
:100480004000494128BF41F0004130BD14F58004CF
:100490003CBF01F5801130BD01F0004545F0FE4143
:1004A00041F470014FF0000030BD7FEA645C1ABF78
:1004B000194610467FEA655C1CBF0B46024650EAAF
:1004C000013406BF52EA033591EA030F41F40021DB
:1004D00030BD00BF90F0000F04BF0021704730B561
:1004E0004FF4806404F132044FF000054FF0000136
:1004F00050E700BF90F0000F04BF0021704730B5F7
:100500004FF4806404F1320410F0004548BF4042CB
:100510004FF000013EE700BF42004FEAE2014FEA20
:1005200031014FEA02701FBF12F07F4393F07F4FFB
:1005300081F06051704732F07F4208BF704793F0FE
:100540007F4F04BF41F40021704730B54FF4607411
:1005500001F0004521F000411CE700BF50EA010214
:1005600008BF704730B54FF000050AE050EA0102BD
:1005700008BF704730B511F0004502D5404261EB2D
:1005800041014FF4806404F132045FEA915C3FF46E
:10059000D8AE4FF003025FEADC0C18BF03325FEA0B
:1005A000DC0C18BF033202EBDC02C2F1200300FABC
:1005B00003FC20FA02F001FA03FE40EA0E0021FAE1
:1005C00002F11444BDE600BF70B54FF0FF0C4CF4CF
:1005D000E06C1CEA11541DBF1CEA135594EA0C0F81
:1005E00095EA0C0F00F0DEF82C4481EA030621EABC
:1005F0004C5123EA4C5350EA013518BF52EA0335F7
:1006000041F4801143F4801338D0A0FB02CE4FF0A8
:100610000005E1FB02E506F00042E0FB03E54FF0D8
:100620000006E1FB03569CF0000F18BF4EF0010ED0
:10063000A4F1FF04B6F5007F64F5407404D25FEACC
:100640004E0E6D4146EB060642EAC62141EA55517F
:100650004FEAC52040EA5E504FEACE2EB4F1FD0CC1
:1006600088BFBCF5E06F1ED8BEF1004F08BF5FEA3F
:10067000500E50F1000041EB045170BD06F00046F1
:1006800046EA010140EA020081EA0301B4EB5C049E
:10069000C2BFD4EB0C0541EA045170BD41F4801196
:1006A0004FF0000E013C00F3AB8014F1360FDEBFBB
:1006B000002001F0004170BDC4F10004203C35DA97
:1006C0000C341BDC04F11404C4F1200500FA05F31A
:1006D00020FA04F001FA05F240EA020001F00042BB
:1006E00021F0004110EBD37021FA04F642EB060131
:1006F0005EEA430E08BF20EAD37070BDC4F10C045B
:10070000C4F1200500FA04F320FA05F001FA04F21E
:1007100040EA020001F0004110EBD37041F100010A
:100720005EEA430E08BF20EAD37070BDC4F1200515
:1007300000FA05F24EEA020E20FA04F301FA05F27D
:1007400043EA020321FA04F001F0004121FA04F225
:1007500020EA020000EBD3705EEA430E08BF20EAF5
:10076000D37070BD94F0000F0FD101F0004640002F
:1007700041EB010111F4801F08BF013CF7D041EAB1
:10078000060195F0000F18BF704703F000465200B5
:1007900043EB030313F4801F08BF013DF7D043EA86
:1007A0000603704794EA0C0F0CEA135518BF95EA3C
:1007B0000C0F0CD050EA410618BF52EA4306D1D1C3
:1007C00081EA030101F000414FF0000070BD50EAE2
:1007D000410606BF1046194652EA430619D094EA6C
:1007E0000C0F02D150EA013613D195EA0C0F05D156
:1007F00052EA03361CBF104619460AD181EA0301AA
:1008000001F0004141F0FE4141F470014FF0000061
:1008100070BD41F0FE4141F4780170BD70B54FF0FC
:10082000FF0C4CF4E06C1CEA11541DBF1CEA13557C
:1008300094EA0C0F95EA0C0F00F0A7F8A4EB05045E
:1008400081EA030E52EA03354FEA013100F0888055
:100850004FEA03334FF0805545EA131343EA12631E
:100860004FEA022245EA111545EA10654FEA0026D3
:100870000EF000419D4208BF964244F1FD0404F58C
:10088000407402D25B084FEA3202B61A65EB0305E8
:100890005B084FEA32024FF480104FF4002CB6EBA5
:1008A000020E75EB030E22BFB61A754640EA0C0025
:1008B0005B084FEA3202B6EB020E75EB030E22BF65
:1008C000B61A754640EA5C005B084FEA3202B6EBA6
:1008D000020E75EB030E22BFB61A754640EA9C0065
:1008E0005B084FEA3202B6EB020E75EB030E22BF35
:1008F000B61A754640EADC0055EA060E18D04FEAF3
:10090000051545EA16754FEA06164FEAC30343EA92
:1009100052734FEAC2025FEA1C1CC0D111F4801F5F
:100920000BD141EA00014FF000004FF0004CB6E758
:1009300011F4801F04BF01430020B4F1FD0C88BFF7
:10094000BCF5E06F3FF6AFAEB5EB030C04BFB6EB02
:10095000020C5FEA500C50F1000041EB045170BDF5
:100960000EF0004E4EEA113114EB5C04C2BFD4EB22
:100970000C0541EA045170BD41F480114FF0000EA6
:10098000013C90E645EA060E8DE60CEA135594EA22
:100990000C0F08BF95EA0C0F3FF43BAF94EA0C0F25
:1009A0000AD150EA01347FF434AF95EA0C0F7FF49A
:1009B00025AF104619462CE795EA0C0F06D152EAEE
:1009C00003353FF4FDAE1046194622E750EA4106D2
:1009D00018BF52EA43067FF4C5AE50EA41047FF4E3
:1009E0000DAF52EA43057FF4EBAE12E74FF0FF3C48
:1009F00006E000BF4FF0010C02E000BF4FF0010C19
:100A00004DF804CD4FEA410C7FEA6C5C4FEA430C91
:100A100018BF7FEA6C5C1BD001B050EA410C0CBFE0
:100A200052EA430C91EA030F02BF90EA020F002042
:100A3000704710F1000F91EA030F58BF994208BFA9
:100A400090422CBFD8176FEAE37040F00100704766
:100A50004FEA410C7FEA6C5C02D150EA013C07D1BD
:100A60004FEA430C7FEA6C5CD6D152EA033CD3D008
:100A70005DF8040B704700BF8446104662468C4602
:100A80001946634600E000BF01B5FFF7B7FF002835
:100A900048BF10F1000F01BD4DF808EDFFF7F4FF5E
:100AA0000CBF012000205DF808FB00BF4DF808EDE9
:100AB000FFF7EAFF34BF012000205DF808FB00BF0C
:100AC0004DF808EDFFF7E0FF94BF012000205DF82E
:100AD00008FB00BF4DF808EDFFF7CEFF94BF0120E3
:100AE00000205DF808FB00BF4DF808EDFFF7C4FFDC
:100AF00034BF012000205DF808FB00BF4FEA410C25
:100B00007FEA6C5C02D150EA013C0AD14FEA430C07
:100B10007FEA6C5C02D152EA033C02D14FF0000044
:100B200070474FF0010070474FEA410212F5001282
:100B300015D211D56FF47873B3EB625212D94FEA24
:100B4000C12343F0004343EA505311F0004F23FA0E
:100B500002F018BF404270474FF00000704750EA63
:100B6000013005D111F0004008BF6FF00040704720
:100B70004FF00000704700BF53B94AB9002908BFC1
:100B800000281CBF4FF0FF314FF0FF3000F088B954
:100B9000ADF1080C6DE904CE00F006F8DDF804E0D4
:100BA000DDE9022304B070472DE9F047089D0F46A8
:100BB00004468C46002B48D18A42164661D9B2FAC7
:100BC00082F34BB1C3F1200201FA03FC20FA02F2D6
:100BD0009E4042EA0C0C9C404FEA164EB7B2BCFB5A
:100BE000FEF1220C0EFB11CC42EA0C4201FB07F095
:100BF000904209D9B21801F1FF3C80F0EE8090429A
:100C000040F2EB8002393244121AA4B2B2FBFEF079
:100C10000EFB102244EA024400FB07F7A74209D961
:100C2000341900F1FF3280F0DA80A74240F2D78019
:100C30003444023840EA0140E41B00211DB1DC408D
:100C40000023C5E90043BDE8F0878B4206D90DB10A
:100C5000C5E9000100210846BDE8F087B3FA83F139
:100C6000002948D1BB4202D3824200F20781841A94
:100C700067EB030201209446002DE4D0C5E9004C47
:100C8000E1E7002A00F09280B2FA82F3002B40F0F4
:100C9000A8808A1A4FEA164E1FFA86FC0121200C02
:100CA000B2FBFEF70EFB172240EA02420CFB07F0F4
:100CB000904207D9B21807F1FF3802D2904200F2F1
:100CC000E2804746121AA4B2B2FBFEF00EFB1022DD
:100CD00044EA02440CFB00FCA44507D9341900F196
:100CE000FF3202D2A44500F2CB801046A4EB0C04E4
:100CF00040EA0740A2E7C1F120068B4022FA06FC39
:100D00004CEA030C07FA01F420FA06F3F7404FEA25
:100D10001C49234300FA01F81FFA8CFEB7FBF9F0D7
:100D20001C0C09FB107744EA074400FB0EF7A742AE
:100D300002FA01F20AD91CEB040400F1FF3A80F038
:100D40009B80A74240F2988002386444E41B9FB223
:100D5000B4FBF9F309FB134447EA044403FB0EFE1A
:100D6000A64509D91CEB040403F1FF3780F082800B
:100D7000A6457FD9023B644443EA0040A4EB0E043D
:100D8000A0FB02E7BC427346B94663D360D05DB1B5
:100D9000B8EB030264EB090404FA06F622FA01F345
:100DA0001E43CC40C5E9006400214CE762084808B6
:100DB00042EAC1710B0C43EA00438AB242EA0342A1
:100DC000B3FBF6F1E407B4463746B6461F23B0FB43
:100DD000F6F0D21B41EA004161E7614614E7104694
:100DE00028E7C3F1200120FA01F29E4027FA01F121
:100DF0009F403A434FEA164E1FFA86FCB1FBFEF7BE
:100E00000EFB1710110C41EA004107FB0CF8884556
:100E100004FA03F43AD9711807F1FF3001D288457A
:100E20001FD8A1EB0801B1FBFEF808FB0CF70EFB85
:100E3000181192B242EA0142BA422FD2B21808F116
:100E4000FF31C6D2BA42C4D2A8F102013244C0E78F
:100E5000F0459CD2BEEB020367EB0C070138B946A4
:100E600095E7A6EB08084144B81EB1FBFEF808FB65
:100E70000CF7DCE73B467FE7504667E70846FBE6B2
:100E80003444023832E7023F32441BE7A1EB080149
:100E90003846B1FBFEF808FB0CF7C8E7414698E777
:100EA000704700BF80B483B000AF786039603B68A2
:100EB000DAB27B681A7000BF0C37BD465DF8047B60
:100EC000704780B584B000AFF860C7E90023FB68C5
:100ED000581CD7E90023082107F0F0FE00BF1037A7
:100EE000BD4680BD80B483B000AF786039607B6858
:100EF00009333A68D2B21A7000BF0C37BD465DF8AC
:100F0000047B704780B582B000AF786039600922F9
:100F10003968786813F0CDFD00BF0837BD4680BD45
:100F200080B483B000AF786039603B681A0A7B6890
:100F30000C33D2B21A707B680D333A68D2B21A7091
:100F400000BF0C37BD465DF8047B704780B582B0AA
:100F500000AF7860396009223968786813F0A9FD1C
:100F60007B680C333A68127B1A707B680D333A68E1
:100F7000527B1A7000BF0837BD4680BD80B483B075
:100F800000AF786039607B6811333A68D2B21A706A
:100F900000BF0C37BD465DF8047B704780B483B05A
:100FA00000AF786039607B6815333A68D2B21A7046
:100FB00000BF0C37BD465DF8047B704780B483B03A
:100FC00000AF786039607B6811333A68D2B21A702A
:100FD00000BF0C37BD465DF8047B704780B582B01A
:100FE00000AF786039607B6812333968184607F0C3
:100FF0008EFE00BF0837BD4680BD000080B483B0C0
:1010000000AF7860064BD3F8902005497B68134306
:10101000C1F8903000BF0C37BD465DF8047B7047C7
:101020000008005880B485B000AF78604FF0B0433E
:10103000DA6C4FF0B0417B681343CB644FF0B043A0
:10104000DA6C7B681340FB60FB6800BF1437BD4659
:101050005DF8047B704780B485B000AF78604FF0D6
:10106000B043D3F84C214FF0B0417B681343C1F833
:101070004C314FF0B043D3F84C217B681340FB60F8
:10108000FB6800BF1437BD465DF8047B704780B530
:1010900000AF09F0F5FF09F0F9FF4FF48030FFF7DA
:1010A000ADFF10F0FDFB00F021F800F0C1F800BF2B
:1010B00080BD0000B0B588B000AF0B4B3C1D1D4695
:1010C0000FCD0FC495E8070003C422800234130C2F
:1010D000237012F033F93B1D184610F084FF00BF57
:1010E0002037BD46B0BD00BFF065010880B588B0AF
:1010F00000AF3B1D00221A605A609A60DA601A61E4
:101100000023BB8300237B8300233B830023FB77E7
:1011100036E0FB7F434ADB0013449B79002B2CD045
:10112000FB7F404A52F833303F4A93421BD03E4A3D
:10113000934221D8B3F1904F03D03C4A934209D057
:101140001AE0FB7F374ADB0013449A88BB8B1343BA
:10115000BB8312E0FB7F334ADB0013449A887B8B0E
:1011600013437B8309E0FB7F2E4ADB0013449A88FC
:101170003B8B13433B8300E000BFFB7F0133FB77D6
:10118000FB7F252BC5D90023FB600123BB60032314
:101190003B61BB8B002B14D0BB8B7B600120FFF726
:1011A00041FF0120FFF757FF3B1D19464FF09040CC
:1011B0000AF0A0FCBB8B002219464FF090400AF0C9
:1011C00009FE7B8B002B12D07B8B7B600220FFF70C
:1011D00029FF0220FFF73FFF3B1D194613480AF085
:1011E00089FC7B8B0022194610480AF0F3FD3B8BEB
:1011F000002B13D03B8B7B600420FFF713FF0420F0
:10120000FFF729FF3B1D194607480AF073FC3B8B8B
:101210000022194604480AF0DDFD00BF00BF203758
:10122000BD4680BD8C7C01080008004800040048D1
:1012300080B400AF00BFBD465DF8047B704780B549
:1012400000AF02F061F900BF80BD80B584B000AF8F
:10125000F8600B467A607B817A897B68F9680020A8
:1012600001F050FF00BF1037BD4680BD80B483B091
:1012700000AF7860074BD3F8803023F007020549B0
:101280007B681343C1F8803000BF0C37BD465DF862
:10129000047B70470004005880B483B000AF7860CE
:1012A000064BD3F8902005497B681343C1F8903072
:1012B00000BF0C37BD465DF8047B7047000800583E
:1012C00080B483B000AF78604FF0B0430A4AC3F8EF
:1012D0009C204FF0B043D3F89C3023F47C527B68C1
:1012E0001B024FF0B0411343C1F89C3000BF0C37D4
:1012F000BD465DF8047B7047FECAFECA80B483B069
:1013000000AF78604FF0B0439B6823F400424FF089
:10131000B0417B6813438B6000BF0C37BD465DF85E
:10132000047B704780B400AF4FF0B043D3F89030E7
:101330004FF0B04243F48033C2F8903000BFBD4656
:101340005DF8047B704780B400AF4FF0B043D3F832
:1013500090304FF0B04223F48033C2F8903000BF99
:10136000BD465DF8047B704780B400AF4FF0B043DA
:10137000D3F8943003F08063B3F1806F01D101237F
:1013800000E000231846BD465DF8047B704780B43A
:1013900000AF4FF0B043D3F8943003F08053B3F173
:1013A000805F01D1012300E000231846BD465DF8AF
:1013B000047B704780B485B000AF78604FF0B043D5
:1013C0001A6D4FF0B0417B6813430B654FF0B0438B
:1013D0001A6D7B681340FB60FB6800BF1437BD4685
:1013E0005DF8047B7047000080B400AF044B1B68BD
:1013F000C3F30B031846BD465DF8047B704700BF7E
:10140000002004E080B400AF044B1B681B0C9BB2AF
:101410001846BD465DF8047B704700BF002004E01D
:1014200080B483B000AF786039607B685A683B68ED
:101430001B041A437B685A6000BF0C37BD465DF839
:10144000047B704780B483B000AF786039607B68FC
:101450005A683B681A437B685A6000BF0C37BD4628
:101460005DF8047B704780B483B000AF786039606A
:101470007B685A693B681B041A437B685A6100BF4A
:101480000C37BD465DF8047B704780B483B000AF75
:10149000786039607B685A693B681A437B685A6197
:1014A00000BF0C37BD465DF8047B704780B483B045
:1014B00000AF786039607B683A689A6000BF0C378B
:1014C000BD465DF8047B704780B483B000AF7860A0
:1014D00039607B683A689A6100BF0C37BD465DF899
:1014E000047B704780B400AF054B1B69044A23F0AE
:1014F0000403136100BFBD465DF8047B704700BF65
:1015000000ED00E080B483B000AF78607B68FF221C
:101510005A6200BF0C37BD465DF8047B704780B44B
:1015200083B000AF78607B68CA225A627B6853221E
:101530005A6200BF0C37BD465DF8047B704780B42B
:1015400083B000AF786039607B689B6823F0070246
:101550003B681A437B689A6000BF0C37BD465DF854
:10156000047B704780B500AF044B4FF400421A6112
:1015700000F030F800F070F800BF80BD0040005867
:1015800080B500AF00F07CF800F094F80949002025
:1015900001F012FBFFF77BFD0121012011F074FF28
:1015A00000F0EAF900F0F8F900F07AFA00F090F8AB
:1015B00000BF80BD6806002080B400AF00BFBD46FC
:1015C0005DF8047B704780B500AF5020FFF764FEE4
:1015D00000BF80BD80B500AF00F004F800F01AF83D
:1015E00000BF80BD80B500AFFFF7BEFE0346002BF5
:1015F0000DD0FFF7CCFE0346002B08D10AF0C4FC47
:101600000AF0C2FCFFF78EFEFFF79DFE00BF00BF91
:1016100080BD000080B500AF4FF48010FFF7CAFE18
:101620003F210C48FFF742FF3F210A48FFF74CFFDC
:101630003F210848FFF7F4FE3F210648FFF713FF5C
:101640003F210448FFF7FEFE3F210248FFF71DFF40
:1016500000BF80BD000C005880B582B000AF0020F4
:1016600010F058FB78607B68002B05D07B689B7975
:101670001846FFF725FE00BF00BF0837BD4680BDF6
:1016800080B500AFFFF798FFFFF79DFF00F002F86D
:1016900000BF80BD80B500AF0548FFF740FF0021C7
:1016A0000348FFF74CFF0248FFF72CFF00BF80BD47
:1016B0000028004080B500AF4FF40040FFF71EFE49
:1016C00011F0D0FE0420FFF7D1FD00BF80BD000067
:1016D00080B588B000AF11F077FC114A002140209E
:1016E00012F0CEF80F4B3B600F4B7B603B46194628
:1016F0000E4810F053FD0E4BBB600E4BFB600E4BC3
:101700003B6140F23C537B6107F10803184611F03E
:10171000A1FD11F053FC00BF2037BD4680BD00BFC6
:10172000D5210108340703203D170008551700088C
:101730004C09032040080320F801032080B483B043
:1017400000AF0346FB7100BF0C37BD465DF8047B5C
:101750007047000080B588B000AF78607B685B6838
:101760000B33FB61FB691B889BB2A3F51243072B6C
:1017700060D801A252F823F099170008DB1700087F
:10178000E9170008351800080518000815180008A2
:101790001D1800082D18000807F10C03184610F05A
:1017A0004FFC3B7B19467B7B1A46BB7B244812F0DF
:1017B000A3FF3B7C1946234812F09EFFBB7D1946D0
:1017C000FB7D1A463B7E204812F096FF1F4812F020
:1017D00093FF786800F070F82DE01D4812F08CFF40
:1017E000786800F043F826E01A4812F0F5FFFB692C
:1017F00002331968FB6902335B681A46164812F017
:101800007BFF18E0FB6902331B681946134812F08E
:1018100073FF10E0124812F06FFF0CE0FB69023317
:101820001B6819460F4812F067FF04E00E4812F0DB
:1018300063FF00E000BF00BF2037BD4680BD00BF92
:101840000C660108306601084C66010864660108F0
:1018500084660108A8660108F86601082067010887
:101860005C67010880670108BC67010880B584B027
:1018700000AF78607B685B680B33FB60FB6802330A
:10188000BB60BB681B781946084812F035FFBB687F
:101890001B78002B03D1064812F09EFF03E0054899
:1018A00012F09AFF00BF1037BD4680BDE067010807
:1018B000106801084C68010880B58AB000AF7860F4
:1018C00007F1080300221A605A609A60DA60002368
:1018D0007B6200233B627B685B680B33FB61FB69C7
:1018E0000233BB61BB691B78002B28D11D4812F065
:1018F00073FFFFF7DFFB0F233B727F23BB72FFF702
:1019000081FD7862796A184812F0F6FE7B6A9BB214
:10191000BB82FFF769FD3862396A144812F0ECFEA9
:101920003B6A9BB2FB8207F10803184610F072FB7A
:1019300007F090FC0021012011F0A6FD0EE0BB692C
:101940001B78012B06D10A4812F0D6FE7B680022D4
:101950001A7003E0074812F0CFFE00BF2837BD46DB
:1019600080BD00BF84680108A0680108C468010840
:10197000E46801081869010880B500AF002009F08B
:1019800099F9012009F096F9022009F093F9012054
:1019900009F0CAF900BF80BD80B500AF0121002069
:1019A00009F0F6F90121012009F0F2F901210220E4
:1019B00009F0EEF900BF80BD80B584B000AF78605B
:1019C00009F03AFBB8607B68FB60FB68B3F1FF3F4E
:1019D0000AD009F049FB03461A46FB681344FB6032
:1019E00002E0FFF77FFD30BF09F026FB0246BB682F
:1019F000D31AFA689A42F4D800BF00BF1037BD4628
:101A000080BD80B500AF4FF0FF3011F0B7FD00BFD3
:101A100080BD80B400AF00BFBD465DF8047B704759
:101A200080B582B000AF78600021402011F04AFFFD
:101A300000BF0837BD4680BD80B582B000AF78607A
:101A4000022011F0ABFF00BF0837BD4680BD80B556
:101A500082B000AF7860022011F0C0FF00BF0837ED
:101A6000BD4680BD80B582B000AF0346FB80FB88D9
:101A7000102B06D0102B0DDC012B05D0022B06D02D
:101A800008E007F02BFF06E007F02EFF03E007F069
:101A900033FF00E000BF00BF0837BD4680BD000037
:101AA00080B500AF034B01220349002001F0F0FA9A
:101AB00000BF80BDBD1A00087402002080B500AFD1
:101AC000154B1B88FF2B1ED8144B1B780D2B0FD1E9
:101AD0001349144812F010FE00F028F80E4B0022B3
:101AE0001A804FF4807200210D4812F053FF0AE073
:101AF000094B1B885A1C91B2074A11801A46074BA2
:101B00001978074B9954084B01220449002001F031
:101B1000BFFA00BF80BD00BF7C030020740200201C
:101B20007C0200204C690108BD1A000880B500AF96
:101B30001C491D48FEF724FB0346002B09D11B4816
:101B400012F04AFE1A4B1B4A1A60194809F0B0FFFE
:101B500026E019491448FEF713FB0346002B0AD16F
:101B6000164812F039FE124B4FF0B0521A6010486E
:101B700009F09EFF14E012490B48FEF701FB0346F3
:101B8000002B09D10F4812F027FE094B0E4A1A60AC
:101B9000074809F08DFF03E003490C4812F0ACFD43
:101BA00000BF80BD5C6901087C02002060690108FB
:101BB0006C02002004000016686901086C690108C5
:101BC000746901087869010801000016806901083C
:101BD00080B5A4B000AF78600023C7F88C3010E067
:101BE0007A68D7F88C301344197807F10C02D7F8CB
:101BF0008C3013440A461A70D7F88C300133C7F87A
:101C00008C30D7F88C300F2BEAD91023C7F88C30E2
:101C10000BE007F10C02D7F88C30134400221A7045
:101C2000D7F88C300133C7F88C30D7F88C307F2B45
:101C3000EFD97B682033184606F048F97B682033DB
:101C400007F10C010122184606F0A6F900BF9037F3
:101C5000BD4680BD80B582B000AF78607868FFF780
:101C6000B7FF00BF0837BD4680BD80B582B000AF6A
:101C700078607B682033184606F081F900BF08378A
:101C8000BD4680BD80B584B000AFF860B9607A60B1
:101C90007A68B968F86800F0EFF900BF1037BD4600
:101CA00080BD80B586B002AFF860B9607A603B60F5
:101CB0003B6800937B680122B968F86806F0A0FFD2
:101CC00000BF1037BD4680BD80B586B000AFF8605C
:101CD000B9607A603B603B687B617B693B61796896
:101CE0003869FFF77BF906213869FFF7FBF83A6995
:101CF000B968F868FFF7C6FF03213869FFF7F2F803
:101D00003B69BA68F968F868FFF7CBFF00BF18377E
:101D1000BD4680BD80B487B000AF786039600023D5
:101D2000FB6000237B6130E07B699B007A68134491
:101D300000221A6000233B6121E07B699B007A68E6
:101D400013441A68FB68DB0839680B441B78194692
:101D5000FB6803F0070341FA03F303F001013B6959
:101D600001FA03F318467B699B0079680B444240F3
:101D70001A60FB680133FB603B6901333B613B69DF
:101D80000B2BDAD97B6901337B617B690D2BCBD9B6
:101D900000BF00BF1C37BD465DF8047B70470000E4
:101DA00090B5EDB006AF07F5CC74A4F5C67420600D
:101DB00007F5CC70A0F5C870016007F5CC71A1F5EE
:101DC000CA710A6007F5CC72A2F5CC72136007F5F0
:101DD000CC73A3F5A273184620231A46002112F0F3
:101DE000D9FD07F5CC73A3F5B273184620231A4624
:101DF000002112F0CFFD07F13403C7F8903107F549
:101E0000CC73A3F5C273184620231A46002112F0A2
:101E1000C1FD07F15403D7F8A8111846FFF796F84B
:101E2000D7F8A811D7F89001FFF790F807F114033D
:101E3000D7F8A8111846FFF789F807F11403042111
:101E40001846FFF74FF807F5CC73A3F5CA7307F5EB
:101E5000AA7219681046FFF75DFF0023C7F8943196
:101E600078E0D7F894311B03C7F88C3107F154039D
:101E700000211846FFF7A2F8D7F894319B0003F52C
:101E8000CC733B4453F8442CD7F88C311A4407F1F7
:101E9000540311461846FFF7A1F807F15403062131
:101EA0001846FFF71FF807F1540207F5CC73A3F5A6
:101EB000CC7107F5CC73A3F5C67309681868FFF7F2
:101EC000E1FE07F1540303211846FFF70BF807F56D
:101ED000CC73A3F5C67307F5CC72A2F5C67212686F
:101EE00010321A60D7F894311B0107F17402D01830
:101EF000D7F894319B0003F5CC733B4453F8444C22
:101F000007F5CC73A3F5CC7207F5CC73A3F5C671B6
:101F100007F13403049307F1540303931B4B02931B
:101F20000C230193D7F88C3100932346126809687B
:101F300006F050FF07F5CC73A3F5C67307F5CC7216
:101F4000A2F5C6721268C0321A60D7F89431013314
:101F5000C7F89431D7F894310D2B82D907F5CC739B
:101F6000A3F5CC7307F1740107F5CC72A2F5C87024
:101F700007F1140200921B680E22006806F040FE72
:101F800000BF07F5CE77BD4690BD00BFC91C000855
:101F90002DE9F04391B000AFF860B9607A603B6022
:101FA0006B461E463B68191D0B46013BBB63002375
:101FB000884699464FF000024FF000034FEAC903EC
:101FC00043EA58734FEAC80200230C461D464FF0FF
:101FD00000024FF00003EB0043EA5473E200CB1D14
:101FE000DB08DB00ADEB030D6B467B633A68796879
:101FF000786B12F05EFD0023FB6313E07A6B3B68A5
:102000001344F96B184606F082FE3B6804331A4607
:10201000796BF86806F054F9FB682033FB60FB6BC2
:102020000133FB63FB6B01335B01BA689A42E5D273
:10203000FB6B5B01BA689A4218D97A6B3B68134410
:10204000F96B184606F063FE3B681A1D07F114038E
:10205000796B184606F034F9FB6B5B01BA68D21A4B
:1020600007F114031946F86812F023FDB54600BFC6
:102070004437BD46BDE8F08380B598B000AFF86046
:10208000B9607A60BB6803F1200207F15C03114676
:10209000184605F055FF07F13403162279681846F3
:1020A00012F007FD07F134031633BA6802F110018C
:1020B0001022184612F0FDFC07F1340207F15C0112
:1020C00007F11400262305F099FF07F114031022ED
:1020D0001946F86812F0EDFC00BF6037BD4680BDC0
:1020E00080B59EB000AFF860B9607A603B600023B5
:1020F0007B670FE07B6FBA6813441B7883F036036D
:10210000D9B207F114027B6F13440A461A707B6F31
:1021100001337B677B6F0F2BECDD07F1140310336A
:1021200030223621184612F035FC07F1100318460C
:1021300005F0CCFE07F1140107F110030122184647
:1021400005F02AFF07F1140310227968184612F0EF
:10215000B0FCD7F8803010333F2B15D807F11403AB
:102160001033D7F880203968184612F0A2FC07F126
:1021700014004030D7F88030103307F1140207F113
:10218000100105F03BFF21E007F11403103330226A
:102190003968184612F08DFC07F1140107F110039D
:1021A0000122184605F0F8FE3B6830333B60D7F853
:1021B0008030303BC7F8803007F11400403007F121
:1021C0001001D7F880303A6805F018FF00237B67CC
:1021D0000FE07B6FBA6813441B7883F05C03D9B2BD
:1021E00007F114027B6F13440A461A707B6F0133A8
:1021F0007B677B6F0F2BECDD07F11403103330226C
:102200005C21184612F0C6FB07F1140107F1140314
:102210006022184606F054F807F1140310221946FC
:10222000F86812F046FC00BF7837BD4680BDB0B5F7
:10223000AEB000AFF860B9607A603B6007F114039C
:10224000C7F8B43007F11003184605F03FFE07F158
:10225000340310223968184612F02BFC07F13403BE
:1022600010332022D7F8C810184612F022FCD7F8F5
:10227000D03030333F2B16D807F134033033D7F842
:10228000D020D7F8CC10184612F013FC07F17400D8
:102290002030D7F8D030303307F1340207F1100185
:1022A00005F0ACFE25E007F1340330331022D7F8F7
:1022B000CC10184612F0FDFB07F1340107F11003B2
:1022C0000122184605F068FED7F8CC301033C7F865
:1022D000CC30D7F8D030103BC7F8D03007F17400BD
:1022E000203007F11001D7F8D030D7F8CC2005F016
:1022F00085FE07F1740310223968184612F0D9FBE5
:1023000007F1740310331022D7F8C810184612F0E2
:10231000D0FB07F1740240231E21D7F8B400FFF769
:1023200037FE1522D7F8B410F86812F0C2FBD7F8C0
:10233000B4301533C7F8B4300721D7F8B40006F02D
:1023400007FD02460B46B968C1E90023BB68D3E923
:1023500000231446C3F31505BB68C3E90045D7F84D
:10236000B4300733C7F8B4300221D7F8B40006F010
:10237000EFFC02460B467B681A607B681B68C3F360
:1023800008027B681A6000BFB837BD46B0BD0000C8
:1023900080B483B000AF7860064BD3F88020054945
:1023A0007B681343C1F8803000BF0C37BD465DF831
:1023B000047B70470008005880B483B000AF786099
:1023C000054B1A6804497B6813430B6000BF0C3748
:1023D000BD465DF8047B70470008005880B483B0A8
:1023E00000AF0D4B9B6A9BB27B600B4B9B6A9BB211
:1023F0003B6005E03B687B60074B9B6A9BB23B60A0
:102400007A683B689A42F5D13B6818460C37BD465E
:102410005DF8047B704700BF0028004080B485B0A1
:1024200000AF03460A46FB711346BB71BA791D49DA
:1024300013465B001344DB000B4415331B78FB731E
:10244000FB7B062B09D0FA7B164913465B0013442D
:10245000DB000B441433FA791A70FA7911491346E8
:102460005B001344DB000B441533FA7B1A70FA79D6
:102470000C4913465B001344DB000B441433BA7958
:102480001A70BA79074913465B001344DB000B440A
:102490001533FA791A7000BF1437BD465DF8047B16
:1024A000704700BF8003002080B485B000AF0346B2
:1024B0000A46FB711346BB71294B1B78DBB2BA7914
:1024C0009A4232D0BA79274913465B001344DB00A5
:1024D0000B4414331B78FB73FA7B224913465B00D1
:1024E0001344DB000B441533FA791A70FA791D494D
:1024F00013465B001344DB000B441533BA791A70A2
:10250000FA79184913465B001344DB000B4414337B
:10251000FA7B1A70BA79134913465B001344DB0047
:102520000B441433FA791A7014E0FA790D49134602
:102530005B001344DB000B441533BA791A70BA7987
:10254000084913465B001344DB000B441433FA794B
:102550001A7000BF1437BD465DF8047B704700BF9A
:10256000100400208003002080B584B000AF034633
:10257000FB714E4B1B78DBB2062B18D14B4B1B78F3
:10258000DAB24B4B1A70494AFB791370FA79494910
:1025900013465B001344DB000B44153306221A700C
:1025A000454B4FF0FF321A600023FB8178E000F0CA
:1025B00009F90346FB81FA793E4913465B0013444F
:1025C000DB000B4408331968FB89FA791944394850
:1025D00013465B001344DB00034408331960FA79A7
:1025E000344913465B001344DB000B4408331B687B
:1025F000BB602E4B1B78DBB219462E4A0B465B00A4
:102600000B44DB00134408331B68BA689A4237D383
:10261000264B1B787B737A7B264913465B00134459
:10262000DB000B4415331B783B7313E07A7B2149A5
:1026300013465B001344DB000B4415331B787B739C
:102640007A7B1C4913465B001344DB000B441533B3
:102650001B783B733B7B062B0BD03A7B154913460B
:102660005B001344DB000B4408331B68BA689A42D2
:10267000DCD27A7BFB7911461846FFF7CFFE0FE0DC
:102680000A4B1B78DAB2FB7911461846FFF70CFFAC
:10269000064B1B78DAB2064B1A70044AFB791370AA
:1026A000FB8918461037BD4680BD00BF10040020CE
:1026B00011040020800300201404002080B485B0A1
:1026C00000AF03460A46FB711346BB71394B1B78BA
:1026D000DBB2FA799A4211D1364B1B78DAB2364B1B
:1026E0001A70FA79354913465B001344DB000B443A
:1026F00015331B78DAB22F4B1A703EE0FA792F4966
:1027000013465B001344DB000B4414331B78FB734C
:10271000FA792A4913465B001344DB000B44153356
:102720001B78BB73F979FA7B24480B465B000B449A
:10273000DB00034415331B78D8B2204913465B00F5
:102740001344DB000B44153302461A70BB7B062B87
:1027500013D0F979BA7B19480B465B000B44DB00B8
:10276000034414331B78D8B2144913465B00134456
:10277000DB000B44143302461A70FA790F491346F2
:102780005B001344DB000B440C3301221A70094B2D
:102790001B78DBB2062B07D1BB79002B04D1084B89
:1027A0004FF0FF321A6000BF00BF1437BD465DF81E
:1027B000047B7047100400201104002080030020D7
:1027C0001404002080B582B000AF1A4B1B68B3F12F
:1027D000FF3F26D0FFF702FE7860164B1B687A6831
:1027E0009A4205D8134B1A687B68D31A7B600AE0BB
:1027F000114B1B881A467B68D31A3B600D4B1B6834
:102800003A6813447B600D4B1B781A467B6802FBC9
:1028100003F37B600A4B1B781A467B68D3407B60CE
:1028200001E000237B607B689BB218460837BD46F9
:1028300080BD00BF140400201C0400201A040020E6
:102840001904002080B582B000AF0346FB80FB88EE
:10285000002B08D1FFF7C2FD0346214A1360032075
:1028600008F097FD39E0FB88012B03D81D4B1B783E
:10287000012B02D0FB88013BFB8000BF1A4B1B6879
:10288000DB6803F00403002BF8D0174B1B68DB68F0
:10289000DAB2154B1B6862F49062DA60134B4FF4A6
:1028A0000022DA60032008F082FD114B5B691B0CEB
:1028B0001B04FA880E4913434B61FFF78FFD034653
:1028C000074A1360084B1B689A68074B1B6842F461
:1028D00080629A60AFF3008000BF0837BD4680BDBC
:1028E0001404002019040020680600200008005885
:1028F0000028004080B584B000AF454B9B6803F4CE
:102900008063B3F5806F07D100BF424B1B68DB6863
:1029100003F00403002BF8D13E4B1B689A683D4B33
:102920001B6822F480629A603B4B1B78FB73FA7B36
:102930003A4913465B001344DB000B4408331B6821
:10294000BB60FFF73FFF0346FB80FB88BA689A42F3
:1029500005D20023BB81324B01221A704DE0FB8867
:10296000304A128892B213441A46BB68934206D981
:102970002C4B1B88BB812A4B00221A703DE0BB68A0
:102980009AB2FB88D31ABB81254B01221A7034E01E
:10299000FA7B224913465B001344DB000B440833E7
:1029A0001A68FB889A420AD2FA7B1C4913465B00DC
:1029B0001344DB000B44083300221A6013E0FA7B57
:1029C000164913465B001344DB000B4408331968B7
:1029D000FB88FA7BC91A114813465B001344DB00DD
:1029E000034408331960FA7B0C4913465B00134417
:1029F000DB000B4415331B78FB73FB7B062BC7D125
:102A0000BB891846FFF71EFF00BF1037BD4680BDCB
:102A100000280040680600201004002080030020E9
:102A2000180400201E04002080B58AB000AFEFF328
:102A300010837B617B697B6272B600BF594B1B6858
:102A4000CA225A62574B1B6853225A62554B1B6865
:102A50009A68544B1B6822F480629A60524B1B7830
:102A600087F8233097F82320504913465B0013441E
:102A7000DB000B440C331B78DBB2022B6ED197F8D2
:102A800023204A4913465B001344DB000B441B68B8
:102A9000FB6197F82320454913465B001344DB0094
:102AA0000B4410331B68BB61414B1B78DBB2002B1E
:102AB0004CD097F823203D4913465B001344DB00BC
:102AC0000B440D331B78DBB2012B24D197F8233054
:102AD00001211846FFF7F2FD7B6A3B613B6983F3F6
:102AE000108800BF97F82320304913465B00134439
:102AF000DB000B4404331A6897F82330114618465C
:102B000000F032FA274B1B68CA225A62254B1B6819
:102B100053225A6212E07B6AFB60FB6883F31088E1
:102B200000BF97F82330184600F09AF91D4B1B6838
:102B3000CA225A621B4B1B6853225A6297F82330F1
:102B4000FA691946B86900F095FA22E0FFF7D2FE5B
:102B50007B6ABB60BB6883F310881AE000BF114B2F
:102B60001B68DB6803F00403002BF8D00D4B1B68D7
:102B7000DB68DAB20B4B1B6862F49062DA600D4BD3
:102B80004FF40022DA607B6A7B607B6883F31088F5
:102B900000BF044B1B68FF225A6200BF2837BD46A6
:102BA00080BD00BF680600201004002080030020C4
:102BB000180400200008005880B588B000AF034614
:102BC0003960FB715E4B1B68CA225A625C4B1B6802
:102BD00053225A625B4B9B685A4A43F0200393602E
:102BE000584B9B68DBB203F00703DBB2C3F104036D
:102BF000DAB2554B1A70534B1B6903F4FE034FF4C2
:102C0000FE023A613A6992FAA2F2FA60FA687A61CF
:102C10007A69002A01D1202203E07A69B2FA82F2AD
:102C2000D2B2D340DBB20133DAB2484B1A70454B13
:102C30001B699BB2C3F30E039BB201339AB2444BA0
:102C40001A80434B1B88013B404A127802FB03F376
:102C5000A3F5A0733C4A1278D340BB61BB694FF621
:102C6000FE72934204D93B4B4FF6FF721A8003E089
:102C7000BB699AB2374B1A804FF40020FFF79CFBD8
:102C80004FF40020FFF784FBFB79002B3DD1324B42
:102C900001221A70314B4FF0FF321A600023FB778C
:102CA0000CE0FA7F2E4913465B001344DB000B4413
:102CB0000C3300221A70FB7F0133FB77FB7F052B5F
:102CC000EFD9284B06221A701D4B1B689A681C4BC3
:102CD0001B6822F480629A60194B1B68DB68DAB2C9
:102CE000174B1B6862F49062DA601F4B4FF40022AE
:102CF000DA60032008F05BFB114B1B689A68104BED
:102D00001B6842F480429A6009E00D4B1B68DB6847
:102D100003F48063002B02D0032008F03AFB084B39
:102D20001B68FF225A6200220321032008F0EFFAF9
:102D3000032008F006FB00BF2037BD4680BD00BF62
:102D40006806002000280040190400201A04002012
:102D50001C0400201E04002018040020140400207D
:102D600080030020100400200008005880B48BB0BD
:102D700000AFF860B9603B601346FB71002387F831
:102D80002630EFF31083FB61FB693B6272B600BF34
:102D900004E097F82630013387F8263097F826307C
:102DA000052B0CD897F826202C4913465B001344BA
:102DB000DB000B440C331B78DBB2002BE9D197F816
:102DC0002630062B38D097F82620244913465B007E
:102DD0001344DB000B440C3301221A703B6ABB61C5
:102DE000BB6983F3108800BF97F826201B49134660
:102DF0005B001344DB000B441033FA681A6097F849
:102E00002620164913465B001344DB000B440D33A8
:102E1000FA791A7097F82620104913465B0013447C
:102E2000DB000B443A681A60BB6897F826201A70DA
:102E3000002387F8273008E03B6A7B617B6983F3D6
:102E4000108800BF012387F8273097F827301846ED
:102E50002C37BD465DF8047B704700BF800300201F
:102E600080B586B000AF0346FB71EFF31083FB60C3
:102E7000FB687B6172B600BF032008F070FA344B28
:102E80001B68CA225A62324B1B6853225A62FA7973
:102E9000304913465B001344DB000B440C331B78B2
:102EA000DBB2022B42D1FB7900211846FFF706FC6A
:102EB000294B1B78FB74FB7C062B2FD1274B9B687F
:102EC00003F48063B3F5806F07D100BF204B1B680C
:102ED000DB6803F00403002BF8D11D4B1B689A68D4
:102EE0001B4B1B6822F480629A6000BF184B1B6862
:102EF000DB6803F00403002BF8D0154B1B68DB687C
:102F0000DAB2134B1B6862F49062DA60144B4FF430
:102F10000022DA60032008F04AFA07E0114B1B7820
:102F2000DBB2FA7C9A4201D0FFF7E4FC084B1B6845
:102F3000FF225A62032008F004FA7B69BB60BB6879
:102F400083F3108800BF00BF1837BD4680BD00BFA7
:102F500068060020800300201004002000280040A4
:102F6000000800581104002080B586B000AF034669
:102F70003960FB71FA793B4913465B001344DB006F
:102F80000B440C331B78DBB2022B03D1FB791846C0
:102F9000FFF766FFEFF31083FB60FB687B6172B69F
:102FA00000BF032008F0DBF92F4B1B68CA225A62CE
:102FB0002D4B1B6853225A62FA792A4913465B004B
:102FC0001344DB000B440C3302221A70FA792549B2
:102FD00013465B001344DB000B4408333A681A6065
:102FE000FA79204913465B001344DB000B44043399
:102FF0003A681A60FB791846FFF7B6FA03467B82F7
:103000001A4B1B787B741A4B1B78DBB27A7C9A4282
:1030100002D0FFF76FFC13E0FA79124913465B0008
:103020001344DB000B44083319687B8AFA79C91A08
:103030000C4813465B001344DB000344083319605B
:10304000094B1B68FF225A62032008F07AF97B695A
:10305000BB60BB6883F3108800BF00BF1837BD4654
:1030600080BD00BF800300206806002010040020FF
:103070001104002080B584B000AFF8600B467A6080
:10308000FB727B68984700BF1037BD4680BD0000CB
:1030900080B584B000AFB9607B600346FB73134614
:1030A000BB81FB7B002B02D0022B0DD019E00F4A15
:1030B0007B6813600E4B0F4A1A60BB891A46B968C9
:1030C0000B480BF037F80CE00B4A7B6813600B4B96
:1030D0000B4A1A60BB891A46B96808480BF02AF8EF
:1030E00000BF00BF1037BD4680BD00BF20040020D8
:1030F0000005002000380140280400206C04002056
:103100000080004080B586B000AFB9607B600346A8
:10311000FB731346BB810023FB750023BB75FB7B50
:10312000002B02D0022B0FD01DE01F4A7B681360DA
:103130001E4B1F4A1A60BB891A46B9681B480BF020
:1031400045F80346FB750EE01A4A7B6813601A4B7C
:103150001A4A1A60BB891A46B96817480BF036F844
:103160000346FB7500BFFB7D032B17D801A252F865
:1031700023F000BF853100088B3100089131000831
:10318000973100080023BB7509E00123BB7506E0F9
:103190000223BB7503E00323BB7500E000BFBB7DCA
:1031A00018461837BD4680BD2404002000050020C5
:1031B000003801402C0400206C04002000800040F6
:1031C00080B582B000AF78607B681B680F4A93427D
:1031D0000AD00F4A93420FD10E4B1B68002B0DD023
:1031E0000C4B1B68984709E00B4B1B68002B07D062
:1031F000094B1B68984703E000BF02E000BF00E0F6
:1032000000BF00BF0837BD4680BD00BF0080004042
:1032100000380140200400202804002080B582B03E
:1032200000AF78607B681B680F4A93420AD00F4A50
:1032300093420FD10E4B1B68002B0DD00C4B1B681B
:10324000984709E00B4B1B68002B07D0094B1B6804
:10325000984703E000BF02E000BF00E000BF00BFEE
:103260000837BD4680BD00BF0080004000380140E7
:10327000240400202C04002080B483B000AF7860C8
:103280004FF0B043D3F8903023F018024FF0B04124
:103290007B681343C1F8903000BF0C37BD465DF822
:1032A000047B704780B485B000AF78604FF0B043C6
:1032B0009A6C4FF0B0417B6813438B644FF0B0437E
:1032C0009A6C7B681340FB60FB6800BF1437BD46F7
:1032D0005DF8047B704780B485B000AF78604FF034
:1032E000B043DA6C4FF0B0417B681343CB644FF0CE
:1032F000B043DA6C7B681340FB60FB6800BF143797
:10330000BD465DF8047B704780B500AF07F026FE30
:10331000FEF728F900F01AF800F076F800F094F8BB
:1033200000F0AFF900F090F900F05AF900F042F91E
:1033300000F038F900F09CF810F0D6F8FDF7A7FE81
:10334000FEF71EF9FEF75DFBFCE7000080B59AB0C2
:1033500000AF07F1200348220021184611F01AFBA4
:103360003B1D00221A605A609A60DA601A615A6145
:103370009A6108F009FE0020FFF77EFF214B1B68D1
:1033800023F4C0631F4A43F4007313601D4B1B6892
:1033900003F4C0633B603B6847233B624FF48033D8
:1033A0007B620123BB624FF48073FB620123BB6429
:1033B00040233B630023FB6407F12003184609F018
:1033C00077F90346002B01D000F068F96F237B608A
:1033D0000223BB600023FB6000233B6100237B6171
:1033E0000023BB610023FB613B1D0121184609F04E
:1033F000D3FC0346002B01D000F050F900BF683722
:10340000BD4680BD0004005880B594B000AF3B4677
:1034100050220021184611F0BDFA4FF440533B6092
:103420004FF480437B640223BB641023FB643B4660
:1034300018460AF0EEF80346002B01D000F02EF9F2
:1034400000BF5037BD4680BD80B500AF064B074A70
:103450001A60054808F012FD0346002B01D000F069
:103460001DF900BF80BD00BF30040020000C0058D3
:1034700080B500AF224B234A1A60214B4FF4E13252
:103480005A601F4B00229A601D4B0022DA601C4BD1
:1034900000221A611A4B0C225A61194B00229A61C0
:1034A000174B00221A62164B00225A62144B00225C
:1034B0009A62134B00225A6611480AF0EBFD03464C
:1034C000002B01D000F0EAF800210D480CF04BFE73
:1034D0000346002B01D000F0E1F8002108480CF071
:1034E00080FE0346002B01D000F0D8F804480CF011
:1034F00001FE0346002B01D000F0D0F800BF80BDD4
:103500006C0400200080004080B500AF234B244AAB
:103510001A60224B4FF4E1325A60204B00229A602D
:103520001E4B0022DA601D4B00221A611B4B0C223D
:103530005A611A4B00229A61184B4FF40042DA612B
:10354000164B00221A62154B00225A62134B0022BE
:103550009A6212480AF09EFD0346002B01D000F04B
:103560009DF800210D480CF0FEFD0346002B01D014
:1035700000F094F8002109480CF033FE0346002BBC
:1035800001D000F08BF805480CF0B4FD0346002B89
:1035900001D000F083F800BF80BD00BF000500200F
:1035A0000038014080B400AF00BFBD465DF8047B29
:1035B0007047000080B500AF074B084A1A60064B01
:1035C00000225A6004480AF0ABFA0346002B01D0EF
:1035D00000F064F800BF80BD5406002000100058C1
:1035E00080B500AF164B174A1A60154B00225A607F
:1035F000134B0F229A60124B47F6FF72DA60104BA2
:1036000000221A610E4B00229A610D4B0022DA61F2
:103610000B4B00225A610A480AF00DFB0346002BAF
:1036200001D000F03BF80022002105480AF010FC10
:103630000346002B01D000F031F800BF80BD00BF71
:10364000680600200028004080B500AF0420FFF786
:1036500029FE0120FFF726FE0220FFF723FE0022AD
:103660000F210E2007F053FE0E2007F06AFE002205
:103670000F213A2007F04BFE3A2007F062FE00BF10
:1036800080BD80B500AF0420FFF725FE0120FFF7C5
:1036900022FE0220FFF71FFE00BF80BD80B400AFF6
:1036A00000BFBD465DF8047B7047000080B5C2B026
:1036B00006AFF860B9607A603B60FB6803F50C7395
:1036C000C7F8EC3007F1A0034C220021184611F096
:1036D00061F9FB68C7F8A03007F11403B968184610
:1036E00005F0A3FC07F11403C7F8A8300221D7F8AE
:1036F000F800FDF7F7FB07F1A0032C330121184672
:10370000FDF7F0FB07F1A0030C3339681846FDF70D
:10371000F9FB07F1A0032C3339681846FDF7F2FBDB
:10372000D7F8FC30C7F8A43007F1A0030493D7F80A
:10373000F8300393084B029309230193002300936D
:10374000D7F8FC307A68D7F8EC10B86805F042FB7F
:1037500000BFF037BD4680BD5390000890B5ADF571
:10376000457D02AF07F54273A3F54173186007F575
:103770004273A3F54273196007F54273A3F53873DA
:10378000184620231A46002111F004F907F5427368
:10379000A3F54073184620231A46002111F0FAF8C9
:1037A00007F1280306211846FDF77CFB07F1080303
:1037B00006211846FDF776FB07F1080407F542736A
:1037C000A3F5427207F54273A3F5417107F1480072
:1037D0004FF0FF33019307F128030093234612684B
:1037E0000968FFF763FF00BF07F54377BD4690BD4B
:1037F00080B586B000AF786039602CE007F10C032B
:10380000194619480AF0C1F90346002B02D04FF0BF
:10381000FF3324E03B68042B28BF04233B610023D3
:103820007B610CE0FA687B69DB0022FA03F17A68BD
:103830007B691344CAB21A707B6901337B617A6970
:103840003B699A42EED37A683B6913447B603A68DD
:103850003B69D31A3B603B68002BCFD1002318464D
:103860001837BD4680BD00BF5406002080B483B029
:1038700000AF78607B6803331B781A467B6802339D
:103880001B781B021A437B6801331B781B041A4305
:103890007B681B781B06134318460C37BD465DF842
:1038A000047B70472DE9B00F9DB000AFF866FB6E4A
:1038B00007331B78DBB200223B667A66FB6E063369
:1038C0001B78DBB200221C4615464FF000024FF079
:1038D00000032B0243EA14632202D7E9184521466C
:1038E0001143B96529461943F965FB6E05331B7809
:1038F000DBB20022984691464FF000024FF00003E1
:103900004FEA094343EA18434FEA0842D7E916450C
:10391000214611433965294619437965FB6E043305
:103920001B78DBB20022BB64FA64D7E912120B46A3
:103930004FEA132B0B464FEA036AD7E914120B46E2
:1039400043EA0A033B64134643EA0B037B64FB6EC2
:1039500003331B78DBB20022BB63FA634FF0000233
:103960004FF00003B96B0B000022D7E91045214648
:1039700011433963294619437963FB6E02331B787F
:10398000DBB20022BB62FA624FF000024FF000038C
:10399000B96A0B020022D7E90C452146114339626E
:1039A000294619437962FB6E01331B78DBB2002292
:1039B000BB61FA614FF000024FF00003B9690B04DC
:1039C0000022D7E9084521461143396129461943A8
:1039D0007961FB6E1B78DBB20022BB60FA604FF0AE
:1039E00000024FF00003B9680B060022D7E9044536
:1039F000214611433960294619437960D7E90023EC
:103A0000104619467437BD46BDE8B00F704780B404
:103A100085B000AFF860C7E90023FB6803333A784C
:103A20001A70D7E900014FF000024FF00003020ABC
:103A300042EA01620B0AC7E90023FB6802333A78C5
:103A40001A70D7E900014FF000024FF00003020A9C
:103A500042EA01620B0AC7E90023FB6801333A78A6
:103A60001A70D7E900014FF000024FF00003020A7C
:103A700042EA01620B0AC7E900233A78FB681A7030
:103A800000BF1437BD465DF8047B704780B485B035
:103A900000AFF860C7E90023FB6807333A781A7073
:103AA000D7E900014FF000024FF00003020A42EA9A
:103AB00001620B0AC7E90023FB6806333A781A70E3
:103AC000D7E900014FF000024FF00003020A42EA7A
:103AD00001620B0AC7E90023FB6805333A781A70C4
:103AE000D7E900014FF000024FF00003020A42EA5A
:103AF00001620B0AC7E90023FB6804333A781A70A5
:103B0000D7E900014FF000024FF00003020A42EA39
:103B100001620B0AC7E90023FB6803333A781A7085
:103B2000D7E900014FF000024FF00003020A42EA19
:103B300001620B0AC7E90023FB6802333A781A7066
:103B4000D7E900014FF000024FF00003020A42EAF9
:103B500001620B0AC7E90023FB6801333A781A7047
:103B6000D7E900014FF000024FF00003020A42EAD9
:103B700001620B0AC7E900233A78FB681A7000BF9C
:103B80001437BD465DF8047B704700002DE9B04F47
:103B9000B0B000AF78633963FA62786BFFF766FE06
:103BA000C7F8BC00D7F8BC30BB637B6B0433184646
:103BB000FFF75CFEC7F8B800D7F8B830FB637B6B43
:103BC00008331846FFF752FEC7F8B400D7F8B430F0
:103BD0003B647B6B0C331846FFF748FEC7F8B00018
:103BE000D7F8B0307B647B6B10331846FFF73EFE8E
:103BF000C7F8AC00D7F8AC30BB647B6B1433184605
:103C0000FFF734FEC7F8A800D7F8A830FB647B6B39
:103C100018331846FFF72AFEC7F8A400D7F8A430D7
:103C20003B657B6B1C331846FFF720FEC7F8A000EE
:103C3000D7F8A0307B6504F0E1B8386BFFF716FECB
:103C4000C7F89C003B6B04331846FFF70FFEC7F81C
:103C500098003B6B08331846FFF708FEC7F894003E
:103C60003B6B0C331846FFF701FEC7F890003B6B27
:103C700010331846FFF7FAFDC7F88C003B6B14337E
:103C80001846FFF7F3FDC7F888003B6B183318465A
:103C9000FFF7ECFDC7F884003B6B1C331846FFF7B9
:103CA000E5FDC7F880003B6B20331846FFF7DEFDCB
:103CB000F8673B6B24331846FFF7D8FDB8673B6BBA
:103CC00028331846FFF7D2FD78673B6B2C33184634
:103CD000FFF7CCFD38673B6B30331846FFF7C6FD66
:103CE000F8663B6B34331846FFF7C0FDB8663B6B94
:103CF00038331846FFF7BAFD78663B6B3C331846FD
:103D0000FFF7B4FD3866D7F8AC304FEAB312D7F8F6
:103D1000AC304FEAF3235A40D7F8AC304FEA736324
:103D20005A40D7F8A030D018D7F8AC20D7F8A83030
:103D300002EA0301D7F8AC30DA43D7F8A4301340D5
:103D40004B40C218D7F89C301A44F04B1344FB6523
:103D5000D7F8BC304FEAB302D7F8BC304FEA733320
:103D60005A40D7F8BC304FEAB35382EA0300D7F881
:103D7000B820D7F8B4305A40D7F8BC3002EA030173
:103D8000D7F8B820D7F8B43013404B400344BB6594
:103D9000D7F8A430C7F8A030D7F8A830C7F8A430B7
:103DA000D7F8AC30C7F8A830D7F8B020FB6D134473
:103DB000C7F8AC30D7F8B430C7F8B030D7F8B8305F
:103DC000C7F8B430D7F8BC30C7F8B830FA6DBB6D5F
:103DD0001344C7F8BC30D7F8AC304FEAB312D7F869
:103DE000AC304FEAF3235A40D7F8AC304FEA736354
:103DF0005A40D7F8A030D018D7F8AC20D7F8A83060
:103E000002EA0301D7F8AC30DA43D7F8A430134004
:103E10004B40C218D7F898301A44BD4B1344FB6589
:103E2000D7F8BC304FEAB302D7F8BC304FEA73334F
:103E30005A40D7F8BC304FEAB35382EA0300D7F8B0
:103E4000B820D7F8B4305A40D7F8BC3002EA0301A2
:103E5000D7F8B820D7F8B43013404B400344BB65C3
:103E6000D7F8A430C7F8A030D7F8A830C7F8A430E6
:103E7000D7F8AC30C7F8A830D7F8B020FB6D1344A2
:103E8000C7F8AC30D7F8B430C7F8B030D7F8B8308E
:103E9000C7F8B430D7F8BC30C7F8B830FA6DBB6D8E
:103EA0001344C7F8BC30D7F8AC304FEAB312D7F898
:103EB000AC304FEAF3235A40D7F8AC304FEA736383
:103EC0005A40D7F8A030D018D7F8AC20D7F8A8308F
:103ED00002EA0301D7F8AC30DA43D7F8A430134034
:103EE0004B40C218D7F894301A448A4B1344FB65F0
:103EF000D7F8BC304FEAB302D7F8BC304FEA73337F
:103F00005A40D7F8BC304FEAB35382EA0300D7F8DF
:103F1000B820D7F8B4305A40D7F8BC3002EA0301D1
:103F2000D7F8B820D7F8B43013404B400344BB65F2
:103F3000D7F8A430C7F8A030D7F8A830C7F8A43015
:103F4000D7F8AC30C7F8A830D7F8B020FB6D1344D1
:103F5000C7F8AC30D7F8B430C7F8B030D7F8B830BD
:103F6000C7F8B430D7F8BC30C7F8B830FA6DBB6DBD
:103F70001344C7F8BC30D7F8AC304FEAB312D7F8C7
:103F8000AC304FEAF3235A40D7F8AC304FEA7363B2
:103F90005A40D7F8A030D018D7F8AC20D7F8A830BE
:103FA00002EA0301D7F8AC30DA43D7F8A430134063
:103FB0004B40C218D7F890301A44574B1344FB6556
:103FC000D7F8BC304FEAB302D7F8BC304FEA7333AE
:103FD0005A40D7F8BC304FEAB35382EA0300D7F80F
:103FE000B820D7F8B4305A40D7F8BC3002EA030101
:103FF000D7F8B820D7F8B43013404B400344BB6522
:10400000D7F8A430C7F8A030D7F8A830C7F8A43044
:10401000D7F8AC30C7F8A830D7F8B020FB6D134400
:10402000C7F8AC30D7F8B430C7F8B030D7F8B830EC
:10403000C7F8B430D7F8BC30C7F8B830FA6DBB6DEC
:104040001344C7F8BC30D7F8AC304FEAB312D7F8F6
:10405000AC304FEAF3235A40D7F8AC304FEA7363E1
:104060005A40D7F8A030D018D7F8AC20D7F8A830ED
:1040700002EA0301D7F8AC30DA43D7F8A430134092
:104080004B40C218D7F88C301A44244B1344FB65BC
:10409000D7F8BC304FEAB302D7F8BC304FEA7333DD
:1040A0005A40D7F8BC304FEAB35382EA0300D7F83E
:1040B000B820D7F8B4305A40D7F8BC3002EA030130
:1040C000D7F8B820D7F8B43013404B400344BB6551
:1040D000D7F8A430C7F8A030D7F8A830C7F8A43074
:1040E000D7F8AC30C7F8A830D7F8B020FB6D134430
:1040F000C7F8AC30D7F8B430C7F8B030D7F8B8301C
:10410000C7F8B430D7F8BC300AE000BF982F8A4215
:1041100091443771CFFBC0B5A5DBB5E95BC2563919
:10412000C7F8B830FA6DBB6D1344C7F8BC30D7F888
:10413000AC304FEAB312D7F8AC304FEAF3235A4011
:10414000D7F8AC304FEA73635A40D7F8A030D01894
:10415000D7F8AC20D7F8A83002EA0301D7F8AC3082
:10416000DA43D7F8A43013404B40C218D7F8883050
:104170001A44EF4B1344FB65D7F8BC304FEAB30247
:10418000D7F8BC304FEA73335A40D7F8BC304FEA07
:10419000B35382EA0300D7F8B820D7F8B4305A40B6
:1041A000D7F8BC3002EA0301D7F8B820D7F8B4300A
:1041B00013404B400344BB65D7F8A430C7F8A03088
:1041C000D7F8A830C7F8A430D7F8AC30C7F8A83073
:1041D000D7F8B020FB6D1344C7F8AC30D7F8B43033
:1041E000C7F8B030D7F8B830C7F8B430D7F8BC301B
:1041F000C7F8B830FA6DBB6D1344C7F8BC30D7F8B8
:10420000AC304FEAB312D7F8AC304FEAF3235A4040
:10421000D7F8AC304FEA73635A40D7F8A030D018C3
:10422000D7F8AC20D7F8A83002EA0301D7F8AC30B1
:10423000DA43D7F8A43013404B40C218D7F8843083
:104240001A44BC4B1344FB65D7F8BC304FEAB302A9
:10425000D7F8BC304FEA73335A40D7F8BC304FEA36
:10426000B35382EA0300D7F8B820D7F8B4305A40E5
:10427000D7F8BC3002EA0301D7F8B820D7F8B43039
:1042800013404B400344BB65D7F8A430C7F8A030B7
:10429000D7F8A830C7F8A430D7F8AC30C7F8A830A2
:1042A000D7F8B020FB6D1344C7F8AC30D7F8B43062
:1042B000C7F8B030D7F8B830C7F8B430D7F8BC304A
:1042C000C7F8B830FA6DBB6D1344C7F8BC30D7F8E7
:1042D000AC304FEAB312D7F8AC304FEAF3235A4070
:1042E000D7F8AC304FEA73635A40D7F8A030D018F3
:1042F000D7F8AC20D7F8A83002EA0301D7F8AC30E1
:10430000DA43D7F8A43013404B40C218D7F88030B6
:104310001A44894B1344FB65D7F8BC304FEAB3020B
:10432000D7F8BC304FEA73335A40D7F8BC304FEA65
:10433000B35382EA0300D7F8B820D7F8B4305A4014
:10434000D7F8BC3002EA0301D7F8B820D7F8B43068
:1043500013404B400344BB65D7F8A430C7F8A030E6
:10436000D7F8A830C7F8A430D7F8AC30C7F8A830D1
:10437000D7F8B020FB6D1344C7F8AC30D7F8B43091
:10438000C7F8B030D7F8B830C7F8B430D7F8BC3079
:10439000C7F8B830FA6DBB6D1344C7F8BC30D7F816
:1043A000AC304FEAB312D7F8AC304FEAF3235A409F
:1043B000D7F8AC304FEA73635A40D7F8A030D01822
:1043C000D7F8AC20D7F8A83002EA0301D7F8AC3010
:1043D000DA43D7F8A43013404B40C218FB6F1A449D
:1043E000564B1344FB65D7F8BC304FEAB302D7F8FD
:1043F000BC304FEA73335A40D7F8BC304FEAB3535E
:1044000082EA0300D7F8B820D7F8B4305A40D7F87A
:10441000BC3002EA0301D7F8B820D7F8B430134013
:104420004B400344BB65D7F8A430C7F8A030D7F899
:10443000A830C7F8A430D7F8AC30C7F8A830D7F800
:10444000B020FB6D1344C7F8AC30D7F8B430C7F8D0
:10445000B030D7F8B830C7F8B430D7F8BC30C7F8A8
:10446000B830FA6DBB6D1344C7F8BC30D7F8AC3028
:104470004FEAB312D7F8AC304FEAF3235A40D7F8DB
:10448000AC304FEA73635A40D7F8A030D018D7F851
:10449000AC20D7F8A83002EA0301D7F8AC30DA43F1
:1044A000D7F8A43013404B40C218BB6F1A44244BBA
:1044B0001344FB65D7F8BC304FEAB302D7F8BC30E1
:1044C0004FEA73335A40D7F8BC304FEAB35382EA0D
:1044D0000300D7F8B820D7F8B4305A40D7F8BC302A
:1044E00002EA0301D7F8B820D7F8B43013404B40A4
:1044F0000344BB65D7F8A430C7F8A030D7F8A8307C
:10450000C7F8A430D7F8AC30C7F8A830D7F8B02037
:10451000FB6D1344C7F8AC30D7F8B430C7F8B030EF
:10452000D7F8B830C7F8B430D7F8BC300AE000BFCD
:10453000F111F159A4823F92D55E1CAB98AA07D81D
:10454000015B8312C7F8B830FA6DBB6D1344C7F82E
:10455000BC30D7F8AC304FEAB312D7F8AC304FEAE2
:10456000F3235A40D7F8AC304FEA73635A40D7F878
:10457000A030D018D7F8AC20D7F8A83002EA030151
:10458000D7F8AC30DA43D7F8A43013404B40C21808
:104590007B6F1A44ED4B1344FB65D7F8BC304FEAF0
:1045A000B302D7F8BC304FEA73335A40D7F8BC3067
:1045B0004FEAB35382EA0300D7F8B820D7F8B430F3
:1045C0005A40D7F8BC3002EA0301D7F8B820D7F830
:1045D000B43013404B400344BB65D7F8A430C7F850
:1045E000A030D7F8A830C7F8A430D7F8AC30C7F857
:1045F000A830D7F8B020FB6D1344C7F8AC30D7F81B
:10460000B430C7F8B030D7F8B830C7F8B430D7F8FE
:10461000BC30C7F8B830FA6DBB6D1344C7F8BC3076
:10462000D7F8AC304FEAB312D7F8AC304FEAF323E7
:104630005A40D7F8AC304FEA73635A40D7F8A030ED
:10464000D018D7F8AC20D7F8A83002EA0301D7F881
:10465000AC30DA43D7F8A43013404B40C2183B6F5C
:104660001A44BB4B1344FB65D7F8BC304FEAB30286
:10467000D7F8BC304FEA73335A40D7F8BC304FEA12
:10468000B35382EA0300D7F8B820D7F8B4305A40C1
:10469000D7F8BC3002EA0301D7F8B820D7F8B43015
:1046A00013404B400344BB65D7F8A430C7F8A03093
:1046B000D7F8A830C7F8A430D7F8AC30C7F8A8307E
:1046C000D7F8B020FB6D1344C7F8AC30D7F8B4303E
:1046D000C7F8B030D7F8B830C7F8B430D7F8BC3026
:1046E000C7F8B830FA6DBB6D1344C7F8BC30D7F8C3
:1046F000AC304FEAB312D7F8AC304FEAF3235A404C
:10470000D7F8AC304FEA73635A40D7F8A030D018CE
:10471000D7F8AC20D7F8A83002EA0301D7F8AC30BC
:10472000DA43D7F8A43013404B40C218FB6E1A444A
:10473000884B1344FB65D7F8BC304FEAB302D7F877
:10474000BC304FEA73335A40D7F8BC304FEAB3530A
:1047500082EA0300D7F8B820D7F8B4305A40D7F827
:10476000BC3002EA0301D7F8B820D7F8B4301340C0
:104770004B400344BB65D7F8A430C7F8A030D7F846
:10478000A830C7F8A430D7F8AC30C7F8A830D7F8AD
:10479000B020FB6D1344C7F8AC30D7F8B430C7F87D
:1047A000B030D7F8B830C7F8B430D7F8BC30C7F855
:1047B000B830FA6DBB6D1344C7F8BC30D7F8AC30D5
:1047C0004FEAB312D7F8AC304FEAF3235A40D7F888
:1047D000AC304FEA73635A40D7F8A030D018D7F8FE
:1047E000AC20D7F8A83002EA0301D7F8AC30DA439E
:1047F000D7F8A43013404B40C218BB6E1A44564B36
:104800001344FB65D7F8BC304FEAB302D7F8BC308D
:104810004FEA73335A40D7F8BC304FEAB35382EAB9
:104820000300D7F8B820D7F8B4305A40D7F8BC30D6
:1048300002EA0301D7F8B820D7F8B43013404B4050
:104840000344BB65D7F8A430C7F8A030D7F8A83028
:10485000C7F8A430D7F8AC30C7F8A830D7F8B020E4
:10486000FB6D1344C7F8AC30D7F8B430C7F8B0309C
:10487000D7F8B830C7F8B430D7F8BC30C7F8B8307C
:10488000FA6DBB6D1344C7F8BC30D7F8AC304FEAB3
:10489000B312D7F8AC304FEAF3235A40D7F8AC3014
:1048A0004FEA73635A40D7F8A030D018D7F8AC203D
:1048B000D7F8A83002EA0301D7F8AC30DA43D7F8CA
:1048C000A43013404B40C2187B6E1A44234B134450
:1048D000FB65D7F8BC304FEAB302D7F8BC304FEADB
:1048E00073335A40D7F8BC304FEAB35382EA03001F
:1048F000D7F8B820D7F8B4305A40D7F8BC3002EA1D
:104900000301D7F8B820D7F8B43013404B40034424
:10491000BB65D7F8A430C7F8A030D7F8A830C7F8DF
:10492000A430D7F8AC30C7F8A830D7F8B020FB6D6A
:104930001344C7F8AC30D7F8B430C7F8B030D7F864
:10494000B830C7F8B430D7F8BC3009E0BE853124A0
:10495000C37D0C55745DBE72FEB1DE80A706DC9B84
:10496000C7F8B830FA6DBB6D1344C7F8BC30D7F840
:10497000AC304FEAB312D7F8AC304FEAF3235A40C9
:10498000D7F8AC304FEA73635A40D7F8A030D0184C
:10499000D7F8AC20D7F8A83002EA0301D7F8AC303A
:1049A000DA43D7F8A43013404B40C2183B6E1A4488
:1049B000E44B1344FB65D7F8BC304FEAB302D7F899
:1049C000BC304FEA73335A40D7F8BC304FEAB35388
:1049D00082EA0300D7F8B820D7F8B4305A40D7F8A5
:1049E000BC3002EA0301D7F8B820D7F8B43013403E
:1049F0004B400344BB65D7F8A430C7F8A030D7F8C4
:104A0000A830C7F8A430D7F8AC30C7F8A830D7F82A
:104A1000B020FB6D1344C7F8AC30D7F8B430C7F8FA
:104A2000B030D7F8B830C7F8B430D7F8BC30C7F8D2
:104A3000B830FA6DBB6D1344C7F8BC307B6E4FEADB
:104A400073427B6E4FEAF3435A407B6E9B0A5A4097
:104A5000BB6FD118D7F898304FEAF312D7F89830D7
:104A60004FEAB3435A40D7F89830DB085340CA188E
:104A7000D7F89C301344C7F89C303B6E4FEA734222
:104A80003B6E4FEAF3435A403B6E9B0A5A407B6FA2
:104A9000D118D7F894304FEAF312D7F894304FEA90
:104AA000B3435A40D7F89430DB085340CA18D7F8BC
:104AB00098301344C7F89830D7F89C304FEA7342C7
:104AC000D7F89C304FEAF3435A40D7F89C309B0A02
:104AD0005A403B6FD118D7F890304FEAF312D7F80D
:104AE00090304FEAB3435A40D7F89030DB08534038
:104AF000CA18D7F894301344C7F89430D7F89830D0
:104B00004FEA7342D7F898304FEAF3435A40D7F848
:104B100098309B0A5A40FB6ED118D7F88C304FEA78
:104B2000F312D7F88C304FEAB3435A40D7F88C30A1
:104B3000DB085340CA18D7F890301344C7F89030B8
:104B4000D7F894304FEA7342D7F894304FEAF343E2
:104B50005A40D7F894309B0A5A40BB6ED118D7F808
:104B600088304FEAF312D7F888304FEAB3435A40FF
:104B7000D7F88830DB085340CA18D7F88C30134474
:104B8000C7F88C30D7F890304FEA7342D7F890309E
:104B90004FEAF3435A40D7F890309B0A5A407B6E55
:104BA000D118D7F884304FEAF312D7F884304FEA9F
:104BB000B3435A40D7F88430DB085340CA18D7F8BB
:104BC00088301344C7F88830D7F88C304FEA7342E6
:104BD000D7F88C304FEAF3435A40D7F88C309B0A11
:104BE0005A403B6ED118D7F880304FEAF312D7F80D
:104BF00080304FEAB3435A40D7F88030DB08534047
:104C0000CA18D7F884301344C7F88430D7F88830EE
:104C10004FEA7342D7F888304FEAF3435A40D7F847
:104C200088309B0A5A40D7F89C30D118FB6F4FEA66
:104C3000F312FB6F4FEAB3435A40FB6FDB0853405C
:104C4000CA18D7F880301344C7F88030D7F88430BA
:104C50004FEA7342D7F884304FEAF3435A40D7F80B
:104C600084309B0A5A40D7F89830D118BB6F4FEA6E
:104C7000F312BB6F4FEAB3435A40BB6FDB0853409C
:104C8000CA18FB6F1344FB67D7F880304FEA7342B2
:104C9000D7F880304FEAF3435A40D7F880309B0A68
:104CA0005A40D7F89430D1187B6F4FEAF3127B6FDC
:104CB0004FEAB3435A407B6FDB085340CA18BB6FBF
:104CC0001344BB67FB6F4FEA7342FB6F4FEAF3433A
:104CD0005A40FB6F9B0A5A40D7F89030D1183B6F6F
:104CE0004FEAF3123B6F4FEAB3435A403B6FDB0886
:104CF0005340CA187B6F13447B67BB6F4FEA734204
:104D0000BB6F4FEAF3435A40BB6F9B0A5A40D7F838
:104D10008C30D118FB6E4FEAF312FB6E4FEAB343AF
:104D20005A40FB6EDB085340CA183B6F13443B6785
:104D30007B6F4FEA73427B6F4FEAF3435A407B6FBE
:104D40009B0A01E074F19BC15A40D7F88830D11812
:104D5000BB6E4FEAF312BB6E4FEAB3435A40BB6ED1
:104D6000DB085340CA18FB6E1344FB663B6F4FEAE7
:104D700073423B6F4FEAF3435A403B6F9B0A5A40E2
:104D8000D7F88430D1187B6E4FEAF3127B6E4FEA6E
:104D9000B3435A407B6EDB085340CA18BB6E1344C2
:104DA000BB66FB6E4FEA7342FB6E4FEAF3435A4019
:104DB000FB6E9B0A5A40D7F88030D1183B6E4FEA01
:104DC000F3123B6E4FEAB3435A403B6EDB0853404D
:104DD000CA187B6E13447B66BB6E4FEA7342BB6E90
:104DE0004FEAF3435A40BB6E9B0A5A40FB6FD118FF
:104DF000D7F89C304FEAF312D7F89C304FEAB34310
:104E00005A40D7F89C30DB085340CA183B6E134415
:104E10003B66D7F8AC304FEAB312D7F8AC304FEA64
:104E2000F3235A40D7F8AC304FEA73635A40D7F8AF
:104E3000A030D018D7F8AC20D7F8A83002EA030188
:104E4000D7F8AC30DA43D7F8A43013404B40C2183F
:104E5000D7F89C301A44F04B1344FB65D7F8BC30AC
:104E60004FEAB302D7F8BC304FEA73335A40D7F851
:104E7000BC304FEAB35382EA0300D7F8B820D7F822
:104E8000B4305A40D7F8BC3002EA0301D7F8B82052
:104E9000D7F8B43013404B400344BB65D7F8A43077
:104EA000C7F8A030D7F8A830C7F8A430D7F8AC308E
:104EB000C7F8A830D7F8B020FB6D1344C7F8AC3062
:104EC000D7F8B430C7F8B030D7F8B830C7F8B43036
:104ED000D7F8BC30C7F8B830FA6DBB6D1344C7F8CB
:104EE000BC30D7F8AC304FEAB312D7F8AC304FEA49
:104EF000F3235A40D7F8AC304FEA73635A40D7F8DF
:104F0000A030D018D7F8AC20D7F8A83002EA0301B7
:104F1000D7F8AC30DA43D7F8A43013404B40C2186E
:104F2000D7F898301A44BD4B1344FB65D7F8BC3012
:104F30004FEAB302D7F8BC304FEA73335A40D7F880
:104F4000BC304FEAB35382EA0300D7F8B820D7F851
:104F5000B4305A40D7F8BC3002EA0301D7F8B82081
:104F6000D7F8B43013404B400344BB65D7F8A430A6
:104F7000C7F8A030D7F8A830C7F8A430D7F8AC30BD
:104F8000C7F8A830D7F8B020FB6D1344C7F8AC3091
:104F9000D7F8B430C7F8B030D7F8B830C7F8B43065
:104FA000D7F8BC30C7F8B830FA6DBB6D1344C7F8FA
:104FB000BC30D7F8AC304FEAB312D7F8AC304FEA78
:104FC000F3235A40D7F8AC304FEA73635A40D7F80E
:104FD000A030D018D7F8AC20D7F8A83002EA0301E7
:104FE000D7F8AC30DA43D7F8A43013404B40C2189E
:104FF000D7F894301A448A4B1344FB65D7F8BC3079
:105000004FEAB302D7F8BC304FEA73335A40D7F8AF
:10501000BC304FEAB35382EA0300D7F8B820D7F880
:10502000B4305A40D7F8BC3002EA0301D7F8B820B0
:10503000D7F8B43013404B400344BB65D7F8A430D5
:10504000C7F8A030D7F8A830C7F8A430D7F8AC30EC
:10505000C7F8A830D7F8B020FB6D1344C7F8AC30C0
:10506000D7F8B430C7F8B030D7F8B830C7F8B43094
:10507000D7F8BC30C7F8B830FA6DBB6D1344C7F829
:10508000BC30D7F8AC304FEAB312D7F8AC304FEAA7
:10509000F3235A40D7F8AC304FEA73635A40D7F83D
:1050A000A030D018D7F8AC20D7F8A83002EA030116
:1050B000D7F8AC30DA43D7F8A43013404B40C218CD
:1050C000D7F890301A44574B1344FB65D7F8BC30DF
:1050D0004FEAB302D7F8BC304FEA73335A40D7F8DF
:1050E000BC304FEAB35382EA0300D7F8B820D7F8B0
:1050F000B4305A40D7F8BC3002EA0301D7F8B820E0
:10510000D7F8B43013404B400344BB65D7F8A43004
:10511000C7F8A030D7F8A830C7F8A430D7F8AC301B
:10512000C7F8A830D7F8B020FB6D1344C7F8AC30EF
:10513000D7F8B430C7F8B030D7F8B830C7F8B430C3
:10514000D7F8BC30C7F8B830FA6DBB6D1344C7F858
:10515000BC30D7F8AC304FEAB312D7F8AC304FEAD6
:10516000F3235A40D7F8AC304FEA73635A40D7F86C
:10517000A030D018D7F8AC20D7F8A83002EA030145
:10518000D7F8AC30DA43D7F8A43013404B40C218FC
:10519000D7F88C301A44244B1344FB65D7F8BC3045
:1051A0004FEAB302D7F8BC304FEA73335A40D7F80E
:1051B000BC304FEAB35382EA0300D7F8B820D7F8DF
:1051C000B4305A40D7F8BC3002EA0301D7F8B8200F
:1051D000D7F8B43013404B400344BB65D7F8A43034
:1051E000C7F8A030D7F8A830C7F8A430D7F8AC304B
:1051F000C7F8A830D7F8B020FB6D1344C7F8AC301F
:10520000D7F8B430C7F8B030D7F8B830C7F8B430F2
:10521000D7F8BC300AE000BFC1699BE48647BEEF07
:10522000C69DC10FCCA10C246F2CE92DC7F8B83056
:10523000FA6DBB6D1344C7F8BC30D7F8AC304FEAF9
:10524000B312D7F8AC304FEAF3235A40D7F8AC305A
:105250004FEA73635A40D7F8A030D018D7F8AC2083
:10526000D7F8A83002EA0301D7F8AC30DA43D7F810
:10527000A43013404B40C218D7F888301A44EF4B83
:105280001344FB65D7F8BC304FEAB302D7F8BC3003
:105290004FEA73335A40D7F8BC304FEAB35382EA2F
:1052A0000300D7F8B820D7F8B4305A40D7F8BC304C
:1052B00002EA0301D7F8B820D7F8B43013404B40C6
:1052C0000344BB65D7F8A430C7F8A030D7F8A8309E
:1052D000C7F8A430D7F8AC30C7F8A830D7F8B0205A
:1052E000FB6D1344C7F8AC30D7F8B430C7F8B03012
:1052F000D7F8B830C7F8B430D7F8BC30C7F8B830F2
:10530000FA6DBB6D1344C7F8BC30D7F8AC304FEA28
:10531000B312D7F8AC304FEAF3235A40D7F8AC3089
:105320004FEA73635A40D7F8A030D018D7F8AC20B2
:10533000D7F8A83002EA0301D7F8AC30DA43D7F83F
:10534000A43013404B40C218D7F884301A44BC4BE9
:105350001344FB65D7F8BC304FEAB302D7F8BC3032
:105360004FEA73335A40D7F8BC304FEAB35382EA5E
:105370000300D7F8B820D7F8B4305A40D7F8BC307B
:1053800002EA0301D7F8B820D7F8B43013404B40F5
:105390000344BB65D7F8A430C7F8A030D7F8A830CD
:1053A000C7F8A430D7F8AC30C7F8A830D7F8B02089
:1053B000FB6D1344C7F8AC30D7F8B430C7F8B03041
:1053C000D7F8B830C7F8B430D7F8BC30C7F8B83021
:1053D000FA6DBB6D1344C7F8BC30D7F8AC304FEA58
:1053E000B312D7F8AC304FEAF3235A40D7F8AC30B9
:1053F0004FEA73635A40D7F8A030D018D7F8AC20E2
:10540000D7F8A83002EA0301D7F8AC30DA43D7F86E
:10541000A43013404B40C218D7F880301A44894B4F
:105420001344FB65D7F8BC304FEAB302D7F8BC3061
:105430004FEA73335A40D7F8BC304FEAB35382EA8D
:105440000300D7F8B820D7F8B4305A40D7F8BC30AA
:1054500002EA0301D7F8B820D7F8B43013404B4024
:105460000344BB65D7F8A430C7F8A030D7F8A830FC
:10547000C7F8A430D7F8AC30C7F8A830D7F8B020B8
:10548000FB6D1344C7F8AC30D7F8B430C7F8B03070
:10549000D7F8B830C7F8B430D7F8BC30C7F8B83050
:1054A000FA6DBB6D1344C7F8BC30D7F8AC304FEA87
:1054B000B312D7F8AC304FEAF3235A40D7F8AC30E8
:1054C0004FEA73635A40D7F8A030D018D7F8AC2011
:1054D000D7F8A83002EA0301D7F8AC30DA43D7F89E
:1054E000A43013404B40C218FB6F1A44564B134470
:1054F000FB65D7F8BC304FEAB302D7F8BC304FEAAF
:1055000073335A40D7F8BC304FEAB35382EA0300F2
:10551000D7F8B820D7F8B4305A40D7F8BC3002EAF0
:105520000301D7F8B820D7F8B43013404B400344F8
:10553000BB65D7F8A430C7F8A030D7F8A830C7F8B3
:10554000A430D7F8AC30C7F8A830D7F8B020FB6D3E
:105550001344C7F8AC30D7F8B430C7F8B030D7F838
:10556000B830C7F8B430D7F8BC30C7F8B830FA6DE7
:10557000BB6D1344C7F8BC30D7F8AC304FEAB31258
:10558000D7F8AC304FEAF3235A40D7F8AC304FEAA3
:1055900073635A40D7F8A030D018D7F8AC20D7F8AA
:1055A000A83002EA0301D7F8AC30DA43D7F8A430C8
:1055B00013404B40C218BB6F1A44244B1344FB6585
:1055C000D7F8BC304FEAB302D7F8BC304FEA733398
:1055D0005A40D7F8BC304FEAB35382EA0300D7F8F9
:1055E000B820D7F8B4305A40D7F8BC3002EA0301EB
:1055F000D7F8B820D7F8B43013404B400344BB650C
:10560000D7F8A430C7F8A030D7F8A830C7F8A4302E
:10561000D7F8AC30C7F8A830D7F8B020FB6D1344EA
:10562000C7F8AC30D7F8B430C7F8B030D7F8B830D6
:10563000C7F8B430D7F8BC300AE000BFAA84744A77
:10564000DCA9B05CDA88F97652513E986DC631A873
:10565000C7F8B830FA6DBB6D1344C7F8BC30D7F843
:10566000AC304FEAB312D7F8AC304FEAF3235A40CC
:10567000D7F8AC304FEA73635A40D7F8A030D0184F
:10568000D7F8AC20D7F8A83002EA0301D7F8AC303D
:10569000DA43D7F8A43013404B40C2187B6F1A444A
:1056A000ED4B1344FB65D7F8BC304FEAB302D7F893
:1056B000BC304FEA73335A40D7F8BC304FEAB3538B
:1056C00082EA0300D7F8B820D7F8B4305A40D7F8A8
:1056D000BC3002EA0301D7F8B820D7F8B430134041
:1056E0004B400344BB65D7F8A430C7F8A030D7F8C7
:1056F000A830C7F8A430D7F8AC30C7F8A830D7F82E
:10570000B020FB6D1344C7F8AC30D7F8B430C7F8FD
:10571000B030D7F8B830C7F8B430D7F8BC30C7F8D5
:10572000B830FA6DBB6D1344C7F8BC30D7F8AC3055
:105730004FEAB312D7F8AC304FEAF3235A40D7F808
:10574000AC304FEA73635A40D7F8A030D018D7F87E
:10575000AC20D7F8A83002EA0301D7F8AC30DA431E
:10576000D7F8A43013404B40C2183B6F1A44BB4BD0
:105770001344FB65D7F8BC304FEAB302D7F8BC300E
:105780004FEA73335A40D7F8BC304FEAB35382EA3A
:105790000300D7F8B820D7F8B4305A40D7F8BC3057
:1057A00002EA0301D7F8B820D7F8B43013404B40D1
:1057B0000344BB65D7F8A430C7F8A030D7F8A830A9
:1057C000C7F8A430D7F8AC30C7F8A830D7F8B02065
:1057D000FB6D1344C7F8AC30D7F8B430C7F8B0301D
:1057E000D7F8B830C7F8B430D7F8BC30C7F8B830FD
:1057F000FA6DBB6D1344C7F8BC30D7F8AC304FEA34
:10580000B312D7F8AC304FEAF3235A40D7F8AC3094
:105810004FEA73635A40D7F8A030D018D7F8AC20BD
:10582000D7F8A83002EA0301D7F8AC30DA43D7F84A
:10583000A43013404B40C218FB6E1A44884B1344EB
:10584000FB65D7F8BC304FEAB302D7F8BC304FEA5B
:1058500073335A40D7F8BC304FEAB35382EA03009F
:10586000D7F8B820D7F8B4305A40D7F8BC3002EA9D
:105870000301D7F8B820D7F8B43013404B400344A5
:10588000BB65D7F8A430C7F8A030D7F8A830C7F860
:10589000A430D7F8AC30C7F8A830D7F8B020FB6DEB
:1058A0001344C7F8AC30D7F8B430C7F8B030D7F8E5
:1058B000B830C7F8B430D7F8BC30C7F8B830FA6D94
:1058C000BB6D1344C7F8BC30D7F8AC304FEAB31205
:1058D000D7F8AC304FEAF3235A40D7F8AC304FEA50
:1058E00073635A40D7F8A030D018D7F8AC20D7F857
:1058F000A83002EA0301D7F8AC30DA43D7F8A43075
:1059000013404B40C218BB6E1A44564B1344FB6500
:10591000D7F8BC304FEAB302D7F8BC304FEA733344
:105920005A40D7F8BC304FEAB35382EA0300D7F8A5
:10593000B820D7F8B4305A40D7F8BC3002EA030197
:10594000D7F8B820D7F8B43013404B400344BB65B8
:10595000D7F8A430C7F8A030D7F8A830C7F8A430DB
:10596000D7F8AC30C7F8A830D7F8B020FB6D134497
:10597000C7F8AC30D7F8B430C7F8B030D7F8B83083
:10598000C7F8B430D7F8BC30C7F8B830FA6DBB6D83
:105990001344C7F8BC30D7F8AC304FEAB312D7F88D
:1059A000AC304FEAF3235A40D7F8AC304FEA736378
:1059B0005A40D7F8A030D018D7F8AC20D7F8A83084
:1059C00002EA0301D7F8AC30DA43D7F8A430134029
:1059D0004B40C2187B6E1A44234B1344FB65D7F827
:1059E000BC304FEAB302D7F8BC304FEA73335A40A9
:1059F000D7F8BC304FEAB35382EA0300D7F8B82097
:105A0000D7F8B4305A40D7F8BC3002EA0301D7F8CF
:105A1000B820D7F8B43013404B400344BB65D7F8E7
:105A2000A430C7F8A030D7F8A830C7F8A430D7F80A
:105A3000AC30C7F8A830D7F8B020FB6D1344C7F8D6
:105A4000AC30D7F8B430C7F8B030D7F8B830C7F8B2
:105A5000B430D7F8BC3009E0C82703B0C77F59BFBE
:105A6000F30BE0C64791A7D55163CA06C7F8B83013
:105A7000FA6DBB6D1344C7F8BC30D7F8AC304FEAB1
:105A8000B312D7F8AC304FEAF3235A40D7F8AC3012
:105A90004FEA73635A40D7F8A030D018D7F8AC203B
:105AA000D7F8A83002EA0301D7F8AC30DA43D7F8C8
:105AB000A43013404B40C2183B6E1A44E44B1344CD
:105AC000FB65D7F8BC304FEAB302D7F8BC304FEAD9
:105AD00073335A40D7F8BC304FEAB35382EA03001D
