:10000000C8930120CDB3000057760200B9B30000B9
:10001000B9B30000B9B30000B9B30000B9B3000030
:1000200000000000000000000000000029B50000F2
:10003000B9B3000000000000C9B40000B9B300006B
:10004000F1B60000F1B60000F1B60000F1B6000014
:10005000F1B60000F1B60000F1B60000F1B6000004
:10006000F1B60000F1B60000F1B60000F1B60000F4
:10007000F1B60000F1B60000F1B60000F1B60000E4
:10008000F1B60000F1B60000F1B60000F1B60000D4
:10009000F1B60000F1B60000F1B60000F1B60000C4
:1000A000F1B60000F1B60000F1B60000F1B60000B4
:1000B000F1B60000F1B60000F1B60000F1B60000A4
:1000C000F1B60000F1B60000F1B60000F1B6000094
:1000D000F1B60000F1B60000F1B60000F1B6000084
:1000E000F1B60000F1B60000F1B60000F1B6000074
:1000F000F1B60000F1B60000F1B60000F1B6000064
:10010000F1B60000F1B60000F1B60000F1B6000053
:10011000F1B60000F1B60000F1B60000F1B6000043
:10012000F1B60000F1B60000F1B60000F1B6000033
:10013000F1B60000F1B60000F1B60000F1B6000023
:10014000F1B60000F1B60000F1B60000F1B6000013
:04015000F1B6000004
:1001580080EA101404F0F01480EA0410604081EA88
:10016800111404F0F01481EA0411614082EA1214B7
:1001780004F0F01482EA0412624083EA131404F0D3
:10018800F01483EA0413634080EA102404F47F44E3
:1001980080EA0420604081EA112404F47F4481EA63
:1001A8000421614082EA122404F47F4482EA042292
:1001B800624083EA132404F47F4483EA04236340FF
:1001C80081EA500404F0553480EA4400614083EA2F
:1001D800520404F0553482EA4402634082EA9004EF
:1001E80004F0333480EA8400624083EA910404F026
:1001F800333481EA84016340704700BF82EA900487
:1002080004F0333480EA8400624083EA910404F005
:10021800333481EA8401634081EA500404F05534A0
:1002280080EA4400614083EA520404F0553482EACB
:100238004402634080EA102404F47F4480EA0420E6
:10024800604081EA112404F47F4481EA042161407A
:1002580082EA122404F47F4482EA0422624083EA98
:10026800132404F47F4483EA0423634080EA1014CF
:1002780004F0F01480EA0410604081EA111404F0DC
:10028800F01481EA0411614082EA121404F0F014B7
:1002980082EA0412624083EA131404F0F01483EA39
:1002A80004136340704700BF2DE9F14F94464FEAAD
:1002B800930B8A68CB6808684968FFF749FF0BF118
:1002C800060E33E083EA134480EA134582EA1347B3
:1002D80046BA96EA3444604000F00F1684EA0634C1
:1002E80020F00F1684EA161054BA94EA01067240F8
:1002F80002F00F1486EA043622F00F1486EA14126C
:100308004CBA6540694001F00F1485EA043521F0C4
:100318000F1485EA14115CBA67407B4003F00F1490
:1003280087EA043723F00F1487EA1413BCE8F000B7
:100338006040694072407B4000F0E03400F01035C6
:1003480000F00F3040EA540040EAC50080EA90040B
:1003580004F0332480EA8400604001F0E03401F0C6
:10036800103501F00F3141EA540141EAC50181EA33
:10037800910404F0332481EA8401614002F0E034FE
:1003880002F0103502F00F3242EA540242EAC50286
:1003980082EA920404F0332482EA8402624003F081
:1003A800E03403F0103503F00F3343EA540343EA13
:1003B800C50383EA930404F0332483EA8403634087
:1003C80081EA324787EA134581EA354690EA06040E
:1003D80084EA034B82EA1B4280EA044484EA054427
:1003E80083EA144A85EA14448BEA044B84EA3744C6
:1003F80081EA0B4181EA164104EA0A00454082EA93
:1004080004082BEA080041408AEA0B0602EA0600C3
:1004180084EA34438AEA3A4603EA060778404540C4
:10042800414088EA38478BEA3B4007EA000985EAF9
:10043800090583EA0709464006EA0906714085EA84
:10044800010005EA3546464006EA314181EA304175
:1004580081EA364606EA304686EA3546344008EAF6
:10046800010886EA01052A4086EA364003405A40D8
:1004780081EA31431F407C4080EA030709EA070903
:1004880088EA0908544088EA020806EA0A0601EAE6
:100498000B018AEA0B0215408AEA3A4210404540AD
:1004A8008BEA3B4003405E404240174079404D4054
:1004B8004E40E443F64386EA18435D4085EA05402A
:1004C80083EA134386EA034183EA384284EA114304
:1004D80083EA04435FEA3343BEF1010E3FF6F2AE0E
:1004E8001ED4BCE8F0006040694072407B4020BCEC
:1004F800FFF784FE28606960AA60EB60BDE8F08FB2
:100508002DE9E0414FF2F00280EA1031114080EA13
:100518000130484041088208C3084FF0000E4FE7F9
:1005280000F0113001F0113102F0113203F01133F3
:1005380040EA410040EA820040EAC3004FF2F0027C
:1005480080EA1031114080EA01304840BDE8E0817E
:100558002DE9F04F02F11C050646074600EB850819
:1005680051F8040B043A46F8040BF9D14FF0010C8A
:10057800FFF7C6FF5FEA302080EA0C001ECF41403B
:100588004A4053405C401EC62000464517D04FEAFB
:100598004C0C1CF4807F18BFACF1E50C2C2DE7D077
:1005A8003C2D06D1FFF7ACFF06CF41404A4006C6B6
:1005B800100006CF41404A4006C61000D8E736E989
:1005C8000F00FFF7C5FD043D86E80F00F7D1BDE831
:1005D800F08F00BF2DE9F14F03F11C0402EB840CEE
:1005E8004FEA930B8A68CB6808684968FFF7B0FD43
:1005F8003CE9F0006040694072407B400BF1060E18
:100608004EE083EA134480EA134582EA134746BA68
:1006180096EA3444604000F00F1684EA063420F06D
:100628000F1684EA161054BA94EA0106724002F0D2
:100638000F1486EA043622F00F1486EA14124CBA14
:100648006540694001F00F1485EA043521F00F1464
:1006580085EA14115CBA67407B4003F00F1487EAFF
:10066800043723F00F1487EA141344BA44404DBAF0
:100678004D4056BA56405FBA5F4087EA174886EA47
:10068800174B84EA17464FEA38488BEA1B4485EA39
:100698001B4788EA1B4580EA3440694072407B402A
:1006A80000F0703400F0803500F00F3040EA44006C
:1006B80040EAD50080EA900404F0332480EA8400FC
:1006C800604001F0703401F0803501F00F3141EAEB
:1006D800440141EAD50181EA910404F0332481EA16
:1006E8008401614002F0703402F0803502F00F326C
:1006F80042EA440242EAD50282EA920404F0332430
:1007080082EA8402624003F0703403F0803503F01B
:100718000F3343EA440343EAD50383EA930404F01E
:10072800332483EA84036340C943DB4381EA00043A
:1007380083EA044686EA020183EA014382EA3345F2
:1007480083EA14435C4084EA00077FEA040A8AEAE1
:10075800024A8AEA010B87EA11488AEA374A80EA9C
:10076800060181EA1A418AEA030A04EA0A004540B6
:1007780088EA040707EA0B0041408AEA0B0608EA00
:10078800060084EA34428AEA3A4602EA06035840F6
:100798004540414087EA37438BEA3B4003EA00097A
:1007A80085EA090582EA0309464006EA0906714016
:1007B80085EA010005EA3546464006EA314181EA04
:1007C800304181EA364606EA304686EA3546344004
:1007D8000F4086EA010508EA050886EA3640024025
:1007E80088EA020881EA314213405C4080EA020349
:1007F80009EA030987EA0907674088EA040806EA5C
:100808000A0601EA0B018AEA0B0425408AEA3A44FF
:10081800204045408BEA3B4B02EA0B02564084EAF3
:100828000B04234059406E40694087EA364080EA0D
:10083800384080EA060380EA104481EA134585EAD5
:10084800344585EA17427D4082EA354180EA054011
:100858003CE9F0006040694072407B40BEF1010E07
:100868003FF6CFAE20BCFFF7C9FC28606960AA60DC
:10087800EB60BDE8F08F00BFFFF76ABE2DE9F00717
:1008880091E8F807B2E802105B1854EB0C04B2E8E0
:1008980002104D4156EB0C06B2E802104F4158EBDE
:1008A8000C08B2E8021059EB01095AEB0C0A80E86F
:1008B800F80780410130BDE8F00770472DE9F007DF
:1008C80091E8F807B2E802105B1A74EB0C04B2E87E
:1008D80002108D4176EB0C06B2E802108F4178EBDE
:1008E8000C08B2E8021079EB01097AEB0C0A80E8EF
:1008F800F80780414042BDE8F00770472DE9F0074E
:10090800524290E87800B1E880071740DB1918EAEE
:10091800020854EB080419EA020955EB09051AEA1A
:10092800020A56EB0A0678C090E87800B1E880071A
:1009380017407B4118EA020854EB080419EA020937
:1009480055EB09051AEA020A56EB0A0678C08041F7
:100958000130BDE8F00770472DE9F007524290E8F2
:100968007800B1E880071740DB1B18EA020874EB2F
:10097800080419EA020975EB09051AEA020A76EB76
:100988000A0678C090E87800B1E880071740BB41B4
:1009980018EA020874EB080419EA020975EB09055C
:1009A8001AEA020A76EB0A0678C080414042BDE89E
:1009B800F00770472DE9F00152424FF0040890E823
:1009C800300091E8C000A31B1340E41AF618EB1B93
:1009D8001340ED1AFF1830C0C0C1B8F10108EED1BC
:1009E800BDE8F001704700BF00B592E8DC072DE9CB
:1009F800DC07B1E8805702B4A7FB02510A95A8FBAF
:100A0800020BE7FB6310E9FB62B00B91A8FB0351F3
:100A1800EAFB6201E7FB64B5E7FB6605E8FB6615E0
:100A2800CDF830B0A9FB03B6EAFB6316ECFB6356BE
:100A3800E8FB640BE9FB641BEAFB645BECFB646B9F
:100A48000D90ACFB0230059CEEFB6250E9FB646044
:100A5800EAFB64B0E7FB6431E8FB6451069CE8FB01
:100A68006461E9FB64B1EAFB64010E93A7FB0432FD
:100A7800079CE7FB6462E8FB64B2E9FB6402EAFBFB
:100A88006412049CE9FB6453EAFB6463089CE7FB7B
:100A980064B3E8FB6403E9FB6413EAFB64230F9582
:100AA8005DF8049B99E80006DDF80080A9FB08546E
:100AB800EAFB68B4DDF81080ECFB6804EEFB681410
:100AC800E9FB6824EAFB6834DDF80480EEFB68651E
:100AD800E9FB68B5EAFB6805DDF81480ECFB6815EE
:100AE800EEFB6825E9FB6835EAFB68450F96DDF8FB
:100AF8000880AEFB0876E9FB6806EAFB6816DDF8B5
:100B08001880ECFB6826EEFB6836E9FB6846EAFBD2
:100B18006856DDF80C80ECFB68B7EEFB6807E9FB6C
:100B28006817EAFB6827DDF81C80ECFB6837EEFBEA
:100B38006847E9FB6857EAFB686708B000BD00BF73
:100B48002DE9F14F87B0FFF74FFFDDF81C8008F162
:100B5800200888E8FF00FFBC87E87F08BDE8F08F21
:100B680000B591E89857A3FB03520195A3FB040134
:100B7800E3FB6420E3FB67100292A3FB0752E3FB4D
:100B88006802E4FB6415E3FB6805E3FB6925039150
:100B9800A4FB07B6E3FB6926E3FB6A56E4FB670B95
:100BA800E4FB682BE3FB6A5BE3FB6C6B0490A4FB40
:100BB8000810E4FB6950E3FB6C60E3FB6EB0E7FBF5
:100BC8006721E4FB6951E4FB6A61E3FB6EB1E4FB76
:100BD8006E010592A7FB0832E4FB6A62E4FB6CB283
:100BE800E4FB6E02E7FB6E12E7FB6853E7FB696301
:100BF800E4FB6CB3E7FB6C03E7FB6E13E8FB6E23C7
:100C08000695A7FB0954E7FB6AB4E7FB6C04E8FB0D
:100C18006C14E8FB6E24E9FB6E34E8FB6865E7FBBF
:100C28006AB5E8FB6A05E8FB6C15E9FB6C25E9FB8E
:100C38006E35EAFB6E450796A8FB0976E8FB6A065F
:100C4800E9FB6A16E9FB6C26EAFB6C36EAFB6E46A2
:100C5800ECFB6E56E8FB69B7E9FB6907E9FB6A1725
:100C6800EAFB6A27EAFB6C37ECFB6C47ECFB6E5738
:100C7800EEFB6E6700BD00BF2DE9F14F87B0FFF7AF
:100C88006FFFDDF81C8008F1200888E8FF00FFBC32
:100C980087E87F08BDE8F08F30B44FF0000310F804
:100CA800014B11F8015B013A84EA050443EA0403A5
:100CB800F5D1A3F101034FEAD37030BC704700BFF0
:100CC8004FF0000310F8012B013943EA0203F9D170
:100CD800A3F101034FEAD370704700BF30B411F895
:100CE800014B12F8015B6C4000F8014B013BF6D157
:100CF80030BC70472DE9F00791E8F807B2E8021018
:100D08005B1854EB0C04B2E802104D4156EB0C068C
:100D1800B2E802104F4158EB0C08B2E8021059EB48
:100D280001095AEB0C0A8941B3F1FF3374F1FF341E
:100D380075F1FF3576F1000677F1000778F10008C4
:100D480079F101097AF1FF3A51F100015B184C4140
:100D58004D4156F1000657F1000758F1000859EBCC
:100D6800D1795AEB010A80E8F807BDE8F007704727
:100D78002DE9F00791E8F807B2E802105B1A74EB66
:100D88000C04B2E802108D4176EB0C06B2E80210B2
:100D98008F4178EB0C08B2E8021079EB01097AEB85
:100DA8000C0A89415B184C414D4156F1000657F138
:100DB800000758F1000859EBD1795AEB010A80E88D
:100DC800F807BDE8F007704718EB040859EB050968
:100DD8005AEB060A5BEB070B5FF0000C4CF1000CBA
:100DE80018EB050859EB06095AEB070A5BEB070BEA
:100DF80050EB0C005FF0000C51EB0C0152EB0C02B5
:100E080063414CF1000CB8EB070879F100097AF15D
:100E1800000A7BEB040BA841B141A241B3416CF13C
:100E2800000CBBEB050BB041B941AA41BB416CF1C9
:100E3800000C4CF001068CF0020718EB060859EB81
:100E48006C095AEB6C0A7BEB6C0B70EB6C0471EB66
:100E58006C0572EB670653EB6C076CEB6C0C18EBCC
:100E68000C0059EB0C015AEB0C025BF1000354F136
:100E7800000455F1000556EBDC7657EB0C0770477C
:100E88002DE9F14F87B0FFF7AFFDDDF81080DDF8F1
:100E98001490DDF818A0FFF797FFBDE8000FFFF7E3
:100EA80093FF03B05DF8048B88E8FF00BDE8F08F7E
:100EB8002DE9F14F87B0FFF753FEDDF81080DDF81C
:100EC8001490DDF818A0FFF77FFFBDE8000FFFF7CB
:100ED8007BFF03B05DF8048B88E8FF00BDE8F08F66
:100EE80053B94AB9002908BF00281CBF4FF0FF3189
:100EF8004FF0FF3000F00CB8ADF1080C6DE904CEEE
:100F080000F022F8DDF804E0DDE9022304B07047C0
:100F1800704700BF10F8012B11F8013B012A28BFC8
:100F28009A42F7D0D01A7047034611F8012B03F8FC
:100F3800012B002AF9D17047034613F8012B002A28
:100F4800FBD1181A013870472DE9F04786468C46C0
:100F58000846089E154674461946002B40F0C18085
:100F68008542B2FA82F245D94AB1C2F1200300FAA9
:100F780002FC954094402EFA03F343EA0C0C4FEA26
:100F8800154EA8B2230CBCFBFEF80EFB18CC08FBD0
:100F980000F943EA0C43994528D9EB1808F1FF37C3
:100FA80004D2994502D9A8F102072B44A3EB0903FF
:100FB800A4B2B3FBFEFC0EFB1C330CFB00F044EAAE
:100FC8000344A04214D92C190CF1FF3304D2A042D7
:100FD80002D9ACF102032C44241A43EA07401EB19B
:100FE800D440002334607360BDE8F0874746DDE7EE
:100FF8006346F1E792BB431B01214FEA154EAFB29E
:10100800200CB3FBFEFC0EFB1C330CFB07F840EA7C
:101018000343984561D9EB180CF1FF3004D2984589
:1010280002D9ACF102002B44A3EB0803A4B2B3FB32
:10103800FEFC0EFB1C330CFB07F744EA0344A742F3
:101048004DD92C190CF1FF3304D2A74202D9ACF1C7
:1010580002032C44E41B43EA0040C0E7C2F120032A
:101068009540944020FA03F12EFA03F34FEA154E07
:101078009040AFB20343B1FBFEFC0EFB1C10190CF1
:101088000CFB07F841EA0041884522D969180CF1A0
:10109800FF3004D2884502D9ACF102002944A1EB03
:1010A80008019BB2B1FBFEFC0EFB1C110CFB07F701
:1010B80043EA01439F420ED9EB180CF1FF3104D2E9
:1010C8009F4202D9ACF102012B44DB1B41EA0041EB
:1010D80093E76046E3E76146F7E76046A4E76346BF
:1010E800B8E7834206D916B9002108467CE7C6E965
:1010F80000E0F9E7B3FA83F78FB9834201D3724569
:1011080008D8BEEB020460EB030301209C461EB91D
:10111800002169E73846FAE7C6E9004CF8E7C7F165
:10112800200CBB400EFA07F522FA0CF42EFA0CF14B
:10113800BA401C4320FA0CF3B8404FEA1449014363
:101148001FFA84FEB3FBF9F809FB18300B0C08FBF7
:101158000EFA43EA00439A4540D9E31808F1FF30F4
:1011680004D29A4502D9A8F102002344A3EB0A034A
:1011780089B2B3FBF9F809FB183308FB0EFE41EA04
:1011880003418E452CD9611808F1FF3304D28E45EE
:1011980002D9A8F10203214443EA0040A1EB0E0161
:1011A800A0FB02984145CE46434602D306D14D45A1
:1011B80004D20138B9EB020E68EB0403002EA7D065
:1011C800B5EB0E0261EB030101FA0CFC22FA07F3FE
:1011D800F9404CEA0303C6E9003199E74046C5E700
:1011E8004346D9E7000000002DE9F04FA9B00E935F
:1011F800A0EB030B012303FA0BF40D94DC400E9DC6
:101208001294BF4CDDF8C8A054F825901D4454F83A
:1012180025400E9D0894BB4C019354F82580089DE9
:10122800129C0E9B6C430AEBC40700930346384696
:1012380004F0D0FD08FA0BF309FA0BF60AEB830267
:101248000AEBC303394618460992F2000B932AF0B9
:10125800BBFD0B9BE50003EB860311930B9B2A4612
:1012680003EBC6075646514638462AF0ADFD07EB54
:1012780084031A93089B9B0018934FEA88030A93E8
:10128800A14B1B930AEB88031C939F4B1793099B55
:1012980016931C9B9E4240F07881042303FA0BF3BB
:1012A8001493FB181393149B149A07EB43030F939F
:1012B800134415934FEA89030C930F9B03EB4203E6
:1012C800129A199303EB82031A934FEAC8031F93E8
:1012D800002308930BF1FF332393089B434540F009
:1012E800A48101244246414650460D9B0094019733
:1012F80004F0FCF90D9B42464146CDE900470998A8
:1013080004F0F4F93946504624F08EFA08220346D0
:1013180002FA0BF212991344159300EB4203179348
:1013280003EBC1031293A3EB0A0399071CBF23F035
:101338000303043353441393DDE913130B44194691
:1013480010905046149324F06FFA4E46129B0B9956
:101358001A44904238BF10460A2E28BF0A26A9EB25
:10136800060401EB84014B4632460F90CDF800B0DD
:10137800109804F0A9FD1199A50029444B4632465E
:101388001598CDF800B004F09FFDC4EB44130E99F6
:101398000E9A1C935D4B454653F8322003EBC1036C
:1013A8006FF005015B6810984B435946D418D31A5F
:1013B8001B9303F0B1FB5946159803F0ADFB5B4650
:1013C800159A1099179803F043FD5946109823F081
:1013D80045FA5946159823F041FAC8EB4813169375
:1013E8001B1B08930A2D2F4628BF0A27EC1B3A46D9
:1013F8000AEB840143461298CDF800B004F064FD6E
:101408000999A60043463A4631440F98CDF800B0F2
:1014180004F05AFD5946129803F07EFB59460F987E
:1014280003F07AFB5A461099129823F02CFA5A4680
:1014380015990F9823F027FA5A4612990F9823F016
:10144800D7F95A4617990F9823F0D0FB59460F98A9
:1014580003F02AFC089BC4EB44141C1B00221C9BB1
:10146800E41846BF00274FF080460027284B58BF96
:10147800284ECDE9182348BF6442002C40F014825E
:101488000F9B083B1A931A9EDDE91823F6E902011F
:101498001A9623F0EEFD07460E4602460B4614A1A7
:1014A800D1E9000123F093FF002800F0438212A342
:1014B800D3E900233846314623F089FF002800F09D
:1014C80039823846314623F01EFF139B43F8240027
:1014D8000D9B0134A342D6D11F24089B93FBF4F43F
:1014E800C4EB44169E1B0E9B042B00F2F18113E003
:1014F8000000C0FFFFFFDFC10000C0FFFFFFDF41AA
:10150800640B03003C0B0300900B0300E40A030088
:101518000000F03F0000E03F149B4246CDE905B3D0
:10152800139B29465046CDE90193CDE903460B9B11
:10153800CDF8009004F058FB149B4246CDE905B362
:10154800139B2946CDE90193CDE90346119B0998E0
:10155800CDF8009004F048FB1B9A089B1699134499
:1015680003F10A02914240F3D0812833C5EB4511BB
:101578008B4200DA013D089B002B40F3C881193BE0
:1015880023EAE373089316922CE7179B1D682846F5
:1015980023F034FF01460446284623F059FF22462B
:1015A800034615902946089823F076FF169B199054
:1015B80014931A9B1396CDE90F7300230C930C9B7D
:1015C800129A934207D1169B043604331693179B3D
:1015D8000C3317935DE6199B2A460193159B0899CE
:1015E8000F980093234624F009FA139B2A461860A3
:1015F800199B10980193159B08990093234624F092
:10160800FDF9149B189A18600C9B01330C930F9BDF
:1016180013440F93109B134410930A9A139B13447B
:101628001393149B13441493C9E71B9B1D68284606
:1016380023F0E4FE01460446284623F009FF089BF0
:1016480010904B4511D101231E46089A0B9811465C
:10165800009301970D9B04F049F8089A0D9B1146D9
:1016680011980197009604F041F8CDE900541B9BAE
:101678005A465B683846139903F058FF089B4B4558
:1016880077D2089A0B9B03EB8200119B064603EB6B
:1016980082031A46169300233168DDF83CC04CF8E3
:1016A80023101168DDF854C04CF823100C9901334D
:1016B8000E440A440D999942EED15B464946139A65
:1016C800CDE9005424F023F95B464946CDE900549E
:1016D800139A169824F01BF9089B0AEB83031D93B1
:1016E800DDE9082303EB820319461E9300231D9AA4
:1016F8001298834240F081803A460121239B199831
:10170800CDE9005424F0B5F8239B3A460121CDE9F0
:1017180000541A9824F0ADF8159B1D9E17931A9B38
:10172800043B2093199B1C930F9B16931E9B1893A5
:10173800169B1A9A08331693179B083317931C9B0A
:10174800934267D15B464146139A1D98CDE90054F0
:1017580024F0DDF85B464146CDE90054139A1E9803
:1017680024F0D5F8089B013308931B9B0C331B937B
:10177800B3E5109B22462946484623F08DFE159B6B
:101788000F9E043B1C93119B189017930B9B169369
:10179800189B2A460193109B4946169800932346A6
:1017A80024F02CF9189B46F8040B0193109B2A4649
:1017B800179800934946234624F020F91C9B0C9A5D
:1017C80043F8040F1C93169B13441693179B13445A
:1017D8001793159B9E42DBD15B463A460F98012131
:1017E800CDE9005424F045F85B463A460121CDE99D
:1017F8000054159824F03DF86EE71068199E46F8D5
:10180800230008681A9E46F823000A980133024408
:1018180001446DE7169BDDF870C053F8083C5CF88E
:10182800040B2493169B2A4653F8043C10992593DD
:10183800179BCDF870C053F8083C2693179B53F8B4
:10184800043C2793234623F0F0FDDDF880C0219067
:101858005CF8040F10992346CDF880C023F0E5FD0D
:10186800219923462290279823F0DFFD21993060A3
:101878002346269823F0D9FD0A9B2299F050234647
:10188800259823F0D2FD189B2299186023462498A6
:1018980023F0CBFD189B0A9A98501F9B1F9A1E4451
:1018A800189B1344189343E7E30707D5DDE91801AC
:1018B8003A46334623F0DDFBCDE918013A46334674
:1018C8003846314623F0D5FB641007460E46D4E56A
:1018D800139B424629465046CDE90193CDE9046B56
:1018E8000B9B0394CDF8009023F020FF139B4246F6
:1018F800CDE901932946CDE9046B119B099803941E
:10190800CDF8009023F012FF26E6169A33E64D45EF
:1019180013D3564600250D9B5C00314650460C9A61
:101928002AF052FA0C9B01359A440A9BAC421E4499
:10193800F3D1012029B0BDE8F08F5246002105F10E
:101948008045013DAD00281DAB580C9E9B0F5B42A6
:101958005B0814181644A64216D1099B099CEB583B
:101968000C9E099F9B0F5B425B0804443E44A642C1
:101978000DD10A9B01311A44DDE909342344099346
:101988000D9B8B42E0D1C4E744F8043BE3E744F8FD
:10199800043BECE7000000002DE9F04FB5B02B93B5
:1019A8000123DDE9409B03FA09F30B93082303FAAB
:1019B80009F31A935B4413931A9BCDE90C120BEBB2
:1019C800430322933F9B2A90002B08BF5B462D932D
:1019D8004A460C992A9803F01DFE4A460D992A9802
:1019E80003F018FEB64B13F809200123013A93407F
:1019F800002259420C9880569842E9DA8842E7DD7D
:101A08000D9880569842E3DA8142E1DA0B98013268
:101A18009042EFD1002BDBDB0C9A0C9B114684180B
:101A280000222593134611F9010B00FB00338C4269
:101A380042EA0302F7D143EAE2710D9B0D9A26931D
:101A48000B9B10469D180022134610F9014B04FB0E
:101A58000433854242EA0302F7D143EAE27343EAD8
:101A680001020B4443EAE27344F2B6129342AFD840
:101A780000252C462E464A4658460C9923F0E7FE88
:101A88004A460D99139823F0E2FE4946584603F05A
:101A980043F84946139803F03FF84B46139A5946C2
:101AA800229803F0D5F94946584622F0D7FE494610
:101AB800139822F0D3FE7EA3D3E900235846CDF82D
:101AC800009022F0C0FF7AA3D3E900231398CDF841
:101AD800009022F0B8FF4A465846229923F086F82B
:101AE8004A462299139823F081F84946584603F04C
:101AF800DBF84946139803F0D7F8139BABF10808B5
:101B0800A3F10807F8E902231046194623F0B1FAB1
:101B180002460B462846214623F08DF9F7E90223B1
:101B280005460C461046194623F0A3FA0B46024612
:101B38002146284623F07FF90B9B0136B342054620
:101B48000C46DFD15CA3D3E9002323F040FC002836
:101B58003FF43EAF3F9B002B40F08682022303FAFE
:101B680009F35B4400932D984B46DDE90C1224F0F1
:101B78009EF800283FF42CAFDDE90C120025514BEC
:101B8800CDE9009513F809302C934F4B53F829A051
:101B98000BEB8A031C930BEBCA03249303EB8A0316
:101BA8001D930BEBCA0303EBCA030E930BEBCA009E
:101BB8004B4604F00FF90E9B5246CDE900535146AF
:101BC80002230BEBCA004FEA8A0403F08FFDBAF137
:101BD800000F3FF4FDAE0E9B0BEBCA0123441E938E
:101BE8000E9B03EB44030A9323440F930BEB8A03E6
:101BF80053F82A0023F002FC0BEBCA03289053F891
:101C08002A0023F0FBFB224629900A982AF0CFF8F5
:101C180022461D990F982AF0CAF801230AF1FF32CB
:101C28004BF82A300BEB8A03181D294692002AF03C
:101C3800E5F82246294658462AF0E0F822461D993A
:101C48000E982AF0B4F822460BEBCA011E982AF027
:101C5800AEF80E9B0E9A53F82A300A99013B42F8C7
:101C68002A303E2303FB0AF31E3321930AF18043F3
:101C7800013B01EB83012E910F999A0001EB83033D
:101C88002F93131D27930B46279A13443093219BB8
:101C98001D2B00F2EB811E9B0A9853F82A200A9B01
:101CA80082F00102191D279B03440FE0AFF3008067
:101CB800000000008000C840ACADD85F9A6DD040ED
:101CC8007152030066520300640B03008B4240F01C
:101CD800B8835342134324991C9A51F82A1052F896
:101CE8002A20DB1701330A4013423FF471AE43F256
:101CF80001025146584623F013FC00287FF468AED1
:101D080051461C9823F00CFC149000287FF460AE18
:101D1800B9F1020F4C4640F2A383013C012C40F07C
:101D2800488409F1FF3804FA08F308241B935B0878
:101D380012930BEBC3031693129B04FA08F40BEBF4
:101D4800031A0AEB0403109300230E930E9B844A94
:101D580003EB4303D7580025384623F04FFB0146D1
:101D68000A90384623F074FB0A9A03460F903946C6
:101D7800022023F091FB0E9B0E9A53441793109B5D
:101D8800159013441893EB001E46159B3A46019391
:101D98000F9B022100930BEBC5000A9BCDF884B082
:101DA80023F015FE179B3A4643F83500159B169805
:101DB80001930F9B0221009330440A9B23F007FEF6
:101DC800189B43F83500129B0135AB42DBD10E9BC3
:101DD800042B40F0FB8351462246584629F0F4FF75
:101DE8000BEB0403224618461099279329F0ECFFC1
:101DF8000BEB0403234415930E9B002603FA08FA01
:101E0800159B53442E93159B03EB4A070E9B03FA2D
:101E180009F30A930A9AFB1823935344169313441D
:101E28001D9307EB0A03179307EB4A0318935344D0
:101E3800129A199307EB4A0303EB4A031E9303EB29
:101E4800820324935300339302230F930C23734389
:101E58004349CD58CA182846109223F0CFFA0146B4
:101E68000446284623F0F4FA109A1C905368384622
:101E78004A46CDE90054239903F058FB00230C9AF5
:101E8800D15605EAE1720A44169941F823200D9AC1
:101E9800D15605EAE1720A441D9941F823200B9AAC
:101EA80001339A42EBD14B463A4601211698CDE9C7
:101EB800005423F0DEFC4B463A4601211D98CDE93B
:101EC800005423F0D6FC1C9B2A46494616980093DA
:101ED800234623F009FB1C9B49461D980093234683
:101EE80023F002FB52462399179829F06DFF5246BA
:101EF8001699189829F068FF52461D99199829F0E3
:101F080063FF0BEB86031F93279B03EB860320934A
:101F180000231F9A1E9952F8332041F82320209A53
:101F2800249952F8332041F82320129A01339A4217
:101F3800EFD1A9F1020633463A4601211E98CDE9B0
:101F4800005423F096FC33463A460121CDE900546B
:101F5800249823F08EFC04230026109302E000BF8F
:101F6800900B0300189B109A53F826301E982F9355
:101F7800189B50F816009B581C993093199B53F8DE
:101F880026303193199B9B582A463293234623F0D7
:101F98004CFA289024981C9950F81600234623F0F0
:101FA80044FA289923462990329823F03EFA1F9B39
:101FB800289943F836002346319823F036FA1F9BB8
:101FC800109943F8110029992346309823F02DFAE7
:101FD800209B299943F8360023462F9823F025FAA9
:101FE800109A209B023643F81200134608331093C8
:101FF800339BB342B6D143460221179A1F98CDE9C5
:10200800005423F084FC43460221CDE90054179A7A
:10201800209823F07CFC0F9B012B00F0E1824346C3
:102028000121179A1898CDE9005423F070FC434613
:102038000121CDE90054179A199823F068FC002370
:10204800189A159952F8232041F82320199A2E99A5
:1020580052F8232041F823201B9A01339A42EFD1EA
:1020680001231E460F93F1E65B467BE500244FF003
:10207800FF372246254638462146DDF8C080DDF880
:102088003CC05CF8046D58F8043D86EA010E0EEA7F
:10209800000E81EA0E0186EA050E0EEA070E85EAB1
:1020A8000E0583EA020E0EEA000E82EA0E0283EAA9
:1020B800040E33430EEA070E03F1004384EA0E04CC
:1020C800013BDDF828E0DB0F013BE645074603EA64
:1020D800000340F0B48121EA000701407B0829434E
:1020E800FF0722EA0005024022437F184FEA5508FD
:1020F8004FEAC57543F10003AD180F9A4FF000047D
:10210800126848F100081B920122CDE91424CDE998
:10211800172420961994129410941694EA1B68EBCD
:10212800030282EA030183EA080008405040169936
:10213800209A169ECA401B9902F0010221FA06FC59
:102148000CEA020C0CEAD07182F001020A431F92D9
:102158004A4211462CEAD07C1B98209E1040301A27
:10216800209002EA05003F1A02EA080663EB060619
:10217800129B02EA0300109B02EA030E179B181A2F
:10218800189B63EB0E0E149B1A40159BA21A01EACA
:102198000303199961EB03031993209BCCF1000108
:1021A80001EA03041B9BDCF1000CA3EB040401EA25
:1021B80007031B9464EB0404EB1A2393129B04EAB1
:1021C800060C00EA010568EB0C0C5D1B109B0EEA7F
:1021D800040863EB08031093199B11401C40149BDF
:1021E8005B1A1493159B63EB040315931F9B03F170
:1021F800FF38209B08EA0304234420931F9B5C1E9E
:102208004FF0000300EA080443F1FF310319179364
:102218000EEA01034EEB03031893199B02EA080424
:10222800141903EA010043EB00031F9A780840EAF7
:10223800C670524280EA07006EEB0E0E10401993EA
:1022480086EA560303EA0E0347401B9873401B9E19
:10225800104030181B9005EA02002818109E1290B2
:10226800109806EA0E0640EB0600109014980240FB
:10227800159800EA0E0E149882181492159A42EBDB
:102288000E021592239A550845EACC7555408CEAFA
:102298005C0205EA080502EA0108239A8CEA0808A4
:1022A8005540169A01321F2A16927FF437AF002143
:1022B8000E460A468E460A9B1B91043B16930F9BBB
:1022C800A3F10408169B58F8047F53F804CF16931B
:1022D800179BA3FB0C352093189B0CFB0355A4FB01
:1022E80007032390199807FB003323981F93209B1B
:1022F80018181F9B45EB0305129B8019A3FB0C368E
:102308001F93109B42EB05050CFB0366149BA3FB74
:10231800072C159B07FB03CC1F9B9A181B9B46EBAE
:102328000C06511843EB0603BEF1000F08D0169EA9
:1023380020F0004246F8042C21F0004248F8042C12
:10234800C90F0EF1010EC60F41EA4301F2454FEAEB
:10235800E37346EA45064FEAE5721B93B2D12E9B1A
:10236800D50F1E602F9B2A4619601B9B5146DE0F16
:102378000A9823F005F9324651460F9823F000F9E0
:10238800179B6942DB181898179D03EA010340411F
:10239800ED1A189B00EA010063EB000319981693E5
:1023A800231940EB00080B4008EA01087142E41ABF
:1023B8000B46129A60EB0808129E1098921802EACF
:1023C80001024041B61A109A00EA010062EB0002CD
:1023D8001292149A1C989718159A07EA0107524105
:1023E8001340149A0E99D71B159ACDE9044862EB4D
:1023F8000303CDE908731093129B1D9A0793169B4C
:1024080006960393299B02950093534623F0F3F80D
:10241800109B58460993129BCDE904480793169BD5
:10242800249A0393289B1E9900930897534606966F
:10243800029523F0E0F8219B1E3B219327E41846E0
:102448001FE651F8040B024340E42346DDE90C1271
:102458004846CDF800B0FEF7C7FE00283FF4B8AAFA
:10246800013CF2D20122139BDDF8F8A05946BAF1DB
:10247800000F08BF9A462C9B2B98013B9A40013AC3
:102488004B4623F0C3FA00283FF4A2AA042404FA16
:1024980009F40BEB04064B463146504623F0B6FAD6
:1024A80000283FF495AA4B4D4B4F06EB44083319CF
:1024B80044440A934A46494B59462046CDE90057B9
:1024C80003F034F800231AF9031005EAE1720A440C
:1024D8004BF823200B9A01339A42F4D100230C9A2B
:1024E800D15605EAE1720A4446F823200D9AD156DE
:1024F80005EAE1720A440A9941F823202B9AD15639
:1025080005EAE1720A4448F823200B9A01339A42FB
:10251800E5D14B46224601213046CDE9005723F04C
:10252800A8F94B4622460121CDE900570A9823F025
:10253800A0F94B46224601214046CDE9005723F039
:1025480098F94B46224601215846CDE9005723F019
:1025580090F9012143F201001F4B1E4A22F065FF4A
:102568000746DFF874A01499149853465BF82110B5
:1025780056F8200022F059FFDDF850C0044614999F
:102588000A98534658F8211050F82C0022F04DFFB5
:10259800241A05EAE4731C44A7427FF419AA149B81
:1025A8000133149314990B9B8B42DCD135B0BDE8F1
:1025B800F08F2346DDE90C124846CDF800B0FEF74F
:1025C80013FE00287FF4A9ABFFF702BA0423FFF734
:1025D800BCBB00BF01D8FF7FFFD7BF7945ADD6167A
:1025E80002221B9B11465C000F9B584601970093E3
:1025F800234603F07BF80F9B0F9A15981146019715
:102608000093234603F072F83946584623F00CF934
:102618000824022304FA08F41A465946CDF8008023
:102628000546061903F050FC022330461A4627993E
:10263800CDF8008003F048FC22461599584629F049
:10264800C3FB0BEB0A030BEB4A015846189323F024
:10265800EBF8102303FA08F31A462946169312904A
:1026680029F0B2FB129B594603EB44000F9BCDF8AF
:1026780000801A46051903F027FC0F9B28461A46C6
:102688000BEB0A01CDF8008003F01EFC2022129902
:1026980002FA08F2584629F097FB0BEB040341466F
:1026A800584617930BEB440702F036FA41460BEBFA
:1026B80004003D1902F030FA4146384602F02CFA7F
:1026C8002E194146284602F027FA3B46594630461D
:1026D8000BEB0402CDE9005822F0CCF943462A4618
:1026E800394605EB440002F0B3FB4246304605EBA1
:1026F800440122F07BFA4146304602F0D5FAA6F1B1
:102708000803159300230F931599F1E90223CDE9E6
:10271800102315910022DDE91001B24B22F057FE7B
:1027280000283FF455A9DDE910230020AE4922F026
:102738004EFE00283FF44CA9DDE9100122F0E3FD2C
:10274800002222F0C9FA159BC3E900010F9B01334F
:102758000F930F9A1B9B9342D6D13046414602F005
:10276800DBF931463846424622F08DF83146284694
:10277800424622F088F839464246584622F04CF83C
:1027880029460BEB0A05DA464246179822F044F828
:102798004146584602F088FA4146179802F084FAF2
:1027A8005946169A129829F00FFB129BA3F10806B6
:1027B8001C44189B1F1FF6E9020122F0A4FD4AF8E9
:1027C800040BF4E8020122F09EFD554547F8040F7A
:1027D800F1D10B9BDFF814A2854C5B0851462046CB
:1027E800179322F035FE179B4A460BEB830312938F
:1027F800179B15900BEBC3050A9BCDE9004AEB1814
:102808000F930A9B05EB4306F31810931099794B25
:10281800304602F08BFE5A46129B191F106843007F
:1028280003F00043034304EAE370034442F8043B23
:1028380051F8040F430003F00043034304EAE37034
:1028480003440B60129B9342E8D143463246012170
:102858005846CDE9004A23F00CF843463246012198
:10286800CDE9004A129823F004F800230C9AD156B7
:1028780004EAE1720A4445F823200D9AD15604EA85
:10288800E1720A440F9941F823200B9A01339A42C6
:10289800ECD132464B4601212846CDE9004A22F0C8
:1028A800E8FF324600264B460121CDE9004A0F9841
:1028B80022F0DFFF4D4F4E4A55F826304FEA5608B2
:1028C80018930E9B5BF82800EB5819930F9B53F84D
:1028D80026301B93DDE90E135B5815991C933B4674
:1028E80022F0A3FD169012983B4650F8280015993F
:1028F80022F09BFD3B46804616991C9822F095FDD8
:102908003B4645F8260016991B9822F08EFD0E9B33
:102918004146E8503B46199822F087FD0F9B4146F7
:1029280043F826003B46189822F07FFDDDE90E1398
:1029380058500B4608330E930B9B0236B342BBD854
:102948004B4601212846109ACDE9004A22F0DFFFC4
:102958004B460121109A0F98CDE9004A22F0D7FF83
:102968000A9B29465B4416930A9B1A9A58460BEB16
:10297800430829F029FA0A9B0A9A434410930A9BB0
:10298800404608EB43030F9313440E930F9B109993
:1029980003EB420312934A46164BCDE9004A02F074
:1029A800C5FD4B46424601215846CDE9004A22F072
:1029B80060FF4B46424601211698CDE9004A22F0B5
:1029C80058FF0C9B0A9993F9002004EAE273134418
:1029D8000E9A53500F9A5350129B0A9A0E999A18AE
:1029E800181D09E00000E0430000E0C3FFD7BF79ED
:1029F80001D8FF7F45ADD616259B13F9015F2593B6
:102A080004EAE5732B4441F8043F259B93F90050F1
:102A1800002DD4BF002301235B4223405B1B42F8F7
:102A2800043D9042E8D100254B46424601210E98CC
:102A3800CDE9004A22F01DFF42464B460121CDE96F
:102A4800004A129822F015FFBE4FBF4A12983B4623
:102A580050F82500159922F0E8FC5BF825103B4654
:102A6800064622F0E2FC109B0E9943F8250051F827
:102A780025103B46304622F0D8FC0F9B43F8250032
:102A88000B9B0135AB42E1D10D9B0A9993F90020CC
:102A980004EAE27313440E9A53500F9A5350129B50
:102AA8000A9A0E999A18181D269B13F9015F269306
:102AB80004EAE5732B4441F8043F269B93F9005040
:102AC800002DD4BF002301235B4223405B1B42F847
:102AD800043D9042E8D100264B46424601210E981B
:102AE800CDE9004A22F0C5FE4B4642460121CDE918
:102AF800004A129822F0BDFE109B934A1F1F0F9B9D
:102B0800043BCDE9183712988E4B50F826001599DA
:102B180022F08BFC199B169953F8045F51F8261084
:102B28001993884B1B9022F080FC2D1B054404EA66
:102B3800E5731D44199B0E991D60189B51F82610CA
:102B480053F8045F1B9818937E4B22F06EFC2D1BE4
:102B5800054404EAE5731D44189B01361D600B9B70
:102B6800B342D0D14A464046784B0E99CDE9004A47
:102B780002F0DCFC4B4601210E9A1098CDE9004A80
:102B880022F0C5FE0E9A4B460121CDE9004A0F9866
:102B980022F0BDFE002257F8041F6D4BCB18DB0F47
:102BA800013B2340C91A0F9B48F8221053F8221002
:102BB800674B0132CB18DB0F013B2340C91A0B9B33
:102BC80039609342E7D158460F9922F02DFE00252F
:102BD8000746A0F10806109B002253F8253001355E
:102BE8001846D917189322F077F80B9BE6E90201EB
:102BF800AB42F0D13846494601F08EFF109958464D
:102C080022F012FE064639464746179BDD002A4643
:102C180029F0DAF80A9A35444244A5F108031792D4
:102C280057F8040B0022C117189322F055F8179A89
:102C3800189BBA42E3E90201F2D14946284601F05D
:102C48006BFF31464A46284602F060F94946284655
:102C580002F02AF81A9BA8F10406EF18F5E8020119
:102C680022F051FB04EAE0730344AF4246F8043F04
:102C7800F4D1DDE90F10354B4A46CDE9004A02F0A0
:102C880055FC00230C9AD15604EAE1720A440E99C5
:102C980041F823200D9AD15604EAE1720A441299A8
:102CA80041F823200B9A01339A42EBD100254B4679
:102CB80001214046109ACDE9004A22F0DAFD4B4640
:102CC8000121109A0E98CDE9004A22F0D2FD4B4618
:102CD800109A0121CDE9004A129822F0CAFDABF101
:102CE80004031793169B184A1F1F109758F82500BE
:102CF800144B159922F099FB179B0E9953F8046F02
:102D080051F8251017930F4B189022F08EFB361AA6
:102D180004EAE6731E44179B12991E60109B51F833
:102D2800251053F8046F18981093064B22F07DFB7A
:102D3800361A04EAE6731E44109B01351E600B9B8D
:102D4800AB4207E0FFD7BF7901D8FF7F45ADD61664
:102D5800FF1300C0CAD14B46012158460F9ACDE94E
:102D6800004A22F0D4FD0F9A4B460121CDE9004AD2
:102D7800169822F0CCFD0A9A5A44219B19680C4BEC
:102D8800CB18DB0F013B2340C91A219B43F8041BD6
:102D980057F8041F2193064BCB18DB0F013B234048
:102DA800C91A219B39609A42E7D1FFF75BBB00BF84
:102DB800FF1300C0000000002DE9F04F92461E46A8
:102DC800C3F30A52DD179C024FEA8A2383EAE673AB
:102DD8004FEAD67C1CEB030CC2F5876303F10503AD
:102DE80043F340110746084644EA9A5424F0004445
:102DF80044F0804484EAE67444F1000484EAE47E02
:102E080084EA0C0B00EA0E00604001EA0B0103F0B3
:102E18001F0481EA0C01C4F1200EB4F1200C00FA61
:102E28000EFE21FA04F343EA0E035CBF40FA0CFCE1
:102E380043EA0C03A2F2FE325D4005EAE2755D400A
:102E480087B02846DDE91089E91722F09BFE024683
:102E58000B465046314622F0B7FE4246CDE9030103
:102E68004B464046494622F004F9A1F58011C1F3CA
:102E78000A530133DB0A013B62EB02020340019370
:102E880001EA0203404602934946D7E9C42322F0E7
:102E9800F0F888460590384603F012FB0446384699
:102EA80022F084FE00F001067300013B04FB036678
:102EB8003046F11722F066FEDDE9032322F084FE96
:102EC80002460B4622F0D5F8DDE9012322F0D1F8BD
:102ED800824604FB04F08946C11722F053FE4AA338
:102EE800D3E9002322F0C5F802460B46504649466E
:102EF80022F06AFE46A3D3E900238246894622F0DF
:102F0800B8F8C1F30A53C3F58762053242F3401C8F
:102F1800E6468C0244EA905424F0404444F080444D
:102F280084EA802B02F01F020CEA0B0C8CEA802C3E
:102F380024EA0E04C2F1200E04FA0EFEA2F12000CB
:102F48002CFA02F242EA0E0224FA00F0C3F57F736B
:102F58000243013302EAE37484EAE17404EBD174B6
:102F68002046E11722F00EFE2BA3D3E9002322F01E
:102F780080F802460B465046494622F025FE84F06A
:102F88003F09C4F13F0309EAE379059A434602F091
:102F98006BFA4FF0400A001884EA090349410138E6
:102FA80041F1FF31C3F1200401FA04F4A3F1200236
:102FB80020FA03F949EA040921FA02F249EA020966
:102FC80021FA03F4384622F0F1FDAAF1080ACAF101
:102FD8002001AAF1200229FA0AF304FA01F10B43AD
:102FE80024FA02F21343DBB2C01A03D1BAF1000F7C
:102FF800E8D150E70028BFF64EAFA81907B0BDE8E2
:10300800F08F00BFAFF30080C2BB83C18B4FC33FBB
:10301800FE822B654715F73FEF39FAFE422EE63F51
:103028002DE9F04FADF55F7DCDE90E23DDE9EB47E6
:10303800E89B08251093E99BA5401193EA9BCDE9ED
:1030480014010A930123A34012937B19069307EBFB
:10305800450303EB450A089303EB050B0AEB45030D
:1030680007931023A3400B930AEB45032B440993C2
:1030780002230A9AA34013440AEB05061393BC4B98
:10308800159918A803EBC403D3E90023CDE9DC2381
:1030980022F0F2FC22460E99069822F076FD22468E
:1030A80038460F9922F071FD22465846109922F0B1
:1030B8006CFD22461199089822F067FD2146069872
:1030C80001F02AFD2146384601F026FD21465846E2
:1030D80001F022FD2146089801F01EFD21460698C0
:1030E80021F0AEFB2146584621F0AAFB2A46069954
:1030F800504628F05CFE2146504621F077FC2A46CF
:103108003946304628F053FE22463046089921F0C9
:1031180012FC2146384621F069FC224651463846C1
:1031280021F066FB2A460699504628F040FE2246C2
:103138005946069821F0FFFB22463146069821F0B1
:1031480057FB2146089821F051FC2A46594630463B
:1031580028F02DFE2146304621F048FC2246314613
:10316800089821F045FB4FF00008A6F108090A9BD2
:10317800002133F8180022F005FD129B08F1010820
:103188004345E9E90201F2D12146304601F0C4FC89
:103198002A463146079828F00AFE514622460798E3
:1031A80021F071FB6EA3D3E900230798009421F066
:1031B8004AFC59462246304621F065FB6AA3D3E90A
:1031C80000233046009421F03EFC31460B9A5846C5
:1031D80028F0EDFD089B52460193069B5946009343
:1031E80018A83B46CDE90346029403F0AFF95946C7
:1031F8000B9A504628F0E8FD22460E99069822F0D0
:10320800C4FC224638460F9922F0BFFC2246584695
:10321800109922F0BAFC22461199089822F0B5FCC0
:103228002146069801F078FC2146384601F074FCE6
:103238002146584601F070FC2146089801F06CFCC4
:103248002146069821F0FCFA2146584621F0F8FA62
:103258002A465146079828F0AAFD2A463146099879
:1032680028F0A5FD22463946079821F00CFBDDE938
:103278000810224621F007FB22460999079821F0F9
:10328800B7FA2A465146099828F091FD2246069930
:10329800099821F0F8FA2A460799504628F087FD40
:1032A80022465946304621F0EEFA22463046099920
:1032B80021F09EFA2146504601F0F6FC21463046A0
:1032C80001F0F2FCAAF108030D93079B0A9A023B4E
:1032D8000C930023984617930D9B32F8029BF3E951
:1032E800020116920D9322F0E9FB0C9AA9EB000952
:1032F80022F8029F09FB098813990C92169A179BCA
:10330800914243EA0803E6D1B14648EAE3730C93D5
:10331800A7F10208F9E8020122F0D0FB079B40421E
:103328004B4528F8020FF5D1224639460C9801F092
:10333800D9FB00283FF4A3AE022202FA04F4224685
:103348003946149828F033FD2246384607990DF57A
:103358005F7DBDE8F04F28F02ABD00BFAFF30080C5
:1033680082A79790E35415BF82A79790E354153F1F
:1033780030090300000000000022F0B585B01146B6
:1033880040F6034002AF0AF03FFD0446002840F033
:10339800A5800AF07FFA214641F203003A1D0AF09F
:1033A80033FD0446002840F099807A684D4DD16875
:1033B80005F17803D1F80100D1F8051003C31046D0
:1033C80008F0DCFE214641F201003A1D0AF01CFD1E
:1033D8000446002840F082807868C3685A7885F8E7
:1033E80070205A88A5F872201A7985F87120B3F8E8
:1033F8000720A5F87420B3F80530A5F8763008F052
:10340800BDFE214641F202003A1D0AF0FDFC0446C9
:10341800002863D1D7F804C005F18006DCF80C2039
:10342800531C4132344618685968083303C4934220
:103438002646F7D1604608F0A1FE0BF0C1FF04460E
:1034480000284BD195F88A30990610D40221264AD3
:10345800264824F0ECFA95F87C305A064AD4012123
:10346800234A224824F0E3FA6FF0120436E04FF0C2
:10347800FF304FF0FF310AF02DFA0646002800F021
:10348800428207210C3008F0BBFF6FF00403037081
:103498000A23C0F802408471447004712246C37044
:1034A800314640F633400AF0AFFC0446B0B94FF05D
:1034B800FF304FF0FF310AF00DFA0646002800F001
:1034C800228201210C3024F07CF92246314640F654
:1034D80031400AF099FC04460028BCD020460C373D
:1034E800BD46F0BDC00400203B7203000CC50200BD
:1034F80069720300002142F203003A1D0AF084FCBD
:1035080004460028EAD17A68A94BD168D1F80100AD
:10351800D1F8051003C3104608F030FE214642F2E8
:1035280002003A1D0AF070FC04460028D6D17E68D5
:10353800F468B4F801309AB292B1E27882B1A5F891
:103548000431E378032B06D0032202210092994824
:10355800994A23F08EFEE2789848114627F000FC3D
:10356800304608F00BFE1F2395F87C60A5F8203143
:1035780016F0200619D14FF0FF304FF0FF310AF056
:10358800A9F90446002800F0BE8102210C3008F099
:1035980037FF0123214603704670324640F66D40DE
:1035A8000AF032FC0446002898D195F89C301B0795
:1035B80012D5002142F21C003A1D0AF025FC0446EF
:1035C80000288BD17868C368D3F80120D3F8053078
:1035D800C5E9382308F0D2FD95F8D8309E0623D5E2
:1035E8003846B91C0AF0B8FC044600287FF476AFC8
:1035F8004FF0FF304FF0FF310AF06CF90646002813
:1036080000F0818104210C3008F0FAFE3B88224644
:1036180003807B883146438042F224000AF0F4FBA1
:10362800044600287FF45AAF95F8D8305C0610D5C8
:10363800002142F22A003A1D0AF0E6FB044600285F
:103648007FF44CAF7868C3685B7885F8223108F05E
:1036580095FD4FF0FF304FF0FF310AF03BF904467B
:10366800002800F0508108210C3008F0C9FE95F8B8
:10367800D81040F2022311F0400F08BF032302467E
:1036880088074CBF43F02C0043F00C008B0695F8DC
:10369800D93048BF40F0400013F0090F18BF40F47C
:1036A8000060CE0748BF40F01000002124F0EEF97A
:1036B8002146002242F201000AF0A6FB0446002837
:1036C8007FF40CAF95F87C30B5F8041198065DD4FA
:1036D800C9B941F205003A1D0AF096FB04460028D4
:1036E8007FF4FCAEB5F804317C684BB9E368B3F8F5
:1036F8000120A5F804219A883048114627F030FBAC
:10370800204608F03BFD4FF0FF304FF0FF310AF044
:10371800E1F80446002800F0F68008210C3008F093
:103728006FFE95F8D8300246D90739D44FF00051CA
:10373800234824F0ABF92146002240F601400AF064
:1037480063FB044600287FF4C9AE01463A1D4FF6D4
:1037580001400AF059FB002838D01A4A02211548BE
:1037680024F065F9EB79002B40F0BD8024F050FB84
:10377800044600287FF4B2AE0DF0C8FA04460028CB
:103788007FF4ACAE0AF044FA0446A7E60029BAD1A1
:1037980001210D4A074824F04AF96FF004049DE618
:1037A80001A1D1E90001C4E790880002008000204F
:1037B800980500200CC502008D720300C805002082
:1037C80010880002F6720300D37203007B686E460D
:1037D800DC688AB0B4F80130042B96BF574A5849C0
:1037E80052F8231002AAD3614FF40073554813848A
:1037F800554BC2E9050142F8103F4FF413515348A5
:1038080024F024F9B4F80120B546022AB4F80330AC
:1038180049D1052B47D84E4A52F823106E468AB034
:1038280002AAD3614FF400734A481384464BC2E995
:10383800050142F8103F4FF41351444824F006F9AB
:10384800B546637994F806C0032B98BF424AB4F88A
:103858000760D4F809006C468CB094BF52F8231066
:10386800374902AAC2E9073C4FF40073DFF8ECE0DD
:1038780093853B4BC2E905E1C2E909604FF47351F6
:1038880042F8103F314824F0E1F8A546786808F07E
:1038980075FC00214FF602403A1D0AF0B5FA0446BD
:1038A80018B1304A5AE72649B8E77868C368B3F8C8
:1038B8000130A5F8C13008F061FC95F8C1305A070D
:1038C8007FF550AF21464FF603403A1D0AF09CFAA7
:1038D80008B1254A42E77868C3685B7885F8C03044
:1038E80008F04CFC3EE72E78002E7FF43FAF95F8A9
:1038F800C1309B061FD54FF0FF304FF0FF3109F064
:10390800E9FF044610B96FF06804E7E506210C30BA
:1039180008F076FDD5F8013021460360134B324696
:103928009B8883804FF606400AF06EFA044600280A
:103938003FF41CAFD2E56FF08504CFE56C27030098
:103948008A6F03001A730300040000010CC502000B
:103958005427030033730300442703004B73030009
:103968000700000178730300A1730300C10400205D
:1039780030B50F4D89B003AC0FCD0FC42B680222B0
:10398800236001240B4B0C49009403A80BF0CAFADE
:10399800034630B12146094A094820F0E2FD09B042
:1039A80030BD0321074A064820F0D9FDF7E700BFDC
:1039B800B0C60200A00A0300A80A0300E6470300F5
:1039C800DCC502000B48030010B5064A0648022170
:1039D80020F0C5FDBDE8104040F2676200230348AF
:1039E80019F056BD2C480300DCC50200580F002012
:1039F80070B5012243688A401B6886681A420569C7
:103A08000ED10C4940F211430B4A0C4822F075FDC7
:103A18000B4822F072FD40F21141074822F064FD84
:103A28002B6823EA02032B6033684FF4C022BDE8F9
:103A3800704018478648030055480300C4480300EF
:103A4800E148030008B530201BF026FE38B10023FA
:103A58008385011DBDE80840034820F095BDBDE8F9
:103A68000840FFF7B1BF00BFA8C0020070B50378D7
:103A78008AB004460E4607AD032B20D8DFE803F0D2
:103A880002191B1D11492846FDF74EFA0595637862
:103A98001E210493A37830460393E3780C4A0293DB
:103AA8002379019363790093A37920F055FA0AB03A
:103AB80070BD0849E7E70849E5E70849E3E70A214F
:103AC8002846074A20F048FAE0E700BFF348030019
:103AD80015490300FA480300014903000B49030094
:103AE80034910300F0B5144689B000AF0D4624F0B8
:103AF80091FA3946FFF7BAFFACB96C468AB06A4604
:103B0800144BD561C2E905374FF400731384124B87
:103B18004FF41351114842F8103F20F032FDA546EA
:103B28002437BD46F0BD6E468CB06B460C4AC3E9DF
:103B38000754C3E905270B4A4FF462515A620A4AEF
:103B480006489A621A46094B42F8103F20F019FDC0
:103B5800B546E5E73849030004000001DCC502006A
:103B68005649030086AD0300000203050600000263
:103B780090B589B000AF0C4624F04CFA3946FFF7EF
:103B880075FF8AB06A46094BD461C2E90537084B0C
:103B98004FF443511362074B07485362074B42F8EF
:103BA800103F20F0EEFC2437BD4690BD7D49030050
:103BB80086AD030000020204DCC502000500000215
:103BC80090B589B000AF0C4624F024FA3946FFF7C7
:103BD8004DFF8AB06A46094BD461C2E905374FF4F4
:103BE80000731384064B4FF41351064842F8103FF4
:103BF80020F0C7FC2437BD4690BD00BFA349030091
:103C080004000001DCC5020090B589B000AF0C4685
:103C180024F000FA3946FFF729FF8AB06A46094BB3
:103C2800D461C2E905374FF400731384064B4FF48F
:103C38001351064842F8103F20F0A3FC2437BD4634
:103C480090BD00BFC549030004000001DCC50200A7
:103C5800B0B588B000AF0C4624F0DCF93946FFF760
:103C680005FF6D468AB06A46124BD461C2E9053732
:103C7800114B124C1362124B12485362124B4FF401
:103C8800435142F8103F20F07CFC2068AD4618B143
:103C98000CF00AF9002323600C4C206830B10CF0BA
:103CA80003F900230120236026F078F82037BD4669
:103CB800B0BD00BFDA49030086AD03008C200020A8
:103CC80000020204DCC5020005000002902000206A
:103CD800B0B588B000AF0C4605460CF0BDF8124BE5
:103CE8001860284624F096F93946FFF7BFFE6D465E
:103CF8008AB06A460D4BD461C2E905374FF40073A8
:103D08000B4C13840B4B204642F8103F4FF41351D1
:103D180020F037FC0321AD462046074A20F01FFC5F
:103D28002037BD46B0BD00BF8C200020C549030028
:103D3800DCC5020004000001FD490300B0B588B0ED
:103D4800044600AFB1B16C468AB06A46194B1A48AE
:103D5800C2E90531194B4FF41151D36140F20133D7
:103D68001384174B42F8103F20F00BFCA546203770
:103D7800BD46B0BD24F04EF93946FFF777FE6D46D3
:103D880088B06A460F4B4FF4E651C2E905374FF445
:103D9800007393830C4B084842F8103F20F0F1FB66
:103DA8002046AD460CF058F8084B1860012025F065
:103DB800F2FFDCE72C4A0300DCC5020086AD0300F5
:103DC800040000014D4A0300030000019020002078
:103DD80080B588B000AF24F01DF93946FFF746FEDC
:103DE80088B06A46084B4FF4E651C2E905374FF4EC
:103DF80000739383054B064842F8103F20F0C1FB3F
:103E08002037BD4680BD00BF5A4A030003000001A9
:103E1800DCC50200012310B503FA01F14368046907
:103E28001B6819420ED10E4940F2A2630D4A0E4892
:103E380022F063FB0D4822F060FB40F2A2610948C2
:103E480022F052FB2368194218BF82F0010222B106
:103E58008368DB68BDE81040184783681B69F9E789
:103E68008648030055480300C4480300E14803009E
:103E78000A46C1B20148FFF7CDBF00BF54C00200D7
:103E88000A46C1B20148FFF7C5BF00BF70C00200B3
:103E980010B50B78052B00F29580DFE803F003805E
:103EA8002C6172468B68002B00F08C8048680028D3
:103EB80000F08880444A1368DBB1181F00231360A0
:103EC800424A136027F0EBF800220023404818F01C
:103ED8004FFB002876D0828D011D3E4820F05DFB07
:103EE80000286FD03C4A0221BDE810403B4820F032
:103EF80036BB0438E6E74A68CB68108D0344384877
:103F08009BB213850278002A5CD14A68134413F8DF
:103F1800013C0A2B01D00D2B54D1012303702D48ED
:103F2800BDE8104083685B69184700242C4B30209B
:103F38001C701BF0B1FB30B18485011DBDE8104039
:103F4800244820F021BB274A2448022120F007FBFF
:103F5800BDE8104040F267620023234819F098BA80
:103F680030201BF099FB014648B10023838519488E
:103F78002822BDE81040836804311B691847194A94
:103F8800B1E74B68191F1B8D23B1BDE810401748D6
:103F980026F0CDBE0846BDE8104027F080B80A4A92
:103FA80013680BB94B68136008488B6801680B44A9
:103FB800116803600A8D0748D21A1944BDE81040F9
:103FC80020F0EBBA10BD00BF742000207020002044
:103FD800800C0020A8C00200704A0300DCC5020063
:103FE800903C00202C480300580F0020640C00204F
:103FF8002DE9F0438DB04FF0FF324FF0FF332848E2
:1040080018F0C6FB30220021684627F0F7FE254F3E
:10401800DFF89480DFF894904FF0FF334FF0FF32D1
:10402800384618F0A5FABDF82C40838DC4F1280451
:104038009C42054628BF1C4600261CB9284627F086
:104048002EF8E9E7BDF82C00311D0430224629443A
:10405800684427F0ACFEBDF82C202644224492B2D6
:10406800272AADF82C2008D802F130036B4413F846
:104078002D3C0A2B01D00D2B0CD1002001A906F0F4
:1040880045FD20B142460221484620F068FA002347
:10409800ADF82C30AC8DA41B282C28BF2824CCE7E5
:1040A800040C0020640C00208E4A0300DCC50200CA
:1040B800014818F0E9BA00BF340C002008B50548DB
:1040C8000321054A20F04BFABDE80840034818F0E0
:1040D800FBBE00BFDCC50200B64A03007C200020FE
:1040E800F8B51E4C0546206800AF002833D00D40B7
:1040F800EA0716D523F0BDFF6E4688B023686A46E6
:1041080017491848C2E9051303234FF4C65142F86A
:10411800103F20F036FAB54620680BF0C5FE0023A4
:104128002360AB0717D5206823F0ABFF6D4688B036
:1041380023686A460C490B48C2E9051303234FF468
:10414800C65142F8103F20F01CFAAD4620680BF02B
:10415800ABFE00232360BD46F8BD00BF8C200020C5
:10416800FE4A0300DCC50200154B03002DE9F04FA1
:1041780087B002AF20F0F7F9654C81468B461920CD
:104188000121FFF77DFE2146624801F0B1FF064696
:1041980020F0E9F90546884619200021FFF770FE4E
:1041A8004EB1334601215C4A5C4820F0DAF91437F5
:1041B800BD46BDE8F08F0321594A584820F0CFF991
:1041C800EA4688B002AA574BB5EB0905536168EB7C
:1041D8000B034FF0040BC2E906534FF4035142F8A6
:1041E80010BF4E4820F0CDF9D54620F0BCF9DFF8D5
:1041F80038917960804601211A20FFF741FE122389
:104208004A4A494600944A4821F018FC386020F090
:10421800AAF904460D461A203146FFF731FE3B68DD
:1042280073BB0321434A3D4820F099F988B002AA9C
:10423800414BB4EB080453617B684FF4035165EBC1
:104248000305C2E90645354842F810BF20F099F940
:104258000321D546D9F80030384A394E2F4820F086
:1042680080F9306878B90121364A2C4820F077F96E
:104278003368E3B90121334A284820F070F996E7FA
:104288000121314AE9E7D9F80030022207F10E018D
:10429800FB8106F03BFC034628B101212B4A1F484D
:1042A80020F05FF9E4E70321FB89294AF7E70121B8
:1042B8000420FFF7DDFD20F056F9002440F2813894
:1042C800244BDFF85090C3E90001A8EB0405F42D56
:1042D80028BFF4253068AAB209EB040106F016FCE1
:1042E80058B10121009023461B4A0C4822F0C1FF17
:1042F80000210420FFF7BCFD59E72C44A42000212D
:104308001AF0AAF9B4F5607FDFD90321134AB3E79D
:10431800813F0020824400202D4B0300DCC50200B1
:104328004B4B0300624B030078200020790A0020E1
:10433800913C00207F4B03008F4B0300A54B0300EB
:1043480090200020D54B0300BE4B0300F14B030027
:10435800194C0300980F0020394C03006D4C0300E2
:104368002DE9F04F00240646154691B008AF1A22F1
:104378008846381D21463C6027F040FD304623F032
:1043880049FE3946FFF772FB052D38D12A464046CB
:10439800A94927F03BFD064678B1DFF8A092DFF87F
:1043A800A0A2A54227D030201BF076F906460028A7
:1043B80040F017810221A34A4EE00321A24AA348F4
:1043C80020F0CDF80321A24AA04820F0C8F8002226
:1043D8000023CDE90356CDE90623CDE901664FF464
:1043E80080329C4B9C4900969C4819F065FA9C4980
:1043F8009A4826F030FD2437BD46BDE8F08F062DDB
:1044080075D12A464046974927F000FD0646002800
:10441800C3D101460420FFF72BFD20F0A4F86C4619
:10442800914A88B0D2E90032C01A61EB02012246F3
:104438008E4BDFF83C92C4E905300423E1618348E0
:1044480042F8103F4FF4035120F09BF8D9F80030A0
:10445800A5462BB90121874A7C4820F080F8CAE795
:1044680001210520FFF704FD834B3446D3F8008073
:1044780020F079F8814B824EC3E90001DFF8CCB116
:10448800A04502D87F4A0321E6E7A8EB040ABAF15F
:10449800F40F28BF4FF0F40AD9F800001FFA8AF287
:1044A800311906F033FB58B1012100902346764AB2
:1044B800664822F0DEFE00210520FFF7D9FC9AE7C6
:1044C8005444032123465846704ACDF8008022F010
:1044D800D0FE4FF4803200236D4818F059F90028B7
:1044E800CED001216B4A594820F039F8E3E7072D6F
:1044F8007FF453AF2A464046674927F087FC0646B3
:10450800002849D101460520FFF7B2FC20F02BF81E
:104518006C465A4A88B0D2E90032C01A61EB0201EF
:1045280022465E4BE161C4E9053004234FF4035190
:1045380042F8103F454820F024F8A5464C4C236823
:10454800002B87D001210620FFF792FC20F00BF802
:10455800534B1222C3E900012068524906F0D6FAEB
:10456800044648B10121009033464F4A374822F0AB
:1045780080FE31460620A0E74FF4803200234448ED
:1045880018F006F930B10121424A30481FF0E7FF20
:104598002146EFE7454A76E745492A46404627F04F
:1045A80035FC014600287FF4F8AE0620FFF760FCD2
:1045B8001FF0D9FF6C463A4A88B0D2E90032C01AD7
:1045C80061EB020122463B4BE161C4E9053004235B
:1045D8004FF403511D4842F8103F1FF0D2FFA54683
:1045E80009E72A1B272A8CBF272292B2031D82853E
:1045F80008EB0401184627F0DAFBB28D0346144491
:10460800A4B2A5420AD108EB050111F8011C0D2935
:1046180004D10A20B11801320871B28519464846FA
:10462800B28D1FF0BAFF00283FF4BBAE31465046AA
:1046380026F07DFBB5E600BF8D4C0300A8C0020044
:10464800800C0020914E0300934C0300DCC502004F
:10465800C74C030075410000684F0020D80E0020A9
:10466800FC4C03005F500300980F0020094D030025
:1046780090200020D54B030078200020880F0020D0
:10468800913C0020B64D0300414D0300744D0300DA
:10469800340C0020924D030082500300D54D0300D6
:1046A800900F0020790A00200D4E03003E4E0300B3
:1046B800A45003005B4E0300F8B5864826F0C9FAFB
:1046C80030B9854A012185481FF049FF1FF06DFF69
:1046D800834826F0BEFA08B9824AF3E719217D48D3
:1046E800FFF786F9034628B17F4A01217B481FF06E
:1046F80038FFEBE71A217748FFF77AF9034608B144
:104708007A4AF2E704217648FFF772F9034608B1BE
:10471800774AEAE705217248FFF76AF9034608B1C4
:10472800744AE2E706216E48FFF762F9044610B1C1
:104738000346714AD9E701461920FFF7A1FB214634
:104748001A20FFF79DFB21460420FFF791FB214625
:104758000520FFF78DFB21460620FFF789FB032183
:10476800664A5E481FF0FBFE0321654A5B481FF05E
:10477800F6FE0321634A59481FF0F1FE0321624AFD
:1047880056481FF0ECFE0321604A54481FF0E7FE2C
:1047980003215F4A51481FF0E2FE5E4814F0CEFA4A
:1047A800034620B101215C4A4C481FF0DAFE14F0A0
:1047B80093FA034620B10121584A48481FF0D1FE18
:1047C800574E304626F045FA00283FF47FAF302098
:1047D8001AF062FF044600283FF478AF00255149DB
:1047E8008585514818F01CFDB3681B6823B920461D
:1047F80026F055FC4D4A65E72A4630464C4998470D
:104808000028F4D130201AF047FF054660B3031D95
:1048180018464849FCF788FB25220146AA853046F8
:104828001FF0BBFE074640B1204626F038FC28465C
:1048380026F035FC3B46404A57E73046211D1FF01D
:10484800A3FE034658B93D480CF026FA034678B152
:104858003B4A012121481FF084FE0020F8BD0121B8
:10486800384A1E481FF07DFE204626F018FC2DE72A
:1048780035480CF02BFA034608B1344AE9E709F049
:10488800CBFC00287FF422AF0321314A13481FF0E4
:1048980066FE304817F0F8FE22F0C4FD2E4806F0F8
:1048A80029F9044610B103462C4AD2E72C482D4971
:1048B80018F0E2F92A4818F007FB013404F0010166
:1048C800002014F0CDFA00214FF4004019F0C4FE86
:1048D800F3E700BF70C00200BC4E0300DCC5020055
:1048E80054C00200D64E0300F04E0300234F0300CD
:1048F800574F03008E4F0300C44F0300F84F0300C7
:104908001750030030500300425003006650030064
:104918008A500300E9400000AC500300CA5003006D
:10492800A8C002004D3A0000580F0020E5500300CF
:10493800993E0000055103002B5103005406002046
:104948007B5103005451030044060020B151030079
:10495800EC510300040C002038060020025203002A
:104968007C200020793900002DE9F04F01266FF0F6
:1049780001049846002546F2020B9640584B7700F2
:1049880004FB07FA33F81230A9B0039333440293B7
:10499800944008AB03EB0A090490019108EB040367
:1049A8000221049A07A8059321F05AFBBDF81C20A0
:1049B800AE4252BA92B2A2F5C041A1F102014FEA49
:1049C800D17101F1FF3101EA0B01A2EB0101A1F55F
:1049D800C040A0F102004FEAD07000F1FF3000EAB9
:1049E8000B00A1EB0001A1F5405000F1FF304FEAA8
:1049F800D07000F1FF3020F47F6020F00E00A2F5A7
:104A080070424FEA8040A2F105024FEA90404FEA17
:104A1800D272A1EB000102F1FF32059B42EA0102CA
:104A280011D9019921F81520029A0135AA42B7D166
:104A3800012508AB03EB0A094444039B9D420AD9AC
:104A480029B0BDE8F08F92B2AF428CBF23F8152091
:104A580029F81520E8E700231A46C5F1000C96420C
:104A68004FEA420032D901990844B0F800E0954273
:104A78004FEADE3A0AF1FF3AA3EB0A0B1CD8B44519
:104A88004FEA4C0127D2DDF804804144D31A2B4069
:104A980003F2FF13B1F800805B0A5B4203EA0A03E2
:104AA8008EEA080A03EA0A0A8EEA0A0E88EA0A085F
:104AB800A0F800E0A1F80080029B013293420CF1BB
:104AC800010C01D16D00B8E75B46C8E797428CBF7F
:104AD80000194844C9E7BC4534BF09194944D5E71A
:104AE800642F03000223934030B50B44C41731F9F7
:104AF800025B05FB05008B4244EA0004F7D1054B35
:104B080040EAE47053F82230834234BF0020012089
:104B180030BD00BFB80A030001232DE9F04F03FAA6
:104B280001F4DC409BB000EBC40216920222CDE9EE
:104B380001230B901791029B179A934202D31BB043
:104B4800BDE8F08F002563081893019B019A5B0864
:104B58001993544B660803EB02170395039B199AA4
:104B6800934207D1029B189C01330293019B5B007F
:104B78000193E0E7D7E90023CDE90C23D7E9022325
:104B8800CDE90E230B9B069503EBC5030793169BF4
:104B980003EBC50308930B9B03EBC6030993169B12
:104BA80003EBC6030A93069BB34206D3039B254433
:104BB8000133039326441037D0E7079BD3E900233A
:104BC800CDE91023089BD3E90023CDE91223099BE3
:104BD800D3E90023CDE90423DDE904010A9BD3E9E5
:104BE8000023CDE91423DDE90C2320F042FADDE9A6
:104BF8000E2381468846DDE9140120F03AFA024680
:104C08000B46484641461FF0EFFDDDE90E2383467B
:104C18008A46DDE9040120F02CFADDE90C238146FF
:104C28008846DDE9140120F024FA02460B4648467E
:104C3800414620F000F95A4681468846DDE91001D0
:104C4800534620F0F8F84A464346CDE90401DDE929
:104C5800120120F0F0F8DDE90423DDF81CC0ECE8CF
:104C68000223089B5A46E3E80201DDE91001089394
:104C78005346CDF81CC01FF0B7FD82468B46DDE9D0
:104C8800120143464A461FF0AFFD099BE3E802AB19
:104C980009930A9BE3E802010A93069B01330693F2
:104CA80081E700BF58C802002DE9F04F012497B0F2
:104CB80004FA01F30493E3401293129ACDE9000138
:104CC80000EBC2031393049B02910393029B012BF5
:104CD8001AD8019BABB100255B4B019A03EBC203C9
:104CE800D3E90067009BA3F108043B46F4E90201FD
:104CF800324620F0BEF9049B0135AB42C4E90001FD
:104D0800F3D117B0BDE8F08F0026039B5B0803932F
:104D18006300039A05934D4B03EB0215129B9E42C9
:104D280004D3029B059C013B0293CFE73746D5E9A4
:104D38000023CDE90A23AB681593EB6803F1004320
:104D48001493009B03EBC6030693139B03EBC60364
:104D58000793009B03EBC4030893139B03EBC40363
:104D68000993A74204D3059B10351E441C44D5E77C
:104D7800069B0137D3E900AB079B5046D3E90023D4
:104D8800CDE90C23089B5946D3E90023CDE90E232E
:104D9800099BD3E90023CDE91023DDE90E2320F098
:104DA8004AF8DDE9102380468946DDE90C0120F048
:104DB80042F8069BE3E802890693079BE3E80201B1
:104DC800504659460793DDE90E231FF00DFDDDE936
:104DD800102381468846DDE90C011FF005FDDDE959
:104DE8000A230C900E914846414620F042F9DDE92D
:104DF800143283468A460C980E9920F03AF90246F6
:104E08000B46584651461FF0EFFCDDE91432824646
:104E18008B464846414620F02CF9DDE90A238146B5
:104E280088460C980E9920F024F90B460246414614
:104E3800484620F000F8089BE3E802AB0893099B7A
:104E4800E3E8020109938CE700C8020058C8020091
:104E58002DE9F04F012400279C4089B06408A1F196
:104E68000803019301EBC4030293A2F1080303931F
:104E780002EBC405A0F10806A74202D109B0BDE8BB
:104E8800F08F029B0399F3E802AB0293F1E9022346
:104E9800CDE90423F5E80223CDE90623019B03911C
:104EA800F3E9020101931FF09BFC814688465046B6
:104EB80059461FF095FC02460B46484641461FF0EE
:104EC800BAFF81468846DDE904011FF089FC834664
:104ED8008A46DDE906011FF083FC02460B46584668
:104EE80051461FF0A8FF02460B46484641461FF0B0
:104EF800A2FF02460B460020034920F028F901379B
:104F0800E6E90201B8E700BF0000F03F2DE9F74FDE
:104F180001254FF0000A4FF0000895406D08DFF8B2
:104F28005090A1F10806A0F1080B00EBC504AA45B2
:104F380002D103B0BDE8F08FF6E9022340464946A6
:104F480020F005F902460B460F460190FBE90201E5
:104F580020F08FF8CBE900013B46D4E90001019A23
:104F680020F087F80AF1010AE4E80201DFE700BF50
:104F78000000F03F2DE9F04F01249C4091B06308F8
:104F88000193A0F108030993019B00EBC303049369
:104F9800A1F108030593019B01EBC3030093A2F160
:104FA80008030693019B02EBC303089300230793AE
:104FB800079B019A934202D111B0BDE8F08F099B7B
:104FC800059AF3E902AB0993049B5046D3E900879D
:104FD80008330493F2E90234CDE902340592009BC8
:104FE800069AD3E90095F2E90234CDE90A34089B20
:104FF8005946D3E900340692CDE90C341FF0F0FB92
:1050080006460C46404639461FF0EAFB02460B4668
:10501800304621461FF00FFF02460B460020494943
:1050280020F095F802460B46CDE90E105046594639
:1050380020F01FF8DDE90E3206460C46404607F11F
:10504800004120F016F8324683468A46DDE902011F
:10505800234620F00EF85A4680460F4653464846E7
:10506800294620F006F802460B46404639461FF00E
:10507800BBFB5A4680460F46DDE9020153461FF046
:10508800F8FF324683468A462346484629461FF09B
:10509800F0FF02460B46584651461FF0CCFEDDE9AC
:1050A800022306460C46404639461FF0E2FF05F14A
:1050B800004583468A464A462B46214630461FF01D
:1050C800D8FF02460B46584651461FF08DFB4A460C
:1050D80083468A462B46404639461FF0CAFFDDE91B
:1050E800022381460D46304621461FF0C2FF024684
:1050F8000B46484629461FF09EFE5A4653468146AF
:105108000D46DDE90A011FF06FFB83468A46DDE99B
:105118000C012B464A461FF067FB069B04F100442E
:10512800C3E900BA089BE3E802010893059BC3E9B9
:105138000087009B43F8086B009343F8044C079BD7
:10514800013334E70000F03F2DE9F04F0124824697
:1051580004FA03F323FA04F6D2E900456AE80245A3
:105168008FB09B08059302EBC603D3E90045CDE950
:105178000123059B0F4600EBC3030393654B67E8C8
:10518800024503EB061B059B01EBC30600230493B2
:10519800019B0BF1100B10330193029B1033029308
:1051A800DDE90432934202D10FB0BDE8F08F019BD4
:1051B80053E90489029B404653E90434CDE9063497
:1051C800019B494653E90234CDE90834029B53E96F
:1051D8000234CDE90A34DDE908231FF02CFEDDE9AD
:1051E8000A230C460546DDE906011FF024FE4FF0B0
:1051F800000CA4F58014C4F30A530133DB0A013B05
:10520800A1F5801105EA0305C1F30A5303F101036F
:105218004FEAD3234CF1FF32013B04EA020400EACF
:1052280003004CF1FF32039B4AF8085F1140CAF8AB
:105238000440C3E900010833404649460393DDE9C9
:1052480008231FF0D1FADDE90A2381468846DDE903
:1052580006011FF0C9FA5BE90434CDE906345BF8AE
:10526800083CCDE90C010A935BF8043C484603F17D
:10527800004341460893DDE906231FF0FAFE0A9A27
:1052880005460C46DDE90C01089B1FF0F2FE0246BC
:105298000B46284621461FF0A7FA0A9A05460C46EF
:1052A80048464146089B1FF0E4FEDDE90623814697
:1052B8008846DDE90C011FF0DCFE02460B46484635
:1052C80041461FF0B8FD4FF0000CA4F58014C4F35C
:1052D8000A530133DB0A013BA1F5801105EA0305F6
:1052E800C1F30A5303F101034FEAD3234CF1FF3210
:1052F800013B04EA020400EA03004CF1FF32049B7C
:1053080047F8085F11407C600133C6E900010836A0
:105318003DE700BF58C802002DE9F04F0E460121B5
:105328000446B246154601FA03F323FA01F77AE870
:105338000201C4E9000193B09B080E9304EBC70374
:1053480075E802019846C3E9000100230E9902EBB3
:10535800C1020F92434A06EBC10B02EB07190193F6
:10536800019B0E9A09F11009934204F1100408F107
:10537800100802D113B0BDE8F08F0F99FAE90223A3
:10538800CDE90223FBE80223CDE90423F5E9022352
:10539800CDE90623F1E80223CDE9082359E90423DE
:1053A800CDE90A2359E902230F91CDE90C23DDE960
:1053B8000601DDE90A231FF05CFEDDE90C23074640
:1053C8000E46DDE908011FF054FE02460B4638463A
:1053D80031461FF009FADDE90C23CDE91001DDE9BA
:1053E80006011FF046FEDDE90A2307460E46DDE901
:1053F80008011FF03EFE02460B46384631461FF0B4
:105408001AFDDDE9102307460E46DDE902011FF00B
:1054180012FD3A46334606900891DDE904011FF073
:105428000AFD069B44F8103C089B44F80C3CDDE957
:10543800102348E90401DDE902011FF0D5F93346DC
:10544800029006913A46DDE904011FF0CDF9029B6E
:1054580044F8083C069B44F8043C019B48E90201D7
:1054680001337CE758C802002DE9F84F91469A4667
:1054780000222B4B1FF0FDFD1FF0F9FB042405183B
:105488004FF000074FF00100DFF898C0264E494161
:10549800A5FB0623A4FB05E2A1FB044B13EB0E08B6
:1054A800A1FB066E5CF8083F42F100021C1BDCF809
:1054B800043000F1010063EB0B03B4EB0E0463F15D
:1054C8000003A41A63F1000318EB060647EB07066E
:1054D800A61B63F100040D28DAD10022104B4846C0
:1054E80051461FF0C6FD1FF0C2FB0018A0FB063294
:1054F800A4FB000549411218A1FB0660A1FB043179
:1055080045F10005C01841F10001401941F10001C1
:10551800B6187F41C01941F10001BDE8F88F00BFFE
:105528000000E04398C70200A38311742DE9F04FEF
:105538001D46012385B09340DDE90E74CDE90201D3
:1055480021463846904600931FF082FF23460146C5
:1055580082463A4628461FF068FF46460546092E09
:105568004DD9C7F1004630464FF01E0BBB1E0193C4
:1055780023463A4601461FF058FF234629468146EE
:105588001FF053FF019B89EA000023FA0BF343F352
:1055980000030340BBF1010B89EA0300E8D223466C
:1055A80001211FF042FF2346014650461FF03DFFF0
:1055B800B1464FF0000ADFF858B00190C8F10A0868
:1055C8000AFA08F33BF81330029A294642F8236096
:1055D800039A304642F8239023463A461FF025FFA7
:1055E80023460646019948461FF01FFF009B0AF113
:1055F800010A53458146E3D105B0BDE8F08F29463D
:10560800284623463A461FF010FF01360546A6E70E
:105618007A2F03002DE9F04F0027012380463D46ED
:1056280003FA02FAC2F10A0285B0934000930AF124
:10563800FF33019103934FF000094E46404620F096
:10564800FBF8274B21F00044C018264B404643EB9B
:1056580004044FEAD17B20F0EFF8012202900020E9
:10566800DFF884C0E40F21F000415CF8083FDDF862
:1056780008E0BEEB030EDCF8043061EB03036FEACD
:10568800030E84F001034FEADE7E03EA0E035B4259
:10569800134001321B2A40EA030044EA0E04E4D115
:1056A800CBF1000343405B441E44009B09F1010910
:1056B8004B45C3D106F17F03FE2BBCD8039A06F0F5
:1056C8000103954209D19F42B5D0019B5E55013532
:1056D800AA45B0D105B0BDE8F08F5F40F5E700BF3F
:1056E800A8540DD227C82EEE580803002DE9F04F14
:1056F80004460E4601258BB0159F0693584BDFF8DC
:1057080064A13B6093000493B54212D3149B002B11
:1057180000F0A28000254FEA860A07EB8609069B5F
:10572800AB4200F099800021CC460A4604EB0A00FF
:1057380072E0DAF80C90DAF81430484607931FF054
:105748005DFE0146029048461FF082FEAB000593BD
:105758000023A04608900393039B069A93420AD11C
:1057680029464A4638461FF0DBFE0AF10C0A47F87C
:1057780025000135C8E7059B4A4643440993059B24
:10578800294658F803B0089B40460093029B1FF037
:10579800DCFEABEB000B09EAEB715944029B07985E
:1057A8001FF043FE002383461946A8F1040E4FF06C
:1057B800000C57F821005EF8042F0131E0FB0B2C98
:1057C800D3184CF1000C23F000428D424FEAD373FA
:1057D800CEF8002043EA4C03E9D1099A1360039BF1
:1057E80001330393049B9844B6E75CF8048D50F8A2
:1057F800043D890741EA580E08F00101AEEB0308A1
:10580800A3EB0E03DB0F02F0010E43EAE8730EF17F
:10581800FF3E03EA0E031A438442E6D14FF0000C20
:105828006046D217A4F1040E864203D1049B0135C9
:105838001C4474E75EF8041F57F820300130CB1A77
:10584800A3EB0C034FEAD37C23F000434B401340F7
:105858005940CEF80010E7E70BB0BDE8F08F00BF65
:1058680001D8FF7F900B03002DE9F04F99B00E93FC
:1058780001238B400F935B080C93854B042453F84A
:1058880022B0013253F822308C4005939B000893D4
:10589800089A0C9B0F46534302461A44129200EB97
:1058A80043030BFA01F2069303EB82031093069B62
:1058B800014603EBC203039323440493039B09901B
:1058C800D200069803EB440526F07EFA4FEA8B03D4
:1058D8000A93704B0B9363190D930C9B05EBC30351
:1058E8001693002307937B1E1793079B5B4521D1D3
:1058F8000124039B5A4659460698019300940F9B2E
:10590800FFF7F4FE039B5A46CDE9004359460F9B27
:105918001098FFF7EBFE0C22DA465E4B02FB0B33C6
:105928000B937B1E1393059B9A45C0F0B58019B065
:10593800BDE8F08F0B9B1E6830461FF05FFD0446E4
:10594800014630461FF084FDCDE900640B9B3A46C2
:105958005B681390DDE90301FFF7E8FD079B9B00F7
:105968001193DDE9063203EB820314932B46149A54
:10597800116843F8041B0A990A440D998B42F7D120
:105988000E9B3BB93B4601212846CDE90064039AAA
:105998001FF06FFF099B119AA84613449A464FF0CF
:1059A800000915930C9B08F1080899454DD1DDE9CC
:1059B800103203EB02080E9B3BB13B465946CDE93A
:1059C8000064049A14981FF0A2FF2B4642461168FF
:1059D80043F8041B0A990A440D998B42F7D10E9B90
:1059E8003BB93B4601212846CDE90064039A1FF0E4
:1059F80040FFDDE911321344A9469A461193169BDC
:105A0800994533D10E9B3BB13B4659464046CDE9BB
:105A18000064049A1FF07BFF229B7BB9DDE9042117
:105A2800179B1598CDE900641FF071FFDDE904218B
:105A3800CDE90064179B11981FF069FF079B01339C
:105A480007930B9B0C330B934FE758E9020123464E
:105A580032461FF0EAFC234613991FF0E6FC089B28
:105A6800CAF8000009F101099A449BE7D9F8041023
:105A78002346324659F8080B1FF0D7FC23461399E2
:105A88001FF0D3FC089BCAF800009A44B7E700BF90
:105A9800640B0300900B03000B9BA8461E6830465E
:105AA8001FF0ACFC0446014630461FF0D1FC2246EC
:105AB80003463146079058461FF0EEFCCDE90064D6
:105AC8000B9B0F903A46DDE903015B68FFF72EFD5B
:105AD800DDF818900F9B48460193079B32460093C8
