:020000040800F2
:1000000000000320019B0008857800089378000811
:100010009B780008A3780008AB7800080000000077
:10002000000000000000000000000000B37800089D
:10003000C178000800000000CF780008DD780008D3
:10004000559B0008559B0008559B0008E97800085F
:10005000559B0008559B00087779000885790008B2
:10006000559B0008559B000869790008559B0008BE
:10007000559B0008559B0008F5780008559B000823
:10008000559B0008559B0008559B0008559B000890
:10009000559B0008559B0008559B0008559B000880
:1000A000559B0008559B0008559B0008559B000870
:1000B000559B0008559B0008559B0008559B000860
:1000C000559B0008559B0008559B0008559B000850
:1000D000097900081D790008559B0008559B000808
:1000E000559B0008559B0008559B0008559B000830
:1000F000317900083D79000849790008559B0008CE
:10010000559B0008559B0008559B0008559B00080F
:10011000559B0008559B0008559B0008559B0008FF
:10012000559B0008559B000855790008559B000811
:0C013000559B0008559B0008559B0008DB
:1001400010B5054C237833B9044B13B10448AFF311
:1001500000800123237010BD500200200000000029
:10016000AC54010808B5034B1BB103490348AFF376
:10017000008008BD0000000054020020AC540108BB
:1001800010F8012B11F8013B012A28BF9A42F7D041
:10019000D01A7047000000000000000000000000BE
:1001A00001F0FF01102A2BDB10F0070F08D010F828
:1001B000013B013A8B422DD010F0070F42B3F6D12C
:1001C000F0B441EA012141EA014122F007047FF045
:1001D00000070023F0E80256083C85EA010586EA9C
:1001E000010685FA47F5A3FA87F586FA47F6A5FAD8
:1001F00087F68EB9EED1F0BC01F0FF0102F00702E4
:1002000032B110F8013B013A83EA010313B1F8D18E
:100210000020704701387047002D06BF354603386F
:10022000073815F0010F07D1013015F4807F02BFA8
:10023000013015F4C03F0130F0BC0138704700BFF9
:10024000034613F8012B002AFBD1181A0138704716
:1002500081F0004102E000BF83F0004330B54FEA77
:1002600041044FEA430594EA050F08BF90EA020FE4
:100270001FBF54EA000C55EA020C7FEA645C7FEA77
:10028000655C00F0E2804FEA5454D4EB5555B8BF9A
:100290006D420CDD2C4480EA020281EA030382EA0B
:1002A000000083EA010180EA020281EA0303362D9D
:1002B00088BF30BD11F0004F4FEA01314FF4801C70
:1002C0004CEA113102D0404261EB410113F0004F82
:1002D0004FEA03334CEA133302D0524263EB430339
:1002E00094EA050F00F0A780A4F10104D5F1200ED7
:1002F0000DDB02FA0EFC22FA05F2801841F1000132
:1003000003FA0EF2801843FA05F359410EE0A5F105
:1003100020050EF1200E012A03FA0EFC28BF4CF036
:10032000020C43FA05F3C01851EBE37101F00045EC
:1003300007D54FF0000EDCF1000C7EEB00006EEBF9
:100340000101B1F5801F1BD3B1F5001F0CD3490883
:100350005FEA30004FEA3C0C04F101044FEA4452DA
:1003600012F5800F80F09A80BCF1004F08BF5FEA61
:10037000500C50F1000041EB045141EA050130BD41
:100380005FEA4C0C404141EB0101013C28BFB1F553
:10039000801FE9D291F0000F04BF01460020B1FA9E
:1003A00081F308BF2033A3F10B03B3F120020CDA71
:1003B0000C3208DD02F1140CC2F10C0201FA0CF04F
:1003C00021FA02F10CE002F11402D8BFC2F1200CB4
:1003D00001FA02F120FA0CFCDCBF41EA0C0190406A
:1003E000E41AA2BF01EB0451294330BD6FEA0404B3
:1003F0001F3C1CDA0C340EDC04F11404C4F120029E
:1004000020FA04F001FA02F340EA030021FA04F3AF
:1004100045EA030130BDC4F10C04C4F1200220FA06
:1004200002F001FA04F340EA0300294630BD21FA44
:1004300004F0294630BD94F0000F83F4801306BF0A
:1004400081F480110134013D4EE77FEA645C18BFFE
:100450007FEA655C29D094EA050F08BF90EA020F95
:1004600005D054EA000C04BF1946104630BD91EA8D
:10047000030F1EBF0021002030BD5FEA545C05D190
:100480004000494128BF41F0004130BD14F58004CF
:100490003CBF01F5801130BD01F0004545F0FE4143
:1004A00041F470014FF0000030BD7FEA645C1ABF78
:1004B000194610467FEA655C1CBF0B46024650EAAF
:1004C000013406BF52EA033591EA030F41F40021DB
:1004D00030BD00BF90F0000F04BF0021704730B561
:1004E0004FF4806404F132044FF000054FF0000136
:1004F00050E700BF90F0000F04BF0021704730B5F7
:100500004FF4806404F1320410F0004548BF4042CB
:100510004FF000013EE700BF42004FEAE2014FEA20
:1005200031014FEA02701FBF12F07F4393F07F4FFB
:1005300081F06051704732F07F4208BF704793F0FE
:100540007F4F04BF41F40021704730B54FF4607411
:1005500001F0004521F000411CE700BF50EA010214
:1005600008BF704730B54FF000050AE050EA0102BD
:1005700008BF704730B511F0004502D5404261EB2D
:1005800041014FF4806404F132045FEA915C3FF46E
:10059000D8AE4FF003025FEADC0C18BF03325FEA0B
:1005A000DC0C18BF033202EBDC02C2F1200300FABC
:1005B00003FC20FA02F001FA03FE40EA0E0021FAE1
:1005C00002F11444BDE600BF70B54FF0FF0C4CF4CF
:1005D000E06C1CEA11541DBF1CEA135594EA0C0F81
:1005E00095EA0C0F00F0DEF82C4481EA030621EABC
:1005F0004C5123EA4C5350EA013518BF52EA0335F7
:1006000041F4801143F4801338D0A0FB02CE4FF0A8
:100610000005E1FB02E506F00042E0FB03E54FF0D8
:100620000006E1FB03569CF0000F18BF4EF0010ED0
:10063000A4F1FF04B6F5007F64F5407404D25FEACC
:100640004E0E6D4146EB060642EAC62141EA55517F
:100650004FEAC52040EA5E504FEACE2EB4F1FD0CC1
:1006600088BFBCF5E06F1ED8BEF1004F08BF5FEA3F
:10067000500E50F1000041EB045170BD06F00046F1
:1006800046EA010140EA020081EA0301B4EB5C049E
:10069000C2BFD4EB0C0541EA045170BD41F4801196
:1006A0004FF0000E013C00F3AB8014F1360FDEBFBB
:1006B000002001F0004170BDC4F10004203C35DA97
:1006C0000C341BDC04F11404C4F1200500FA05F31A
:1006D00020FA04F001FA05F240EA020001F00042BB
:1006E00021F0004110EBD37021FA04F642EB060131
:1006F0005EEA430E08BF20EAD37070BDC4F10C045B
:10070000C4F1200500FA04F320FA05F001FA04F21E
:1007100040EA020001F0004110EBD37041F100010A
:100720005EEA430E08BF20EAD37070BDC4F1200515
:1007300000FA05F24EEA020E20FA04F301FA05F27D
:1007400043EA020321FA04F001F0004121FA04F225
:1007500020EA020000EBD3705EEA430E08BF20EAF5
:10076000D37070BD94F0000F0FD101F0004640002F
:1007700041EB010111F4801F08BF013CF7D041EAB1
:10078000060195F0000F18BF704703F000465200B5
:1007900043EB030313F4801F08BF013DF7D043EA86
:1007A0000603704794EA0C0F0CEA135518BF95EA3C
:1007B0000C0F0CD050EA410618BF52EA4306D1D1C3
:1007C00081EA030101F000414FF0000070BD50EAE2
:1007D000410606BF1046194652EA430619D094EA6C
:1007E0000C0F02D150EA013613D195EA0C0F05D156
:1007F00052EA03361CBF104619460AD181EA0301AA
:1008000001F0004141F0FE4141F470014FF0000061
:1008100070BD41F0FE4141F4780170BD70B54FF0FC
:10082000FF0C4CF4E06C1CEA11541DBF1CEA13557C
:1008300094EA0C0F95EA0C0F00F0A7F8A4EB05045E
:1008400081EA030E52EA03354FEA013100F0888055
:100850004FEA03334FF0805545EA131343EA12631E
:100860004FEA022245EA111545EA10654FEA0026D3
:100870000EF000419D4208BF964244F1FD0404F58C
:10088000407402D25B084FEA3202B61A65EB0305E8
:100890005B084FEA32024FF480104FF4002CB6EBA5
:1008A000020E75EB030E22BFB61A754640EA0C0025
:1008B0005B084FEA3202B6EB020E75EB030E22BF65
:1008C000B61A754640EA5C005B084FEA3202B6EBA6
:1008D000020E75EB030E22BFB61A754640EA9C0065
:1008E0005B084FEA3202B6EB020E75EB030E22BF35
:1008F000B61A754640EADC0055EA060E18D04FEAF3
:10090000051545EA16754FEA06164FEAC30343EA92
:1009100052734FEAC2025FEA1C1CC0D111F4801F5F
:100920000BD141EA00014FF000004FF0004CB6E758
:1009300011F4801F04BF01430020B4F1FD0C88BFF7
:10094000BCF5E06F3FF6AFAEB5EB030C04BFB6EB02
:10095000020C5FEA500C50F1000041EB045170BDF5
:100960000EF0004E4EEA113114EB5C04C2BFD4EB22
:100970000C0541EA045170BD41F480114FF0000EA6
:10098000013C90E645EA060E8DE60CEA135594EA22
:100990000C0F08BF95EA0C0F3FF43BAF94EA0C0F25
:1009A0000AD150EA01347FF434AF95EA0C0F7FF49A
:1009B00025AF104619462CE795EA0C0F06D152EAEE
:1009C00003353FF4FDAE1046194622E750EA4106D2
:1009D00018BF52EA43067FF4C5AE50EA41047FF4E3
:1009E0000DAF52EA43057FF4EBAE12E74FF0FF3C48
:1009F00006E000BF4FF0010C02E000BF4FF0010C19
:100A00004DF804CD4FEA410C7FEA6C5C4FEA430C91
:100A100018BF7FEA6C5C1BD001B050EA410C0CBFE0
:100A200052EA430C91EA030F02BF90EA020F002042
:100A3000704710F1000F91EA030F58BF994208BFA9
:100A400090422CBFD8176FEAE37040F00100704766
:100A50004FEA410C7FEA6C5C02D150EA013C07D1BD
:100A60004FEA430C7FEA6C5CD6D152EA033CD3D008
:100A70005DF8040B704700BF8446104662468C4602
:100A80001946634600E000BF01B5FFF7B7FF002835
:100A900048BF10F1000F01BD4DF808EDFFF7F4FF5E
:100AA0000CBF012000205DF808FB00BF4DF808EDE9
:100AB000FFF7EAFF34BF012000205DF808FB00BF0C
:100AC0004DF808EDFFF7E0FF94BF012000205DF82E
:100AD00008FB00BF4DF808EDFFF7CEFF94BF0120E3
:100AE00000205DF808FB00BF4DF808EDFFF7C4FFDC
:100AF00034BF012000205DF808FB00BF4FEA410C25
:100B00007FEA6C5C02D150EA013C0AD14FEA430C07
:100B10007FEA6C5C02D152EA033C02D14FF0000044
:100B200070474FF0010070474FEA410212F5001282
:100B300015D211D56FF47873B3EB625212D94FEA24
:100B4000C12343F0004343EA505311F0004F23FA0E
:100B500002F018BF404270474FF00000704750EA63
:100B6000013005D111F0004008BF6FF00040704720
:100B70004FF00000704700BF53B94AB9002908BFC1
:100B800000281CBF4FF0FF314FF0FF3000F088B954
:100B9000ADF1080C6DE904CE00F006F8DDF804E0D4
:100BA000DDE9022304B070472DE9F047089D0F46A8
:100BB00004468C46002B48D18A42164661D9B2FAC7
:100BC00082F34BB1C3F1200201FA03FC20FA02F2D6
:100BD0009E4042EA0C0C9C404FEA164EB7B2BCFB5A
:100BE000FEF1220C0EFB11CC42EA0C4201FB07F095
:100BF000904209D9B21801F1FF3C80F0EE8090429A
:100C000040F2EB8002393244121AA4B2B2FBFEF079
:100C10000EFB102244EA024400FB07F7A74209D961
:100C2000341900F1FF3280F0DA80A74240F2D78019
:100C30003444023840EA0140E41B00211DB1DC408D
:100C40000023C5E90043BDE8F0878B4206D90DB10A
:100C5000C5E9000100210846BDE8F087B3FA83F139
:100C6000002948D1BB4202D3824200F20781841A94
:100C700067EB030201209446002DE4D0C5E9004C47
:100C8000E1E7002A00F09280B2FA82F3002B40F0F4
:100C9000A8808A1A4FEA164E1FFA86FC0121200C02
:100CA000B2FBFEF70EFB172240EA02420CFB07F0F4
:100CB000904207D9B21807F1FF3802D2904200F2F1
:100CC000E2804746121AA4B2B2FBFEF00EFB1022DD
:100CD00044EA02440CFB00FCA44507D9341900F196
:100CE000FF3202D2A44500F2CB801046A4EB0C04E4
:100CF00040EA0740A2E7C1F120068B4022FA06FC39
:100D00004CEA030C07FA01F420FA06F3F7404FEA25
:100D10001C49234300FA01F81FFA8CFEB7FBF9F0D7
:100D20001C0C09FB107744EA074400FB0EF7A742AE
:100D300002FA01F20AD91CEB040400F1FF3A80F038
:100D40009B80A74240F2988002386444E41B9FB223
:100D5000B4FBF9F309FB134447EA044403FB0EFE1A
:100D6000A64509D91CEB040403F1FF3780F082800B
:100D7000A6457FD9023B644443EA0040A4EB0E043D
:100D8000A0FB02E7BC427346B94663D360D05DB1B5
:100D9000B8EB030264EB090404FA06F622FA01F345
:100DA0001E43CC40C5E9006400214CE762084808B6
:100DB00042EAC1710B0C43EA00438AB242EA0342A1
:100DC000B3FBF6F1E407B4463746B6461F23B0FB43
:100DD000F6F0D21B41EA004161E7614614E7104694
:100DE00028E7C3F1200120FA01F29E4027FA01F121
:100DF0009F403A434FEA164E1FFA86FCB1FBFEF7BE
:100E00000EFB1710110C41EA004107FB0CF8884556
:100E100004FA03F43AD9711807F1FF3001D288457A
:100E20001FD8A1EB0801B1FBFEF808FB0CF70EFB85
:100E3000181192B242EA0142BA422FD2B21808F116
:100E4000FF31C6D2BA42C4D2A8F102013244C0E78F
:100E5000F0459CD2BEEB020367EB0C070138B946A4
:100E600095E7A6EB08084144B81EB1FBFEF808FB65
:100E70000CF7DCE73B467FE7504667E70846FBE6B2
:100E80003444023832E7023F32441BE7A1EB080149
:100E90003846B1FBFEF808FB0CF7C8E7414698E777
:100EA000704700BF80B483B000AF786039607B6862
:100EB00003333A68D2B21A7000BF0C37BD465DF8F2
:100EC000047B704780B584B000AFF860C7E90023A9
:100ED000FB6803F10800D7E90023082106F057FE5C
:100EE00000BF1037BD4680BD80B483B000AF7860CE
:100EF00039607B6813333A68D2B21A7000BF0C377E
:100F0000BD465DF8047B704780B582B000AF786065
:100F1000396010223968786812F035FD00BF083753
:100F2000BD4680BD80B483B000AF786039607B6817
:100F300017333A68D2B21A7000BF0C37BD465DF85D
:100F4000047B704780B582B000AF786039601022B2
:100F50003968786812F017FD7B6817333A68D27DDC
:100F60001A7000BF0837BD4680BD80B483B000AFA3
:100F7000786039607B681B333A68D2B21A7000BF60
:100F80000C37BD465DF8047B704780B483B000AF7A
:100F9000786039607B681F333A68D2B21A7000BF3C
:100FA0000C37BD465DF8047B704780B483B000AF5A
:100FB000786039607B681B333A68D2B21A7000BF20
:100FC0000C37BD465DF8047B704780B582B000AF3A
:100FD000786039607B681C333968184606F000FE7B
:100FE00000BF0837BD4680BD80B483B000AF7860D5
:100FF000064BD3F8902005497B681343C1F8903025
:1010000000BF0C37BD465DF8047B704700080058F0
:1010100080B485B000AF78604FF0B043DA6C4FF029
:10102000B0417B681343CB644FF0B043DA6C7B680C
:101030001340FB60FB6800BF1437BD465DF8047BBE
:10104000704780B485B000AF78604FF0B043D3F8FC
:101050004C214FF0B0417B681343C1F84C314FF045
:10106000B043D3F84C217B681340FB60FB6800BFA2
:101070001437BD465DF8047B704780B500AF08F0BB
:1010800069FF08F06DFF4FF48030FFF7ADFF0FF000
:1010900071FB00F021F800F0C1F800BF80BD000036
:1010A000B0B588B000AF0B4B3C1D1D460FCD0FC433
:1010B00095E8070003C422800234130C237011F05A
:1010C000A7F83B1D18460FF0F8FE00BF2037BD46BD
:1010D000B0BD00BFC854010880B588B000AF3B1D4B
:1010E00000221A605A609A60DA601A610023BB839A
:1010F00000237B8300233B830023FB7736E0FB7FC9
:10110000434ADB0013449B79002B2CD0FB7F404AE1
:1011100052F833303F4A93421BD03E4A934221D883
:10112000B3F1904F03D03C4A934209D01AE0FB7FC1
:10113000374ADB0013449A88BB8B1343BB8312E00E
:10114000FB7F334ADB0013449A887B8B13437B83FA
:1011500009E0FB7F2E4ADB0013449A883B8B134344
:101160003B8300E000BFFB7F0133FB77FB7F252B38
:10117000C5D90023FB600123BB6003233B61BB8B0C
:10118000002B14D0BB8B7B600120FFF741FF0120B7
:10119000FFF757FF3B1D19464FF0904009F014FC34
:1011A000BB8B002219464FF0904009F07DFD7B8BF0
:1011B000002B12D07B8B7B600220FFF729FF0220DF
:1011C000FFF73FFF3B1D1946134809F0FDFB7B8BE2
:1011D00000221946104809F067FD3B8B002B13D005
:1011E0003B8B7B600420FFF713FF0420FFF729FFF0
:1011F0003B1D1946074809F0E7FB3B8B00221946C7
:10120000044809F051FD00BF00BF2037BD4680BD36
:10121000646B0108000800480004004880B400AF77
:1012200000BFBD465DF8047B704780B500AF05F098
:101230001FFE00BF80BD80B584B000AFF8600B46D4
:101240007A607B817A897B68F968002005F00EFC62
:1012500000BF1037BD4680BD80B483B000AF78605A
:10126000074BD3F8803023F0070205497B6813430E
:10127000C1F8803000BF0C37BD465DF8047B704775
:101280000004005880B483B000AF7860064BD3F8F8
:10129000902005497B681343C1F8903000BF0C379C
:1012A000BD465DF8047B70470008005880B483B0E9
:1012B00000AF78604FF0B0430A4AC3F89C204FF06B
:1012C000B043D3F89C3023F47C527B681B024FF070
:1012D000B0411343C1F89C3000BF0C37BD465DF8E8
:1012E000047B7047FECAFECA80B483B000AF78604A
:1012F0004FF0B0439B6823F400424FF0B0417B684D
:1013000013438B6000BF0C37BD465DF8047B70470C
:1013100080B400AF4FF0B043D3F890304FF0B042FC
:1013200043F48033C2F8903000BFBD465DF8047BC3
:10133000704780B400AF4FF0B043D3F890304FF017
:10134000B04223F48033C2F8903000BFBD465DF850
:10135000047B704780B400AF4FF0B043D3F89430B3
:1013600003F08063B3F1806F01D1012300E000231B
:101370001846BD465DF8047B704780B400AF4FF05F
:10138000B043D3F8943003F08053B3F1805F01D1C0
:10139000012300E000231846BD465DF8047B70473A
:1013A00080B485B000AF78604FF0B0431A6D4FF055
:1013B000B0417B6813430B654FF0B0431A6D7B68F7
:1013C0001340FB60FB6800BF1437BD465DF8047B2B
:1013D0007047000080B400AF044B1B68C3F30B03DD
:1013E0001846BD465DF8047B704700BF002004E04E
:1013F00080B400AF044B1B681B0C9BB21846BD4663
:101400005DF8047B704700BF002004E080B483B027
:1014100000AF786039607B685A683B681B041A43E8
:101420007B685A6000BF0C37BD465DF8047B70478F
:1014300080B483B000AF786039607B685A683B68DD
:101440001A437B685A6000BF0C37BD465DF8047BC9
:10145000704780B483B000AF786039607B685A69A8
:101460003B681B041A437B685A6100BF0C37BD46BA
:101470005DF8047B704780B483B000AF786039605A
:101480007B685A693B681A437B685A6100BF0C3716
:10149000BD465DF8047B704780B483B000AF7860D0
:1014A00039607B683A689A6000BF0C37BD465DF8CA
:1014B000047B704780B483B000AF786039607B688C
:1014C0003A689A6100BF0C37BD465DF8047B7047EF
:1014D00080B400AF054B1B69044A23F00403136179
:1014E00000BFBD465DF8047B704700BF00ED00E023
:1014F00080B483B000AF78607B68FF225A6200BF7F
:101500000C37BD465DF8047B704780B483B000AFF4
:1015100078607B68CA225A627B6853225A6200BF95
:101520000C37BD465DF8047B704780B483B000AFD4
:10153000786039607B689B6823F007023B681A4338
:101540007B689A6000BF0C37BD465DF8047B70472E
:1015500080B500AF044B4FF400421A6100F030F840
:1015600000F070F800BF80BD0040005880B500AFAB
:1015700000F07CF800F094F80949002004F0D0FF56
:10158000FFF77BFD0121012010F0E8FE00F0EAF9F1
:1015900000F0F8F900F07AFA00F090F800BF80BD92
:1015A0006806002080B400AF00BFBD465DF8047B34
:1015B000704780B500AF5020FFF764FE00BF80BDCC
:1015C00080B500AF00F004F800F01AF800BF80BD4D
:1015D00080B500AFFFF7BEFE0346002B0DD0FFF72E
:1015E000CCFE0346002B08D109F038FC09F036FC8C
:1015F000FFF78EFEFFF79DFE00BF00BF80BD00001D
:1016000080B500AF4FF48010FFF7CAFE3F210C48B1
:10161000FFF742FF3F210A48FFF74CFF3F210848F0
:10162000FFF7F4FE3F210648FFF713FF3F21044870
:10163000FFF7FEFE3F210248FFF71DFF00BF80BD00
:10164000000C005880B582B000AF00200FF0CCFA3B
:1016500078607B68002B05D07B689B791846FFF784
:1016600025FE00BF00BF0837BD4680BD80B500AF76
:10167000FFF798FFFFF79DFF00F002F800BF80BD65
:1016800080B500AF0548FFF740FF00210348FFF792
:101690004CFF0248FFF72CFF00BF80BD0028004030
:1016A00080B500AF4FF40040FFF71EFE10F044FE7F
:1016B0000420FFF7D1FD00BF80BD000080B588B0D9
:1016C00000AF10F0EBFB114A0021402011F042F86E
:1016D0000F4B3B600F4B7B603B4619460E480FF0AB
:1016E000C7FC0E4BBB600E4BFB600E4B3B6140F2E8
:1016F0003C537B6107F10803184610F015FD10F00C
:10170000C7FB00BF2037BD4680BD00BFA910010840
:101710003407032029170008411700084C0903204B
:1017200040080320F801032080B483B000AF0346D3
:10173000FB7100BF0C37BD465DF8047B70470000AD
:1017400080B588B000AF78607B685B680B33FB6165
:10175000FB691B889BB2A3F51243072B60D801A23B
:1017600052F823F085170008C7170008D51700089E
:1017700021180008F11700080118000809180008CE
:101780001918000807F10C0318460FF0C3FB3B7B48
:1017900019467B7B1A46BB7B244811F017FF3B7C24
:1017A0001946234811F012FFBB7D1946FB7D1A46EE
:1017B0003B7E204811F00AFF1F4811F007FF7868B0
:1017C00000F070F82DE01D4811F000FF786800F07F
:1017D00043F826E01A4811F069FFFB6902331968E3
:1017E000FB6902335B681A46164811F0EFFE18E0F9
:1017F000FB6902331B681946134811F0E7FE10E03D
:10180000124811F0E3FE0CE0FB6902331B68194635
:101810000F4811F0DBFE04E00E4811F0D7FE00E0A7
:1018200000BF00BF2037BD4680BD00BFE4540108A3
:1018300008550108245501083C5501085C5501086C
:1018400080550108D0550108F855010834560108A3
:10185000585601089456010880B584B000AF7860EE
:101860007B685B680B33FB60FB680233BB60BB6863
:101870001B781946084811F0A9FEBB681B78002B9D
:1018800003D1064811F012FF03E0054811F00EFFE6
:1018900000BF1037BD4680BDB8560108E8560108A4
:1018A0002457010880B58AB000AF786007F10803BB
:1018B00000221A605A609A60DA6000237B6200237B
:1018C0003B627B685B680B33FB61FB690233BB6186
:1018D000BB691B78002B28D11D4811F0E7FEFFF7EC
:1018E000DFFB0F233B727F23BB72FFF781FD786222
:1018F000796A184811F06AFE7B6A9BB2BB82FFF7D7
:1019000069FD3862396A144811F060FE3B6A9BB287
:10191000FB8207F1080318460FF0E6FA06F004FC14
:101920000021012010F01AFD0EE0BB691B78012B8D
:1019300006D10A4811F04AFE7B6800221A7003E0C3
:10194000074811F043FE00BF2837BD4680BD00BFE9
:101950005C570108785701089C570108BC570108DB
:10196000F057010880B500AF002008F00DF9012004
:1019700008F00AF9022008F007F9012008F03EF902
:1019800000BF80BD80B500AF0121002008F06AF9DA
:101990000121012008F066F90121022008F062F916
:1019A00000BF80BD80B584B000AF786008F0AEFAAB
:1019B000B8607B68FB60FB68B3F1FF3F0AD008F0BA
:1019C000BDFA03461A46FB681344FB6002E0FFF7CA
:1019D0007FFD30BF08F09AFA0246BB68D31AFA6856
:1019E0009A42F4D800BF00BF1037BD4680BD80B515
:1019F00000AF4FF0FF3010F02BFD00BF80BD80B472
:101A000000AF00BFBD465DF8047B704780B582B073
:101A100000AF78600021402010F0BEFE00BF083704
:101A2000BD4680BD80B582B000AF7860022010F066
:101A30001FFF00BF0837BD4680BD80B582B000AF34
:101A40007860022010F034FF00BF0837BD4680BD2B
:101A500080B582B000AF0346FB80FB88102B06D018
:101A6000102B0DDC012B05D0022B06D008E006F070
:101A70009FFE06E006F0A2FE03E006F0A7FE00E0EF
:101A800000BF00BF0837BD4680BD000080B500AF75
:101A9000034B01220349002004F0AEFF00BF80BDCC
:101AA000A91A00087402002080B500AF154B1B88EE
:101AB000FF2B1ED8144B1B780D2B0FD11349144844
:101AC00011F084FD00F028F80E4B00221A804FF42C
:101AD000807200210D4811F0C7FE0AE0094B1B88F7
:101AE0005A1C91B2074A11801A46074B1978074BC6
:101AF0009954084B01220449002004F07DFF00BFE7
:101B000080BD00BF7C030020740200207C02002006
:101B100024580108A91A000880B500AF1C491D48C7
:101B2000FEF72EFB0346002B09D11B4811F0BEFD2A
:101B30001A4B1B4A1A60194808F024FF26E019497D
:101B40001448FEF71DFB0346002B0AD1164811F07E
:101B5000ADFD124B4FF0B0521A60104808F012FF62
:101B600014E012490B48FEF70BFB0346002B09D18A
:101B70000F4811F09BFD094B0E4A1A60074808F008
:101B800001FF03E003490C4811F020FD00BF80BDB8
:101B9000345801087C020020385801086C020020EB
:101BA0000400001640580108445801084C58010828
:101BB00050580108010000165858010880B483B03D
:101BC00000AF786000BF0C37BD465DF8047B7047FE
:101BD00080B483B000AF786000BF0C37BD465DF8BD
:101BE000047B70472DE9F00386B000AF78604FF0BA
:101BF00000004FF00001C7E904010021F96022E074
:101C00007868F96801440978C9B200200C46054695
:101C1000F968C900A1F12006C1F1200005FA01F31D
:101C200004FA06F6334324FA00F0034304FA01F2FF
:101C3000D7E9040140EA020841EA0309C7E9048937
:101C4000F9680131F960F9680729D9D9D7E904237E
:101C5000104619461837BD46BDE8F0037047F0B48A
:101C600086B000AFF860C7E9002300237B6119E06C
:101C70007B69D900D7E90023C1F12006A1F120003A
:101C800022FA01F403FA06F6344323FA00F004437F
:101C900023FA01F5FA687B691344E2B21A707B6992
:101CA00001337B617B69072BE2D900BF00BF183786
:101CB000BD46F0BC704700002DE9F00FADF6883D41
:101CC00000AF07F68833A3F5F673186007F688337C
:101CD000A3F5F6731B68D3E9002307F67831C1E951
:101CE000002307F68833A3F5F6731B68D3E90223B4
:101CF00007F53761C1E9002307F68833A3F5F673CA
:101D00001B68D3E9042307F66831C1E9002307F60D
:101D10008833A3F5F6731B68D3E9062307F536610C
:101D2000C1E9002307F68833A3F5F6731B68D3E9EE
:101D3000082307F65831C1E9002307F68833A3F5D5
:101D4000F6731B68D3E90A2307F53561C1E900235F
:101D500007F68833A3F5F6731B68D3E90C2307F65F
:101D60004831C1E9002307F68833A3F5F6731B68F1
:101D7000D3E90E2307F53461C1E9002307F6883360
:101D8000A3F5F6731B68D3E9102307F63831C1E9D0
:101D9000002307F68833A3F5F6731B68D3E91223F3
:101DA00007F53361C1E9002307F68833A3F5F6731D
:101DB0001B68D3E9142307F62831C1E9002307F68D
:101DC0008833A3F5F6731B68D3E9162307F5326150
:101DD000C1E9002307F68833A3F5F6731B68D3E93E
:101DE000182307F61831C1E9002307F68833A3F555
:101DF000F6731B68D3E91A2307F53161C1E90023A3
:101E000007F68833A3F5F6731B68D3E91C2307F69E
:101E10000831C1E9002307F68833A3F5F6731B6880
:101E2000D3E91E2307F53061C1E9002307F68833A3
:101E3000A3F5F6731B68D3E9202307F6F821C1E95F
:101E4000002307F68833A3F5F6731B68D3E9222332
:101E500007F52F61C1E9002307F68833A3F5F67370
:101E60001B68D3E9242307F6E821C1E9002307F61C
:101E70008833A3F5F6731B68D3E9262307F52E6193
:101E8000C1E9002307F68833A3F5F6731B68D3E98D
:101E9000282307F6D821C1E9002307F68833A3F5E4
:101EA000F6731B68D3E92A2307F52D61C1E90023E6
:101EB00007F68833A3F5F6731B68D3E92C2307F6DE
:101EC000C821C1E9002307F68833A3F5F6731B6820
:101ED000D3E92E2307F52C61C1E9002307F68833E7
:101EE000A3F5F6731B68D3E9302307F6B821C1E9DF
:101EF00000230023C7F8843B02F0F7BD07F67833D0
:101F0000D3E9000107F53563D3E9002380EA02062F
:101F1000C7F890694B40C7F8943907F62833D3E9DE
:101F20000023D7F890195140C7F88819D7F89419A9
:101F30004B40C7F88C3907F53063D3E90023D7F855
:101F400088195140C7F88019D7F88C194B40C7F849
:101F5000843907F6D823D3E90023D7F880195140F4
:101F6000C7F84815D7F884194B40C7F84C3507F522
:101F7000A963D3E9002307F52B61C1E9002307F525
:101F80003763D3E9000107F64833D3E9002380EA39
:101F90000206C7F878694B40C7F87C3907F5326309
:101FA000D3E90023D7F878195140C7F87019D7F84A
:101FB0007C194B40C7F8743907F6F823D3E900239E
:101FC000D7F870195140C7F86819D7F874194B4001
:101FD000C7F86C3907F52D63D3E90023D7F86819E2
:101FE0005140C7F84015D7F86C194B40C7F8443535
:101FF00007F5A863D3E9002307F6A821C1E9002368
:1020000007F66833D3E9000107F53463D3E9002309
:1020100080EA0206C7F860694B40C7F8643907F6E2
:102020001833D3E90023D7F860195140C7F858197D
:10203000D7F864194B40C7F85C3907F52F63D3E92B
:102040000023D7F858195140C7F85019D7F85C1930
:102050004B40C7F8543907F6C823D3E90023D7F813
:1020600050195140C7F83815D7F854194B40C7F8E4
:102070003C3507F5A763D3E9002307F52A61C1E9D9
:10208000002307F53663D3E9000107F63833D3E9B7
:10209000002380EA0206C7F848694B40C7F84C396C
:1020A00007F53163D3E90023D7F848195140C7F841
:1020B0004019D7F84C194B40C7F8443907F6E823C4
:1020C000D3E90023D7F840195140C7F83819D7F899
:1020D00044194B40C7F83C3907F52C63D3E900237A
:1020E000D7F838195140C7F83015D7F83C194B408C
:1020F000C7F8343507F5A663D3E9002307F698211E
:10210000C1E9002307F65833D3E9000107F533632B
:10211000D3E9002380EA0206C7F830694B40C7F8CC
:10212000343907F60833D3E90023D7F83019514082
:10213000C7F82819D7F834194B40C7F82C3907F5D8
:102140002E63D3E90023D7F828195140C7F8201986
:10215000D7F82C194B40C7F8243907F6B823D3E930
:102160000023D7F820195140C7F82815D7F82419AB
:102170004B40C7F82C3507F5A563D3E9002307F5D5
:102180002961C1E90023D7F8AC3ADA0FD7F8A83AA9
:102190005B001343C7F81839D7F8A83ADA0FD7F815
:1021A000AC3A5B001343C7F81C3907F52963D3E940
:1021B0000023D7F818195140C7F82015D7F81C1973
:1021C0004B40C7F8243507F5A463D3E9002307F68D
:1021D0008821C1E90023D7F8A43ADA0FD7F8A03A4A
:1021E0005B001343C7F81039D7F8A03ADA0FD7F8D5
:1021F000A43A5B001343C7F8143907F52B63D3E9FE
:102200000023D7F810195140C7F81815D7F814193A
:102210004B40C7F81C3507F5A363D3E9002307F546
:102220002861C1E90023D7F89C3ADA0FD7F8983A29
:102230005B001343C7F80839D7F8983ADA0FD7F894
:102240009C3A5B001343C7F80C3907F6A823D3E97F
:102250000023D7F808195140C7F81015D7F80C1902
:102260004B40C7F8143507F5A263D3E9002307F6FE
:102270007821C1E90023D7F8943ADA0FD7F8903AD9
:102280005B001343C7F80039D7F8903ADA0FD7F854
:10229000943A5B001343C7F8043907F52A63D3E97E
:1022A0000023D7F800195140C7F80815D7F80419CA
:1022B0004B40C7F80C3507F5A163D3E9002307F5B8
:1022C0002761C1E90023D7F8B43ADA0FD7F8B03A5A
:1022D0005B001343C7F8F838D7F8B03ADA0FD7F8ED
:1022E000B43A5B001343C7F8FC3807F69823D3E9E8
:1022F0000023D7F8F8185140C7F80015D7F8FC1894
:102300004B40C7F8043507F5A063D3E9002307F66F
:102310006821C1E9002307F67833D3E9000107F605
:102320008823D3E9002380EA0206C7F8F8644B400B
:10233000C7F8FC3407F59F63D3E9002307F678312B
:10234000C1E9002307F67833D3E9002307F52B61B1
:10235000C1E9002307F64833D3E9000107F52863F4
:10236000D3E9002380EA0206C7F8F0644B40C7F8BF
:10237000F43407F59E63D3E9002307F64831C1E939
:102380000023D7F84C3B1A03D7F8483B1B0D1343E7
:10239000C7F8E834D7F8483B1A03D7F84C3B1B0D75
:1023A0001343C7F8EC3407F59D63D3E9002307F620
:1023B000A821C1E9002307F61833D3E9000107F685
:1023C0007823D3E9002380EA0206C7F8E0644B4093
:1023D000C7F8E43407F59C63D3E9002307F6183106
:1023E000C1E90023D7F81C3BDA02D7F8183B5B0D94
:1023F0001343C7F8D834D7F8183BDA02D7F81C3B98
:102400005B0D1343C7F8DC3407F59B63D3E9002366
:1024100007F52A61C1E9002307F6E823D3E90001A3
:1024200007F52763D3E9002380EA0206C7F8D064E2
:102430004B40C7F8D43407F59A63D3E9002307F675
:10244000E821C1E90023D7F8EC3ADA0AD7F8E83AEC
:102450005B051343C7F8C834D7F8E83ADA0AD7F867
:10246000EC3A5B051343C7F8CC3407F59963D3E91D
:10247000002307F69821C1E9002307F6B823D3E922
:10248000000107F66823D3E9002380EA0206C7F8B3
:10249000C0644B40C7F8C43407F59863D3E9002300
:1024A00007F6B821C1E90023D7F8BC3A9A0CD7F84F
:1024B000B83A9B031343C7F8B834D7F8B83A9A0C24
:1024C000D7F8BC3A9B031343C7F8BC3407F59763AE
:1024D000D3E9002307F52961C1E9002307F6A82302
:1024E000D3E90023D143C7F8F018DB43C7F8F43829
:1024F00007F52A63D3E90023D7F8F0181140C7F88D
:10250000E818D7F8F4180B40C7F8EC3807F52B6338
:10251000D3E90023D7F8E8185140C7F8B014D7F82A
:10252000EC184B40C7F8B43407F59663D3E90023A1
:1025300007F52661C1E90023FD4AD7F8843BDB009B
:102540001344D3E9000107F52663D3E9002382EAA7
:102550000006C7F8A8644B40C7F8AC3407F595638C
:10256000D3E9002307F52661C1E9002307F52A63B3
:10257000D3E90023D143C7F8E018DB43C7F8E438B8
:1025800007F69823D3E90023D7F8E0181140C7F8DD
:10259000D818D7F8E4180B40C7F8DC3807F6A8239A
:1025A000D3E90023D7F8D8185140C7F8A014D7F8BA
:1025B000DC184B40C7F8A43407F59463D3E9002333
:1025C00007F65821C1E9002307F69823D3E9002331
:1025D000D143C7F8D018DB43C7F8D43807F52963CF
:1025E000D3E90023D7F8D0181140C7F8C818D7F896
:1025F000D4180B40C7F8CC3807F52A63D3E9002379
:10260000D7F8C8185140C7F89814D7F8CC184B40E1
:10261000C7F89C3407F59363D3E9002307F52561D8
:10262000C1E9002307F52963D3E90023D143C7F8A3
:10263000C018DB43C7F8C43807F52B63D3E9002380
:10264000D7F8C0181140C7F8B818D7F8C4180B400D
:10265000C7F8BC3807F69823D3E90023D7F8B81891
:102660005140C7F89014D7F8BC184B40C7F89434C1
:1026700007F59263D3E9002307F64821C1E9002357
:1026800007F52B63D3E90023D143C7F8B018DB4328
:10269000C7F8B43807F6A823D3E90023D7F8B01851
:1026A0001140C7F8A818D7F8B4180B40C7F8AC38D1
:1026B00007F52963D3E90023D7F8A8185140C7F8D4
:1026C0008814D7F8AC184B40C7F88C3407F59163E1
:1026D000D3E9002307F52461C1E9002307F5366338
:1026E000D3E9000107F52763D3E9002380EA020656
:1026F000C7F880644B40C7F8843407F59063D3E98A
:10270000002307F53661C1E90023D7F8643B1A09B5
:10271000D7F8603B1B071343C7F87834D7F8603B02
:102720001A09D7F8643B1B071343C7F87C3407F535
:102730008F63D3E9002307F52B61C1E9002307F577
:102740003363D3E9000107F66823D3E9002380EA65
:102750000206C7F870644B40C7F8743407F58E63FF
:10276000D3E9002307F53361C1E90023D7F8343BEF
:102770001A0BD7F8303B1B051343C7F86834D7F85A
:10278000303B1A0BD7F8343B1B051343C7F86C34A6
:1027900007F58D63D3E9002307F6A821C1E90023DB
:1027A00007F62833D3E9000107F68823D3E900238D
:1027B00080EA0206C7F860644B40C7F8643407F546
:1027C0008C63D3E9002307F62831C1E90023D7F849
:1027D0002C3B5A0FD7F8283BDB001343C7F858347B
:1027E000D7F8283B5A0FD7F82C3BDB001343C7F828
:1027F0005C3407F58B63D3E9002307F52A61C1E94F
:10280000002307F6F823D3E9000107F52863D3E98D
:10281000002380EA0206C7F850644B40C7F85434DE
:1028200007F58A63D3E9002307F6F821C1E90023FD
:10283000D7F8FC3A5A03D7F8F83ADB0C1343C7F839
:102840004834D7F8F83A5A03D7F8FC3ADB0C13436C
:10285000C7F84C3407F58963D3E9002307F69821BC
:10286000C1E9002307F6C823D3E9000107F678235E
:10287000D3E9002380EA0206C7F840644B40C7F85A
:10288000443407F58863D3E9002307F6C821C1E97A
:102890000023D7F8CC3A5A07D7F8C83ADB081343D5
:1028A000C7F83834D7F8C83A5A07D7F8CC3ADB0813
:1028B0001343C7F83C3407F58763D3E9002307F5D2
:1028C0002961C1E9002307F6A823D3E90023D143F6
:1028D000C7F8A018DB43C7F8A43807F52A63D3E983
:1028E0000023D7F8A0181140C7F89818D7F8A418F3
:1028F0000B40C7F89C3807F52B63D3E90023D7F8C2
:1029000098185140C7F83014D7F89C184B40C7F8B6
:10291000343407F58663D3E9002307F63821C1E98B
:10292000002307F52A63D3E90023D14302E000BF67
:10293000986C0108C7F89018DB43C7F8943807F67D
:102940009823D3E90023D7F890181140C7F88818C6
:10295000D7F894180B40C7F88C3807F6A823D3E9AA
:102960000023D7F888185140C7F82814D7F88C18D6
:102970004B40C7F82C3407F58563D3E9002307F5EE
:102980002361C1E9002307F69823D3E90023D1434B
:10299000C7F88018DB43C7F8843807F52963D3E903
:1029A0000023D7F880181140C7F87818D7F8841892
:1029B0000B40C7F87C3807F52A63D3E90023D7F822
:1029C00078185140C7F82014D7F87C184B40C7F846
:1029D000243407F58463D3E9002307F62821C1E9ED
:1029E000002307F52963D3E90023D143C7F8701802
:1029F000DB43C7F8743807F52B63D3E90023D7F816
:102A000070181140C7F86818D7F874180B40C7F849
:102A10006C3807F69823D3E90023D7F8681851409B
:102A2000C7F81814D7F86C184B40C7F81C3407F5D2
:102A30008363D3E9002307F52261C1E9002307F589
:102A40002B63D3E90023D143C7F86018DB43C7F8F1
:102A5000643807F6A823D3E90023D7F8601811409B
:102A6000C7F85818D7F864180B40C7F85C3807F552
:102A70002963D3E90023D7F858185140C7F8101438
:102A8000D7F85C184B40C7F8143407F58263D3E9D4
:102A9000002307F61821C1E9002307F53763D3E9BE
:102AA000000107F52863D3E9002380EA0206C7F88E
:102AB00008644B40C7F80C3407F58163D3E9002361
:102AC00007F53761C1E90023D7F8743BDA0FD7F86F
:102AD000703B5B001343C7F80034D7F8703BDA0F44
:102AE000D7F8743B5B001343C7F8043407F58063E1
:102AF000D3E9002307F52B61C1E9002307F534630F
:102B0000D3E9000107F67823D3E9002380EA02061F
:102B1000C7F8F8634B40C7F8FC33D7E9FE2307F545
:102B20003461C1E90023D7F8443B9A0ED7F8403B03
:102B30009B011343C7F8F033D7F8403B9A0ED7F800
:102B4000443B9B011343C7F8F433D7E9FC2307F652
:102B5000A821C1E9002307F53163D3E9000107F596
:102B60002763D3E9002380EA0206C7F8E8634B40F5
:102B7000C7F8EC33D7E9FA2307F53161C1E900233F
:102B8000D7F8143BDA09D7F8103B5B061343C7F8B4
:102B9000E033D7F8103BDA09D7F8143B5B06134350
:102BA000C7F8E433D7E9F82307F52A61C1E9002320
:102BB00007F52E63D3E9000107F66823D3E9002364
:102BC00080EA0206C7F8D8634B40C7F8DC33D7E980
:102BD000F62307F52E61C1E90023D7F8E43A1A0E6F
:102BE000D7F8E03A1B021343C7F8D033D7F8E03ADE
:102BF0001A0ED7F8E43A1B021343C7F8D433D7E9C7
:102C0000F42307F69821C1E9002307F6D823D3E976
:102C1000000107F68823D3E9002380EA0206C7F8FB
:102C2000C8634B40C7F8CC33D7E9F22307F6D82165
:102C3000C1E90023D7F8DC3A9A0BD7F8D83A9B04BD
:102C40001343C7F8C033D7F8D83A9A0BD7F8DC3A11
:102C50009B041343C7F8C433D7E9F02307F5296170
:102C6000C1E9002307F6A823D3E90023D143C7F81D
:102C70005018DB43C7F8543807F52A63D3E900231B
:102C8000D7F850181140C7F84818D7F854180B4017
:102C9000C7F84C3807F52B63D3E90023D7F8481859
:102CA0005140C7F8B813D7F84C184B40C7F8BC339D
:102CB000D7E9EE2307F52161C1E9002307F52A636F
:102CC000D3E90023D143C7F84018DB43C7F84438A1
:102CD00007F69823D3E90023D7F840181140C7F826
:102CE0003818D7F844180B40C7F83C3807F6A82323
:102CF000D3E90023D7F838185140C7F8B013D7F8F4
:102D00003C184B40C7F8B433D7E9EC2307F6082149
:102D1000C1E9002307F69823D3E90023D143C7F87C
:102D20003018DB43C7F8343807F52963D3E90023AB
:102D3000D7F830181140C7F82818D7F834180B40C6
:102D4000C7F82C3807F52A63D3E90023D7F82818E9
:102D50005140C7F8A813D7F82C184B40C7F8AC332C
:102D6000D7E9EA2307F52061C1E9002307F52963C4
:102D7000D3E90023D143C7F82018DB43C7F8243830
:102D800007F52B63D3E90023D7F820181140C7F8C3
:102D90001818D7F824180B40C7F81C3807F69823E2
:102DA000D3E90023D7F818185140C7F8A013D7F873
:102DB0001C184B40C7F8A433D7E9E82307F6F811ED
:102DC000C1E9002307F52B63D3E90023D143C7F8FA
:102DD0001018DB43C7F8143807F6A823D3E90023FB
:102DE000D7F810181140C7F80818D7F814180B4076
:102DF000C7F80C3807F52963D3E90023D7F808187A
:102E00005140C7F89813D7F80C184B40C7F89C33BB
:102E1000D7E9E62307F51F61C1E9002307F6583318
:102E2000D3E9000107F66823D3E9002380EA02060C
:102E3000C7F890634B40C7F89433D7E9E42307F60B
:102E40005831C1E90023D7F85C3B5A09D7F8583B01
:102E5000DB061343C7F88833D7F8583B5A09D7F82D
:102E60005C3BDB061343C7F88C33D7E9E22307F555
:102E70002B61C1E9002307F53563D3E9000107F6AB
:102E80008823D3E9002380EA0206C7F880634B4019
:102E9000C7F88433D7E9E02307F53561C1E900239A
:102EA000D7F8543B1A01D7F8503B1B0F1343C7F810
:102EB0007833D7F8503B1A01D7F8543B1B0F134314
:102EC000C7F87C33D7E9DE2307F6A821C1E9002340
:102ED00007F53263D3E9000107F52863D3E900233E
:102EE00080EA0206C7F870634B40C7F87433D7E92D
:102EF000DC2307F53261C1E90023D7F8243B9A0DA2
:102F0000D7F8203B9B021343C7F86833D7F8203B20
:102F10009A0DD7F8243B9B021343C7F86C33D7E9CB
:102F2000DA2307F52A61C1E9002307F52F63D3E906
:102F3000000107F67823D3E9002380EA0206C7F8E8
:102F400060634B40C7F86433D7E9D82307F52F6196
:102F5000C1E90023D7F8F43A5A0CD7F8F03ADB036A
:102F60001343C7F85833D7F8F03A5A0CD7F8F43A65
:102F7000DB031343C7F85C33D7E9D62307F6982160
:102F8000C1E9002307F52C63D3E9000107F52763A6
:102F9000D3E9002380EA0206C7F850634B40C7F824
:102FA0005433D7E9D42307F52C61C1E90023D7F8BE
:102FB000C43A1A06D7F8C03A1B0A1343C7F8483375
:102FC000D7F8C03A1A06D7F8C43A1B0A1343C7F811
:102FD0004C33D7E9D22307F52961C1E9002307F66D
:102FE000A823D3E90023D143C7F80018DB43C7F86F
:102FF000043807F52A63D3E90023D7F800181140F5
:10300000C7F8F817D7F804180B40C7F8FC3707F5CE
:103010002B63D3E90023D7F8F8175140C7F84013C2
:10302000D7F8FC174B40C7F84433D7E9D02307F64D
:10303000E811C1E9002307F52A63D3E90023D1434E
:10304000C7F8F017DB43C7F8F43707F69823D3E93E
:103050000023D7F8F0171140C7F8E817D7F8F4178E
:103060000B40C7F8EC3707F6A823D3E90023D7F8BD
:10307000E8175140C7F83813D7F8EC174B40C7F89A
:103080003C33D7E9CE2307F51E61C1E9002307F6DB
:103090009823D3E90023D143C7F8E017DB43C7F8EF
:1030A000E43707F52963D3E90023D7F8E017114087
:1030B000C7F8D817D7F8E4170B40C7F8DC3707F57F
:1030C0002A63D3E90023D7F8D8175140C7F8301343
:1030D000D7F8DC174B40C7F83433D7E9CC2307F6D1
:1030E000D811C1E9002307F52963D3E90023D143AF
:1030F000C7F8D017DB43C7F8D43707F52B63D3E9FC
:103100000023D7F8D0171140C7F8C817D7F8D4173D
:103110000B40C7F8CC3707F69823D3E90023D7F83C
:10312000C8175140C7F82813D7F8CC174B40C7F839
:103130002C33D7E9CA2307F51D61C1E9002307F540
:103140002B63D3E90023D143C7F8C017DB43C7F88B
:10315000C43707F6A823D3E90023D7F8C0171140D6
:10316000C7F8B817D7F8C4170B40C7F8BC3707F52E
:103170002963D3E90023D7F8B8175140C7F82013C3
:10318000D7F8BC174B40C7F82433D7E9C82307F654
:10319000C811C1E9002307F66833D3E9000107F637
:1031A0007823D3E9002380EA0206C7F818634B406E
:1031B000C7F81C33D7E9C62307F66831C1E90023F5
:1031C000D7F86C3B9A07D7F8683B9B081343C7F8BE
:1031D0001033D7F8683B9A07D7F86C3B9B0813432A
:1031E000C7F81433D7E9C42307F52B61C1E90023DD
:1031F00007F63833D3E9000107F52763D3E9002345
:1032000080EA0206C7F808634B40C7F80C33D7E9D9
:10321000C22307F63831C1E90023D7F83C3BDA0571
:10322000D7F8383B5B0A1343C7F80033D7F8383B6D
:10323000DA05D7F83C3B5B0A1343C7F80433D7E9F8
:10324000C02307F6A821C1E9002307F60833D3E914
:10325000000107F66823D3E9002380EA0206C7F8D5
:10326000F8624B40C7F8FC32D7E9BE2307F60831B5
:10327000C1E90023D7F80C3BDA01D7F8083B5B0E15
:103280001343C7F8F032D7F8083BDA01D7F80C3B04
:103290005B0E1343C7F8F432D7E9BC2307F52A6164
:1032A000C1E9002307F53063D3E9000107F688235D
:1032B000D3E9002380EA0206C7F8E8624B40C7F86A
:1032C000EC32D7E9BA2307F53061C1E90023D7F81A
:1032D000043B5A02D7F8003BDB0D1343C7F8E0323A
:1032E000D7F8003B5A02D7F8043BDB0D1343C7F86D
:1032F000E432D7E9B82307F69821C1E9002307F59E
:103300002D63D3E9000107F52863D3E9002380EAA0
:103310000206C7F8D8624B40C7F8DC32D7E9B623BB
:1033200007F52D61C1E90023D7F8D43A9A0FD7F8F1
:10333000D03A9B001343C7F8D032D7F8D03A9A0F4F
:10334000D7F8D43A9B001343C7F8D432D7E9B42353
:1033500007F52961C1E9002307F6A823D3E9002373
:10336000D143C7F8B017DB43C7F8B43707F52A6372
:10337000D3E90023D7F8B0171140C7F8A817D7F83A
:10338000B4170B40C7F8AC3707F52B63D3E900231C
:10339000D7F8A8175140C7F8C812D7F8AC174B4058
:1033A000C7F8CC32D7E9B22307F51C61C1E9002385
:1033B00007F52A63D3E90023D143C7F8A017DB43FD
:1033C000C7F8A43707F69823D3E90023D7F8A01746
:1033D0001140C7F89817D7F8A4170B40C7F89C37C7
:1033E00007F6A823D3E90023D7F898175140C7F868
:1033F000C012D7F89C174B40C7F8C432D7E9B023A6
:1034000007F6B811C1E9002307F69823D3E9002392
:10341000D143C7F89017DB43C7F8943707F5296302
:10342000D3E90023D7F890171140C7F88817D7F8C9
:1034300094170B40C7F88C3707F52A63D3E90023AC
:10344000D7F888175140C7F8B812D7F88C174B40F7
:10345000C7F8BC32D7E9AE2307F51B61C1E90023E9
:1034600007F52963D3E90023D143C7F88017DB436D
:10347000C7F8843707F52B63D3E90023D7F8801703
:103480001140C7F87817D7F884170B40C7F87C3776
:1034900007F69823D3E90023D7F878175140C7F8E7
:1034A000B012D7F87C174B40C7F8B432D7E9AC2339
:1034B00007F6A811C1E9002307F52B63D3E9002320
:1034C000D143C7F87017DB43C7F8743707F6A82352
:1034D000D3E90023D7F870171140C7F86817D7F859
:1034E00074170B40C7F86C3707F52963D3E900233D
:1034F000D7F868175140C7F8A812D7F86C174B4097
:10350000C7F8AC32D7E9AA2307F51A61C1E900234D
:1035100007F52663D3E9000107F63823D3E9002332
:1035200080EA0206C7F860674B40C7F8643707F5C2
:103530002163D3E90023D7F860175140C7F8581723
:10354000D7F864174B40C7F85C3707F6E813D3E9A0
:103550000023D7F858175140C7F85017D7F85C1711
:103560004B40C7F8543707F51C63D3E90023D7F85D
:1035700050175140C7F8A012D7F854174B40C7F85E
:10358000A432D7E9A82307F52B61C1E9002307F688
:103590005823D3E9000107F52363D3E9002380EA28
:1035A0000206C7F848674B40C7F84C3707F60823B0
:1035B000D3E90023D7F848175140C7F84017D7F888
:1035C0004C174B40C7F8443707F51E63D3E9002377
:1035D000D7F840175140C7F83817D7F844174B4071
:1035E000C7F83C3707F6B813D3E90023D7F83817E4
:1035F0005140C7F89812D7F83C174B40C7F89C3297
:10360000D7E9A62307F6A821C1E9002307F525631A
:10361000D3E9000107F62823D3E9002380EA020654
:10362000C7F830674B40C7F8343707F52063D3E954
:103630000023D7F830175140C7F82817D7F83417A8
:103640004B40C7F82C3707F6D813D3E90023D7F837
:1036500028175140C7F82017D7F82C174B40C7F848
:10366000243707F51B63D3E90023D7F8201751400F
:10367000C7F89012D7F824174B40C7F89432D7E90F
:10368000A42307F52A61C1E9002307F64823D3E9FB
:10369000000107F52263D3E9002380EA0206C7F898
:1036A00018674B40C7F81C3707F6F813D3E9002317
:1036B000D7F818175140C7F81017D7F81C174B4008
:1036C000C7F8143707F51D63D3E90023D7F810179F
:1036D0005140C7F80817D7F814174B40C7F80C37F4
:1036E00007F6A813D3E90023D7F808175140C7F805
:1036F0008812D7F80C174B40C7F88C32D7E9A223B1
:1037000007F69821C1E9002307F52463D3E90001F6
:1037100007F61823D3E9002380EA0206C7F80067FA
:103720004B40C7F8043707F51F63D3E90023D7F8E8
:1037300000175140C7F8F816D7F804174B40C7F8E0
:10374000FC3607F6C813D3E90023D7F8F816514022
:10375000C7F8F016D7F8FC164B40C7F8F43607F553
:103760001A63D3E90023D7F8F0165140C7F8801246
:10377000D7F8F4164B40C7F88432D7E9A02307F5F1
:103780002961C1E90023D7F8AC3ADA0FD7F8A83A93
:103790005B001343C7F8E836D7F8A83ADA0FD7F832
:1037A000AC3A5B001343C7F8EC3607F52963D3E95D
:1037B0000023D7F8E8165140C7F87812D7F8EC166E
:1037C0004B40C7F87C32D7E99E2307F68821C1E930
:1037D0000023D7F8A43ADA0FD7F8A03A5B001343D6
:1037E000C7F8E036D7F8A03ADA0FD7F8A43A5B006A
:1037F0001343C7F8E43607F52B63D3E90023D7F862
:10380000E0165140C7F87012D7F8E4164B40C7F8DD
:103810007432D7E99C2307F52861C1E90023D7F862
:103820009C3ADA0FD7F8983A5B001343C7F8D836BA
:10383000D7F8983ADA0FD7F89C3A5B001343C7F8E9
:10384000DC3607F6A823D3E90023D7F8D816514071
:10385000C7F86812D7F8DC164B40C7F86C32D7E9C6
:103860009A2307F67821C1E90023D7F8943ADA0FB2
:10387000D7F8903A5B001343C7F8D036D7F8903AA0
:10388000DA0FD7F8943A5B001343C7F8D43607F53C
:103890002A63D3E90023D7F8D0165140C7F8601245
:1038A000D7F8D4164B40C7F86432D7E9982307F508
:1038B0002761C1E90023D7F8B43ADA0FD7F8B03A54
:1038C0005B001343C7F8C836D7F8B03ADA0FD7F819
:1038D000B43A5B001343C7F8CC3607F69823D3E914
:1038E0000023D7F8C8165140C7F85812D7F8CC169D
:1038F0004B40C7F85C32D7E9962307F66821C1E947
:10390000002307F52663D3E9000107F68823D3E9EE
:10391000002380EA0206C7F850624B40C7F85432D1
:10392000D7E9942307F52661C1E9002307F526634B
:10393000D3E9002307F52B61C1E9002307F52363D1
:10394000D3E9000107F52863D3E9002380EA0206E2
:10395000C7F848624B40C7F84C32D7E9922307F5C5
:103960002361C1E9002307F68833A3F5AA7007F69F
:103970008833A3F5AC7103681A030B681B0D13435E
:10398000C7F840320B681A0303681B0D1343C7F8CE
:103990004432D7E9902307F6A821C1E9002307F5AF
:1039A0002063D3E9000107F67823D3E9002380EAF6
:1039B0000206C7F838624B40C7F83C32D7E98E237D
:1039C00007F52061C1E9002307F68833A3F5C2702B
:1039D00007F68833A3F5C4710368DA020B685B0D40
:1039E0001343C7F830320B68DA0203685B0D1343E8
:1039F000C7F83432D7E98C2307F52A61C1E90023DF
:103A000007F51D63D3E9000107F52763D3E9002318
:103A100080EA0206C7F828624B40C7F82C32D7E983
:103A20008A2307F51D61C1E9002307F68833A3F552
:103A3000DA7007F68833A3F5DC710368DA0A0B68DD
:103A40005B051343C7F820320B68DA0A03685B058D
:103A50001343C7F82432D7E9882307F69821C1E930
:103A6000002307F51A63D3E9000107F66823D3E9B9
:103A7000002380EA0206C7F818624B40C7F81C32E0
:103A8000D7E9862307F51A61C1E9002307F68833D1
:103A9000A3F5F27007F68833A3F5F47103689A0C66
:103AA0000B689B031343C7F810320B689A0C03682A
:103AB0009B031343C7F81432D7E9842307F5296120
:103AC000C1E9002307F6A823D3E90023D143C7F8AF
:103AD000C016DB43C7F8C43607F52A63D3E90023D1
:103AE000D7F8C0161140C7F8B816D7F8C4160B405F
:103AF000C7F8BC3607F52B63D3E90023D7F8B8160F
:103B00005140C7F80812D7F8BC164B40C7F80C3222
:103B1000D7E9822307F67831C1E90023D7F8843B3F
:103B20000133F44ADB001344D3E9000107F678338C
:103B3000D3E9002382EA0006C7F800624B40C7F8C9
:103B40000432D7E9802307F67831C1E9002307F56D
:103B50002A63D3E90023D143C7F8B016DB43C7F883
:103B6000B43607F69823D3E90023D7F8B0161140EE
:103B7000C7F8A816D7F8B4160B40C7F8AC3607F646
:103B8000A823D3E90023D7F8A8165140C7F8F811A5
:103B9000D7F8AC164B40C7F8FC31D7E97E2307F5C0
:103BA0003761C1E9002307F69823D3E90023D14305
:103BB000C7F8A016DB43C7F8A43607F52963D3E995
:103BC0000023D7F8A0161140C7F89816D7F8A41606
:103BD0000B40C7F89C3607F52A63D3E90023D7F8D2
:103BE00098165140C7F8F011D7F89C164B40C7F80B
:103BF000F431D7E97C2307F66831C1E9002307F5E2
:103C00002963D3E90023D143C7F89016DB43C7F8F3
:103C1000943607F52B63D3E90023D7F890161140AB
:103C2000C7F88816D7F894160B40C7F88C3607F6F5
:103C30009823D3E90023D7F888165140C7F8E81134
:103C4000D7F88C164B40C7F8EC31D7E97A2307F543
:103C50003661C1E9002307F52B63D3E90023D14383
:103C6000C7F88016DB43C7F8843607F6A823D3E9E4
:103C70000023D7F880161140C7F87816D7F88416B5
:103C80000B40C7F87C3607F52963D3E90023D7F842
:103C900078165140C7F8E011D7F87C164B40C7F8AA
:103CA000E431D7E9782307F65831C1E9002307F654
:103CB0004823D3E9000107F52763D3E9002380EA0D
:103CC0000206C7F8D8614B40C7F8DC31D7E9762344
:103CD00007F64821C1E9002307F68833A3F59E7053
:103CE00007F68833A3F5A07103681A090B681B0750
:103CF0001343C7F8D0310B681A0903681B07134335
:103D0000C7F8D431D7E9742307F52B61C1E9002343
:103D100007F61823D3E9000107F66823D3E9002347
:103D200080EA0206C7F8C8614B40C7F8CC31D7E932
:103D3000722307F61821C1E9002307F68833A3F59B
:103D4000B67007F68833A3F5B87103681A0B0B68D1
:103D50001B051343C7F8C0310B681A0B03681B051A
:103D60001343C7F8C431D7E9702307F6A821C1E986
:103D7000002307F52163D3E9000107F68823D3E97F
:103D8000002380EA0206C7F8B8614B40C7F8BC318F
:103D9000D7E96E2307F52161C1E9002307F68833CF
:103DA000A3F5BA7007F68833A3F5BC7103685A0F00
:103DB0000B68DB001343C7F8B0310B685A0F036878
:103DC000DB001343C7F8B431D7E96C2307F52A6148
:103DD000C1E9002307F51E63D3E9000107F5286355
:103DE000D3E9002380EA0206C7F8A8614B40C7F870
:103DF000AC31D7E96A2307F51E61C1E9002307F654
:103E00008833A3F5D27007F68833A3F5D47103681D
:103E10005A030B68DB0C1343C7F8A0310B685A0335
:103E20000368DB0C1343C7F8A431D7E9682307F60E
:103E30009821C1E9002307F51B63D3E9000107F6C8
:103E40007823D3E9002380EA0206C7F898614B4043
:103E5000C7F89C31D7E9662307F51B61C1E9002348
:103E600007F68833A3F5EA7007F68833A3F5EC71FB
:103E700003685A070B68DB081343C7F890310B68D7
:103E80005A070368DB081343C7F89431D7E9642362
:103E900007F52961C1E9002307F6A823D3E9002328
:103EA000D143C7F87016DB43C7F8743607F52A63A9
:103EB000D3E90023D7F870161140C7F86816D7F871
:103EC00074160B40C7F86C3607F52B63D3E9002353
:103ED000D7F868165140C7F88811D7F86C164B40D0
:103EE000C7F88C31D7E9622307F53561C1E90023B2
:103EF00002E000BF986C010807F52A63D3E90023AC
:103F0000D143C7F86016DB43C7F8643607F6982339
:103F1000D3E90023D7F860161140C7F85816D7F830
:103F200064160B40C7F85C3607F6A823D3E90023D4
:103F3000D7F858165140C7F88011D7F85C164B4097
:103F4000C7F88431D7E9602307F64831C1E9002377
:103F500007F69823D3E90023D143C7F85016DB4373
:103F6000C7F8543607F52963D3E90023D7F850166C
:103F70001140C7F84816D7F854160B40C7F84C360E
:103F800007F52A63D3E90023D7F848165140C7F84C
:103F90007811D7F84C164B40C7F87C31D7E95E232F
:103FA00007F53461C1E9002307F52963D3E900234C
:103FB000D143C7F84016DB43C7F8443607F52B63F7
:103FC000D3E90023D7F840161140C7F83816D7F8C0
:103FD00044160B40C7F83C3607F69823D3E9002374
:103FE000D7F838165140C7F87011D7F83C164B4037
:103FF000C7F87431D7E95C2307F63831C1E90023EB
:1040000007F52B63D3E90023D143C7F83016DB4310
:10401000C7F8343607F6A823D3E90023D7F83016BB
:104020001140C7F82816D7F834160B40C7F82C36BD
:1040300007F52963D3E90023D7F828165140C7F8BC
:104040006811D7F82C164B40C7F86C31D7E95A23C2
:1040500007F53361C1E9002307F65823D3E90001CE
:1040600007F52863D3E9002380EA0206C7F86061F8
:104070004B40C7F86431D7E9582307F65821C1E906
:10408000002307F68833A3F5967007F68833A3F567
:1040900098710368DA0F0B685B001343C7F8583157
:1040A0000B68DA0F03685B001343C7F85C31D7E98C
:1040B000562307F52B61C1E9002307F62823D3E92E
:1040C000000107F67823D3E9002380EA0206C7F847
:1040D00050614B40C7F85431D7E9542307F62821E3
:1040E000C1E9002307F68833A3F5AE7007F68833DD
:1040F000A3F5B07103689A0E0B689B011343C7F8D0
:1041000048310B689A0E03689B011343C7F84C3182
:10411000D7E9522307F6A821C1E9002307F6F813CF
:10412000D3E9000107F52763D3E9002380EA0206FB
:10413000C7F840614B40C7F84431D7E9502307F630
:10414000F811C1E9002307F68833A3F5C67007F616
:104150008833A3F5C8710368DA090B685B0613435B
:10416000C7F838310B68DA0903685B061343C7F8F0
:104170003C31D7E94E2307F52A61C1E9002307F650
:10418000C813D3E9000107F66823D3E9002380EAC6
:104190000206C7F830614B40C7F83431D7E94C23E9
:1041A00007F6C811C1E9002307F68833A3F5DE70CE
:1041B00007F68833A3F5E07103681A0E0B681B023B
:1041C0001343C7F828310B681A0E03681B02134308
:1041D000C7F82C31D7E94A2307F69821C1E9002313
:1041E00007F51C63D3E9000107F68823D3E9002310
:1041F00080EA0206C7F820614B40C7F82431D7E9AE
:10420000482307F51C61C1E9002307F68833A3F5AD
:10421000E27007F68833A3F5E47103689A0B0B6824
:104220009B041343C7F818310B689A0B03689B046F
:104230001343C7F81C31D7E9462307F52961C1E9C3
:10424000002307F6A823D3E90023D143C7F820169B
:10425000DB43C7F8243607F52A63D3E90023D7F8F0
:1042600020161140C7F81816D7F824160B40C7F8C7
:104270001C3607F52B63D3E90023D7F818165140F5
:10428000C7F81011D7F81C164B40C7F81431D7E9FE
:10429000442307F62831C1E9002307F52A63D3E94F
:1042A0000023D143C7F81016DB43C7F8143607F6CE
:1042B0009823D3E90023D7F810161140C7F8081641
:1042C000D7F814160B40C7F80C3607F6A823D3E925
:1042D0000023D7F808165140C7F80811D7F80C1674
:1042E0004B40C7F80C31D7E9422307F53261C1E9E9
:1042F000002307F69823D3E90023D143C7F800161B
:10430000DB43C7F8043607F52963D3E90023D7F860
:1043100000161140C7F8F815D7F804160B40C7F877
:10432000FC3507F52A63D3E90023D7F8F815514087
:10433000C7F80011D7F8FC154B40C7F80431D7E98E
:10434000402307F61831C1E9002307F52963D3E9B3
:104350000023D143C7F8F015DB43C7F8F43507F560
:104360002B63D3E90023D7F8F0151140C7F8E815FF
:10437000D7F8F4150B40C7F8EC3507F69823D3E9C6
:104380000023D7F8E8155140C7F8F810D7F8EC1516
:104390004B40C7F8FC30D7E93E2307F53161C1E94E
:1043A000002307F52B63D3E90023D143C7F8E015B9
:1043B000DB43C7F8E43507F6A823D3E90023D7F891
:1043C000E0151140C7F8D815D7F8E4150B40C7F829
:1043D000DC3507F52963D3E90023D7F8D815514018
:1043E000C7F8F010D7F8DC154B40C7F8F430D7E920
:1043F0003C2307F60831C1E9002307F52463D3E91C
:10440000000107F66823D3E9002380EA0206C7F813
:10441000E8604B40C7F8EC30D7E93A2307F5246150
:10442000C1E9002307F68833A3F5A27007F68833A5
:10443000A3F5A47103685A090B68DB061343C7F898
:10444000E0300B685A090368DB061343C7F8E43011
:10445000D7E9382307F52B61C1E9002307F6382394
:10446000D3E9000107F68823D3E9002380EA020696
:10447000C7F8D8604B40C7F8DC30D7E9362307F6D9
:104480003821C1E9002307F68833A3F5A67007F6A3
:104490008833A3F5A87103681A010B681B0F134337
:1044A000C7F8D0300B681A0103681B0F1343C7F815
:1044B000D430D7E9342307F6A821C1E9002307F651
:1044C0000823D3E9000107F52863D3E9002380EA34
:1044D0000206C7F8C8604B40C7F8CC30D7E9322392
:1044E00007F60821C1E9002307F68833A3F5BE705B
:1044F00007F68833A3F5C07103689A0D0B689B0219
:104500001343C7F8C0300B689A0D03689B0213432E
:10451000C7F8C430D7E9302307F52A61C1E9002381
:1045200007F6D813D3E9000107F67823D3E900236F
:1045300080EA0206C7F8B8604B40C7F8BC30D7E93C
:104540002E2307F6D811C1E9002307F68833A3F517
:10455000D67007F68833A3F5D87103685A0C0B6838
:10456000DB031343C7F8B0300B685A0C0368DB0356
:104570001343C7F8B430D7E92C2307F69821C1E9D3
:10458000002307F6A813D3E9000107F52763D3E951
:10459000002380EA0206C7F8A8604B40C7F8AC3099
:1045A000D7E92A2307F6A811C1E9002307F68833C3
:1045B000A3F5EE7007F68833A3F5F07103681A06C9
:1045C0000B681B0A1343C7F8A0300B681A06036870
:1045D0001B0A1343C7F8A430D7E9282307F529613C
:1045E000C1E9002307F6A823D3E90023D143C7F884
:1045F000D015DB43C7F8D43507F52A63D3E9002388
:10460000D7F8D0151140C7F8C815D7F8D4150B4006
:10461000C7F8CC3507F52B63D3E90023D7F8C815C5
:104620005140C7F89810D7F8CC154B40C7F89C30CC
:10463000D7E9262307F53061C1E9002307F52A638E
:10464000D3E90023D143C7F8C015DB43C7F8C4350D
:1046500007F69823D3E90023D7F8C0151140C7F80F
:10466000B815D7F8C4150B40C7F8BC3507F6A82312
:10467000D3E90023D7F8B8155140C7F89010D7F800
:10468000BC154B40C7F89430D7E9242307F6F8212E
:10469000C1E9002307F69823D3E90023D143C7F8E3
:1046A000B015DB43C7F8B43507F52963D3E9002318
:1046B000D7F8B0151140C7F8A815D7F8B4150B40B6
:1046C000C7F8AC3507F52A63D3E90023D7F8A81556
:1046D0005140C7F88810D7F8AC154B40C7F88C305C
:1046E000D7E9222307F52F61C1E9002307F52963E4
:1046F000D3E90023D143C7F8A015DB43C7F8A4359D
:1047000007F52B63D3E90023D7F8A0151140C7F8AC
:104710009815D7F8A4150B40C7F89C3507F69823D1
:10472000D3E90023D7F898155140C7F88010D7F87F
:104730009C154B40C7F88430D7E9202307F6E821C1
:10474000C1E9002307F52B63D3E90023D143C7F860
:104750009015DB43C7F8943507F6A823D3E9002367
:10476000D7F890151140C7F88815D7F894150B4065
:10477000C7F88C3507F52963D3E90023D7F88815E6
:104780005140B967D7F88C154B40FB67D7E91E231A
:1047900007F52E61C1E9002307F52563D3E9000180
:1047A00007F67823D3E9002380EA02063E674B40F0
:1047B0007B67D7E91C2307F52561C1E9002307F6CC
:1047C0008833A3F59A7007F68833A3F59C710368C4
:1047D0009A070B689B081343BB660B689A0703682C
:1047E0009B081343FB66D7E91A2307F52B61C1E940
:1047F000002307F52263D3E9000107F52763D3E916
:10480000002380EA02063E664B407B66D7E9182308
:1048100007F52261C1E9002307F68833A3F5B270DA
:1048200007F68833A3F5B4710368DA050B685B0AF1
:104830001343BB650B68DA0503685B0A1343FB652A
:10484000D7E9162307F6A821C1E9002307F51F635E
:10485000D3E9000107F66823D3E9002380EA0206C2
:104860003E654B407B65D7E9142307F51F61C1E91D
:10487000002307F68833A3F5CA7007F68833A3F53B
:10488000CC710368DA010B685B0E1343BB640B68E1
:10489000DA0103685B0E1343FB64D7E9122307F5C3
:1048A0002A61C1E9002307F6E813D3E9000107F6FE
:1048B0008823D3E9002380EA02063E644B407B64F0
:1048C000D7E9102307F6E811C1E9002307F688337A
:1048D000A3F5CE7007F68833A3F5D07103685A02AA
:1048E0000B68DB0D1343BB630B685A020368DB0DD7
:1048F0001343FB63D7E90E2307F69821C1E9002390
:1049000007F6B813D3E9000107F52863D3E90023BC
:1049100080EA02063E634B407B63D7E90C2307F62F
:10492000B811C1E9002307F68833A3F5E67007F64E
:104930008833A3F5E87103689A0F0B689B00134353
:10494000BB620B689A0F03689B001343FB62D7E9B5
:104950000A2307F52961C1E9002307F6A823D3E953
:104960000023D143C7F88015DB43C7F8843507F52A
:104970002A63D3E90023D7F880151140C7F87815CA
:10498000D7F884150B40C7F87C3507F52B63D3E9BE
:104990000023D7F8781551403962D7F87C154B4081
:1049A0007B62D7E9082307F6D821C1E9002307F580
:1049B0002A63D3E90023D143C7F87015DB43C7F856
:1049C000743507F69823D3E90023D7F87015114002
:1049D000C7F86815D7F874150B40C7F86C3507F69B
:1049E000A823D3E90023D7F868155140B961D7F857
:1049F0006C154B40FB61D7E9062307F52D61C1E932
:104A0000002307F69823D3E90023D143C7F86015A4
:104A1000DB43C7F8643507F52963D3E90023D7F8EA
:104A200060151140C7F85815D7F864150B40C7F842
:104A30005C3507F52A63D3E90023D7F858155140B0
:104A40003961D7F85C154B407B61D7E9042307F641
:104A5000C821C1E9002307F52963D3E90023D14325
:104A6000C7F85015DB43C7F8543507F52B63D3E976
:104A70000023D7F8501501EA020AD7F8541501EAC5
:104A8000030B07F69823D3E9002382EA0A01B960F1
:104A900083EA0B03FB60D7E9022307F52C61C1E928
:104AA000002307F52B63D3E900236FEA02086FEABE
:104AB000030907F6A823D3E9002308EA020409EA58
:104AC000030507F52963D3E9002382EA040139606D
:104AD0006B407B60D7E9002307F6B821C1E90023CA
:104AE000D7F8843B0233C7F8843BD7F8843B172BB5
:104AF0007DF704AA07F68833A3F5F673196807F65D
:104B00007833D3E90023C1E9002307F68833A3F5FE
:104B1000F6731B6803F1080107F53763D3E9002337
:104B2000C1E9002307F68833A3F5F6731B6803F188
:104B3000100107F66833D3E90023C1E9002307F623
:104B40008833A3F5F6731B6803F1180107F5366384
:104B5000D3E90023C1E9002307F68833A3F5F673F0
:104B60001B6803F1200107F65833D3E90023C1E99C
:104B7000002307F68833A3F5F6731B6803F12801B9
:104B800007F53563D3E90023C1E9002307F688332D
:104B9000A3F5F6731B6803F1300107F64833D3E938
:104BA0000023C1E9002307F68833A3F5F6731B68D9
:104BB00003F1380107F53463D3E90023C1E9002389
:104BC00007F68833A3F5F6731B6803F1400107F677
:104BD0003833D3E90023C1E9002307F68833A3F56E
:104BE000F6731B6803F1480107F53363D3E900232B
:104BF000C1E9002307F68833A3F5F6731B6803F1B8
:104C0000500107F62833D3E90023C1E9002307F652
:104C10008833A3F5F6731B6803F1580107F5326377
:104C2000D3E90023C1E9002307F68833A3F5F6731F
:104C30001B6803F1600107F61833D3E90023C1E9CB
:104C4000002307F68833A3F5F6731B6803F16801A8
:104C500007F53163D3E90023C1E9002307F6883360
:104C6000A3F5F6731B6803F1700107F60833D3E967
:104C70000023C1E9002307F68833A3F5F6731B6808
:104C800003F1780107F53063D3E90023C1E900237C
:104C900007F68833A3F5F6731B6803F1800107F666
:104CA000F823D3E90023C1E9002307F68833A3F5ED
:104CB000F6731B6803F1880107F52F63D3E900231E
:104CC000C1E9002307F68833A3F5F6731B6803F1E7
:104CD000900107F6E823D3E90023C1E9002307F692
:104CE0008833A3F5F6731B6803F1980107F52E636B
:104CF000D3E90023C1E9002307F68833A3F5F6734F
:104D00001B6803F1A00107F6D823D3E90023C1E90A
:104D1000002307F68833A3F5F6731B6803F1A80197
:104D200007F52D63D3E90023C1E9002307F6883393
:104D3000A3F5F6731B6803F1B00107F6C823D3E9A6
:104D40000023C1E9002307F68833A3F5F6731B6837
:104D500003F1B80107F52C63D3E90023C1E900236F
:104D600007F68833A3F5F6731B6803F1C00107F655
:104D7000B823D3E90023C1E9002300BF07F6883731
:104D8000BD46BDE8F00F70472DE9F04FB9B000AF58
:104D9000F860B9607A603B600023C7F8DC300FE050
:104DA000D7F8DC30DB00FA68D1184FF000024FF082
:104DB0000003C1E90023D7F8DC300133C7F8DC3049
:104DC000D7F8DC30182BEBD933E00023C7F8DC3000
:104DD0001EE0D7F8DC30DB007A6813441846FCF795
:104DE00001FFD7F8DC30DB00FA681344D3E9002375
:104DF000D7F8DC60F600FC68264480EA020881EA05
:104E00000309C6E90089D7F8DC300133C7F8DC3084
:104E1000BB68DB08D7F8DC209A42DAD3F868FCF7E5
:104E20004BFF3A68BB68D31A3B607A68BB6813448F
:104E30007B603A68BB689A42C7D20023C7F8DC306F
:104E40000BE007F11402D7F8DC30134400221A708B
:104E5000D7F8DC300133C7F8DC30D7F8DC20BB688A
:104E60009A42EED30023C7F8DC3010E07A68D7F816
:104E7000DC301344197807F11402D7F8DC301344FE
:104E80000A461A70D7F8DC300133C7F8DC30D7F89F
:104E9000DC203B689A42E9D307F11402D7F8DC30F2
:104EA000134497F808211A70BB68013BE0333B4478
:104EB00013F8CC2CBB68013B62F07F02D2B2E03326
:104EC0003B4403F8CC2C0023C7F8DC301FE0D7F8B4
:104ED000DC30DB0007F1140213441846FCF782FEB5
:104EE000D7F8DC30DB00FA681344D3E90023D7F8A5
:104EF000DC60F600FC68264480EA020A81EA030BC3
:104F0000C6E900ABD7F8DC300133C7F8DC30BB684A
:104F1000DB08D7F8DC209A42D9D300BF00BFE437C2
:104F2000BD46BDE8F08F80B586B000AFF860B960CF
:104F30007A603B6021E07868FCF7BEFE00237B616D
:104F40000FE07B69DB00FA68D1187B69DB007A68C7
:104F50001344D3E900230846FCF781FE7B69013343
:104F60007B613B68DB087A699A42EAD3FA683B685E
:104F70001344FB60BB68013BBB60BB68002BDAD10C
:104F800000BF00BF1837BD4680BD80B485B000AFFC
:104F900078600023FB600CE0FB68DB007A68D118C6
:104FA0004FF000024FF00003C1E90023FB6801331A
:104FB000FB60FB68182BEFD97B6803F1C8014FF049
:104FC00000024FF00003C1E9002300BF1437BD46C3
:104FD0005DF8047B70472DE9B04FB0B000AFC7F863
:104FE000B400C7F8B010C7F8AC20C7F8A830D2E0BA
:104FF0000023C7F8BC3099E0D7F8B430C833D3E900
:105000000023D7F8BC100020C7F88010C7F8840030
:10501000D7E9208941465118B96749464B41FB679A
:105020004FF000024FF00003D7E91E894146CA083D
:10503000494642EA41724946CB081346DA00D7F89E
:10504000B4301344D3E90089D7F8AC20D7F8BC308A
:1050500013441B78DBB20022C7F8A030C7F8A420A5
:10506000D7F8B430C833D3E90023D7F8BC100020F8
:10507000C7F89010C7F89400D7F890105118396706
:10508000D7F894104B417B673B6F03F00703D900BF
:10509000A1F12003C1F12002D7F8A40000FA01F524
:1050A000D7F8A00000FA03F31D43D7F8A03023FA85
:1050B00002F21543D7F8A03003FA01F4D7F8B43060
:1050C000C833D3E90023D7F8BC100020C7F88810F4
:1050D000C7F88C00D7F888105118C7F89810D7F87F
:1050E0008C104B41C7F89C304FF000024FF000038A
:1050F000D7F89810CA08D7F89C1042EA4172D7F83E
:105100009C10CB081346DA00D7F8B430134488EA71
:105110000402BA6689EA0502FA66D7E91A12C3E9F7
:105120000012D7F8BC300133C7F8BC30D7F8B43020
:10513000C833D3E90023D7F8B0309A1AD7F8BC3077
:105140009342FFF459AFD7F8B430C833D3E9002302
:10515000D7F8B030D21AD7F8A8301344C7F8A8301F
:10516000D7F8B430C833D3E90023D7F8B0309A1A4F
:10517000D7F8AC301344C7F8AC30D7F8B43003F1EB
:10518000C8014FF000024FF00003C1E90023D7F837
:10519000B400FCF791FDD7F8A83000223B667A6690
:1051A000D7F8B430C833D3E90023D7E9188941468A
:1051B0008918B965494641EB0303FB65D7F8B03060
:1051C00000223B657A65D7E916894346D7E9140181
:1051D000024693424B460A469341BFF409AF00236F
:1051E000C7F8BC308EE0D7F8B430C833D3E9002319
:1051F000D7F8BC100020B964F864D7E912452146FD
:105200005118396429464B417B644FF000024FF03E
:105210000003D7E910452146CA08294642EA4172EF
:105220002946CB081346DA00D7F8B4301344D3E943
:105230000045D7F8AC20D7F8BC3013441B78DBB25C
:105240000022BB63FA63D7F8B430C833D3E9002334
:10525000D7F8BC10002039637863D7E90C89414640
:105260005118B96249464B41FB62BB6A03F0070320
:10527000D900A1F12003C1F12002D7E90E894846E7
:1052800000FA01FB404600FA03F34BEA030B4346E6
:1052900023FA02F24BEA020B434603FA01FAD7F86B
:1052A000B430C833D3E90023D7F8BC1000203962EA
:1052B0007862D7E9088941465118B96149464B419E
:1052C000FB614FF000024FF00003D7E90689414629
:1052D000CA08494642EA41724946CB081346DA00F9
:1052E000D7F8B430134484EA0A023A6185EA0B0223
:1052F0007A61D7E90412C3E90012D7F8BC30013350
:10530000C7F8BC30D7F8BC20D7F8A8309A42FFF4D1
:105310006AAFD7F8B430C833D3E90023D7F8A81060
:105320000020B960F860D7F8B410C831D7E9024559
:10533000204610183860284643EB00007860D7E913
:105340000034C1E9003400BFC037BD46BDE8B08FAE
:105350002DE9F00F8AB000AF786239621346FB770F
:105360007B6AC833D3E900014FF000024FF000031D
:10537000C20842EA4172CB081346DB007A6A134442
:10538000D3E90001C7E90001FB7F00229A4693465A
:105390007B6AC833D3E90023134603F00703DA001E
:1053A000A2F12001C2F120030BFA02F50AFA01F181
:1053B0000D432AFA03F31D430AFA02F47B6AC83349
:1053C000D3E900014FF000024FF00003C20842EAA7
:1053D0004172CB081346DB007A6A1344D7E9000117
:1053E000024662403A610A466A407A61D7E904128D
:1053F000C3E900123B6A013BDB08DB007A6A134415
:10540000D3E900453B6A013B03F00703D9004FF0A5
:1054100080024FF00003A1F12006C1F1200003FA41
:1054200001F902FA06F649EA060922FA00F049EA09
:10543000000902FA01F83B6A013BDB08DB007A6AEB
:10544000134484EA0802BA6085EA0902FA60D7E9DF
:105450000212C3E900127B6A03F1C8014FF0000297
:105460004FF00003C1E9002300BF2837BD46BDE867
:10547000F00F70472DE9B04F9EB000AFF866B966E7
:105480007A663B6600237B676DE03B6E0022BB645F
:10549000FA647B6EC833D3E90023D7E9124521466D
:1054A000891A3964294661EB03037B647B6F002210
:1054B000BB63FA63D7E910452346D7E90E010246DC
:1054C0009B183B632B460A4653417B634FF0000217
:1054D0004FF00003D7E90C452146CA08294642EAA5
:1054E00041722946CB081346DA007B6E1344D3E998
:1054F00000453B6E0022BB65FA657B6EC833D3E97D
:105500000023B96D891A3965F96D61EB03037B6579
:105510007B6F0022BB62FA623B6DD7E90A0102464B
:105520009B183B627B6D0A4653417B623B6A03F0EA
:105530000703D900C1F12003A1F1200224FA01FAE6
:1055400005FA03F34AEA030A25FA02F24AEA020AD2
:1055500025FA01FBFA6E7B6F1A445FFA8AF3137027
:105560007B6F01337B677A6FBB6E9A4210D27B6F81
:105570000022BB61FA617B6EC833D3E90023D7E90F
:10558000064521469142294671EB0303FFF47DAFA6
:10559000FA6E7B6F1344FB66BA6E7B6FD31ABB66E1
:1055A0007B6EC833D3E90023796F002039617861BD
:1055B000796EC831D7E904452046101AB8602846EC
:1055C00063EB0003FB60D7E90234C1E9003445E036
:1055D000786EFCF771FB00237B6723E07B6FDB08B1
:1055E000DB007A6E1344D3E90023796F01F00701E1
:1055F000C900C1F12004A1F1200022FA01F803FA48
:1056000004F448EA040823FA00F048EA000823FA00
:1056100001F9FA6E7B6F13445FFA88F21A707B6FA0
:1056200001337B677A6FBB6E9A4203D27A6F3B6E0F
:105630009A42D3D3FA6E7B6F1344FB66BA6E7B6FCC
:10564000D31ABB663A6E7B6FD21A7B6EC8330021C9
:105650003A607960D7E90012C3E90012BB6E002BF3
:10566000B6D100BF00BF7837BD46BDE8B08F80B56A
:1056700082B000AF7860D0200DF0CAF903461A4618
:105680007B681A607B681B68002B02D16F200DF0CD
:10569000ADF97B681B681846FFF777FC00BF083739
:1056A000BD4680BD80B584B000AFF860B9607A6057
:1056B000FB6818687B68BA688821FFF78CFC00BF1C
:1056C0001037BD4680BD80B582B000AF78607B6882
:1056D0001B681F2288211846FFF73AFE00BF0837D3
:1056E000BD4680BD80B584B000AFF860B9607A6017
:1056F0007B681A688823B968F868FFF7BBFE00BFAB
:105700001037BD4680BD80B582B000AF78607B6841
:105710001B6818460DF084F900BF0837BD4680BDF0
:1057200080B586B002AFF860B9607A60C8200DF02D
:105730006FF903461A46FB681A60FB681B68002B6A
:1057400002D16F200DF052F9FB6818681F230093F7
:105750007B68BA688821FFF717FB00BF1037BD468A
:1057600080BD80B584B000AFF860B9607A607B68B6
:105770001A688823B968F868FFF7D5FB00BF1037AF
:10578000BD4680BD80B582B000AF78607B681B6885
:1057900018460DF045F900BF0837BD4680BD000032
:1057A00080B5AAB000AFF860B9607A603B60BB68B2
:1057B0002A4AA2FB0323DB09C7F8A03007F1140330
:1057C0003A6879681846FFF7ABFF07F114031A46E9
:1057D000D7F8A010F868FFF7C4FFD7F8A020134649
:1057E0001B011344DB001A46FB681344FB60D7F827
:1057F000A02013461B011344DB001A46BB689B1A0A
:10580000BB60BB68002B20D007F1140207F118031E
:1058100001211846FFF7A5FF0023C7F8A4300FE0C9
:10582000FA68D7F8A430134407F11801D7F8A42078
:105830000A4412781A70D7F8A4300133C7F8A4309C
:10584000D7F8A420BB689A42EAD307F1140318469C
:10585000FFF798FF00BFA837BD4680BDF1F0F0F01C
:1058600080B584B000AFF860B9607A607A68B968D2
:10587000F86800F07BF900BF1037BD4680BD80B5E9
:1058800086B002AFF860B9607A603B603B68009315
:105890007B680122B968F86802F026F900BF10376A
:1058A000BD4680BD80B586B000AFF860B9607A6053
:1058B0003B603B687B617B693B6179683869FBF7DA
:1058C00084FB06213869FBF70FFB3A69B968F86871
:1058D000FFF7C6FF03213869FBF706FB3B69BA688F
:1058E000F968F868FFF7CBFF00BF1837BD4680BDE9
:1058F00080B487B000AF786039600023FB6000237C
:105900007B6130E07B699B007A68134400221A6057
:1059100000233B6121E07B699B007A6813441A688D
:10592000FB68DB0839680B441B781946FB6803F0F9
:10593000070341FA03F303F001013B6901FA03F3A2
:1059400018467B699B0079680B4442401A60FB68EB
:105950000133FB603B6901333B613B69052BDAD9BD
:105960007B6901337B617B69202BCBD900BF00BFF2
:105970001C37BD465DF8047B7047000090B5ADF55F
:105980004B7D06AF07F54474A4F54174206007F51C
:105990004470A0F54270016007F54471A1F54371B0
:1059A0000A6007F54472A2F54472136007F5447368
:1059B000A3F53073184620231A4600210DF054FF3A
:1059C00007F54473A3F53873184620231A460021BF
:1059D0000DF04AFF07F13003C7F8083307F54473A9
:1059E000A3F54073184620231A4600210DF03CFF12
:1059F00007F15003D7F820131846FBF7A3FAD7F89E
:105A00002013D7F80803FBF79DFA07F11003D7F826
:105A100020131846FBF796FA07F1100304211846E5
:105A2000FBF762FA07F54473A3F5437307F5207299
:105A300019681046FFF75CFF0023C7F80C3378E0C5
:105A4000D7F80C339B01C7F8043307F1500300214A
:105A50001846FBF7AAFAD7F80C339B0003F54473FA
:105A60003B4453F8902CD7F804331A4407F1500301
:105A700011461846FBF7A9FA07F15003062118460C
:105A8000FBF732FA07F1500207F54473A3F54471AE
:105A900007F54473A3F5417309681868FFF7E0FE42
:105AA00007F1500303211846FBF71EFA07F544736C
:105AB000A3F5417307F54472A2F5417212681032E2
:105AC0001A60D7F80C331B0107F17002D018D7F811
:105AD0000C339B0003F544733B4453F8904C07F59B
