:10000000584E0120D97F0000A1450200C57F0000A5
:10001000C57F0000C57F0000C57F0000C57F0000D0
:10002000000000000000000000000000358100001A
:10003000C57F000000000000D5800000C57F0000E3
:10004000FD820000FD820000FD820000FD820000B4
:10005000FD820000FD820000FD820000FD820000A4
:10006000FD820000FD820000FD820000FD82000094
:10007000FD820000FD820000FD820000FD82000084
:10008000FD820000FD820000FD820000FD82000074
:10009000FD820000FD820000FD820000FD82000064
:1000A000FD820000FD820000FD820000FD82000054
:1000B000FD820000FD820000FD820000FD82000044
:1000C000FD820000FD820000FD820000FD82000034
:1000D000FD820000FD820000FD820000FD82000024
:1000E000FD820000FD820000FD820000FD82000014
:1000F000FD820000FD820000FD820000FD82000004
:10010000FD820000FD820000FD820000FD820000F3
:10011000FD820000FD820000FD820000FD820000E3
:10012000FD820000FD820000FD820000FD820000D3
:10013000FD820000FD820000FD820000FD820000C3
:10014000FD820000FD820000FD820000FD820000B3
:04015000FD8200002C
:1001580080EA101404F0F01480EA0410604081EA88
:10016800111404F0F01481EA0411614082EA1214B7
:1001780004F0F01482EA0412624083EA131404F0D3
:10018800F01483EA0413634080EA102404F47F44E3
:1001980080EA0420604081EA112404F47F4481EA63
:1001A8000421614082EA122404F47F4482EA042292
:1001B800624083EA132404F47F4483EA04236340FF
:1001C80081EA500404F0553480EA4400614083EA2F
:1001D800520404F0553482EA4402634082EA9004EF
:1001E80004F0333480EA8400624083EA910404F026
:1001F800333481EA84016340704700BF82EA900487
:1002080004F0333480EA8400624083EA910404F005
:10021800333481EA8401634081EA500404F05534A0
:1002280080EA4400614083EA520404F0553482EACB
:100238004402634080EA102404F47F4480EA0420E6
:10024800604081EA112404F47F4481EA042161407A
:1002580082EA122404F47F4482EA0422624083EA98
:10026800132404F47F4483EA0423634080EA1014CF
:1002780004F0F01480EA0410604081EA111404F0DC
:10028800F01481EA0411614082EA121404F0F014B7
:1002980082EA0412624083EA131404F0F01483EA39
:1002A80004136340704700BF2DE9F14F94464FEAAD
:1002B800930B8A68CB6808684968FFF749FF0BF118
:1002C800060E33E083EA134480EA134582EA1347B3
:1002D80046BA96EA3444604000F00F1684EA0634C1
:1002E80020F00F1684EA161054BA94EA01067240F8
:1002F80002F00F1486EA043622F00F1486EA14126C
:100308004CBA6540694001F00F1485EA043521F0C4
:100318000F1485EA14115CBA67407B4003F00F1490
:1003280087EA043723F00F1487EA1413BCE8F000B7
:100338006040694072407B4000F0E03400F01035C6
:1003480000F00F3040EA540040EAC50080EA90040B
:1003580004F0332480EA8400604001F0E03401F0C6
:10036800103501F00F3141EA540141EAC50181EA33
:10037800910404F0332481EA8401614002F0E034FE
:1003880002F0103502F00F3242EA540242EAC50286
:1003980082EA920404F0332482EA8402624003F081
:1003A800E03403F0103503F00F3343EA540343EA13
:1003B800C50383EA930404F0332483EA8403634087
:1003C80081EA324787EA134581EA354690EA06040E
:1003D80084EA034B82EA1B4280EA044484EA054427
:1003E80083EA144A85EA14448BEA044B84EA3744C6
:1003F80081EA0B4181EA164104EA0A00454082EA93
:1004080004082BEA080041408AEA0B0602EA0600C3
:1004180084EA34438AEA3A4603EA060778404540C4
:10042800414088EA38478BEA3B4007EA000985EAF9
:10043800090583EA0709464006EA0906714085EA84
:10044800010005EA3546464006EA314181EA304175
:1004580081EA364606EA304686EA3546344008EAF6
:10046800010886EA01052A4086EA364003405A40D8
:1004780081EA31431F407C4080EA030709EA070903
:1004880088EA0908544088EA020806EA0A0601EAE6
:100498000B018AEA0B0215408AEA3A4210404540AD
:1004A8008BEA3B4003405E404240174079404D4054
:1004B8004E40E443F64386EA18435D4085EA05402A
:1004C80083EA134386EA034183EA384284EA114304
:1004D80083EA04435FEA3343BEF1010E3FF6F2AE0E
:1004E8001ED4BCE8F0006040694072407B4020BCEC
:1004F800FFF784FE28606960AA60EB60BDE8F08FB2
:100508002DE9E0414FF2F00280EA1031114080EA13
:100518000130484041088208C3084FF0000E4FE7F9
:1005280000F0113001F0113102F0113203F01133F3
:1005380040EA410040EA820040EAC3004FF2F0027C
:1005480080EA1031114080EA01304840BDE8E0817E
:100558002DE9F04F02F11C050646074600EB850819
:1005680051F8040B043A46F8040BF9D14FF0010C8A
:10057800FFF7C6FF5FEA302080EA0C001ECF41403B
:100588004A4053405C401EC62000464517D04FEAFB
:100598004C0C1CF4807F18BFACF1E50C2C2DE7D077
:1005A8003C2D06D1FFF7ACFF06CF41404A4006C6B6
:1005B800100006CF41404A4006C61000D8E736E989
:1005C8000F00FFF7C5FD043D86E80F00F7D1BDE831
:1005D800F08F00BF2DE9F14F03F11C0402EB840CEE
:1005E8004FEA930B8A68CB6808684968FFF7B0FD43
:1005F8003CE9F0006040694072407B400BF1060E18
:100608004EE083EA134480EA134582EA134746BA68
:1006180096EA3444604000F00F1684EA063420F06D
:100628000F1684EA161054BA94EA0106724002F0D2
:100638000F1486EA043622F00F1486EA14124CBA14
:100648006540694001F00F1485EA043521F00F1464
:1006580085EA14115CBA67407B4003F00F1487EAFF
:10066800043723F00F1487EA141344BA44404DBAF0
:100678004D4056BA56405FBA5F4087EA174886EA47
:10068800174B84EA17464FEA38488BEA1B4485EA39
:100698001B4788EA1B4580EA3440694072407B402A
:1006A80000F0703400F0803500F00F3040EA44006C
:1006B80040EAD50080EA900404F0332480EA8400FC
:1006C800604001F0703401F0803501F00F3141EAEB
:1006D800440141EAD50181EA910404F0332481EA16
:1006E8008401614002F0703402F0803502F00F326C
:1006F80042EA440242EAD50282EA920404F0332430
:1007080082EA8402624003F0703403F0803503F01B
:100718000F3343EA440343EAD50383EA930404F01E
:10072800332483EA84036340C943DB4381EA00043A
:1007380083EA044686EA020183EA014382EA3345F2
:1007480083EA14435C4084EA00077FEA040A8AEAE1
:10075800024A8AEA010B87EA11488AEA374A80EA9C
:10076800060181EA1A418AEA030A04EA0A004540B6
:1007780088EA040707EA0B0041408AEA0B0608EA00
:10078800060084EA34428AEA3A4602EA06035840F6
:100798004540414087EA37438BEA3B4003EA00097A
:1007A80085EA090582EA0309464006EA0906714016
:1007B80085EA010005EA3546464006EA314181EA04
:1007C800304181EA364606EA304686EA3546344004
:1007D8000F4086EA010508EA050886EA3640024025
:1007E80088EA020881EA314213405C4080EA020349
:1007F80009EA030987EA0907674088EA040806EA5C
:100808000A0601EA0B018AEA0B0425408AEA3A44FF
:10081800204045408BEA3B4B02EA0B02564084EAF3
:100828000B04234059406E40694087EA364080EA0D
:10083800384080EA060380EA104481EA134585EAD5
:10084800344585EA17427D4082EA354180EA054011
:100858003CE9F0006040694072407B40BEF1010E07
:100868003FF6CFAE20BCFFF7C9FC28606960AA60DC
:10087800EB60BDE8F08F00BFFFF76ABE2DE9F00717
:1008880091E8F807B2E802105B1854EB0C04B2E8E0
:1008980002104D4156EB0C06B2E802104F4158EBDE
:1008A8000C08B2E8021059EB01095AEB0C0A80E86F
:1008B800F80780410130BDE8F00770472DE9F007DF
:1008C80091E8F807B2E802105B1A74EB0C04B2E87E
:1008D80002108D4176EB0C06B2E802108F4178EBDE
:1008E8000C08B2E8021079EB01097AEB0C0A80E8EF
:1008F800F80780414042BDE8F00770472DE9F0074E
:10090800524290E87800B1E880071740DB1918EAEE
:10091800020854EB080419EA020955EB09051AEA1A
:10092800020A56EB0A0678C090E87800B1E880071A
:1009380017407B4118EA020854EB080419EA020937
:1009480055EB09051AEA020A56EB0A0678C08041F7
:100958000130BDE8F00770472DE9F007524290E8F2
:100968007800B1E880071740DB1B18EA020874EB2F
:10097800080419EA020975EB09051AEA020A76EB76
:100988000A0678C090E87800B1E880071740BB41B4
:1009980018EA020874EB080419EA020975EB09055C
:1009A8001AEA020A76EB0A0678C080414042BDE89E
:1009B800F00770472DE9F00152424FF0040890E823
:1009C800300091E8C000A31B1340E41AF618EB1B93
:1009D8001340ED1AFF1830C0C0C1B8F10108EED1BC
:1009E800BDE8F001704700BF00B592E8DC072DE9CB
:1009F800DC07B1E8805702B4A7FB02510A95A8FBAF
:100A0800020BE7FB6310E9FB62B00B91A8FB0351F3
:100A1800EAFB6201E7FB64B5E7FB6605E8FB6615E0
:100A2800CDF830B0A9FB03B6EAFB6316ECFB6356BE
:100A3800E8FB640BE9FB641BEAFB645BECFB646B9F
:100A48000D90ACFB0230059CEEFB6250E9FB646044
:100A5800EAFB64B0E7FB6431E8FB6451069CE8FB01
:100A68006461E9FB64B1EAFB64010E93A7FB0432FD
:100A7800079CE7FB6462E8FB64B2E9FB6402EAFBFB
:100A88006412049CE9FB6453EAFB6463089CE7FB7B
:100A980064B3E8FB6403E9FB6413EAFB64230F9582
:100AA8005DF8049B99E80006DDF80080A9FB08546E
:100AB800EAFB68B4DDF81080ECFB6804EEFB681410
:100AC800E9FB6824EAFB6834DDF80480EEFB68651E
:100AD800E9FB68B5EAFB6805DDF81480ECFB6815EE
:100AE800EEFB6825E9FB6835EAFB68450F96DDF8FB
:100AF8000880AEFB0876E9FB6806EAFB6816DDF8B5
:100B08001880ECFB6826EEFB6836E9FB6846EAFBD2
:100B18006856DDF80C80ECFB68B7EEFB6807E9FB6C
:100B28006817EAFB6827DDF81C80ECFB6837EEFBEA
:100B38006847E9FB6857EAFB686708B000BD00BF73
:100B48002DE9F14F87B0FFF74FFFDDF81C8008F162
:100B5800200888E8FF00FFBC87E87F08BDE8F08F21
:100B680000B591E89857A3FB03520195A3FB040134
:100B7800E3FB6420E3FB67100292A3FB0752E3FB4D
:100B88006802E4FB6415E3FB6805E3FB6925039150
:100B9800A4FB07B6E3FB6926E3FB6A56E4FB670B95
:100BA800E4FB682BE3FB6A5BE3FB6C6B0490A4FB40
:100BB8000810E4FB6950E3FB6C60E3FB6EB0E7FBF5
:100BC8006721E4FB6951E4FB6A61E3FB6EB1E4FB76
:100BD8006E010592A7FB0832E4FB6A62E4FB6CB283
:100BE800E4FB6E02E7FB6E12E7FB6853E7FB696301
:100BF800E4FB6CB3E7FB6C03E7FB6E13E8FB6E23C7
:100C08000695A7FB0954E7FB6AB4E7FB6C04E8FB0D
:100C18006C14E8FB6E24E9FB6E34E8FB6865E7FBBF
:100C28006AB5E8FB6A05E8FB6C15E9FB6C25E9FB8E
:100C38006E35EAFB6E450796A8FB0976E8FB6A065F
:100C4800E9FB6A16E9FB6C26EAFB6C36EAFB6E46A2
:100C5800ECFB6E56E8FB69B7E9FB6907E9FB6A1725
:100C6800EAFB6A27EAFB6C37ECFB6C47ECFB6E5738
:100C7800EEFB6E6700BD00BF2DE9F14F87B0FFF7AF
:100C88006FFFDDF81C8008F1200888E8FF00FFBC32
:100C980087E87F08BDE8F08F30B44FF0000310F804
:100CA800014B11F8015B013A84EA050443EA0403A5
:100CB800F5D1A3F101034FEAD37030BC704700BFF0
:100CC8004FF0000310F8012B013943EA0203F9D170
:100CD800A3F101034FEAD370704700BF30B411F895
:100CE800014B12F8015B6C4000F8014B013BF6D157
:100CF80030BC70472DE9F00791E8F807B2E8021018
:100D08005B1854EB0C04B2E802104D4156EB0C068C
:100D1800B2E802104F4158EB0C08B2E8021059EB48
:100D280001095AEB0C0A8941B3F1FF3374F1FF341E
:100D380075F1FF3576F1000677F1000778F10008C4
:100D480079F101097AF1FF3A51F100015B184C4140
:100D58004D4156F1000657F1000758F1000859EBCC
:100D6800D1795AEB010A80E8F807BDE8F007704727
:100D78002DE9F00791E8F807B2E802105B1A74EB66
:100D88000C04B2E802108D4176EB0C06B2E80210B2
:100D98008F4178EB0C08B2E8021079EB01097AEB85
:100DA8000C0A89415B184C414D4156F1000657F138
:100DB800000758F1000859EBD1795AEB010A80E88D
:100DC800F807BDE8F007704718EB040859EB050968
:100DD8005AEB060A5BEB070B5FF0000C4CF1000CBA
:100DE80018EB050859EB06095AEB070A5BEB070BEA
:100DF80050EB0C005FF0000C51EB0C0152EB0C02B5
:100E080063414CF1000CB8EB070879F100097AF15D
:100E1800000A7BEB040BA841B141A241B3416CF13C
:100E2800000CBBEB050BB041B941AA41BB416CF1C9
:100E3800000C4CF001068CF0020718EB060859EB81
:100E48006C095AEB6C0A7BEB6C0B70EB6C0471EB66
:100E58006C0572EB670653EB6C076CEB6C0C18EBCC
:100E68000C0059EB0C015AEB0C025BF1000354F136
:100E7800000455F1000556EBDC7657EB0C0770477C
:100E88002DE9F14F87B0FFF7AFFDDDF81080DDF8F1
:100E98001490DDF818A0FFF797FFBDE8000FFFF7E3
:100EA80093FF03B05DF8048B88E8FF00BDE8F08F7E
:100EB8002DE9F14F87B0FFF753FEDDF81080DDF81C
:100EC8001490DDF818A0FFF77FFFBDE8000FFFF7CB
:100ED8007BFF03B05DF8048B88E8FF00BDE8F08F66
:100EE80053B94AB9002908BF00281CBF4FF0FF3189
:100EF8004FF0FF3000F00CB8ADF1080C6DE904CEEE
:100F080000F022F8DDF804E0DDE9022304B07047C0
:100F1800704700BF10F8012B11F8013B012A28BFC8
:100F28009A42F7D0D01A7047034611F8012B03F8FC
:100F3800012B002AF9D17047034613F8012B002A28
:100F4800FBD1181A013870472DE9F04786468C46C0
:100F58000846089E154674461946002B40F0C18085
:100F68008542B2FA82F245D94AB1C2F1200300FAA9
:100F780002FC954094402EFA03F343EA0C0C4FEA26
:100F8800154EA8B2230CBCFBFEF80EFB18CC08FBD0
:100F980000F943EA0C43994528D9EB1808F1FF37C3
:100FA80004D2994502D9A8F102072B44A3EB0903FF
:100FB800A4B2B3FBFEFC0EFB1C330CFB00F044EAAE
:100FC8000344A04214D92C190CF1FF3304D2A042D7
:100FD80002D9ACF102032C44241A43EA07401EB19B
:100FE800D440002334607360BDE8F0874746DDE7EE
:100FF8006346F1E792BB431B01214FEA154EAFB29E
:10100800200CB3FBFEFC0EFB1C330CFB07F840EA7C
:101018000343984561D9EB180CF1FF3004D2984589
:1010280002D9ACF102002B44A3EB0803A4B2B3FB32
:10103800FEFC0EFB1C330CFB07F744EA0344A742F3
:101048004DD92C190CF1FF3304D2A74202D9ACF1C7
:1010580002032C44E41B43EA0040C0E7C2F120032A
:101068009540944020FA03F12EFA03F34FEA154E07
:101078009040AFB20343B1FBFEFC0EFB1C10190CF1
:101088000CFB07F841EA0041884522D969180CF1A0
:10109800FF3004D2884502D9ACF102002944A1EB03
:1010A80008019BB2B1FBFEFC0EFB1C110CFB07F701
:1010B80043EA01439F420ED9EB180CF1FF3104D2E9
:1010C8009F4202D9ACF102012B44DB1B41EA0041EB
:1010D80093E76046E3E76146F7E76046A4E76346BF
:1010E800B8E7834206D916B9002108467CE7C6E965
:1010F80000E0F9E7B3FA83F78FB9834201D3724569
:1011080008D8BEEB020460EB030301209C461EB91D
:10111800002169E73846FAE7C6E9004CF8E7C7F165
:10112800200CBB400EFA07F522FA0CF42EFA0CF14B
:10113800BA401C4320FA0CF3B8404FEA1449014363
:101148001FFA84FEB3FBF9F809FB18300B0C08FBF7
:101158000EFA43EA00439A4540D9E31808F1FF30F4
:1011680004D29A4502D9A8F102002344A3EB0A034A
:1011780089B2B3FBF9F809FB183308FB0EFE41EA04
:1011880003418E452CD9611808F1FF3304D28E45EE
:1011980002D9A8F10203214443EA0040A1EB0E0161
:1011A800A0FB02984145CE46434602D306D14D45A1
:1011B80004D20138B9EB020E68EB0403002EA7D065
:1011C800B5EB0E0261EB030101FA0CFC22FA07F3FE
:1011D800F9404CEA0303C6E9003199E74046C5E700
:1011E8004346D9E7000000000022F0B585B011465B
:1011F80040F6034002AF09F0EFFB0446002840F038
:10120800A58009F029F9214641F203003A1D09F0A9
:10121800E3FB0446002840F099807A684D4DD16878
:1012280005F17803D1F80100D1F8051003C3104681
:1012380007F0AAFD214641F201003A1D09F0CCFB56
:101248000446002840F082807868C3685A7885F898
:1012580070205A88A5F872201A7985F87120B3F899
:101268000720A5F87420B3F80530A5F8763007F004
:101278008BFD214641F202003A1D09F0ADFB044600
:10128800002863D1D7F804C005F18006DCF80C20EB
:10129800531C4132344618685968083303C49342D2
:1012A8002646F7D1604607F06FFD0AF067FF04464F
:1012B80000284BD195F88A30990610D40221264A85
:1012C800264823F067FB95F87C305A064AD401215A
:1012D800234A224823F05EFB6FF0120436E04FF0F9
:1012E800FF304FF0FF3109F0DBF80646002800F028
:1012F800428207210C3007F0CDFE6FF00403037023
:101308000A23C0F802408471447004712246C370F5
:10131800314640F6334009F05FFB0446B0B94FF060
:10132800FF304FF0FF3109F0BBF80646002800F007
:10133800228201210C3023F0EFF92246314640F693
:10134800314009F049FB04460028BCD020460C3740
:10135800BD46F0BDC004002045D70200949C0200A1
:1013680073D70200002142F203003A1D09F034FB52
:1013780004460028EAD17A68A94BD168D1F801005F
:10138800D1F8051003C3104607F0FEFC214642F2CF
:1013980002003A1D09F020FB04460028D6D17E68D9
:1013A800F468B4F801309AB292B1E27882B1A5F843
:1013B8000431E378032B06D00322022100929948D6
:1013C800994A22F070FDE2789848114627F092F881
:1013D800304607F0D9FC95F87C6016F0200619D144
:1013E8004FF0FF304FF0FF3109F05AF8044600285B
:1013F80000F0C18102210C3007F04CFE0123214688
:1014080003704670324640F66D4009F0E5FA04462E
:1014180000289BD195F89C301B0712D5002142F279
:101428001C003A1D09F0D8FA044600288ED17868C5
:10143800C368D3F80120D3F80530C5E9382307F08D
:10144800A3FC95F8D8309E0623D53846B91C09F078
:101458006BFB044600287FF479AF4FF0FF304FF064
:10146800FF3109F01DF80646002800F084810421A8
:101478000C3007F00FFE3B88224603807B883146FC
:10148800438042F2240009F0A7FA044600287FF4BA
:101498005DAF95F8D8305C0610D5002142F22A00DD
:1014A8003A1D09F099FA044600287FF44FAF78688E
:1014B800C3685B7885F8203107F066FC4FF0FF3091
:1014C8004FF0FF3108F0ECFF0446002800F053818C
:1014D80008210C3007F0DEFD95F8D81040F2022301
:1014E80011F0400F08BF0323024688074CBF43F0A2
:1014F8002C0043F00C008B0695F8D93048BF40F01B
:10150800400013F0090F18BF40F40060CE0748BF31
:1015180040F01000002123F058FA2146002242F240
:10152800010009F059FA044600287FF40FAF95F836
:101538007C30B5F8041198065DD4C9B941F20500AC
:101548003A1D09F049FA044600287FF4FFAEB5F8C1
:1015580004317C684BB9E368B3F80120A5F804218D
:101568009A883248114626F0C5FF204607F00CFC41
:101578004FF0FF304FF0FF3108F092FF044600288B
:1015880000F0F98008210C3007F084FD95F8D83078
:101598000246D90739D44FF00051254823F015FAEF
:1015A8002146002240F6014009F016FA04460028B8
:1015B8007FF4CCAE01463A1D4FF6014009F00CFA13
:1015C80000283BD01B4A0221164823F0E3F9EB79A7
:1015D800002B40F0C08023F0B5FB044600287FF4C0
:1015E800B5AE0CF073FB044600287FF4AFAE09F0EB
:1015F800F7F80446AAE60029BAD101210E4A09489B
:1016080023F0C8F96FF00404A0E603A1D1E90001B2
:10161800C4E700BFAFF3008090880002008000207C
:1016280098050020949C020097D70200C805002066
:101638001088000200D80200DDD702007B686E46E1
:10164800DC688AB0B4F80130042B96BF574A584971
:1016580052F8231002AAD3614FF40073554813843B
:10166800554BC2E9050142F8103F4FF41351534856
:1016780023F09FF9B4F80120B546022AB4F80330E4
:1016880049D1052B47D84E4A52F823106E468AB0E6
:1016980002AAD3614FF400734A481384464BC2E947
:1016A800050142F8103F4FF41351444823F081F9E3
:1016B800B546637994F806C0032B98BF424AB4F83C
:1016C8000760D4F809006C468CB094BF52F8231018
:1016D800374902AAC2E9073C4FF40073DFF8ECE08F
:1016E80093853B4BC2E905E1C2E909604FF47351A8
:1016F80042F8103F314823F05CF9A546786807F0B6
:1017080043FB00214FF602403A1D09F065F90446F3
:1017180018B1304A57E72649B8E77868C368B3F87C
:101728000130A5F8C13007F02FFB95F8C1305A07F2
:101738007FF54DAF21464FF603403A1D09F04CF9AD
:1017480008B1254A3FE77868C3685B7885F8C030F8
:1017580007F01AFB3BE72E78002E7FF43CAF95F894
:10176800C1309B061FD54FF0FF304FF0FF3108F016
:1017780097FE044610B96FF06804E7E506210C30BF
:1017880007F088FCD5F8013021460360134B324638
:101798009B8883804FF6064009F01EF9044600280E
:1017A8003FF419AFD2E56FF08504CFE55CA20200E3
:1017B80011D4020024D8020004000001949C020005
:1017C80044A202003DD8020034A2020055D802000B
:1017D8000700000182D80200ABD80200C104002033
:1017E8000B46024A0221024820F023BDC4AA020087
:1017F800F49C02000321024A024820F01CBD00BFED
:10180800F0AA0200F49C02000221024A024820F0D9
:1018180012BD00BF02AB0200F49C020070B5044682
:101828000D46124A0321124820F005FD294620469C
:1018380005F09EFE284605F057FF204622F01BFEC5
:1018480005220C490C4805F065FE034630B1BDE899
:1018580070400121094A064820F0EBBC0321BDE88D
:101868007040074A024820F0E6BC00BF14AB0200F3
:10187800F49C0200F4B20200BC20002030AB02004D
:1018880049AB020008B508460BF0E2F9014B1860B5
:1018980008BD00BF00210020002370B586B08DF878
:1018A800033022F01DFE044640B10346224A0121BE
:1018B800224820F0BEFC204606B070BD05F07EFC34
:1018C80001AA15461E4B03F11006144618685968FC
:1018D800083303C4B3422246F7D11B782946237044
:1018E800032005F0D7FB044610B10346154ADEE78E
:1018F8009DF80330144943F004030DF103028DF8F9
:10190800033012F0E3F921469DF8030005F082FC4C
:10191800044610B103460D4AC9E7012005F0EAFD67
:10192800044610B103460A4AC1E70321094A03489D
:1019380020F081FCBFE700BF62AB0200F49C02000C
:10194800F49E020083AB020049200000A7AB02000E
:10195800CCAB0200EEAB020003460221014A02486A
:1019680020F067BCFBAB0200F49C0200084621B9DA
:101978000321034A034820F05EBCFFF7EDBF00BF18
:101988001AAC0200F49C0200F0B587B001AA054623
:1019980016460E4B03F110071446186859680833A9
:1019A80003C4BB422246F7D11B7831462370284630
:1019B800074B084A05F05AFA034620B10121064AA6
:1019C800064820F036FC07B0F0BD00BFF49E0200C8
:1019D800BC200020680600202CAC0200F49C020009
:1019E8004FF424720023014819F0BCBBB80E002044
:1019F800052210B50D490E4805F08CFD034630B997
:101A0800BDE8104003210B4A0B4820F014BC10F12C
:101A1800780F03D1BDE81040FFF7E2BF0121BDE810
:101A28001040064A044820F004BC00BFEEB2020091
:101A3800BC20002049AB0200F49C020030AB02003D
:101A48004FF424720023014819F08CBB180F0020B2
:101A5800072210B50D490E4805F05CFD034630B964
:101A6800BDE8104003210B4A0B4820F0E4BB10F1FD
:101A7800780F03D1BDE81040FFF7E2BF0121BDE8B0
:101A88001040064A044820F0D4BB00BFDEB2020072
:101A9800BC20002064AC0200F49C02007FAC020071
:101AA80008B503210448054A20F0C5FBBDE80840F5
:101AB8000349044826F083BDF49C02009AAC020056
:101AC80004210020180E0020072210B50D490E48E9
:101AD80005F020FD034618B9BDE81040FFF7E0BF48
:101AE80010F1780F07D1BDE810404FF4247200239D
:101AF800064819F037BB0121BDE81040044A0548E3
:101B080020F097BBE6B20200BC200020E80E0020BF
:101B1800B5AC0200F49C020010B5064A0648022142
:101B280020F089FBBDE8104040F2676200230348BB
:101B380019F018BBD0AC0200F49C0200480F00203A
:101B480003460221014A024820F073BBF9AC0200A7
:101B5800F49C02002DE9F041444D00AF287860BBA9
:101B6800434E30888418202C24DC424B184427F03C
:101B7800F9FCA3B2202B338012D1012403213E4A61
:101B88003E482C7020F057FB06223D493D4805F0A1
:101B9800C1FC034640B121463B4A384820F049FB86
:101BA8000120BD46BDE8F0810321384A334820F0C2
:101BB80042FBF5E7364A0121F8E7364D287800BBA5
:101BC80041F6B066DFF8D080B8F800008418B44257
:101BD80015DC324B184427F0C5FCA3B2B342A8F871
:101BE8000030DDD101232E4A244803212B7020F038
:101BF80022FB002200232B4819F0B4FAD0E72A4A26
:101C0800D9E7DFF8A88098F800000028C8D1284D47
:101C180028888418122C27DC264E304427F0A2FC92
:101C2800A3B2122B2B80BBD101230321224A1348D4
:101C380088F800306C4620F0FEFA8AB06A462B8895
:101C48001E49D661C2E9051340F2013313841C4BC7
:101C58000A4842F8103F4FF4135120F0F0FA0022DE
:101C6800A54600231748C7E7174AA4E7135E0020D4
:101C78002C3F0020145E002010AD0200F49C0200EE
:101C8800D7B20200BC20002024AD02003EAD020005
:101C980058AD0200623F00202A3F0020633F002029
:101CA80073AD0200180F002086AD02004F3F0020E0
:101CB800283F0020503F0020A0AD0200B1AD020037
:101CC80004000001E80E0020BFAD020010B50C466C
:101CD80020F0C3FA044818F081FA24B12046BDE880
:101CE8001040FFF72DBF10BDF00B002008B51C20D9
:101CF8001BF03CFB38B100230383011DBDE80840FD
:101D0800034820F09FBABDE80840FFF705BF00BFB1
:101D18006898020070B503788AB004460E4607AD8D
:101D2800032B20D8DFE803F002191B1D11492846B0
:101D3800FFF7FAF8059563781E210493A3783046D7
:101D48000393E3780C4A0293237901936379009310
:101D5800A3791FF06BFF0AB070BD0849E7E708498F
:101D6800E5E70849E3E70A212846074A1FF05EFF2E
:101D7800E0E700BFD7AD0200F9AD0200DEAD02001A
:101D8800E5AD0200EFAD0200DCF9020090B589B0C4
:101D980000AF0C4623F01BF93946FFF7BBFF8AB0AA
:101DA8006A46094BD461C2E90537084B4FF44251E2
:101DB8001362074B07485362074B42F8103F20F065
:101DC8003EFA2437BD4690BD1CAE0200B30F030097
:101DD80000020204F49C02000500000280B588B0ED
:101DE80000AF23F0F4F83946FFF794FF88B06A464D
:101DF800084B4FF4E651C2E905374FF4007393835B
:101E0800054B064842F8103F20F019FA2037BD4626
:101E180080BD00BF42AE020003000001F49C020036
:101E280090B589B000AF0C4623F0D1F83946FFF7DA
:101E380071FF8AB06A46094BD461C2E905374FF48D
:101E480000731384064B4FF41351064842F8103FB1
:101E580020F0F5F92437BD4690BD00BF58AE02000A
:101E680004000001F49C020090B589B0036800AF3B
:101E7800186839461446FFF74DFF8AB06B46094A81
:101E8800DC61C3E905274FF400721A841A46064B31
:101E98004FF41351054842F8103F20F0D0F9243789
:101EA800BD4690BD7AAE020004000001F49C020019
:101EB800F0B589B000AF0C46054623F088F83946DE
:101EC800FFF728FF6E468AB06A46114BD461C2E913
:101ED8000537104B104C1362104B4FF443515362AB
:101EE8000F4B104842F8103F20F0A9F92368B54677
:101EF8009D420AD1002020F0AFF920680AF0D2FEF6
:101F080000230948236018F089FD2437BD46F0BD39
:101F1800A7AE0200B30F0300002100200002020454
:101F280005000002F49C020014210020F0B50D46C3
:101F380089B000AF044623F04AF83946FFF7EAFEB5
:101F480015B36E468AB06A462F4BD561C2E905378C
:101F58002E4B2F4D13622F4B4FF4435153622E4B90
:101F68002E4842F8103F20F06AF92B68B5469C428B
:101F780007D120460AF096FE002329482B6018F066
:101F88004DFD2437BD46F0BD6D4688B06A46254BE9
:101F98004FF4E651C2E905374FF400739383224B9F
:101FA8001E4842F8103F20F04AF90120AD4620F0C3
:101FB80053F91E4B1E4920460B600FF073F9034678
:101FC80020B102211B4A154820F033F9022120468E
:101FD80022F079FF034658B10221174A0F4820F032
:101FE80028F90B4B1B689C4202D12046FFF7CCFC1A
:101FF80022F076FA03460028C3D001210F4A074889
:1020080020F017F9BDE700BFCAAE0200B30F030006
:10201800002100200002020405000002F49C0200D6
:1020280014210020EDAE0200030000017519000024
:10203800B8200020FBAE020018AF020033AF020048
:10204800B0B5054688B000AF0C463946FFF762FECA
:10205800294600200BF010FC20B10AF023FE20379F
:10206800BD46B0BD2946022005F014F898B16C466B
:102078008AB06A46134BD761C2E9053040F2013392
:102088001384114B4FF41151104842F8103F20F0BF
:10209800D6F8A546E3E76D4688B06A460C4B4FF480
:1020A800E651C2E905374FF400739383094B07489B
:1020B80042F8103F20F0C3F82378AD4643F00203FE
:1020C8002370CCE750AF020004000001F49C02002A
:1020D8007CAF02000300000110B542680369126872
:1020E80092010ED40F4940F2A2630F4A0F4821F023
:1020F8001EF80F4821F01BF840F2A2610A4821F0AF
:102108000DF81B689B0148BF81F0010131B183685C
:10211800DB684FF00071BDE81040184783681B6901
:10212800F7E700BFC6AF020095AF020004B0020097
:1021380021B002002DE9F04F83B002AF26F0C6FAB5
:102148004FF47A78A0FB080908FB01994FEAD03AC6
:1021580001212D48FFF7C0FF2C4E2D4A338841F648
:10216800B06100922B482C4A20F069F9002183467F
:1021780025484AEA494AFFF7AFFF4FEAD93926F01E
:10218800A5FAA0FB080508FB0155C40B44EA454421
:10219800ED0BBBF1000F34D10321204A204820F079
:1021A8004AF8E84688B002AA1E4BB4EB0A04536109
:1021B8004FF0040365EB0905C2E906454FF40351E6
:1021C80042F8103F164820F03AF80321C546164A4F
:1021D800134820F030F80023144A33801380144A3F
:1021E80014481370144A1380144A1370144A137055
:1021F8004FF42472002318F0B5FF0437BD46BDE83C
:10220800F08F01210F4AC9E730980200283F0020CB
:10221800145E0020633F0020503F002033B00200CE
:10222800F49C020070B002008BB002002C3F00202A
:10223800135E0020B80E00202A3F0020623F0020D5
:102248004F3F002052B002002DE9F041154688B0FA
:1022580000AF0E46044622F0BAFE3946FFF75AFD93
:10226800EDB96D468AB06A46184BD661C2E90537A2
:102278004FF400731384164B4FF41351154842F86A
:10228800103F1FF0DCFFAD46134B1B689C4202D188
:102298002046FFF779FB2037BD46BDE8F081E846C8
:1022A8008CB06B460D4AC3E90765C3E905270C4A9C
:1022B8004FF462515A620B4A06489A621A460A4B10
:1022C80042F8103F1FF0BBFFC546DDE7B0B0020083
:1022D80004000001F49C020000210020CEB002009E
:1022E800B30F0300000203050600000270B50B7867
:1022F800052B00F29D80DFE803F003843065764A01
:102308008B68002B00F094804868002800F09080CB
:10231800484A1368FBB1181F00231360464A13602C
:1023280026F087FA00220023444817F0CBFE014626
:1023380000287DD0028B4248043183685C684FF0E6
:10234800FF33A047002873D03E4A0221BDE8704001
:102358003D481FF070BF0438E2E74A68CB68908AAE
:1023680003443A489BB293820278002A60D14A68B3
:10237800134413F8013C0A2B01D00D2B58D101232B
:1023880003702F48BDE8704083685B6918470024D4
:102398002E4B1C201C701AF0E9FF30B10483011D7C
:1023A800BDE8704026481FF04DBF294A2648022143
:1023B8001FF041FFBDE8704040F2676200232548E6
:1023C80018F0D0BE1C201AF0D1FF014648B10023F6
:1023D80003831B481422BDE87040836804311B69DD
:1023E80018471B4AB1E74B68191F9B8A23B1BDE800
:1023F8007040194826F065B80846BDE8704026F0D8
:1024080018BA0C4B1A680AB94A681A600A4A8968E5
:1024180010681C6801441160A28A521A08482144B5
:1024280083685D684FF0FF33AC46BDE87040604795
:1024380070BD00BFB4200020B02000203C0C00205C
:1024480068980200F5B00200F49C02004E3F00209C
:10245800D0AC0200480F0020200C00202DE9F043EA
:102468008BB01FF0F8FE964C204625F0BCFF40B913
:10247800944A012194481FF0DEFE00200BB0BDE80D
:10248800F0836368A1681B6822699B010ED48F4999
:1024980040F211438E4A8F4820F049FE8E4820F0C2
:1024A80046FE40F211418A4820F038FE1368204663
:1024B80023F0007313600B684FF4C022192198476A
:1024C80086480BF0C9FB08B1854AD2E785480BF06E
:1024D800DDFB18B1844820F014FECEE708F066FD55
:1024E800044630B10346814A012177481FF0A1FE16
:1024F800C3E703217E4A74481FF09DFE21F0ACFD1E
:102508007C4E304625F06FFF40B901217A4A6E486B
:102518001FF091FE6FF01203784AE5E71C201AF0CD
:1025280025FF054650B304837549764818F08AFCA0
:10253800B3681B682BB32246304673499847034655
:102548000028E9D13046291D1FF07CFE03460028EB
:10255800E2D1002305936D4B6D4803936D4B03A99E
:10256800049321F0F3FF044670B103466A4A01213F
:1025780055481FF05EFE2346684AB5E76FF00B0327
:10258800CAE76FF05703C7E7654A03214E481FF0B3
:1025980052FE6449644818F055FC6449644818F0D0
:1025A80051FC6449644818F04DFC644818F032FB4B
:1025B8004FF420426FF0080361496048009418F016
:1025C80043FB6049604818F001F9012303A8CDE9ED
:1025D800034405948DF8103004F054FF5B4804F070
:1025E80049FD5B495B4818F0F1F803215A4A36481F
:1025F8001FF021FEFFF750F9044600287FF43DAF95
:10260800564820F07EFD1C22214603A826F0D1FF63
:10261800534FDFF8FC80DFF84C914FF0FF334FF059
:10262800FF32384617F04EFDBDF82440038BC4F145
:1026380014049C42054628BF1C4600261CB928469F
:1026480026F0F7F8E9E7BDF82400311D03AB0430A4
:1026580022462944184426F085FFBDF82420264444
:10266800224492B2132AADF8242008D802F1280394
:102678006B4413F8193C0A2B01D00D2B19D1404695
:1026880004A904F047FF034620B10221364A0E4848
:102698001FF0CFFD41F234320023484617F022FEE6
:1026A80020B10221314A08481FF0C5FD0023ADF8CA
:1026B80024302C8BA41B142C28BF1424BEE700BF85
:1026C8003098020013B10200F49C0200C6AF020069
:1026D80095AF020004B0020021B0020048060020B5
:1026E8002AB102003806002056B1020088B1020063
:1026F800A7B1020068980200BDB10200D3B1020080
:10270800F51C0000480F0020F52200005D1B0000AA
:10271800BC200020D51C0000EDB1020017B2020059
:1027280037B20200591A0000180F0020D11A000011
:10273800E80E0020F9190000B80E0020180E00203D
:10274800906100203D210000042100206006002047
:10275800432202001421002055B202006DB202008B
:10276800200C0020F00B002095B20200C6B2020037
:102778002DE9F04F0368BDB00A9343680B93836853
:102788000C93C3680D9303690E9343690F93836990
:102798001093C3691193036A1293436A1393836A6C
:1027A8001493C36A1593036B1693436B1793836B48
:1027B8001893C36B1993036C1A93436C1B93836C24
:1027C8001C93C36C1D93036D1E93436D1F93836D00
:1027D8002093C36D2193036E2293436E2393836EDC
:1027E8002493C36E2593036F2693436F2793836FB8
:1027F8002893C36F2993D0F880302A93D0F8843077
:102808002B93D0F888302C93D0F88C302D93D0F8B7
:1028180090302E93D0F894302F93D0F8983030938E
:10282800D0F89C303193D0F8A0303293D0F8A4304F
:102838003393D0F8A8303493D0F8AC303593D0F82F
:10284800B0303693D0F8B4303793D0F8B8303893E6
:10285800D0F8BC303993D0F8C030D0F8C4603A937F
:10286800014B009302E000BF789F0200149A0A9B74
:10287800159953400B9A82EA01051E9A53401F9AF4
:102888005540289A5340299A5540329A5340339AD2
:10289800089355400C9B169A83EA02090D9B179AD8
:1028A80083EA0208209B189A89EA0309219B88EA8F
:1028B80003082A9B89EA03092B9B88EA0308349BAF
:1028C80089EA0309359B4FEA490B88EA03080E9BFE
:1028D8004BEAD87B83EA020C0F9B199A4FEA480A05
:1028E80083EA0207229B239A8CEA030C57402C9B0D
:1028F8002D9A8CEA030C5740369B379A8CEA030CC6
:102908005740109B1A9ADDF874E083EA0204119B81
:102918001B9A4AEAD97A83EA0201249A129B544004
:10292800259A51402E9A54402F9A5140389A544033
:10293800399A51401C9A5A40139B83EA0E0E269BE3
:102948005A40279B8EEA030E309B5A40319B8EEAF1
:10295800030E3A9B8EEA060E5A408BEA0203019355
:102968008AEA0E0302934FEA4C0B089B4BEAD77B8B
:102978004FEA470A4AEADC7A8BEA030303938AEAB6
:1029880005034FEA410A4AEAD47A04938AEA08031B
:102998004FEA4E0848EAD278520042EADE720593BE
:1029A80082EA0C03069388EA07030793089B6A00E8
:1029B80042EAD3725B0043EAD5736340089382EA24
:1029C80001034FEA440B0A9A0993019B4BEAD17B16
:1029D8008BEA090B83EA0209029B0B9A179983EA8F
:1029E800020A039B169A239C5A40049B150D4B40E0
:1029F80045EA03351B0D43EA0233229A05998BEA0F
:102A080002024C404FEA525848EAC428640D44EA8E
:102A1800C2242E99069A2F9F5140079A7A404FEA6E
:102A2800425E4EEAD12E49053A9F41EAD221089AE0
:102A38007A40099F7E404FEA863C4CEA924C9203CA
:102A480042EA9642009ED6E900768AEA06060B9686
:102A580089EA070728EA05067E400B9F0A9624EABA
:102A6800030677402EEA04065E400B9721EA080722
:102A78006F40239625EA09052CEA0E0623EA0A0385
:102A8800744083EA0C0329EA0206229722EA010726
:102A98006A4071403B942E922AEA0C04109A2F93B4
:102AA800069B87EA0807169184EA0E013A97179160
:102AB80083EA0201079B119A1D9C53404FEA037C4D
:102AC8004CEA111C090741EA13111C9A089B2B9F19
:102AD8005340099A6240160546EA13361B051E9CA8
:102AE80043EA1233019A82EA04051F9C029A624063
:102AF8004FEAC20848EA5578ED002A9C45EA527523
:102B0800039A25EA030A6240049C4FEAD24E7C40AD
:102B18004EEA443EE40C44EA4234369A379F8BEA44
:102B28000209059A8AEA010A7A404FEAD90747EA70
:102B38004277D20842EA497228EA060989EA0C096A
:102B4800CDF8A8A02EEA050A8AEA030ACDF8AC90C7
:102B580024EA080989EA0609CDF840A023EA010316
:102B680027EA0E0A8AEA050526EA0C067B40CDF814
:102B7800449022EA04091E951C9389EA080586EA0E
:102B880002031F951D932CEA0205039B0C9A21EA68
:102B9800070883EA0201049B0D9A88EA0E0E534047
:102BA8004FEA430C4CEAD17C6C40490041EAD371AE
:102BB800CDF8D8E0189B3794059A199C8BEA030343
:102BC8006240960146EA93669B01249C43EA92631D
:102BD800069A319F82EA0405259C079ADDF8CC9075
:102BE80062404FEA426848EAD5186D0645EAD215B0
:102BF800309C089A25EA030A5440099A8AEA010A8D
:102C08007A404FEA022E4EEA146E2402329F44EABA
:102C18001264019ACDF860A07A40029F24EA050A5E
:102C280087EA09094FEA894747EA9237920442EA54
:102C3800993228EA060989EA0C098AEA030ACDF8D2
:102C4800649023EA01032EEA080989EA0609534039
:102C580026EA0C06CDF8C0A022EA040A8AEA05058D
:102C6800CDF8C490329327EA0E0986EA07030C953B
:102C7800339389EA0805089B21EA0208129A0D9500
:102C880083EA0201139A099B2CEA070553404FEA8D
:102C9800C36C4CEA511CC90641EA531188EA040482
:102CA800019B149A249485EA0E045A402594029BA9
:102CB800159C160F634046EA03161B0F43EA0213DE
:102CC800039A209C2D9F82EA0405219C049A624065
:102CD8004FEA822848EA9558AD0245EA92552C9A5F
:102CE80025EA060A8BEA0204059A8AEA010A7A406A
:102CF8004FEAC23E4EEA544EE403389F44EA524437
:102D0800069ACDF8E0A082EA0709399F079A24EAD3
:102D1800050A7A404FEA192747EA0267120A42EA87
:102D2800096228EA030989EA0C098AEA060ACDF841
:102D3800E4902EEA080989EA0309CDF850A023EAAD
:102D48000C0327EA040A8AEA05055340CDF8549093
:102D580026EA010622EA0E092C95219389EA08053C
:102D68000E9B21EA070886EA070188EA04042D95E4
:102D780020912CEA02050F99059A8BEA0303129415
:102D880085EA0E0413949D0882EA010445EA8475D5
:102D9800A40844EA83741A9A069B269E83EA0201D1
:102DA800079B1B9A279F5A404B0A43EAC253520A71
:102DB80042EAC15208997140099E4FEA516C774026
:102DC8004CEAC71C7F0E47EAC1170199289EDDF817
:102DD800A4E07140029E4FEAD15886EA0E0648EAFE
:102DE8004628F60DDDF8D0E046EA41260399DDF8DD
:102DF800D49081EA0E01DDF810E02CEA030A8EEA8D
:102E080009094FEA890E4EEA917E890041EA9971D3
:102E18008AEA050A27EA0209CDF898A089EA04098E
:102E280028EA0C0ACDF89C908AEA030A26EA0709E0
:102E380023EA050389EA02094B4022EA04020E93B9
:102E480082EA0E03CDF8D0A02A9A21EA080ACDF822
:102E5800D4900F932EEA06090A9B8AEA0C0C89EA99
:102E68000707CDF868C01B9725EA010C24EA0E076E
:102E78002B995A400B9B7E40299683EA01061899A4
:102E8800229B4A4019998CEA080C4E403899CDF893
:102E9800A0C04A4039994E4026994A4027994E4049
:102EA800109983EA01091199239B83EA0108309B51
:102EB8001E9989EA0309319BDDF8CCE088EA03080A
:102EC800149B89EA0309159B88EA0308349B89EA5D
:102ED8000309359B4FEA490B88EA03083A9B4BEAFA
:102EE800D87B83EA010C3B9B1F994FEA480A83EA87
:102EF80001070C9B0D998CEA030C4F402C9B2D99D4
:102F08008CEA030C4F401A9B1B998CEA030C4F4028
:102F1800169B36994AEAD97A83EA0105179B3799AD
:102F280083EA010424991C9B4D4025994C40129931
:102F38004D4013994C4028994D4029994C4032995D
:102F480059401D9B83EA0E0E2E9B59402F9B8EEAFB
:102F5800030E209B5940219B8EEA030E0E9B59407D
:102F68000F9B8EEA030E8BEA01034FEA4C0B019389
:102F78004BEAD77B8AEA0E034FEA470A02934AEAEA
:102F8800DC7A8BEA020303938AEA06034FEA440ACF
:102F98004AEAD57A04938AEA08034FEA4E0848EACF
:102FA800D178490041EADE71059381EA0C0371008A
:102FB80041EAD2715200069342EAD67288EA0703C0
:102FC800079382EA0503089381EA0403019A0993A7
:102FD8004FEA450B0A9B4BEAD47B8BEA090B83EA41
:102FE80002090B9B029A059C83EA020A109B039A2A
:102FF800079E83EA0201119B049A0D0D5A400C9B0F
:1030080045EA0235120D42EA013283EA0B010D9BB3
:103018004FEA51585C4048EAC428640D44EAC12488
:10302800129B0699099F5940139B5E404FEA465EE2
:103038004EEAD12E490541EAD621089B0E9E5E40F4
:1030480033460F9E7E404FEA863C4CEA934C9B03E6
:1030580043EA9643009ED6E902768AEA06060B966C
:1030680089EA070728EA05067E400B9F0A9624EAA4
:10307800020677402EEA040656400B9721EA080715
:103088006F400D9625EA09052CEA0E06744022EADF
:103098000A0229EA03060C9723EA01076B401293F8
:1030A80082EA0C037140069A0F9413932AEA0C04DF
:1030B800169B109184EA0E01119183EA0201079A86
:1030C800179B099C53404FEA037C4CEA111C0907E3
:1030D80041EA1311089A1C9B87EA080753401D9A76
:1030E8000E976240160546EA13361B0543EA12336B
:1030F800019C189A049F82EA0405029C199A62406E
:103108004FEAC20848EA5578ED0045EA5275039C33
:10311800149A25EA030A6240159C4FEAD24E7C4075
:103128004EEA443EE40C44EA42341A9A8AEA010A16
:1031380082EA0B091B9A059FCDF850A07A404FEA06
:10314800D90747EA4277D20842EA497228EA0609CB
:1031580089EA0C092EEA050A8AEA030ACDF854908E
:1031680024EA080989EA0609CDF858A023EA0103E8
:1031780027EA0E0A8AEA050526EA0C067B40CDF8FE
:103188005C9022EA040918951C9389EA080586EAE6
:10319800020319951D932CEA0205229B039A21EA42
:1031A800070883EA0201049A239B6C4053404FEAC4
:1031B800430C4CEAD17C1F9A1B944900059C41EAB8
:1031C800D3711E9B624083EA0B03960146EA93661D
:1031D8009B0143EA9263069C249A88EA0E0E82EACF
:1031E8000405079C259A099F62404FEA426848EA0D
:1031F800D5186D0645EAD215089C209ACDF868E0E6
:103208005440219ADDF808907A404FEA022E4EEA9F
:10321800146E240244EA1264019F269A25EA030ADE
:103228007A40279F8AEA010A87EA09094FEA89470B
:1032380047EA9237920442EA993228EA060989EA6B
:103248000C09CDF878A024EA050ACDF87C908AEA22
:10325800030A2EEA080923EA010389EA060953400A
:1032680026EA0C06CDF880A022EA040A8AEA0505B7
:10327800CDF88490269327EA0E0986EA070322955B
:10328800279389EA08052E9B21EA0208089A2395C4
:1032980083EA0201099A2F9B2CEA070553404FEA5B
:1032A800C36C4CEA511CC90641EA531188EA04046C
:1032B8002A9B019A249485EA0E045A4025942B9B54
:1032C800029C160F634046EA03161B0F43EA0213DB
:1032D800039C309A059F82EA0405049C319A624057
:1032E8004FEA822848EA9558AD0245EA92552C9A49
:1032F80025EA060A82EA0B042D9A8AEA010A7A402C
:103308004FEAC23E4EEA544EE40344EA5244069F52
:10331800289ACDF8A0A082EA0709299A079F24EAEB
:10332800050A7A404FEA192747EA0267120A42EA71
:10333800096228EA030989EA0C098AEA060ACDF82B
:10334800A4902EEA080989EA0309CDF8A8A027EA7B
:10335800040A8AEA0505CDF8AC9023EA0C0322EAB0
:103368000E0953402C9526EA010689EA08052D9591
:1033780021EA0708319386EA07013A9B2CEA0205FD
:1033880030913B9A059983EA0B034A404FEA930C24
:103398004CEA827C920842EA83720699369B88EA54
:1033A80004042E9485EA0E044B402F943799079C09
:1033B8005D0A81EA040645EAC655760A46EAC35616
:1033C8000899329B099C4B4033994FEA53684C400B
:1033D80048EAC418640E44EAC3140199389B029F52
:1033E8004B4039994FEAD35E79404EEA412EC90DD8
:1033F80041EA4321039F349BDDF810907B40359FC1
:1034080028EA050A87EA09094FEA890747EA93770C
:103418009B0043EA997324EA060989EA02098AEAC1
:103428000C0ACDF8C8A0CDF8CC902EEA080A21EAFB
:1034380004098AEA050A89EA0609CDF8D0A0CDF878
:10344800D49023EA0E0A27EA01098AEA080889EAD9
:103458000404CDF8D88037942CEA030822EA07043C
:1034680025EA0C056B4088EA0E0E6140CDF8E0E0D5
:1034780039913A93009B26EA020610330093009A8A
:103488003C4B7E4093427FF4F1A90A9B03600B9B5F
:1034980043600C9B83600D9BC3600E9B03610F9B75
:1034A8004361109B8361119BC361129B0362139B51
:1034B8004362149B8362159BC362169B0363179B2D
:1034C8004363189B8363199BC3631A9B03641B9B09
:1034D80043641C9B83641D9BC3641E9B03651F9BE5
:1034E8004365209B8365219BC365229B0366239BC1
:1034F8004366249B8366259BC366269B0367279B9D
:103508004367289B8367299BC3672A9BC0F8B8E059
:10351800C0F880302B9BC0F8BC10C0F884302C9BBE
:10352800C0F888302D9BC0F88C302E9BC0F89030A6
:103538002F9BC0F89430309BC0F89830319BC0F86E
:103548009C30329BC0F8A030339BC0F8A430349B29
:10355800C0F8A830359BC0F8AC30369BC0F8B03006
:10356800379BC0F8B4303A9BC0E930363DB0BDE86F
:10357800F08F00BF38A00200F8B50F4600293BD0F5
:103588000668012230461FF0C6FB01460446304655
:103598001FF089FBC3070DD4AF23184A18491948EF
:1035A8001FF0C5FD394618481FF0C1FDAF2113486B
:1035B8001FF0B4FD214630461FF08BFB2518294625
:1035C800002230461FF06FFB2D1AAC420BD0B723F8
:1035D8000A4A0E490B481FF0AAFD39460C481FF04D
:1035E800A6FDB721E3E7214630461FF078FB2146C8
:1035F800BDE8F8401FF0ADBCF8BD00BF07B302003E
:103608002AB3020004B002003BB3020073B3020005
:1036180099B302002DE9F84306681446B5684A1EB6
:10362800B5F5004F34BF042308230A400F4610D0D5
:10363800C1F1000909EA01094B4502F1FF3128BF30
:103648004B4611420CD11746DCB900252846BDE887
:10365800F883994213D82146BDE8F8431FF0BBBC54
:1036680034494FF4A673344A34481FF060FD344897
:103678001FF05DFD4FF4A6712F481FF04FFD9146D6
:10368800E2E7B5F5004F2CBF08200420FB1AE1083B
:1036980004F0070201EBD301073203F007031344D8
:1036A800034401EBD301A94228BF294630461FF045
:1036B80090FB80460028C8D0B36809EBC005B3F575
:1036C800004F34BF042308231D4435447B1E1D448A
:1036D800B5FBF7F57D43A5EB0905294630461FF0F4
:1036E8001AFB2C44073424F00704A41B8045074622
:1036F8004FEAE40408D20246414630461FF0A2FBD6
:10370800414630461FF0E3FB394630461FF0E1FAE8
:103718003844844208D23946304622461FF092FB8C
:10372800214630461FF0D3FB0122394630461FF0B0
:10373800D6FA8BE7D5B3020007B3020004B0020043
:10374800F0B30200B2F5802F2DE9F04110D2042A1F
:1037580028D8454940F21A23444A45481FF0E7FC57
:1037680044481FF0E4FC40F21A2140481FF0D6FC00
:103778000823D21ACC1D114424F0070421F00701B4
:10378800091B17294FEAD1060ED83B4940F22323DB
:10379800364A37481FF0CBFC36481FF0C8FC40F2C9
:1037A8002321E2E70423E4E70025046031462046AC
:1037B800A660E5601FF0B9FAB6F5004F2CBF0823E4
:1037C8000423421D92000833D11DDB0803EBD1030B
:1037D800B3424FEAD10739D801302946A2F1100285
:1037E80004F11000B8BF2A4625F0E3FE3A46294600
:1037F80020461FF08CFA2B462A46294620461FF001
:103808005DFAA6EB07082046294601221FF067FA51
:10381800424639461FF07BFA3B462A46394620463F
:103828001FF04CFA314620461FF071FA43462A46EB
:10383800314620461FF042FA3146204601221FF049
:103848004EFA3946BDE8F0411FF041BB0B494FF431
:103858000E73064A06481FF06AFC06481FF067FC0C
:103868004FF40E7181E700BF0DB4020007B30200E8
:1038780004B002002EB4020047B4020070B4020083
:103888002DE9F04F97B000AF89460446D7F880B0CD
:10389800FA623B6258B9A94940F29933A84AA94843
:1038A8001FF045FC40F29931A5481FF037FCCBF3D7
:1038B800C00390F802A07B6141B9457800780AEB13
:1038C800800020444D4517D8A0EB0409E378FB613C
:1038D800BAF1000F02D01BF0010F16D1FB6953BBE0
:1038E800FB6A1BB1494620463A6A98474D46284626
:1038F8005C37BD46BDE8F08F461C3046FDF71CFB23
:103908000130304409F10109DCE7626823787A6202
:10391800FA6A9900B96104EB8301002A40F0028138
:103928000E464FF000084D4601EB0A094E454CD1B2
:1039380001EB0A0610E01BF0020FD1D023789A00A1
:10394800BA61626804EB83017A62FA6A002A77D165
:103958004D46904601EB0A061BF0050F0CBF0223EB
:103968000123FB62FB6906EB430A0BF00203BB620F
:103978005645BCD016F8021B16F8013C54F82390A3
:10398800714B994502D3714B994536D37B69002B0E
:1039980040D0786A1FF08EFB00283BD0E9468AB0F9
:1039A8006A466B4B53617B6AC2E906314FF4007378
:1039B8001384684B42F8103F00234FF412516648B5
:1039C80002F04CFA023DCD46D2E716F8013BF96207
:1039D80054F82300FDF7B0FAD7F88430F96A0130BB
:1039E8004BB1D7F8883098453EBFD7F8843023F8D4
:1039F800180008F10108054498E77B6923B1786A43
:103A08001FF058FB0028C9D11BF0010F05D1FB6A34
:103A1800ED1AADE7BB6A002BAAD04846FDF78CFA31
:103A2800D7F8843053B1D7F8883098453FBFD7F8D6
:103A38008420431C22F8183008F10108054497E750
:103A4800BAF1000F74D01BF0040674D0D0460026DB
:103A580007F1480052463B61B96225F083FDB96A17
:103A68003B6901EB0A02BA62FA69F9695200FA6025
:103A7800BA6A02EB41023A610BF00202BA60BA6A12
:103A880039698A426AD162781BF0020F18BF002197
:103A98007A6208BF4FEA5801B2181BF0010FD2B280
:103AA80040F0E5801BF0040F14BF404600207B6106
:103AB8006270A070E17020463A6AB969FB6A98475B
:103AC800051EFFF614AF7B69414623707B6A3A6A8C
:103AD8006370FB6984F802A0E37007F14800FB6A91
:103AE8009847B0F10008C0F2F680BB69A9EB0A015B
:103AF800C91AFB683A6AC91AD7E90A03984700281D
:103B0800C0F2EB804FF0000BA84408EB000507F16A
:103B1800380AB345C0F0AD8000213A6A0846FB6A0E
:103B28009847E4E656464FF0000807F1380091E759
:103B38005646D04695E7B04693E700BF30B5020039
:103B48009BB4020004B0020018970200901A030008
:103B58004BB5020004000001EC9C0200BA6A12F89E
:103B6800021B12F8015CBA6254F825005C4A9042C4
:103B780002D35C4A904218D37A693AB1786A7B607A
:103B88001FF098FA7B6800287FF479AFBA68002A9A
:103B98004CD00F2E40D9544940F24D43534A544813
:103BA8001FF0C5FA40F24D417EE67A693AB1786A6B
:103BB8007B601FF07FFA7B6800287FF460AF1BF002
:103BC800010F0BD00F2E27D9474940F24343474AEC
:103BD80047481FF0ACFA40F2434165E61BF0040F7A
:103BE8003FF44DAFB8F10F0F09D9424940F24643AF
:103BF8003E4A3F481FF09BFA40F2464154E608F11E
:103C0800280207F1300008F1010102EB000808F86A
:103C1800105C5FFA81F832E706F1280207F13000FC
:103C2800711C161806F8205CCEB228E7B8F10F0F01
:103C380009D930494FF48A632C4A2D481FF077FA86
:103C48004FF48A6130E608F1280207F1300C08F1D8
:103C58000100944407F1580208F1020852FA80F072
:103C68000CF8101C5FFA88F800F8105C07E70020D1
:103C78001DE71BF80A3054F8239087F83730D7F837
:103C880084302BB3D7F888309B4521D2D7F88430BD
:103C980033F81B8001213A6AFB6A07F1370098471D
:103CA80000281ADB0544B8F1000F06D14846FDF795
:103CB80043F900F101081FFA88F8414648463A6A74
:103CC800FB6A9847002808DB05440BF1010B20E745
:103CD8004FF00008DEE7454609E6054607E600BF5F
:103CE80018970200901A0300EEB502009BB4020078
:103CF80004B002000DB60200014B1B68184700BF54
:103D080074060020014B1860704700BF740600203D
:103D180030B585B004460D4610220021684625F0CE
:103D280048FC02238DF80230044B2A462146684697
:103D380001931EF00DF805B030BD00BF013D000035
:103D480080B505460E461746984618F081FB03468F
:103D580025F0D4FCDFF83C90044649F80030424690
:103D680039463046A8470C4B1B7873B90B4940F2CB
:103D780046330B4A0B481FF0DAF90B481FF0D7F906
:103D880040F2463106481FF0C9F954F8090004F01A
:103D980087F900BF080000008E61002069B60200A4
:103DA8003EB6020004B002007CB6020038B50D46EB
:103DB80004462022002125F0FCFB0022EB68E36189
:103DC800AB68A3612B6823626B68A26263622A698D
:103DD80023B1591E194208BF42F001022261012293
:103DE800002104F12C0024F085FB48B10549064860
:103DF8002F23064A1FF09BF92F2104481FF08EF944
:103E080038BD00BF99F8020004B002009EB6020057
:103E18002DE9F04F002789B0CDE90123436A044614
:103E28008B428846BA460597079754D300F1140683
:103E3800EFF31185202383F31288BFF36F8F304689
:103E4800A94618F085FD58B988234D4A4D494E4872
:103E58001FF06DF931464D481FF069F9882163E07C
:103E6800304618F099FD079A2AB1394620461FF0C6
:103E780048FA0023079306A920461FF065F906991A
:103E88008346414530D32268236A204613F822101E
:103E980003EB820A21F0030103F82210216842464D
:103EA8001FF076F9E3682060984218D04FF0000BB5
:103EB800304618F05BFD50B389F31188BFF36F8F5C
:103EC800059929B1A2690AB12046904700230593B4
:103ED800BBF1000FACD1504609B0BDE8F08F2369A3
:103EE80043F008032361E1E718B120461FF06AF99F
:103EF800DEE7DDE90132134339D0039124F06FFB8B
:103F08000399A0BB9DBB304618F030FD78B94FF43B
:103F18009A731B4A1E491C481FF009F931461D486F
:103F28001FF005F94FF49A7115481FF0F7F885F35B
:103F38001188BFF36F8F04F12C00DDE9012316F01F
:103F4800D1F98346EFF31189202383F31288BFF355
:103F58006F8F304618F0FCFC00283FF475AFBBFAB1
:103F68008BFB304618F018FD4FEA5B1BA0E7204694
:103F780007AB05AA27681FF044F9834698E700BFF6
:103F8800C4B60200F1B6020004B0020006B702008F
:103F98001CB7020033B702002DE9F0410446C3699B
:103FA80008460E46984704F114050746EFF31188B2
:103FB800202383F31288BFF36F8F284618F0C8FCBC
:103FC80068B988231A4A1B491B481FF0B0F82946CC
:103FD8001A481FF0ACF8882115481FF09FF82846AA
:103FE80018F0DAFC33783A4643F00103337061681D
:103FF80020461FF0CDF8606020461FF09DF9284646
:1040080018F0B4FC68B94FF49A73094A0C490A4885
:104018001FF08DF829460B481FF089F84FF49A7164
:10402800DAE788F31188BFF36F8FBDE8F08100BF2E
:10403800C4B60200F1B6020004B0020006B70200DE
:104048001CB7020033B702002DE9F04704460027E9
:1040580000F11406EFF31188202383F31288BFF3CD
:104068006F8F304618F074FC054668B988233A4AC1
:104078003A493B481FF05BF831463A481FF057F879
:10408800882135481FF04AF8304618F085FC236926
:10409800A16813F0080F02D16368994200D9636AD6
:1040A8005B1A002B41D0206A10F8213000EB8109FF
:1040B80013F003023CD0022A04D150F821205FEA11
:1040C800920A05D1DA0720D44846E3699847824620
:1040D800A168524620461FF05BF85146A060204672
:1040E8001FF064F82F46304618F040FC10BB4FF420
:1040F8009A73194A1C491A481FF019F831461B4887
:104108001FF015F84FF49A71BBE743F0020300F86B
:104118002130E3694846A568984729460246204663
:104128001FF036F80025A060DDE71D46A946DAE74E
:104138001546FBE788F31188BFF36F8F002D89D1EF
:1041480037B1B9F1000F03D104F12C0016F046F88D
:104158004846BDE8F08700BFC4B60200F1B60200C9
:1041680004B0020006B702001CB7020033B7020011
:104178002DE9F0410446C36908460D46984704F105
:1041880014060746EFF31188202383F31288BFF340
:104198006F8F304618F0DCFB68B98823274A284916
:1041A80028481EF0C4FF314627481EF0C0FF88216A
:1041B80022481EF0B3FF304618F0EEFB2B786FF361
:1041C80000032B7023699B0705D5E268236A03EB7C
:1041D80082039D4222D12B786FF341032B70D4E9DF
:1041E8000231994204D13A4620461EF0D1FFA06020
:1041F800394620461EF0DAFF304618F0B7FB90B972
:104208004FF49A730D4A11490E481EF090FF31463B
:104218000F481EF08CFF4FF49A71C9E72B6867F3BB
:104228009F032B60E8E788F31188BFF36F8F04F1D1
:104238002C00BDE8F04115F0D1BF00BFC4B60200A4
:10424800F1B6020004B0020006B702001CB7020073
:1042580033B7020070B5044600F11405EFF3118678
:10426800202383F31288BFF36F8F284618F070FB62
:1042780068B988231A4A1B491B481EF058FF29466B
:104288001A481EF054FF882115481EF047FF28469B
:1042980018F082FB2369A06813F0080F02D1636845
:1042A800984213D9646A241A284618F05FFB78B933
:1042B8004FF49A730A4A0E490B481EF038FF2946F4
:1042C8000C481EF034FF4FF49A71DDE71C1AEBE737
:1042D80086F31188BFF36F8F201E18BF012070BDB1
:1042E800C4B60200F1B6020004B0020006B702002C
:1042F8001CB7020033B702002DE9F84F0446A38B20
:1043080008461907154612D4022803F0070165D19B
:1043180020461FF097F888B10138042800F2378149
:10432800DFE810F05C0035018200D40004010128A8
:104338000CBF43F0100143F02001A1831434204640
:1043480018F014FB002840F09D819A494FF49A73A5
:10435800994A9A481EF0EBFE2146B1E003F00702A5
:10436800501F01281ED80020062A2768C4E900002B
:1043780014D13A4603E0E08B0130E0831268002A4A
:10438800F9D123F0070343F002022046A2831FF06D
:1043980059F890B342F02002A2832EE023F00703DD
:1043A8009AB2F2E7042A33D123F007039AB22046DF
:1043B800A2831FF047F810B142F02002A283A38B1A
:1043C80003F00709894540F0EC80A18BCA0640F14B
:1043D800508121F01003A38301F00701D4F818805D
:1043E800A38BB8F1000FB9DA0022276823F007037E
:1043F800C4E9002243F00103A383A38B03F0070958
:10440800894540F0CF80002FDFD00026B24644E037
:104418006B4940F21B136B4A68481EF088FE40F255
:104428001B1168481EF07AFE49B167494FF4AB7317
:10443800644A62481EF07BFE4FF4AB71F1E72368D3
:104448004BB9624940F257135E4A5C481EF06FFE52
:1044580040F25711E5E723691E684EB95C494FF4ED
:10446800AD73584A55481EF062FE4FF4AD71D8E757
:104478000F4688464FF00609A38B23F0070343F045
:1044880006039BB2A383A268002A40F08D80002F08
:1044980040F08D80002E98D0BA4643F0080304F10E
:1044A800140B5846A38318F061FA002840F09A804C
:1044B80040494FF49A73404A40481EF038FE594626
:1044C80044481EF034FE4FF49A71ADE0022909D039
:1044D800414940F25D133B4A38481EF028FE40F23D
:1044E8005D119EE7E78B4FB13C494FF4AF73354AF6
:1044F80032481EF01CFE4FF4AF7192E723695E68E4
:104508004EB9334940F261132E4A2C481EF00FFE73
:1045180040F2611185E7A38BB84623F0070343F007
:1045280004039BB24FF00409A383ACE7012909D027
:104538002B494FF4B273234A20481EF0F8FD4FF47C
:10454800B2716EE723684BB9204940F265131D4AE2
:104558001A481EF0ECFD40F2651162E723699E6877
:104568004EB91B494FF4B473164A14481EF0DFFDC8
:104578004FF4B47155E70027A38BB84623F007031F
:1045880043F005039BB24FF00509A3837BE70C4971
:1045980040F26B130B4A09481EF0C9FD40F26B113B
:1045A8003FE7002700266EE74FF0010A75E79246BD
:1045B80073E700BF1CB70200C4B6020004B00200D3
:1045C800790D030053B7020078B7020084B70200E0
:1045D800A7B7020033B70200BEB70200D4B7020083
:1045E800E3B7020085F31188BFF36F8FBAF1000FAC
:1045F8001CD177BB16B120462549B047EFF311858A
:10460800202383F31288BFF36F8F584618F0A0F960
:1046180038BB88231F4A204920481EF088FD594688
:104628001F481EF084FD88211A48FBE6A16800296E
:10463800DFD00D680029DCD043464A462046D1F831
:1046480004A0D0471DB12B6829461D46F2E72B462A
:10465800FAE7394643464A4620463F681EF01EFFA1
:10466800C7E7584618F098F9A38B23F00803A383EB
:10467800ABE68B067FF562AE21F02003A38301F041
:10468800070145E685F31188BFF36F8FBDE8F88F02
:10469800AD460000C4B60200F1B6020004B0020044
:1046A80006B70200F8B504460D4600F11406EFF30C
:1046B8001187202383F31288BFF36F8F304618F0D9
:1046C80047F968B988230C4A0C490D481EF02FFD9C
:1046D80031460C481EF02BFD882107481EF01EFDB0
:1046E800304618F059F9A5613A462046BDE8F84029
:1046F8000121FFF701BE00BFC4B60200F1B60200F7
:1047080004B0020006B702002DE9F04704460F4640
:104718001EF0B4FE051E68DB04F11409EFF3118ADC
:10472800202383F31288BFF36F8F484618F010F9DF
:10473800804660B98823384A384939481EF0F7FC62
:10474800494638481EF0F3FC8821334842E0484681
:1047580018F022F94FF6FF72E38BA68B934206F00E
:10476800070645D0022E15D135460133E383484666
:1047780018F0FCF8002841D14FF49A73264A2A49C8
:1047880027481EF0D4FC494628481EF0D0FC4FF4B8
:104798009A71DAE7062E13D8DFE806F0092D12120F
:1047A800090409006FF085054FF00008DFE70023D2
:1047B8003B60636883B9C4E9007786B13546F3E79F
:1047C8001B4917484FF4E4731A4A1EF0B0FC4FF423
:1047D800E47118481EF0A2FC1F606760EDE75246BE
:1047E80002212046FFF788FD35462846BDE8F087B8
:1047F8006FF00A05D8E76FF00405D5E78AF311884A
:10480800BFF36F8FB8F1000FEFD00023324639465F
:1048180020461EF043FEE8E7C4B60200F1B60200E7
:1048280004B0020006B702001CB7020033B702004A
:10483800E3B7020053B70200F8B5054600F11406C5
:10484800EFF31187202383F31288BFF36F8F30466D
:1048580018F07EF860B98823254A264926481EF0B4
:1048680066FC314625481EF062FC882120482BE072
:10487800304618F091F8AC8B04F00704022C17D0DE
:10488800012C0CBF6FF004046FF08504304618F05B
:104898006DF838BB4FF49A73154A194916481EF03B
:1048A80046FC314617481EF042FC4FF49A71DDE78A
:1048B800EB8B5BB91449104840F2EF13134A1EF012
:1048C80036FC40F2EF1111481EF028FC013B9BB268
:1048D800EB83002BDAD13A4621462846FFF70CFD38
:1048E8002046F8BD87F31188BFF36F8FF8E700BF44
:1048F800C4B60200F1B6020004B0020006B7020016
:104908001CB7020033B70200F9B7020053B7020020
:1049180008B54268034602F00302022A81600AD001
:10492800032A4FF0000103D0012A0AD1596006E09A
:104938001868596008BD186800225A6058B90020E4
:10494800F8E7064906484523064A1EF0F0FB4521CC
:1049580004481EF0E3FB18F013FCF0E7790D0300A0
:1049680004B0020007B802002DE9F7430F460646D7
:104978000821C06A1EF03AFE80463C68DFF848907D
:10498800241A3C6004EA0905AC4203D8002003B0AD
:10499800BDE8F08308236A46214630461EF0BCFD78
:1049A8000028F4D1694630461EF02AFE40B1BDF811
:1049B8000230BDF8042005EA090513441D443C6093
:1049C800A4EB0804E0E700BF0000FFFF73B504464E
:1049D8004FF6FF72C06A08211EF008FE00256368C2
:1049E8000F4EADF800208DF80620E2681918334004
:1049F8001344181A60606846ADF80210ADF8045008
:104A08001EF0EBFD694620461EF0BAFE2046211D29
:104A18001EF0BBFD284663683340A36002B070BD3A
:104A28000000FFFF2DE9F04704468AB000F11407A3
:104A3800384623F026FDA06A8368DB689847E06261
:104A480050B98D4A01218D481EF0ACFD6FF0150557
:104A580028460AB0BDE8F087A06A8368DB689847F3
:104A68000368013B1F2B01D9854AEBE7E368B3F5DF
:104A7800803F08D94FF48032012100927F48814A53
:104A88001FF011FAE2E7A06A216807AA22F0F5F9F7
:104A980008B17D4AD6E7E5682DB1089BB5FBF3F26E
:104AA80003FB12550DB1794ACCE7238A012B01D8B3
:104AB800774AC7E7E36A029593F805904FF0FF330A
:104AC8004FF0FF32384615F075F80821E06A1EF0FD
:104AD8008DFDA8460646238A1FFA85FA534508D84D
:104AE800238A434523D1384615F034F96FF02C0555
:104AF800AEE7E1682B04891B13FA81F14A460823C3
:104B0800204602911EF016FD78B1204602A91EF03B
:104B18003CFD08F1010808234A46204602991FFA7D
:104B280088F81EF007FD0028DAD00135D3E79A454A
:104B38000BD1029908234A462046891B1EF0FAFC2D
:104B480018B9204602A91EF020FD204602A9FFF749
:104B58000BFF054618B1384615F0FCF878E7029BBC
:104B68004FEA13484FEA08486360C4F80880D4E95C
:104B7800011399420FD30823204603AA1EF0CCFC48
:104B880005460028E7D103AB13F8012B91453DD129
:104B98000135082DF8D1636820461B0C1B0402A9B7
:104BA80002931EF0F2FC4A462046E36802991EF082
:104BB800C1FC051ECFDB63687ED04FF6FF7906EB9C
:104BC8000308E3681FFA88F29B1B9A42CDF8088015
:104BD80038D303212F4A29481EF0E4FC2046616897
:104BE8001EF0E2FC05460028B5D163682A4AE16850
:104BF80013400B44A3EB4603636013402046A360B5
:104C08001EF0E6FD0546002D72D0A4E7204603A954
:104C18001EF0F6FC626810B9921B6260A7E7BDF847
:104C28001050BDF80E10E06AC4F8088029441EF040
:104C3800DDFC40449042A060EED1002DECD06FF036
:104C48001C0580E008234146204605AA1EF064FCA6
:104C5800054600287FF47FAF204605A91EF0D0FC4A
:104C680038B1BDF814304B4503D1BDF81830002BCE
:104C78006FD0B044A5E700BF41B80200149D020000
:104C880063B8020080B80200A9B80200C1B80200E7
:104C9800D5B8020047B902000000FFFF4A46204687
:104CA8005B1A1EF047FC051EFFF655AF08D0E26AF6
:104CB800A36812681344A360D4E901318B42EDD88C
:104CC8006168E36801EB46029A429CD1DFF8A8804C
:104CD800A26801EA08039A4295D020461EF064FCB7
:104CE800054600287FF437AF636803EA0803A3602A
:104CF800E368A288A3EB46039A4220D0384615F011
:104D080029F80123E268A374238A032100921B482F
:104D18001B4A1FF0C8F863689AB200920321194A27
:104D280016481B0C1FF0BFF8A3689AB20092032123
:104D3800154A12481B0C1FF0B6F8002588E62046D5
:104D48001EF02FFD0546384615F004F8002DD8D082
:104D58007EE60E4A032109481EF024FC63682046BB
:104D68001B0C1B0402A902931EF00FFC204602999B
:104D78001EF01AFC46E700BF0000FFFF149D02006A
:104D8800F8B802000FB9020021B9020032B90200D6
:104D98002DE9F04F1D46837C91B0044602910092A4
:104DA80053B90121634A64481EF0FCFB6FF00C06FE
:104DB800304611B0BDE8F08FC26A082110461EF0D7
:104DC80015FC2946019010461EF010FCE368019A74
:104DD8000746A3EB8203AB42C0F0A9801DB1009B3C
:104DE800002B00F0A48063680593204606AA05A955
:104DF800DDF814A01EF041FC06460028D8D1BDF805
:104E08001830029A934206D06268059B9A42ECD108
:104E1800002D36D1CCE7204606A91EF0F1FB00286C
:104E2800F2D0BDF81A80BDF81C3045B39D4228D198
:104E38004FEA1A4A4FEA0A4AD044AA46E36ADDF81A
:104E480000B01B685B4203F020030393DDF80C906D
:104E58004146D14528BFD14620464B4608AA1EF0F8
:104E68005BFB00284AD14A46584608A924F0A9FB0A
:104E780038B9BAEB090AC844CB44E7D198E7002B04
:104E880096D0002F3DD1B84604F1140A4FF0FF32F6
:104E98004FF0FF33504614F08DFE238A9E4243D0D4
:104EA800A168626808EB01039A422FD3029B20464F
:104EB800ADF82030FF23009A8DF826302B46ADF848
:104EC8002210ADF824501EF022FC29460746E06A5D
:104ED8001EF08CFBA3680344A36057B908A81EF012
:104EE8007CFB204608A91EF04BFC002814BF07468F
:104EF8002F46504614F02EFF3E4659E7C1DC0646C1
:104F080056E7019B1F441FFA87F8BDE72046FFF7C5
:104F18005DFD07460028ECD120461EF059FC0746E7
:104F28000028E6D10136B8E76FF01B07E1E76FF01C
:104F380015063DE72DB80200149D02002DE9FF4734
:104F48001E46837C04460F469046BDF830904BB908
:104F58002C4801212C4A1EF025FB6FF00C0004B0F0
:104F6800BDE8F0870821C06A1EF040FBE368A3EBA8
:104F78004003B34243D30025D4F804A0CDF804A0DD
:104F88004D455146DDF804A009D9636853451ED143
:104F9800BDF80830BB421AD06FF00100DFE72046A9
:104FA80002AA01A91EF069FB0028D8D1BDF8083073
:104FB800BB4206D1204602A91EF022FB08B10135EA
:104FC800ADB26268019B9A42DAD15146E0E7BDF87A
:104FD8000C30002BE0D0A945DED8BDF80A00090C3A
:104FE800B3424FEA014128BF3346014442462046B6
:104FF8001EF092FA0028B2D1BDF80C00AFE76FF0AE
:105008001500ACE7149D02002DB8020010B530B9A8
:105018000B480C491EF0B4FC6FF0150010BD8368F6
:1050280033B9074808491EF0ABFC6FF00400F5E7F8
:105038001B6813B1BDE8104018471846EEE700BFDB
:105048001C9D020075B9020086B9020010B530B97E
:105058000B480C491EF094FC6FF0150010BD8368D6
:1050680033B9074808491EF08BFC6FF00400F5E7D8
:105078005B6813B1BDE8104018471846EEE700BF5B
:105088001C9D020075B9020086B9020070B508B10E
:1050980001B132B90B480C491EF072FC6FF01500D3
:1050A80070BD84680CB1256935B9064807491EF0FA
:1050B80067FC6FF00400F3E741F8040B2369BDE8CF
:1050C800704018471C9D0200A4B9020086B902006E
:1050D80010B5044630B9104810491EF051FC6FF065
:1050E800150010BD006830B90B480D491EF048FC8A
:1050F8006FF00100F5E783680BB15B6933B90648C7
:1051080008491EF03DFC6FF00400EAE76168984723
:105118000028E6D12060E4E71C9D0200D0B9020017
:10512800E1B9020086B9020070B51346044630B9E9
:10513800104811491EF024FC6FF0150070BD00687E
:1051480030B90C480D491EF01BFC6FF00100F5E763
:1051580082680AB1956835B9064809491EF010FCFD
:105168006FF00400EAE70A46AC466168BDE87040A3
:10517800604700BF1C9D0200D0B90200E1B90200DF
:1051880086B90200034A13680BB9526813600020FD
:10519800704700BF7806002030B50C460E4985B030
:1051A8000291D0F8D4110546CDE9003100F1F001A3
:1051B8004FF0FF33204613F0A5FC50B9012384F8C3
:1051C8006C30D5F8D03123B1204605B0BDE8304069
:1051D800184705B030BD00BF813A020038B50C460B
:1051E800114605461EF04AFC034638B928460449CC
:1051F8001EF044FC03460020236038BD0120FBE775
:10520800B30F03002DE9F04F012381460569466875
:1052180089B005F55D77D7E8EF2F002A03D1C7E8F5
:10522800E13F0029F7D10CBF1A46002240F0B180B7
:10523800B368B16A05F5F8781C1F10461EF0A5FC86
:1052480084426FD8013A00F09E80B2FA82F24FF0A1
:105258000044D44072682046073222F00302C5F8A1
:105268003C22B16A1EF091FCC5F84002B36A404680
:105278006343033323F0030302EB4302230103EBED
:105288004403093323F0030303EBC403C5F83422B2
:105298001A440832C5F830227368C5F83842C5F890
:1052A8002C323D4BC5E9AD63316800F0E5F90446A1
:1052B800002835D1D9F810B0D9F804A0D9F80030B1
:1052C8000BF53479CDE9060005934846DAE9073449
:1052D800012B08BF103C15F09DFCDAF824002F497B
:1052E80005AB01EB80214FF48062484600932346CA
:1052F80015F0AAFC2A490BF5307015F067FADAE9BF
:10530800050183685C684CB15B46264AA0470446A1
:1053180030B9DAE9050183681B692BB96FF05704C6
:10532800002129E0013288E7012298470446002835
:10533800F6D11D4B2846C5F8D0311C4BC5F8D431E1
:105348001B4B0393D5F840320293D5F83C32CDE994
:10535800008305F51173B26AD5F8701300F054F99B
:1053680004460028DCD105F1F00013F071FC002898
:10537800C5F878030ADB022138461EF0B3FB204645
:1053880009B0BDE8F08F6FF00B04C9E76FF01504A2
:10539800C6E76FF07704F2E7D73A020090010120E0
:1053A800BD3A0200B13A0200BD530000693C020058
:1053B8001D3B020013B5044640B100230122CDE98C
:1053C8000032074BD0E9091213F070FB236F1B68FA
:1053D80023B1606F02B0BDE81040184702B010BD9D
:1053E800B30F030013B504460846216901F55D7142
:1053F800D1E8AF1F022910D193B1A0B10121CDE9A5
:1054080000311346D0E9091213F050FB074B9842BC
:1054180008BF6FF00B0002B010BD6FF00F00FAE785
:105428006FF04C00F7E76FF00100F4E72EF8FFFF8C
:105438002DE9F34789461546066906F55D73D3E8F5
:10544800AF3F022B64D1136823B96FF0150002B087
:10545800BDE8F0871B78002BF7D0D6F870A3BAF117
:10546800000F36D106F5EC774FF0FF324FF0FF33DF
:10547800384614F09FFB30462A6801A9FFF7AEFEB4
:10548800019C80461CB938461EF02AFBDDE705F171
:1054980008032367AB6984F86CA06367646460B130
:1054A80038461EF01DFB21463046A36E2A68FFF7DA
:1054B80073FE0020C9F80040C9E71F22296804F1DB
:1054C800480024F0A0F8384684F867801EF008FBEE
:1054D800EFE7304610491EF0D1FA04460028B4D050
:1054E800002705F108030367AB6980F86C70436710
:1054F80040641F222968483024F085F8224601219B
:10550800304684F8677000F061F80028D1D09CE735
:105518006FF00F009BE700BFB30F030010B50C46F8
:10552800006900F55D73D3E8AF3F022B0FD189B155
:105538000A4900F5307015F077FA204622F058FD38
:1055480078220021204624F034F8002010BD6FF0A6
:105558000F00FBE76FF00100F8E700BF24210020EF
:105568002DE9F04F05460E4690460027D0F8C4A016
:1055780085B0AAF5BE7421463046FBF7CBFCE0B9EE
:10558800114BA4F1480B0293DAF810303246CDE9FA
:10559800008329464FF0FF335846AAF5E27913F005
:1055A800B1FA60B97823012203FB079383F86C20D2
:1055B800DAF80C300BB158469847783417B105B073
:1055C800BDE8F08F0127D6E7973C02001FB51446C7
:1055D80090B18AB1012912D10A4B00F1F00102936E
:1055E800D0F8D431483201934FF0FF33204600936E
:1055F80013F088FA04B010BD6FF01500FAE7002028
:10560800F8E700BF973C02002DE9F04387B00E464B
:10561800DDE90E811446DDE910251F4630B329B3B4
:10562800DFF850C000F1F009002D08BF65469EB9AB
:10563800CDE9034400F5E2742046059622F090FE79
:1056480003ABCDE900432A463B464146484613F0A2
:10565800BBFC07B0BDE8F083002241460E924846E5
:105668002A4607B0BDE8F04313F004BE6FF01500FA
:10567800EFE700BF69550000F0B504462B4A87B034
:1056880004AB0E4692E8030083E80300002C49D0DF
:10569800184613F011F90546B0B94FF0FF33E16C25
:1056A80004F15407A163CDE9010000933846236D46
:1056B80004F1380222F04CF9A06C1EF017FBC4F874
:1056C800BC0020B96FF00B05284607B0F0BDA06CF0
:1056D8001EF00CFBC4F8C0000028F3D0236CD4F8EB
:1056E800BC10C4F890300423C4F89430C4F8AC302B
:1056F8000223E3620E4BB4F84820C4F88C10616CA6
:10570800236204F18C03C4F8A070A4F89820C4F8AC
:10571800B870C4F8A810A4F8B020C4F8A400A66112
:105728002363D1E76FF01505CEE700BF409E020066
:1057380078A0020030B5002289B00F490F4823F045
:105748000DF8002200230024CDE906230E230C4D7A
:10575800CDE903344FF400622846CDE90144094BF2
:105768000949009415F012FF0849284622F03DFF28
:10577800204609B030BD00BFE15800008017002066
:10578800F81200201D5C00009005012006BA0200F6
:105798002DE9F047044607464FF00109DFF850802D
:1057A80014B93846BDE8F08794FAA4F5B5FA85F53A
:1057B80009FA05F32E0108EB05156FEA030A24EA36
:1057C80003042B7B002BEBD058F806301B694BB930
:1057D8004644736804222846196807EA0A071EF037
:1057E800DFFADDE7284698470028D9D1F0E700BF5F
:1057F8009C9D02002DE9F047DFF8BC902F4C8046B5
:10580800A9EB04038F2B0F460BD92D494FF4A67330
:105818002C4A2D481DF08BFC4FF4A67129481DF029
:105828007DFC2A481EF0AEFA064678B300252846C5
:10583800BDE8F087237B83B12368DB680BB1204682
:105848009847636883F806A023681B69B3B963683F
:105858000422204619681EF0A3FA013610344C457C
:1058680018D91B494FF4AC73164A17481DF05FFC52
:1058780018481DF05CFC4FF4AC71CFE72046984700
:105888000028E4D00AFA06F31D43E6E705464FF080
:10589800010AE4E7CED3B8F1000FC8D0002DC5D077
:1058A8002846FFF775FF0546002FF7D000214FF473
:1058B800A47016F03BFDF1E7AC9D02009C9D020030
:1058C8003BBA02000EBA020004B0020060210020B8
:1058D8006BBA02008CBA0200014814F07FBC00BF0A
:1058E800D80B0020014B53F820007047B8A00200E5
:1058F80008B5034608462BB1044A136000F056FD6C
:10590800002008BD6FF01500FBE700BFA4060020CB
:1059180010B5044C237813B9034814F05FFC012335
:10592800237010BD345E0020D80B002010B504464B
:1059380009481EF027FA3CB1084BD3E8EF1F01399C
:10594800C3E8E21F002AF8D1054822F013FFBDE89A
:105958001040044814F042BC582100205C2100206B
:1059680080170020D80B002000200146034BD3E805
:10597800EF0FC3E8E21F002AF9D170475821002031
:1059880070B5FFF7F1FF05460F4C104EB44219D918
:105998000F494FF403730F4A0F481DF0C8FB0F4817
:1059A8001DF0C5FB4FF403710A481DF0B7FB63688F
:1059B8005B792BB123685B6813B129462046984769
:1059C8001034E3E7F3D370BD9C9D0200AC9D020048
:1059D8006BBA02000EBA020004B002008CBA0200D0
:1059E80010B5044C04492046FEF7E0F9034B1C604F
:1059F80010BD00BF640A0020A4A002004C210020B2
:105A08000023154A10B51370144A4FF4004113606F
:105A1800134A14481360FFF76BFFFFF7E1FF124BBF
:105A2800124918468B4215D9114940F22713114AD9
:105A380011481DF07CFB11481DF079FB40F227113D
:105A48000C481DF06BFB1A1A5C68121101322271A6
:105A58001033E7E7F7D310BD355E0020582100204A
:105A68005C210020893D02009C9D0200AC9D020043
:105A78006BBA02000EBA020004B002008CBA02002F
:105A88000146002200230148FEF7C2B9640A00203B
:105A98000148FEF7D9BA00BF640A0020024B01464C
:105AA8001868FEF765BB00BF4C2100200148FEF7CF
:105AB800D1BB00BF640A002070B52F4B18780028AE
:105AC80059D0FFF7E5FF0546002844D12B4B2C4C55
:105AD8001B68002B19DD22F0F9FD4FF47A72A0FB48
