:020000040800F2
:1000000000000320BD500108F12C0108FF2C01085D
:10001000072D01080F2D0108172D01080000000011
:100020000000000000000000000000001F2D01087B
:100030002D2D0108000000003B2D0108492D01086D
:10004000115101081151010811510108552D0108E4
:100050001151010811510108E32D0108F12D01088A
:100060001151010811510108D52D01081151010844
:100070001151010811510108612D010811510108A8
:1000800011510108115101081151010811510108C4
:1000900011510108115101081151010811510108B4
:1000A00011510108115101081151010811510108A4
:1000B0001151010811510108115101081151010894
:1000C0001151010811510108115101081151010884
:1000D000752D0108892D01081151010811510108E0
:1000E0001151010811510108115101081151010864
:1000F0009D2D0108A92D0108B52D010811510108F8
:100100001151010811510108115101081151010843
:100110001151010811510108115101081151010833
:100120001151010811510108C12D01081151010897
:0C01300011510108115101081151010882
:1001400010B5054C237833B9044B13B10448AFF311
:1001500000800123237010BD500200200000000029
:100160009C0A020808B5034B1BB103490348AFF3CF
:10017000008008BD00000000540200209C0A020814
:1001800010F8012B11F8013B012A28BF9A42F7D041
:10019000D01A7047000000000000000000000000BE
:1001A00001F0FF01102A2BDB10F0070F08D010F828
:1001B000013B013A8B422DD010F0070F42B3F6D12C
:1001C000F0B441EA012141EA014122F007047FF045
:1001D00000070023F0E80256083C85EA010586EA9C
:1001E000010685FA47F5A3FA87F586FA47F6A5FAD8
:1001F00087F68EB9EED1F0BC01F0FF0102F00702E4
:1002000032B110F8013B013A83EA010313B1F8D18E
:100210000020704701387047002D06BF354603386F
:10022000073815F0010F07D1013015F4807F02BFA8
:10023000013015F4C03F0130F0BC0138704700BFF9
:10024000034613F8012B002AFBD1181A0138704716
:1002500081F0004102E000BF83F0004330B54FEA77
:1002600041044FEA430594EA050F08BF90EA020FE4
:100270001FBF54EA000C55EA020C7FEA645C7FEA77
:10028000655C00F0E2804FEA5454D4EB5555B8BF9A
:100290006D420CDD2C4480EA020281EA030382EA0B
:1002A000000083EA010180EA020281EA0303362D9D
:1002B00088BF30BD11F0004F4FEA01314FF4801C70
:1002C0004CEA113102D0404261EB410113F0004F82
:1002D0004FEA03334CEA133302D0524263EB430339
:1002E00094EA050F00F0A780A4F10104D5F1200ED7
:1002F0000DDB02FA0EFC22FA05F2801841F1000132
:1003000003FA0EF2801843FA05F359410EE0A5F105
:1003100020050EF1200E012A03FA0EFC28BF4CF036
:10032000020C43FA05F3C01851EBE37101F00045EC
:1003300007D54FF0000EDCF1000C7EEB00006EEBF9
:100340000101B1F5801F1BD3B1F5001F0CD3490883
:100350005FEA30004FEA3C0C04F101044FEA4452DA
:1003600012F5800F80F09A80BCF1004F08BF5FEA61
:10037000500C50F1000041EB045141EA050130BD41
:100380005FEA4C0C404141EB0101013C28BFB1F553
:10039000801FE9D291F0000F04BF01460020B1FA9E
:1003A00081F308BF2033A3F10B03B3F120020CDA71
:1003B0000C3208DD02F1140CC2F10C0201FA0CF04F
:1003C00021FA02F10CE002F11402D8BFC2F1200CB4
:1003D00001FA02F120FA0CFCDCBF41EA0C0190406A
:1003E000E41AA2BF01EB0451294330BD6FEA0404B3
:1003F0001F3C1CDA0C340EDC04F11404C4F120029E
:1004000020FA04F001FA02F340EA030021FA04F3AF
:1004100045EA030130BDC4F10C04C4F1200220FA06
:1004200002F001FA04F340EA0300294630BD21FA44
:1004300004F0294630BD94F0000F83F4801306BF0A
:1004400081F480110134013D4EE77FEA645C18BFFE
:100450007FEA655C29D094EA050F08BF90EA020F95
:1004600005D054EA000C04BF1946104630BD91EA8D
:10047000030F1EBF0021002030BD5FEA545C05D190
:100480004000494128BF41F0004130BD14F58004CF
:100490003CBF01F5801130BD01F0004545F0FE4143
:1004A00041F470014FF0000030BD7FEA645C1ABF78
:1004B000194610467FEA655C1CBF0B46024650EAAF
:1004C000013406BF52EA033591EA030F41F40021DB
:1004D00030BD00BF90F0000F04BF0021704730B561
:1004E0004FF4806404F132044FF000054FF0000136
:1004F00050E700BF90F0000F04BF0021704730B5F7
:100500004FF4806404F1320410F0004548BF4042CB
:100510004FF000013EE700BF42004FEAE2014FEA20
:1005200031014FEA02701FBF12F07F4393F07F4FFB
:1005300081F06051704732F07F4208BF704793F0FE
:100540007F4F04BF41F40021704730B54FF4607411
:1005500001F0004521F000411CE700BF50EA010214
:1005600008BF704730B54FF000050AE050EA0102BD
:1005700008BF704730B511F0004502D5404261EB2D
:1005800041014FF4806404F132045FEA915C3FF46E
:10059000D8AE4FF003025FEADC0C18BF03325FEA0B
:1005A000DC0C18BF033202EBDC02C2F1200300FABC
:1005B00003FC20FA02F001FA03FE40EA0E0021FAE1
:1005C00002F11444BDE600BF70B54FF0FF0C4CF4CF
:1005D000E06C1CEA11541DBF1CEA135594EA0C0F81
:1005E00095EA0C0F00F0DEF82C4481EA030621EABC
:1005F0004C5123EA4C5350EA013518BF52EA0335F7
:1006000041F4801143F4801338D0A0FB02CE4FF0A8
:100610000005E1FB02E506F00042E0FB03E54FF0D8
:100620000006E1FB03569CF0000F18BF4EF0010ED0
:10063000A4F1FF04B6F5007F64F5407404D25FEACC
:100640004E0E6D4146EB060642EAC62141EA55517F
:100650004FEAC52040EA5E504FEACE2EB4F1FD0CC1
:1006600088BFBCF5E06F1ED8BEF1004F08BF5FEA3F
:10067000500E50F1000041EB045170BD06F00046F1
:1006800046EA010140EA020081EA0301B4EB5C049E
:10069000C2BFD4EB0C0541EA045170BD41F4801196
:1006A0004FF0000E013C00F3AB8014F1360FDEBFBB
:1006B000002001F0004170BDC4F10004203C35DA97
:1006C0000C341BDC04F11404C4F1200500FA05F31A
:1006D00020FA04F001FA05F240EA020001F00042BB
:1006E00021F0004110EBD37021FA04F642EB060131
:1006F0005EEA430E08BF20EAD37070BDC4F10C045B
:10070000C4F1200500FA04F320FA05F001FA04F21E
:1007100040EA020001F0004110EBD37041F100010A
:100720005EEA430E08BF20EAD37070BDC4F1200515
:1007300000FA05F24EEA020E20FA04F301FA05F27D
:1007400043EA020321FA04F001F0004121FA04F225
:1007500020EA020000EBD3705EEA430E08BF20EAF5
:10076000D37070BD94F0000F0FD101F0004640002F
:1007700041EB010111F4801F08BF013CF7D041EAB1
:10078000060195F0000F18BF704703F000465200B5
:1007900043EB030313F4801F08BF013DF7D043EA86
:1007A0000603704794EA0C0F0CEA135518BF95EA3C
:1007B0000C0F0CD050EA410618BF52EA4306D1D1C3
:1007C00081EA030101F000414FF0000070BD50EAE2
:1007D000410606BF1046194652EA430619D094EA6C
:1007E0000C0F02D150EA013613D195EA0C0F05D156
:1007F00052EA03361CBF104619460AD181EA0301AA
:1008000001F0004141F0FE4141F470014FF0000061
:1008100070BD41F0FE4141F4780170BD70B54FF0FC
:10082000FF0C4CF4E06C1CEA11541DBF1CEA13557C
:1008300094EA0C0F95EA0C0F00F0A7F8A4EB05045E
:1008400081EA030E52EA03354FEA013100F0888055
:100850004FEA03334FF0805545EA131343EA12631E
:100860004FEA022245EA111545EA10654FEA0026D3
:100870000EF000419D4208BF964244F1FD0404F58C
:10088000407402D25B084FEA3202B61A65EB0305E8
:100890005B084FEA32024FF480104FF4002CB6EBA5
:1008A000020E75EB030E22BFB61A754640EA0C0025
:1008B0005B084FEA3202B6EB020E75EB030E22BF65
:1008C000B61A754640EA5C005B084FEA3202B6EBA6
:1008D000020E75EB030E22BFB61A754640EA9C0065
:1008E0005B084FEA3202B6EB020E75EB030E22BF35
:1008F000B61A754640EADC0055EA060E18D04FEAF3
:10090000051545EA16754FEA06164FEAC30343EA92
:1009100052734FEAC2025FEA1C1CC0D111F4801F5F
:100920000BD141EA00014FF000004FF0004CB6E758
:1009300011F4801F04BF01430020B4F1FD0C88BFF7
:10094000BCF5E06F3FF6AFAEB5EB030C04BFB6EB02
:10095000020C5FEA500C50F1000041EB045170BDF5
:100960000EF0004E4EEA113114EB5C04C2BFD4EB22
:100970000C0541EA045170BD41F480114FF0000EA6
:10098000013C90E645EA060E8DE60CEA135594EA22
:100990000C0F08BF95EA0C0F3FF43BAF94EA0C0F25
:1009A0000AD150EA01347FF434AF95EA0C0F7FF49A
:1009B00025AF104619462CE795EA0C0F06D152EAEE
:1009C00003353FF4FDAE1046194622E750EA4106D2
:1009D00018BF52EA43067FF4C5AE50EA41047FF4E3
:1009E0000DAF52EA43057FF4EBAE12E74FF0FF3C48
:1009F00006E000BF4FF0010C02E000BF4FF0010C19
:100A00004DF804CD4FEA410C7FEA6C5C4FEA430C91
:100A100018BF7FEA6C5C1BD001B050EA410C0CBFE0
:100A200052EA430C91EA030F02BF90EA020F002042
:100A3000704710F1000F91EA030F58BF994208BFA9
:100A400090422CBFD8176FEAE37040F00100704766
:100A50004FEA410C7FEA6C5C02D150EA013C07D1BD
:100A60004FEA430C7FEA6C5CD6D152EA033CD3D008
:100A70005DF8040B704700BF8446104662468C4602
:100A80001946634600E000BF01B5FFF7B7FF002835
:100A900048BF10F1000F01BD4DF808EDFFF7F4FF5E
:100AA0000CBF012000205DF808FB00BF4DF808EDE9
:100AB000FFF7EAFF34BF012000205DF808FB00BF0C
:100AC0004DF808EDFFF7E0FF94BF012000205DF82E
:100AD00008FB00BF4DF808EDFFF7CEFF94BF0120E3
:100AE00000205DF808FB00BF4DF808EDFFF7C4FFDC
:100AF00034BF012000205DF808FB00BF4FEA410C25
:100B00007FEA6C5C02D150EA013C0AD14FEA430C07
:100B10007FEA6C5C02D152EA033C02D14FF0000044
:100B200070474FF0010070474FEA410212F5001282
:100B300015D211D56FF47873B3EB625212D94FEA24
:100B4000C12343F0004343EA505311F0004F23FA0E
:100B500002F018BF404270474FF00000704750EA63
:100B6000013005D111F0004008BF6FF00040704720
:100B70004FF00000704700BF53B94AB9002908BFC1
:100B800000281CBF4FF0FF314FF0FF3000F088B954
:100B9000ADF1080C6DE904CE00F006F8DDF804E0D4
:100BA000DDE9022304B070472DE9F047089D0F46A8
:100BB00004468C46002B48D18A42164661D9B2FAC7
:100BC00082F34BB1C3F1200201FA03FC20FA02F2D6
:100BD0009E4042EA0C0C9C404FEA164EB7B2BCFB5A
:100BE000FEF1220C0EFB11CC42EA0C4201FB07F095
:100BF000904209D9B21801F1FF3C80F0EE8090429A
:100C000040F2EB8002393244121AA4B2B2FBFEF079
:100C10000EFB102244EA024400FB07F7A74209D961
:100C2000341900F1FF3280F0DA80A74240F2D78019
:100C30003444023840EA0140E41B00211DB1DC408D
:100C40000023C5E90043BDE8F0878B4206D90DB10A
:100C5000C5E9000100210846BDE8F087B3FA83F139
:100C6000002948D1BB4202D3824200F20781841A94
:100C700067EB030201209446002DE4D0C5E9004C47
:100C8000E1E7002A00F09280B2FA82F3002B40F0F4
:100C9000A8808A1A4FEA164E1FFA86FC0121200C02
:100CA000B2FBFEF70EFB172240EA02420CFB07F0F4
:100CB000904207D9B21807F1FF3802D2904200F2F1
:100CC000E2804746121AA4B2B2FBFEF00EFB1022DD
:100CD00044EA02440CFB00FCA44507D9341900F196
:100CE000FF3202D2A44500F2CB801046A4EB0C04E4
:100CF00040EA0740A2E7C1F120068B4022FA06FC39
:100D00004CEA030C07FA01F420FA06F3F7404FEA25
:100D10001C49234300FA01F81FFA8CFEB7FBF9F0D7
:100D20001C0C09FB107744EA074400FB0EF7A742AE
:100D300002FA01F20AD91CEB040400F1FF3A80F038
:100D40009B80A74240F2988002386444E41B9FB223
:100D5000B4FBF9F309FB134447EA044403FB0EFE1A
:100D6000A64509D91CEB040403F1FF3780F082800B
:100D7000A6457FD9023B644443EA0040A4EB0E043D
:100D8000A0FB02E7BC427346B94663D360D05DB1B5
:100D9000B8EB030264EB090404FA06F622FA01F345
:100DA0001E43CC40C5E9006400214CE762084808B6
:100DB00042EAC1710B0C43EA00438AB242EA0342A1
:100DC000B3FBF6F1E407B4463746B6461F23B0FB43
:100DD000F6F0D21B41EA004161E7614614E7104694
:100DE00028E7C3F1200120FA01F29E4027FA01F121
:100DF0009F403A434FEA164E1FFA86FCB1FBFEF7BE
:100E00000EFB1710110C41EA004107FB0CF8884556
:100E100004FA03F43AD9711807F1FF3001D288457A
:100E20001FD8A1EB0801B1FBFEF808FB0CF70EFB85
:100E3000181192B242EA0142BA422FD2B21808F116
:100E4000FF31C6D2BA42C4D2A8F102013244C0E78F
:100E5000F0459CD2BEEB020367EB0C070138B946A4
:100E600095E7A6EB08084144B81EB1FBFEF808FB65
:100E70000CF7DCE73B467FE7504667E70846FBE6B2
:100E80003444023832E7023F32441BE7A1EB080149
:100E90003846B1FBFEF808FB0CF7C8E7414698E777
:100EA000704700BF80B483B000AF7860064BD3F8C2
:100EB000902005497B681343C1F8903000BF0C3780
:100EC000BD465DF8047B70470008005880B485B0CB
:100ED00000AF78604FF0B043DA6C4FF0B0417B6800
:100EE0001343CB644FF0B043DA6C7B681340FB6074
:100EF000FB6800BF1437BD465DF8047B704780B4C3
:100F000085B000AF78604FF0B043D3F84C214FF07C
:100F1000B0417B681343C1F84C314FF0B043D3F874
:100F20004C217B681340FB60FB6800BF1437BD4653
:100F30005DF8047B704780B500AF14F0E9FA14F057
:100F4000EDFA4FF48030FFF7ADFF1AF0F1FE00F03C
:100F500021F800F0C1F800BF80BD0000B0B588B036
:100F600000AF0B4B3C1D1D460FCD0FC495E807008D
:100F700003C422800234130C23701CF027FC3B1D99
:100F800018461BF078FA00BF2037BD46B0BD00BF41
:100F9000B80A020880B588B000AF3B1D00221A6075
:100FA0005A609A60DA601A610023BB8300237B8356
:100FB00000233B830023FB7736E0FB7F434ADB00C3
:100FC00013449B79002B2CD0FB7F404A52F83330DE
:100FD0003F4A93421BD03E4A934221D8B3F1904FEF
:100FE00003D03C4A934209D01AE0FB7F374ADB002A
:100FF00013449A88BB8B1343BB8312E0FB7F334AB5
:10100000DB0013449A887B8B13437B8309E0FB7FCF
:101010002E4ADB0013449A883B8B13433B8300E04A
:1010200000BFFB7F0133FB77FB7F252BC5D9002356
:10103000FB600123BB6003233B61BB8B002B14D0FF
:10104000BB8B7B600120FFF741FF0120FFF757FFBB
:101050003B1D19464FF0904014F094FFBB8B0022CB
:1010600019464FF0904015F0FDF87B8B002B12D005
:101070007B8B7B600220FFF729FF0220FFF73FFFF9
:101080003B1D1946134814F07DFF7B8B0022194647
:10109000104815F0E7F83B8B002B13D03B8B7B609F
:1010A0000420FFF713FF0420FFF729FF3B1D19461B
:1010B000074814F067FF3B8B00221946044815F0DF
:1010C000D1F800BF00BF2037BD4680BD54210208C3
:1010D000000800480004004880B400AF00BFBD46CF
:1010E0005DF8047B704780B500AF0FF0A1FA00BF38
:1010F00080BD80B584B000AFF8600B467A607B811C
:101100007A897B68F968002009F02CF800BF103755
:10111000BD4680BD80B483B000AF7860074BD3F884
:10112000803023F0070205497B681343C1F8803003
:1011300000BF0C37BD465DF8047B704700040058C3
:1011400080B483B000AF7860064BD3F89020054997
:101150007B681343C1F8903000BF0C37BD465DF883
:10116000047B70470008005880B483B000AF7860FB
:101170004FF0B0430A4AC3F89C204FF0B043D3F875
:101180009C3023F47C527B681B024FF0B041134328
:10119000C1F89C3000BF0C37BD465DF8047B70473A
:1011A000FECAFECA80B483B000AF78604FF0B0438F
:1011B0009B6823F400424FF0B0417B6813438B607F
:1011C00000BF0C37BD465DF8047B704780B400AFAC
:1011D0004FF0B043D3F890304FF0B04243F4803337
:1011E000C2F8903000BFBD465DF8047B704780B404
:1011F00000AF4FF0B043D3F890304FF0B04223F43B
:101200008033C2F8903000BFBD465DF8047B704764
:1012100080B400AF4FF0B043D3F8943003F0806354
:10122000B3F1806F01D1012300E000231846BD46D1
:101230005DF8047B704780B400AF4FF0B043D3F843
:10124000943003F08053B3F1805F01D1012300E0BB
:1012500000231846BD465DF8047B704780B485B016
:1012600000AF78604FF0B0431A6D4FF0B0417B682B
:1012700013430B654FF0B0431A6D7B681340FB605E
:10128000FB6800BF1437BD465DF8047B7047000063
:1012900080B400AF044B1B68C3F30B031846BD4674
:1012A0005DF8047B704700BF002004E080B400AF0D
:1012B000044B1B681B0C9BB21846BD465DF8047BB3
:1012C000704700BF002004E080B483B000AF7860B6
:1012D00039607B685A683B681B041A437B685A6014
:1012E00000BF0C37BD465DF8047B704780B483B007
:1012F00000AF786039607B685A683B681A437B6846
:101300005A6000BF0C37BD465DF8047B704780B45F
:1013100083B000AF786039607B685A693B681B0412
:101320001A437B685A6100BF0C37BD465DF8047BE9
:10133000704780B483B000AF786039607B685A69C9
:101340003B681A437B685A6100BF0C37BD465DF8A5
:10135000047B704780B483B000AF786039607B68ED
:101360003A689A6000BF0C37BD465DF8047B704751
:1013700080B483B000AF786039607B683A689A6166
:1013800000BF0C37BD465DF8047B704780B400AFEA
:10139000054B1B69044A23F00403136100BFBD46DB
:1013A0005DF8047B704700BF00ED00E080B483B0BF
:1013B00000AF78607B68FF225A6200BF0C37BD46E1
:1013C0005DF8047B704780B483B000AF78607B68C1
:1013D000CA225A627B6853225A6200BF0C37BD464C
:1013E0005DF8047B704780B483B000AF78603960EB
:1013F0007B689B6823F007023B681A437B689A600E
:1014000000BF0C37BD465DF8047B704780B500AF68
:10141000044B4FF400421A6100F030F800F070F80D
:1014200000BF80BD0040005880B500AF00F07CF8E0
:1014300000F094F80949002008F0EEFBFFF77BFD6F
:10144000012101201CF068FA00F0EAF900F0F8F937
:1014500000F07AFA00F090F800BF80BD6806002026
:1014600080B400AF00BFBD465DF8047B704780B517
:1014700000AF5020FFF764FE00BF80BD80B500AF15
:1014800000F004F800F01AF800BF80BD80B500AF8E
:10149000FFF7BEFE0346002B0DD0FFF7CCFE034640
:1014A000002B08D114F0B8FF14F0B6FFFFF78EFE42
:1014B000FFF79DFE00BF00BF80BD000080B500AFFC
:1014C0004FF48010FFF7CAFE3F210C48FFF742FFA0
:1014D0003F210A48FFF74CFF3F210848FFF7F4FE81
:1014E0003F210648FFF713FF3F210448FFF7FEFEA8
:1014F0003F210248FFF71DFF00BF80BD000C0058D0
:1015000080B582B000AF00201AF04CFE78607B6896
:10151000002B05D07B689B791846FFF725FE00BF9E
:1015200000BF0837BD4680BD80B500AFFFF798FF0C
:10153000FFF79DFF00F002F800BF80BD80B500AF4F
:101540000548FFF740FF00210348FFF74CFF024822
:10155000FFF72CFF00BF80BD0028004080B500AF22
:101560004FF40040FFF71EFE1CF0C4F90420FFF703
:10157000D1FD00BF80BD000080B588B000AF1BF07A
:101580006BFF114A002140201CF0C2FB0F4B3B6057
:101590000F4B7B603B4619460E481BF047F80E4B3D
:1015A000BB600E4BFB600E4B3B6140F23C537B61DA
:1015B00007F1080318461CF095F81BF047FF00BF21
:1015C0002037BD4680BD00BF65C601083407032033
:1015D000E5150008FD1500084C090320400803200C
:1015E000F801032080B483B000AF0346FB7100BF55
:1015F0000C37BD465DF8047B7047000080B588B0AD
:1016000000AF78607B685B680B33FB61FB691B880C
:101610009BB2A3F51243072B60D801A252F823F026
:10162000411600088316000891160008DD16000810
:10163000AD160008BD160008C5160008D51600082E
:1016400007F10C0318461AF043FF3B7B19467B7BDE
:101650001A46BB7B24481DF097FA3B7C1946234869
:101660001DF092FABB7D1946FB7D1A463B7E204851
:101670001DF08AFA1F481DF087FA786800F070F8AC
:101680002DE01D481DF080FA786800F043F826E050
:101690001A481DF0E9FAFB6902331968FB69023345
:1016A0005B681A4616481DF06FFA18E0FB690233B2
:1016B0001B68194613481DF067FA10E012481DF028
:1016C00063FA0CE0FB6902331B6819460F481DF0F2
:1016D0005BFA04E00E481DF057FA00E000BF00BFBF
:1016E0002037BD4680BD00BFD40A0208F80A0208B0
:1016F000140B02082C0B02084C0B0208700B02089A
:10170000C00B0208E80B0208240C0208480C02086F
:10171000840C020880B584B000AF78607B685B6899
:101720000B33FB60FB680233BB60BB681B78194658
:1017300008481DF029FABB681B78002B03D1064826
:101740001DF092FA03E005481DF08EFA00BF103735
:10175000BD4680BDA80C0208D80C0208140D020872
:1017600080B58AB000AF786007F1080300221A60E4
:101770005A609A60DA6000237B6200233B627B68D8
:101780005B680B33FB61FB690233BB61BB691B7890
:10179000002B28D11D481DF067FAFFF7DFFB0F2350
:1017A0003B727F23BB72FFF781FD7862796A18482C
:1017B0001DF0EAF97B6A9BB2BB82FFF769FD3862D4
:1017C000396A14481DF0E0F93B6A9BB2FB8207F1CD
:1017D000080318461AF066FE11F082FF002101206E
:1017E0001CF09AF80EE0BB691B78012B06D10A4861
:1017F0001DF0CAF97B6800221A7003E007481DF04B
:10180000C3F900BF2837BD4680BD00BF4C0D02089C
:10181000680D02088C0D0208AC0D0208E00D0208EC
:1018200080B500AF002013F08DFC012013F08AFC7E
:10183000022013F087FC012013F0BEFC00BF80BD26
:1018400080B500AF0121002013F0EAFC0121012046
:1018500013F0E6FC0121022013F0E2FC00BF80BD82
:1018600080B584B000AF786013F02EFEB8607B685E
:10187000FB60FB68B3F1FF3F0AD013F03DFE034667
:101880001A46FB681344FB6002E0FFF77FFD30BFA0
:1018900013F01AFE0246BB68D31AFA689A42F4D8CB
:1018A00000BF00BF1037BD4680BD80B500AF4FF010
:1018B000FF301CF0ABF800BF80BD80B400AF00BFAC
:1018C000BD465DF8047B704780B582B000AF78609C
:1018D000002140201CF03EFA00BF0837BD4680BD05
:1018E00080B582B000AF786002201CF09FFA00BF84
:1018F0000837BD4680BD80B582B000AF7860022059
:101900001CF0B4FA00BF0837BD4680BD80B582B078
:1019100000AF0346FB80FB88102B06D0102B0DDC9C
:10192000012B05D0022B06D008E012F01DFA06E0CC
:1019300012F020FA03E012F025FA00E000BF00BF29
:101940000837BD4680BD000080B500AF034B0122C3
:101950000349002008F0CCFB00BF80BD65190008DA
:101960007402002080B500AF154B1B88FF2B1ED8DA
:10197000144B1B780D2B0FD1134914481DF004F99B
:1019800000F028F80E4B00221A804FF480720021DC
:101990000D481DF060FA0AE0094B1B885A1C91B2F1
:1019A000074A11801A46074B1978074B9954084B80
:1019B00001220449002008F09BFB00BF80BD00BF4E
:1019C0007C030020740200207C020020140E020818
:1019D0006519000880B500AF1C491D48FEF7D0FB13
:1019E0000346002B09D11B481DF03EF91A4B1B4A38
:1019F0001A60194814F0A4FA26E019491448FEF7B1
:101A0000BFFB0346002B0AD116481DF02DF9124BDF
:101A10004FF0B0521A60104814F092FA14E01249D4
:101A20000B48FEF7ADFB0346002B09D10F481DF014
:101A30001BF9094B0E4A1A60074814F081FA03E0BB
:101A400003490C481DF0A0F800BF80BD240E020819
:101A50007C020020280E02086C0200200400001600
:101A6000300E0208340E02083C0E0208400E020836
:101A700001000016480E020880B48BB000AFF86079
:101A8000B9607A603B6001223B6802FA03F37B6134
:101A900000237B620CE07B6A5B007A6813441B883E
:101AA000B3F5405F01D9002352E07B6A01337B62CA
:101AB0007A6A7B699A42EED37A691346DB009B1AF5
:101AC0005B000733DB083B61FB68002B01D13B69FE
:101AD0003EE03A69BB689A4201D9002338E0FB68CE
:101AE0003B620023FB610023BB6100237B621EE09D
:101AF000FB699B037A6A520079680A44128813438F
:101B0000FB61BB690E33BB610BE0BB69083BBB618A
:101B1000FA69BB6922FA03F13B6A5A1C3A62CAB2FB
:101B20001A70BB69072BF0DC7B6A01337B627A6A2F
:101B30007B699A42DCD3BB69002B08DDBB69C3F12A
:101B40000803FA6902FA03F3DAB23B6A1A703B69D6
:101B500018462C37BD465DF8047B704780B48FB0C3
:101B600000AFF860B9607A603B6001223B6802FA1E
:101B700003F37B623B6C013B012202FA03F3013B5E
:101B80003B623B6A5B42FB6100237B6316E07A6841
:101B90007B6B134493F900301A46FB69934208DCCF
:101BA0007A687B6B134493F900301A463B6A934280
:101BB00001DA00235FE07B6B01337B637A6B7B6A26
:101BC0009A42E4D37B6A3A6C02FB03F30733DB08E7
:101BD000BB61FB68002B01D1BB694CE0BA69BB68F3
:101BE0009A4201D9002346E0FB683B630023FB6275
:101BF0000023BB6201223B6C02FA03F3013B7B61D1
:101C000000237B6324E0FA6A3B6C9A4079687B6B23
:101C10000B4493F90030DBB219467B690B40134348
:101C2000FB62BA6A3B6C1344BB620BE0BB6A083BC5
:101C3000BB62FA6ABB6A22FA03F13B6B5A1C3A6335
:101C4000CAB21A70BB6A072BF0D87B6B01337B6377
:101C50007A6B7B6A9A42D6D3BB6A002B0AD0BB6AE6
:101C6000C3F10803FA6A02FA03F13B6B5A1C3A63A8
:101C7000CAB21A70BB6918463C37BD465DF8047B92
:101C8000704780B48FB000AFF860B9607A603B6095
:101C90000122BB6802FA03F37B627B6A7A6802FB6B
:101CA00003F30733DB083B623A6A3B6C9A4201D983
:101CB00000235BE03B687B6300233B630023FB6204
:101CC0000023BB6201227B6802FA03F3013BFB6144
:101CD0007B68013B012202FA03F3BB6135E0FB6A3A
:101CE0001A027B6B591C79631B781343FB62BB6A36
:101CF0000833BB6221E0BA6A7B68D31ABB62FA6A16
:101D0000BB6ADA40FB6913407B617A69BB691340A7
:101D10005A427B6913437B61BB695A427B699A4291
:101D200001D1002322E007F1140319683B6B5A1C10
:101D30003A63FA6813444AB21A70BA6A7B689A42E4
:101D400003D33A6B7B6A9A42D5D33A6B7B6A9A4249
:101D5000C5D34FF0FF32BB6A02FA03F3DA43FB6AE2
:101D60001340002B01D0002300E03B6A18463C37AB
:101D7000BD465DF8047B704780B48DB000AFF8605D
:101D8000B9607A603B6001223B6802FA03F3BB61F1
:101D9000FB687B610023FB6216E0FB6A5B007A68EC
:101DA0001344B3F9003013F5006F08DDFB6A5B00E4
:101DB0007A681344B3F90030B3F5006F01DB0023F8
:101DC00081E0FB6A0133FB62FA6ABB699A42E4D3A1
:101DD00000237B6200233B620023BB620023FB6283
:101DE00052E07B6A5B007B62FB6A5B007A681344AB
:101DF000B3F90030FB61FB69002B06DAFB695B423B
:101E0000FB617B6A43F001037B62FB693B617B6A98
:101E1000DB017B623B6903F07F037A6A13437B62D9
:101E20003B69DB093B613B6A08333B623B69013339
:101E30007A6A02FA03F37B627B6A43F001037B62F6
:101E40003A693B6A134401333B6217E03B6A083B43
:101E50003B627B69002B0ED0BA6ABB689A4201D301
:101E6000002330E07A6A3B6A22FA03F17A69BB6A9E
:101E70001344CAB21A70BB6A0133BB623B6A072BB8
:101E8000E4D8FB6A0133FB62FA6ABB699A42A8D3C1
:101E90003B6A002B16D07B69002B10D0BA6ABB6856
:101EA0009A4201D300230EE03B6AC3F108037A6A29
:101EB00002FA03F17A69BB6A1344CAB21A70BB6AA8
:101EC0000133BB62BB6A18463437BD465DF8047BFC
:101ED0007047000080B5B6B000AFF860B9607A60B6
:101EE0003B6001227B6802FA03F3C7F8C030D7F8E1
:101EF000C0305B00C7F8BC30C04A7B6832F8133092
:101F0000C7F8B830D7F8C020D7F8B8301344C7F8AE
:101F1000B4303B68C7F8B0300023C7F8D4307BE05A
:101F200007F11403FA680221184605F05AF93B7DBF
:101F30001B027A7D1343C7F89C30D7F89C30A3F579
:101F4000C043023BDB0F5A1E46F202031340D7F890
:101F50009C20D31AC7F89830D7F89830A3F5C0431F
:101F6000023BDB0F5A1E46F202031340D7F89820BB
:101F7000D31AC7F89830D7F89830A3F54053013BEF
:101F8000DB0F5A1E43F201031340D7F89820D31AEF
:101F9000C7F89830D7F89C30A3F57043053BDB0FAA
:101FA000013BD7F898201343C7F89830D7F8D420CE
:101FB000D7F8C0309A4209D2D7F8D4305B00BA685B
:101FC0001344D7F8982092B21A8020E0D7F8D42092
:101FD000D7F8BC309A420DD2D7F8D420D7F8C03009
:101FE000D31A5B00D7F8B0201344D7F8982092B2E8
:101FF0001A800CE0D7F8D420D7F8BC30D31AD7F821
:10200000982092B25B00D8333B4423F8C02CD7F819
:10201000D4300133C7F8D430D7F8D420D7F8B4304F
:102020009A42FFF47DAF0123C7F8D030DAE00023F5
:10203000C7F8CC300023C7F8D430C7E0D7F8D42095
:10204000D7F8C0309A4207D2D7F8D4305B00BA68CC
:102050001344C7F8C8301CE0D7F8D420D7F8BC30F8
:102060009A420BD2D7F8D420D7F8C030D31A5B00ED
:10207000D7F8B0201344C7F8C8300AE0D7F8D42006
:10208000D7F8BC30D31A07F118025B001344C7F825
:10209000C830D7F8C8301B88C7F8AC30D7F8D42080
:1020A000D7F8CC30D31AC7F8A830D7F8AC30DB0B50
:1020B000013BC7F8A430D7F8CC20D7F8A430D31A06
:1020C000C7F8CC30D7F8D420D7F8D0309A4277D39D
:1020D000D7F8D420D7F8D030D31AD7F8C0209A42F6
:1020E0000AD9D7F8D420D7F8D030D31A5B00BA6811
:1020F0001344C7F8C43025E0D7F8D420D7F8D0303F
:10210000D31AD7F8BC209A420ED9D7F8D420D7F8E2
:10211000D030D21AD7F8C030D31A5B00D7F8B0202D
:102120001344C7F8C4300DE0D7F8D420D7F8D03026
:10213000D21AD7F8BC30D31A07F118025B00134447
:10214000C7F8C430D7F8C4301B88C7F8A030D7F818
:10215000A820D7F8D030134003F2FF135B0A5B428C
:10216000D7F8A4201340C7F8A430D7F8AC309AB2FF
:10217000D7F8A43099B2D7F8AC3098B2D7F8A030DD
:102180009BB243409BB20B409BB253409AB2D7F8EC
:10219000C8301A80D7F8A0309AB2D7F8A43099B2D4
:1021A000D7F8AC3098B2D7F8A0309BB243409BB27E
:1021B0000B409BB253409AB2D7F8C4301A8000E06B
:1021C00000BFD7F8D4300133C7F8D430D7F8D420C3
:1021D000D7F8B4309A42FFF431AFD7F8D0305B0073
:1021E000C7F8D030D7F8D020D7F8B8309A427FF669
:1021F0001EAF00BF00BFD837BD4680BDC822020851
:1022000080B489B000AFF860B9607A6001227B6861
:1022100002FA03F37B61FB68DB17BB610023FB6100
:1022200014E0FB695B00BA681344B3F900303B610A
:102230003B6903FB03F31A46FB681344FB60BA696E
:10224000FB681343BB61FB690133FB61FA697B697E
:102250009A42E6D3BB69DB171A46FB681343FB605F
:10226000074A7B6852F82330FA689A4294BF0123E8
:102270000023DBB218462437BD465DF8047B704767
:102280009C220208B0B584B000AFC7E90201C7E9DB
:102290000023D7E90023144603F10045C7E90045B0
:1022A000D7E90023D7E9020105F04AFC02460B46B4
:1022B000104619461037BD46B0BD80B483B000AF9C
:1022C000C7E90001D7E90001024601F10043C7E96F
:1022D0000023D7E90023104619460C37BD465DF8A8
:1022E000047B70472DE9B00F85B000AFC7E900014E
:1022F000D7E90001A1F5801B8246C7E900ABD7E909
:1023000000AB4FF000004FF000014FEA1B500021DE
:102310000146C1F30A010131C90AF960F9680020D8
:102320000C460546621E45F1FF33D7E9000100EA7D
:10233000020801EA0309C7E90089D7E9002310462A
:1023400019461437BD46BDE8B00F704780B582B05E
:1023500000AFC7E90001D7E90023D7E9000106F083
:1023600049F802460B46104619460837BD4680BD5F
:1023700080B582B000AFC7E90001D7E900234FF074
:102380000000054906F075FA02460B46104619464C
:102390000837BD4680BD00BF0000F03FB0B5AEB00D
:1023A00000AF7860396001223B6802FA03F3C7F896
:1023B0009C30D7F89C305B08C7F89830D7F8983035
:1023C000C7F8B0300123C7F8B4300223C7F8AC30E7
:1023D00028E1D7F8B0305B08C7F89430D7F8AC30B4
:1023E0005B08C7F890300023C7F8A8300023C7F86F
:1023F000A43002E1D7F8A420D7F894301344C7F8EA
:102400008C30D7F8AC20D7F8A83013445B008B4A47
:10241000DB001344D3E90023C7E92023D7F8AC201D
:10242000D7F8A83013445B000133844ADB0013441F
:10243000D3E90023C7E91E23D7F8A430C7F8A0309A
:10244000C8E0D7F8A030DB007A681344D3E9002352
:10245000C7E91C23D7F8A020D7F898301344DB0035
:102460007A681344D3E90023C7E91A23D7F8A020D8
:10247000D7F894301344DB007A681344D3E900237F
:10248000C7E91823D7F8A020D7F894301A44D7F812
:1024900098301344DB007A681344D3E90023C7E97A
:1024A0001623D7E91823C7E91423D7E91623C7E968
:1024B0001223D7E92023C7E91023D7E91E23C7E950
:1024C0000E23D7E91023D7E9140105F093FF044642
:1024D0000D46D7E90E23D7E9120105F08BFF02461E
:1024E0000B4620462946FFF7CDFEC7E90C01D7E988
:1024F0000E23D7E9140105F07DFF04460D46D7E908
:102500001023D7E9120105F075FF02460B4620465D
:10251000294605F015FBC7E90A01D7E90C23C7E9ED
:102520001823D7E90A23C7E91623D7E91823D7E9DF
:102530001C0105F005FBC7E90801D7E91623D7E917
:102540001A0105F0FDFAC7E90601D7F8A030DB0053
:102550007A68D118D7E90823C1E90023D7F8A02069
:10256000D7F898301344DB007A68D118D7E90623EE
:10257000C1E90023D7E91823D7E91C01FFF782FE40
:10258000C7E90401D7E91623D7E91A01FFF77AFE54
:10259000C7E90201D7F8A020D7F894301344DB0034
:1025A0007A68D118D7E90423C1E90023D7F8A0201D
:1025B000D7F894301A44D7F898301344DB007A687F
:1025C000D118D7E90223C1E90023D7F8A03001339D
:1025D000C7F8A030D7F8A020D7F88C309A42FFF483
:1025E00030AFD7F8A8300133C7F8A830D7F8A42007
:1025F000D7F8B0301344C7F8A430D7F8A820D7F8DC
:1026000090309A42FFF4F6AED7F89430C7F8B03065
:10261000D7F8B4300133C7F8B430D7F8AC305B002A
:10262000C7F8AC30D7F8B4203B689A42FFF4D1AE7B
:1026300000BF00BFB837BD46B0BD00BFA023020831
:10264000B0B5B0B000AF7860396001223B6802FAE3
:1026500003F3C7F8A4300123C7F8B830D7F8A43083
:10266000C7F8B430D7F8A4305B08C7F8A0303B688F
:10267000C7F8BC302BE1D7F8B4305B08C7F894300A
:10268000D7F8B8305B00C7F890300023C7F8B030F7
:102690000023C7F8AC3006E1D7F8AC20D7F8B83043
:1026A0001344C7F88C30D7F89420D7F8B0301344CF
:1026B0005B00A24ADB001344D3E90023C7E92023CF
:1026C000D7F89420D7F8B03013445B0001339B4A0D
:1026D000DB001344D3E9002310461946FFF7EDFD54
:1026E000C7E91E01D7F8AC30C7F8A830C8E0D7F862
:1026F000A830DB007A681344D3E90023C7E91C2320
:10270000D7F8A820D7F8A0301344DB007A68134428
:10271000D3E90023C7E91A23D7F8A820D7F8B8309F
:102720001344DB007A681344D3E90023C7E9182374
:10273000D7F8A820D7F8B8301A44D7F8A0301344F7
:10274000DB007A681344D3E90023C7E91623D7E9ED
:102750001823D7E91C0105F0F3F9C7E91401D7E9FB
:102760001623D7E91A0105F0EBF9C7E91201D7F8EA
:10277000A830DB007A68D118D7E91423C1E9002317
:10278000D7F8A820D7F8A0301344DB007A68D11816
:10279000D7E91223C1E90023D7E91823D7E91C019F
:1027A000FFF770FDC7E91001D7E91623D7E91A0131
:1027B000FFF768FDC7E90E01D7E91023C7E91C231D
:1027C000D7E90E23C7E91A23D7E91C23C7E90C234D
:1027D000D7E91A23C7E90A23D7E92023C7E9082341
:1027E000D7E91E23C7E90623D7E90823D7E90C0157
:1027F00005F000FE04460D46D7E90623D7E90A0195
:1028000005F0F8FD02460B4620462946FFF73AFD43
:10281000C7E90401D7E90623D7E90C0105F0EAFD71
:1028200004460D46D7E90823D7E90A0105F0E2FD81
:1028300002460B462046294605F082F9C7E9020107
:10284000D7F8A820D7F8B8301344DB007A68D1183D
:10285000D7E90423C1E90023D7F8A820D7F8B83076
:102860001A44D7F8A0301344DB007A68D118D7E9AE
:102870000223C1E90023D7F8A8300133C7F8A830F4
:10288000D7F8A820D7F88C309A42FFF430AFD7F8A9
:10289000B0300133C7F8B030D7F8AC20D7F890305B
:1028A0001344C7F8AC30D7F8AC20D7F8A0309A4220
:1028B000FFF4F2AED7F89030C7F8B830D7F89430BC
:1028C000C7F8B430D7F8BC30013BC7F8BC30D7F8F4
:1028D000BC30012B3FF6CFAE3B68002B2AD0184A04
:1028E0003B68DB001344D3E90023C7E92623002318
:1028F000C7F8BC3018E0D7F8BC30DB007A68134466
:10290000D3E90001D7F8BC30DB007A68D418D7E9E6
:10291000262305F06FFD02460B46C4E90023D7F8D5
:10292000BC300133C7F8BC30D7F8BC20D7F8A4308E
:102930009A42E0D300BFC037BD46B0BDA023020815
:10294000A0630208B0B586B000AFF860B9607A60E5
:1029500001227B6802FA03F33B6100237B6118E0EC
:102960007B69DB00FA681344D3E900017B69DB0073
:10297000BA681344D3E900237C69E400FD682C4461
:1029800005F0DEF802460B46C4E900237B690133FB
:102990007B617A693B699A42E2D300BF00BF183776
:1029A000BD46B0BDB0B586B000AFF860B9607A6022
:1029B00001227B6802FA03F33B6100237B6118E08C
:1029C0007B69DB00FA681344D3E900017B69DB0013
:1029D000BA681344D3E900237C69E400FD682C4401
:1029E000FFF750FC02460B46C4E900237B69013324
:1029F0007B617A693B699A42E2D300BF00BF183716
:102A0000BD46B0BD90B585B000AF78603960012299
:102A10003B6802FA03F3BB600023FB6014E0FB6831
:102A2000DB007A681344D3E90023F968C9007868A9
:102A3000441810461946FFF740FC02460B46C4E90D
:102A40000023FB680133FB60FA68BB689A42E6D357
:102A500000BF00BF1437BD4690BD90B585B000AF34
:102A60007860396001223B6802FA03F3BB60BB68FF
:102A70005B08FB6014E0FB68DB007A681344D3E971
:102A80000023F968C9007868441810461946FFF712
:102A900014FC02460B46C4E90023FB680133FB60CB
:102AA000FA68BB689A42E6D300BF00BF1437BD4640
:102AB00090BDB0B59CB000AFF860B9607A600122FB
:102AC0007B6802FA03F3BB66BB6E5B087B66002380
:102AD000FB6674E0FB6EDB00FA681344D3E9002365
:102AE000C7E91623FA6E7B6E1344DB00FA681344C1
:102AF000D3E90023C7E91423FB6EDB00BA68134453
:102B0000D3E90023C7E91223FA6E7B6E1344DB007E
:102B1000BA681344D3E90023C7E91023D7E9162381
:102B2000C7E90E23D7E91423C7E90C23D7E91223F9
:102B3000C7E90A23D7E91023C7E90823D7E90A23FD
:102B4000D7E90E0105F056FC04460D46D7E90823E7
:102B5000D7E90C0105F04EFC02460B4620462946FB
:102B6000FFF790FBC7E90601D7E90823D7E90E0173
:102B700005F040FC04460D46D7E90A23D7E90C01CD
:102B800005F038FC02460B462046294604F0D8FFE3
:102B9000C7E90401FB6EDB00FA68D118D7E9062308
:102BA000C1E90023FA6E7B6E1344DB00FA68D1188A
:102BB000D7E90423C1E90023FB6E0133FB66FA6EFB
:102BC0007B6E9A4286D300BF00BF7037BD46B0BD52
:102BD000B0B59CB000AFF860B9607A6001227B6844
:102BE00002FA03F3BB66BB6E5B087B660023FB66E1
:102BF00078E0FB6EDB00FA681344D3E90023C7E9F1
:102C00001623FA6E7B6E1344DB00FA681344D3E993
:102C10000023C7E91423FB6EDB00BA681344D3E931
:102C20000023C7E91223FA6E7B6E1344DB00BA68F7
:102C30001344D3E9002310461946FFF73EFBC7E9CA
:102C40001001D7E91623C7E90E23D7E91423C7E9F2
:102C50000C23D7E91223C7E90A23D7E91023C7E9D0
:102C60000823D7E90A23D7E90E0105F0C3FB044680
:102C70000D46D7E90823D7E90C0105F0BBFB024656
:102C80000B4620462946FFF7FDFAC7E90601D7E9BA
:102C90000823D7E90E0105F0ADFB04460D46D7E940
:102CA0000A23D7E90C0105F0A5FB02460B46204696
:102CB000294604F045FFC7E90401FB6EDB00FA6812
:102CC000D118D7E90623C1E90023FA6E7B6E1344BD
:102CD000DB00FA68D118D7E90423C1E90023FB6EB1
:102CE0000133FB66FA6E7B6E9A4282D300BF00BF4F
:102CF0007037BD46B0BDF0B58BB000AF78603960BD
:102D000001223B6802FA03F33B623B6A5B08FB610A
:102D100000237B6238E07B6ADB007A681344D3E9E6
:102D20000023C7E904237A6AFB691344DB007A684D
:102D30001344D3E90023C7E90223D7E90401FFF7CD
:102D400005FB04460D46D7E90201FFF7FFFA0246EC
:102D50000B46796AC900786846182046294604F06F
:102D6000EFFE02460B46C6E900237A6AFB6913446C
:102D7000DB007A68D1184FF000024FF00003C1E980
:102D800000237B6A01337B627A6AFB699A42C2D371
:102D900000BF00BF2C37BD46F0BD90B587B000AF77
:102DA000F860C7E900230122BB6A02FA03F33B6122
:102DB00000237B6114E07B69DB00FA681344D3E9EC
:102DC00000017B69DB00FA68D418D7E9002305F01D
:102DD00011FB02460B46C4E900237B6901337B618A
:102DE0007A693B699A42E6D300BF00BF1C37BD46F3
:102DF00090BD2DE9B04390B000AFF860B9607A6043
:102E00003B6001223B6802FA03F3BB63BB6B5B08C8
:102E10007B630023FB635CE0FB6BDB00BA6813445D
:102E2000D3E90023C7E90A23FA6B7B6B1344DB0069
:102E3000BA681344D3E90023C7E90823FB6BDB001E
:102E40007A681344D3E90023C7E90623FA6B7B6B46
:102E50001344DB007A681344D3E90023C7E9042351
:102E6000D7E90A01FFF772FA04460D46D7E90801CF
:102E7000FFF76CFA02460B462046294604F060FE36
:102E800004460D46D7E90601FFF760FA80468946F9
:102E9000D7E90401FFF75AFA02460B464046494675
:102EA00004F04EFE02460B462046294604F048FE3A
:102EB00002460B46F96BC900F868441810461946DB
:102EC000FFF756FA02460B46C4E90023FB6B0133B9
:102ED000FB63FA6B7B6B9A429ED300BF00BF403707
:102EE000BD46BDE8B083B0B5B8B000AFF860B9601A
:102EF0007A603B600122D7F8F43002FA03F3C7F896
:102F0000D830D7F8D8305B08C7F8D4300023C7F8DA
:102F1000DC3007E1D7F8DC30DB00BA681344D3E9D2
:102F20000023C7E93223D7F8DC20D7F8D430134484
:102F3000DB00BA681344D3E90023C7E93023D7F88C
:102F4000DC30DB007A681344D3E90023C7E92E2381
:102F5000D7F8DC20D7F8D4301344DB007A68134468
:102F6000D3E90023C7E92C23D7F8DC30DB003A682B
:102F70001344D3E90023C7E92A23D7F8DC20D7F884
:102F8000D4301344DB003A681344D3E90023C7E983
:102F90002823D7F8DC30DB00D7F8F0201344D3E93E
:102FA0000023C7E92623D7F8DC20D7F8D430134410
:102FB000DB00D7F8F0201344D3E90023C7E924232A
:102FC000D7E93223C7E92223D7E93023C7E92023F1
:102FD000D7E92A23C7E91E23D7E92801FFF76DF9AE
:102FE000C7E91C01D7E91E23D7E9220105F002FA3F
:102FF00004460D46D7E91C23D7E9200105F0FAF96C
:1030000002460B4620462946FFF73CF9C7E91A015C
:10301000D7E91C23D7E9220105F0ECF904460D4657
:10302000D7E91E23D7E9200105F0E4F902460B4653
:103030002046294604F084FDC7E91801D7E91A2380
:10304000C7E91623D7E91823C7E91423D7E92E23A4
:10305000C7E91223D7E92C23C7E91023D7E9262390
:10306000C7E90E23D7E92401FFF727F9C7E90C01C7
:10307000D7E90E23D7E9120105F0BCF904460D4645
:10308000D7E90C23D7E9100105F0B4F902460B4645
:1030900020462946FFF7F6F8C7E90A01D7E90C23CD
:1030A000D7E9120105F0A6F904460D46D7E90E232B
:1030B000D7E9100105F09EF902460B462046294645
:1030C00004F03EFDC7E90801D7E90A23C7E9062352
:1030D000D7E90823C7E90423D7F8DC30DB00FA6816
:1030E000D418D7E90623D7E9160104F029FD0246D2
:1030F0000B46C4E90023D7F8DC20D7F8D4301344BA
:10310000DB00FA68D418D7E90423D7E9140104F0E6
:1031100017FD02460B46C4E90023D7F8DC30013323
:10312000C7F8DC30D7F8DC20D7F8D4309A42FFF467
:10313000F1AE00BF00BFE037BD46B0BDB0B588B04E
:1031400000AFF860B9607A6001227B6802FA03F38D
:10315000BB61BB695B087B610023FB6132E0FB69FB
:10316000DB00FA681344D3E90001FB69DB00BA68AD
:103170001344D3E90023FC69E400FD682C4405F006
:1031800039F902460B46C4E90023FA697B69134406
:10319000DB00FA681344D3E90001FB69DB00BA687D
:1031A0001344D3E90023FD697C692C44E400FD68E5
:1031B0002C4405F01FF902460B46C4E90023FB69C5
:1031C0000133FB61FA697B699A42C8D300BF00BF33
:1031D0002037BD46B0BD90B58BB000AFF860B96088
:1031E0007A6001227B6802FA03F33B623B6A5B0868
:1031F000FB6100237B6236E07B6ADB00BA68134424
:10320000D3E9002310461946FFF7B2F8C7E90401D5
:103210007B6ADB00FA681344D3E900017B6ADB00B8
:10322000FA68D418D7E9042305F0E4F802460B46FF
:10323000C4E900237A6AFB691344DB00FA6813448B
:10324000D3E900017A6AFB691344DB00FA68D418F9
:10325000D7E9042305F0CEF802460B46C4E9002363
:103260007B6A01337B627A6AFB699A42C4D300BFEE
:1032700000BF2C37BD4690BDB0B5B6B000AFF8600A
:10328000B9607A603B6001223B6802FA03F3C7F839
:10329000D030D7F8D0305B08C7F8CC300023C7F85F
:1032A000D43035E1D7F8D430DB00FA681344D3E9E1
:1032B0000023C7E93023D7F8D420D7F8CC30134403
:1032C000DB00FA681344D3E90023C7E92E23D7F8BB
:1032D000D430DB00BA681344D3E90023C7E92C23B8
:1032E000D7F8D420D7F8CC301344DB00BA681344A5
:1032F000D3E90023C7E92A23D7F8D430DB007A6862
:103300001344D3E90023C7E92823D7F8D420D7F8FA
:10331000CC301344DB007A681344D3E90023C7E9B7
:103320002623D7E92C23C7E92423D7E92A23C7E991
:103330002223D7E93023C7E92023D7E92E23C7E981
:103340001E23D7E92001FFF701F804460D46D7E90F
:103350001E01FEF7FBFF02460B462046294604F0FD
:10336000EFFBC7E91C01D7E91C01FFF701F8C7E92A
:103370001C01D7E91C23D7E9200105F03BF8C7E978
:103380002001D7E91E01FEF798FFD7E91C2305F0BD
:1033900031F8C7E91E01D7E92023D7E9240105F058
:1033A00029F804460D46D7E91E23D7E9220105F086
:1033B00021F802460B4620462946FEF763FFC7E97F
:1033C0001A01D7E91E23D7E9240105F013F80446B2
:1033D0000D46D7E92023D7E9220105F00BF8024674
:1033E0000B462046294604F0ABFBC7E91801D7E994
:1033F0001A23C7E91623D7E91823C7E91423D7E905
:103400001623C7E91223D7E91423C7E91023D7E904
:103410002C23C7E90E23D7E92A01FEF74EFFC7E99F
:103420000C01D7E90E23D7E9120104F0E3FF0446AB
:103430000D46D7E90C23D7E9100104F0DBFF024663
:103440000B4620462946FEF71DFFC7E90A01D7E9CA
:103450000C23D7E9120104F0CDFF04460D46D7E94D
:103460000E23D7E9100104F0C5FF02460B462046A3
:10347000294604F065FBC7E90801D7E90A23C7E933
:103480002C23D7E90823C7E92A23D7E92C23D7E936
:103490002801FEF7F7FEC7E90601D7E92A23D7E995
:1034A0002601FEF7EFFEC7E90401D7F8D430DB00B0
:1034B0007A68D118D7E90623C1E90023D7F8D420C8
:1034C000D7F8CC301344DB007A68D118D7E904234D
:1034D000C1E90023D7F8D430DB00BA68D118D7E9A6
:1034E0001623C1E90023D7F8D420D7F8CC301344F1
:1034F000DB00BA68D418D7E91401FEF7DEFE0246F5
:103500000B46C4E90023D7F8D4300133C7F8D430D0
:10351000D7F8D420D7F8CC309A42FFF4C3AE00BF1E
:1035200000BFD837BD46B0BDB0B5A8B000AFF86099
:10353000B9607A603B6001223B6802FA03F3C7F886
:103540009830D7F898305B08C7F89430D7F89430A3
:103550005B08C7F890307B68D3E90023F968C1E9BC
:103560000023D7F89430DB007A681344D3E90023B2
:10357000B968C1E900230023C7F89C30F7E0D7F809
:103580009C301B017A681344D3E90023C7E9222346
:10359000D7F89C305A00D7F894301344DB007A688F
:1035A0001344D3E90023C7E92023D7F89C301B013B
:1035B00008337A681344D3E90023C7E91E23D7F8F8
:1035C0009C305A00D7F8943013440133DB007A68FA
:1035D0001344D3E90023C7E91C23D7E91E23D7E905
:1035E000220104F0ADFAC7E91A01D7E91C23D7E993
:1035F000200104F0A5FAC7E91801D7E91A23C7E9A1
:103600001623D7E91823C7E91423D7F89C30DB0029
:10361000FA68D418D7E91601FEF764FE02460B4695
:10362000C4E90023D7F89C20D7F890301344DB007E
:10363000FA68D418D7E91401FEF754FE02460B4687
:10364000C4E90023D7E91E23D7E92201FEF71AFEB9
:10365000C7E91201D7E91C23D7E92001FEF712FEC2
:10366000C7E91001D7E91223C7E91623D7E91023C8
:10367000C7E91423D7E91623C7E90E23D7E9142392
:10368000C7E90C23D7F89C20D7F8943013445B008B
:103690003D4ADB001344D3E90023C7E90A23D7F8E6
:1036A0009C20D7F8943013445B000133364ADB008A
:1036B0001344D3E9002310461946FEF7FEFDC7E97F
:1036C0000801D7E90A23D7E90E0104F093FE044666
:1036D0000D46D7E90823D7E90C0104F08BFE02461A
:1036E0000B4620462946FEF7CDFDC7E90601D7E97E
:1036F0000823D7E90E0104F07DFE04460D46D7E904
:103700000A23D7E90C0104F075FE02460B46204659
:10371000294604F015FAC7E90401D7E90623C7E9E9
:103720001623D7E90423C7E91423D7F89C30DB001C
:10373000BA68D418D7E91601FEF7D4FD02460B4645
:10374000C4E90023D7F89C20D7F890301344DB005D
:10375000BA68D418D7E91401FEF7C4FD02460B4637
:10376000C4E90023D7F89C300133C7F89C30D7F860
:103770009C20D7F890309A42FFF401AF00BF00BF01
:10378000A037BD46B0BD00BFA0230208B0B5A8B0A9
:1037900000AFF860B9607A603B6001223B6802FAD2
:1037A00003F3C7F89830D7F898305B08C7F894301F
:1037B000D7F894305B08C7F89030BB68D3E9002392
:1037C000F968C1E90023D7F89430DB00FA68D11812
:1037D0007B68D3E90023C1E900230023C7F89C30AC
:1037E000DBE0D7F89C30DB00BA681344D3E9002350
:1037F000C7E92223D7F89C20D7F890301344DB0088
:10380000BA681344D3E90023C7E92023D7F89C30D2
:10381000DB007A681344D3E90023C7E91E23D7F8F5
:103820009C20D7F890301344DB007A681344D3E926
:103830000023C7E91C23D7F89C20D7F89430134401
:103840005B005C4ADB001344D3E90023C7E91A2379
:10385000D7F89C20D7F8943013445B000133554AC5
:10386000DB001344D3E90023C7E91823D7E91A235F
:10387000D7E91E0104F0BEFD04460D46D7E9182322
:10388000D7E91C0104F0B6FD02460B462046294646
:10389000FEF7F8FCC7E91601D7E91823D7E91E019E
:1038A00004F0A8FD04460D46D7E91A23D7E91C0108
:1038B00004F0A0FD02460B462046294604F040F9DC
:1038C000C7E91401D7E91623C7E91223D7E914235E
:1038D000C7E91023D7E91223D7E9220104F030F910
:1038E000C7E90E01D7E91023D7E9200104F028F930
:1038F000C7E90C01D7E90E23C7E90A23D7E90C234E
:10390000C7E90823D7F89C301B01FA68D118D7E91A
:103910000A23C1E90023D7F89C305A00D7F8943025
:103920001344DB00FA68D118D7E90823C1E9002362
:10393000D7E91223D7E92201FEF7A4FCC7E9060163
:10394000D7E91023D7E92001FEF79CFCC7E9040161
:10395000D7E90623C7E90A23D7E90423C7E90823DF
:10396000D7F89C301B010833FA68D118D7E90A232D
:10397000C1E90023D7F89C305A00D7F8943013449B
:103980000133DB00FA68D118D7E90823C1E9002325
:10399000D7F89C300133C7F89C30D7F89C20D7F873
:1039A00090309A42FFF41DAF00BF00BFA037BD4664
:1039B000B0BD00BFA02302082DE9F00FADF6883D91
:1039C00000AF07F68833A3F5F673186007F688335F
:1039D000A3F5F6731B68D3E9002307F67831C1E934
:1039E000002307F68833A3F5F6731B68D3E9022397
:1039F00007F53761C1E9002307F68833A3F5F673AD
:103A00001B68D3E9042307F66831C1E9002307F6F0
:103A10008833A3F5F6731B68D3E9062307F53661EF
:103A2000C1E9002307F68833A3F5F6731B68D3E9D1
:103A3000082307F65831C1E9002307F68833A3F5B8
:103A4000F6731B68D3E90A2307F53561C1E9002342
:103A500007F68833A3F5F6731B68D3E90C2307F642
:103A60004831C1E9002307F68833A3F5F6731B68D4
:103A7000D3E90E2307F53461C1E9002307F6883343
:103A8000A3F5F6731B68D3E9102307F63831C1E9B3
:103A9000002307F68833A3F5F6731B68D3E91223D6
:103AA00007F53361C1E9002307F68833A3F5F67300
:103AB0001B68D3E9142307F62831C1E9002307F670
:103AC0008833A3F5F6731B68D3E9162307F5326133
:103AD000C1E9002307F68833A3F5F6731B68D3E921
:103AE000182307F61831C1E9002307F68833A3F538
:103AF000F6731B68D3E91A2307F53161C1E9002386
:103B000007F68833A3F5F6731B68D3E91C2307F681
:103B10000831C1E9002307F68833A3F5F6731B6863
:103B2000D3E91E2307F53061C1E9002307F6883386
:103B3000A3F5F6731B68D3E9202307F6F821C1E942
:103B4000002307F68833A3F5F6731B68D3E9222315
:103B500007F52F61C1E9002307F68833A3F5F67353
:103B60001B68D3E9242307F6E821C1E9002307F6FF
:103B70008833A3F5F6731B68D3E9262307F52E6176
:103B8000C1E9002307F68833A3F5F6731B68D3E970
:103B9000282307F6D821C1E9002307F68833A3F5C7
:103BA000F6731B68D3E92A2307F52D61C1E90023C9
:103BB00007F68833A3F5F6731B68D3E92C2307F6C1
:103BC000C821C1E9002307F68833A3F5F6731B6803
:103BD000D3E92E2307F52C61C1E9002307F68833CA
:103BE000A3F5F6731B68D3E9302307F6B821C1E9C2
:103BF00000230023C7F8843B02F0F7BD07F67833B3
:103C0000D3E9000107F53563D3E9002380EA020612
:103C1000C7F890694B40C7F8943907F62833D3E9C1
:103C20000023D7F890195140C7F88819D7F894198C
:103C30004B40C7F88C3907F53063D3E90023D7F838
:103C400088195140C7F88019D7F88C194B40C7F82C
:103C5000843907F6D823D3E90023D7F880195140D7
:103C6000C7F84815D7F884194B40C7F84C3507F505
:103C7000A963D3E9002307F52B61C1E9002307F508
:103C80003763D3E9000107F64833D3E9002380EA1C
:103C90000206C7F878694B40C7F87C3907F53263EC
:103CA000D3E90023D7F878195140C7F87019D7F82D
:103CB0007C194B40C7F8743907F6F823D3E9002381
:103CC000D7F870195140C7F86819D7F874194B40E4
:103CD000C7F86C3907F52D63D3E90023D7F86819C5
:103CE0005140C7F84015D7F86C194B40C7F8443518
:103CF00007F5A863D3E9002307F6A821C1E900234B
:103D000007F66833D3E9000107F53463D3E90023EC
:103D100080EA0206C7F860694B40C7F8643907F6C5
:103D20001833D3E90023D7F860195140C7F8581960
:103D3000D7F864194B40C7F85C3907F52F63D3E90E
:103D40000023D7F858195140C7F85019D7F85C1913
:103D50004B40C7F8543907F6C823D3E90023D7F8F6
:103D600050195140C7F83815D7F854194B40C7F8C7
:103D70003C3507F5A763D3E9002307F52A61C1E9BC
:103D8000002307F53663D3E9000107F63833D3E99A
:103D9000002380EA0206C7F848694B40C7F84C394F
:103DA00007F53163D3E90023D7F848195140C7F824
:103DB0004019D7F84C194B40C7F8443907F6E823A7
:103DC000D3E90023D7F840195140C7F83819D7F87C
:103DD00044194B40C7F83C3907F52C63D3E900235D
:103DE000D7F838195140C7F83015D7F83C194B406F
:103DF000C7F8343507F5A663D3E9002307F6982101
:103E0000C1E9002307F65833D3E9000107F533630E
:103E1000D3E9002380EA0206C7F830694B40C7F8AF
:103E2000343907F60833D3E90023D7F83019514065
:103E3000C7F82819D7F834194B40C7F82C3907F5BB
:103E40002E63D3E90023D7F828195140C7F8201969
:103E5000D7F82C194B40C7F8243907F6B823D3E913
:103E60000023D7F820195140C7F82815D7F824198E
:103E70004B40C7F82C3507F5A563D3E9002307F5B8
:103E80002961C1E90023D7F8AC3ADA0FD7F8A83A8C
:103E90005B001343C7F81839D7F8A83ADA0FD7F8F8
:103EA000AC3A5B001343C7F81C3907F52963D3E923
:103EB0000023D7F818195140C7F82015D7F81C1956
:103EC0004B40C7F8243507F5A463D3E9002307F670
:103ED0008821C1E90023D7F8A43ADA0FD7F8A03A2D
:103EE0005B001343C7F81039D7F8A03ADA0FD7F8B8
:103EF000A43A5B001343C7F8143907F52B63D3E9E1
:103F00000023D7F810195140C7F81815D7F814191D
:103F10004B40C7F81C3507F5A363D3E9002307F529
:103F20002861C1E90023D7F89C3ADA0FD7F8983A0C
:103F30005B001343C7F80839D7F8983ADA0FD7F877
:103F40009C3A5B001343C7F80C3907F6A823D3E962
:103F50000023D7F808195140C7F81015D7F80C19E5
:103F60004B40C7F8143507F5A263D3E9002307F6E1
:103F70007821C1E90023D7F8943ADA0FD7F8903ABC
:103F80005B001343C7F80039D7F8903ADA0FD7F837
:103F9000943A5B001343C7F8043907F52A63D3E961
:103FA0000023D7F800195140C7F80815D7F80419AD
:103FB0004B40C7F80C3507F5A163D3E9002307F59B
:103FC0002761C1E90023D7F8B43ADA0FD7F8B03A3D
:103FD0005B001343C7F8F838D7F8B03ADA0FD7F8D0
:103FE000B43A5B001343C7F8FC3807F69823D3E9CB
:103FF0000023D7F8F8185140C7F80015D7F8FC1877
:104000004B40C7F8043507F5A063D3E9002307F652
:104010006821C1E9002307F67833D3E9000107F6E8
:104020008823D3E9002380EA0206C7F8F8644B40EE
:10403000C7F8FC3407F59F63D3E9002307F678310E
:10404000C1E9002307F67833D3E9002307F52B6194
:10405000C1E9002307F64833D3E9000107F52863D7
:10406000D3E9002380EA0206C7F8F0644B40C7F8A2
:10407000F43407F59E63D3E9002307F64831C1E91C
:104080000023D7F84C3B1A03D7F8483B1B0D1343CA
:10409000C7F8E834D7F8483B1A03D7F84C3B1B0D58
:1040A0001343C7F8EC3407F59D63D3E9002307F603
:1040B000A821C1E9002307F61833D3E9000107F668
:1040C0007823D3E9002380EA0206C7F8E0644B4076
:1040D000C7F8E43407F59C63D3E9002307F61831E9
:1040E000C1E90023D7F81C3BDA02D7F8183B5B0D77
:1040F0001343C7F8D834D7F8183BDA02D7F81C3B7B
:104100005B0D1343C7F8DC3407F59B63D3E9002349
:1041100007F52A61C1E9002307F6E823D3E9000186
:1041200007F52763D3E9002380EA0206C7F8D064C5
:104130004B40C7F8D43407F59A63D3E9002307F658
:10414000E821C1E90023D7F8EC3ADA0AD7F8E83ACF
:104150005B051343C7F8C834D7F8E83ADA0AD7F84A
:10416000EC3A5B051343C7F8CC3407F59963D3E900
:10417000002307F69821C1E9002307F6B823D3E905
:10418000000107F66823D3E9002380EA0206C7F896
:10419000C0644B40C7F8C43407F59863D3E90023E3
:1041A00007F6B821C1E90023D7F8BC3A9A0CD7F832
:1041B000B83A9B031343C7F8B834D7F8B83A9A0C07
:1041C000D7F8BC3A9B031343C7F8BC3407F5976391
:1041D000D3E9002307F52961C1E9002307F6A823E5
:1041E000D3E90023D143C7F8F018DB43C7F8F4380C
:1041F00007F52A63D3E90023D7F8F0181140C7F870
:10420000E818D7F8F4180B40C7F8EC3807F52B631B
:10421000D3E90023D7F8E8185140C7F8B014D7F80D
:10422000EC184B40C7F8B43407F59663D3E9002384
:1042300007F52661C1E90023FD4AD7F8843BDB007E
:104240001344D3E9000107F52663D3E9002382EA8A
:104250000006C7F8A8644B40C7F8AC3407F595636F
:10426000D3E9002307F52661C1E9002307F52A6396
:10427000D3E90023D143C7F8E018DB43C7F8E4389B
:1042800007F69823D3E90023D7F8E0181140C7F8C0
:10429000D818D7F8E4180B40C7F8DC3807F6A8237D
:1042A000D3E90023D7F8D8185140C7F8A014D7F89D
:1042B000DC184B40C7F8A43407F59463D3E9002316
:1042C00007F65821C1E9002307F69823D3E9002314
:1042D000D143C7F8D018DB43C7F8D43807F52963B2
:1042E000D3E90023D7F8D0181140C7F8C818D7F879
:1042F000D4180B40C7F8CC3807F52A63D3E900235C
:10430000D7F8C8185140C7F89814D7F8CC184B40C4
:10431000C7F89C3407F59363D3E9002307F52561BB
:10432000C1E9002307F52963D3E90023D143C7F886
:10433000C018DB43C7F8C43807F52B63D3E9002363
:10434000D7F8C0181140C7F8B818D7F8C4180B40F0
:10435000C7F8BC3807F69823D3E90023D7F8B81874
:104360005140C7F89014D7F8BC184B40C7F89434A4
:1043700007F59263D3E9002307F64821C1E900233A
:1043800007F52B63D3E90023D143C7F8B018DB430B
:10439000C7F8B43807F6A823D3E90023D7F8B01834
:1043A0001140C7F8A818D7F8B4180B40C7F8AC38B4
:1043B00007F52963D3E90023D7F8A8185140C7F8B7
:1043C0008814D7F8AC184B40C7F88C3407F59163C4
:1043D000D3E9002307F52461C1E9002307F536631B
:1043E000D3E9000107F52763D3E9002380EA020639
:1043F000C7F880644B40C7F8843407F59063D3E96D
:10440000002307F53661C1E90023D7F8643B1A0998
:10441000D7F8603B1B071343C7F87834D7F8603BE5
:104420001A09D7F8643B1B071343C7F87C3407F518
:104430008F63D3E9002307F52B61C1E9002307F55A
:104440003363D3E9000107F66823D3E9002380EA48
:104450000206C7F870644B40C7F8743407F58E63E2
:10446000D3E9002307F53361C1E90023D7F8343BD2
:104470001A0BD7F8303B1B051343C7F86834D7F83D
:10448000303B1A0BD7F8343B1B051343C7F86C3489
:1044900007F58D63D3E9002307F6A821C1E90023BE
:1044A00007F62833D3E9000107F68823D3E9002370
:1044B00080EA0206C7F860644B40C7F8643407F529
:1044C0008C63D3E9002307F62831C1E90023D7F82C
:1044D0002C3B5A0FD7F8283BDB001343C7F858345E
:1044E000D7F8283B5A0FD7F82C3BDB001343C7F80B
:1044F0005C3407F58B63D3E9002307F52A61C1E932
:10450000002307F6F823D3E9000107F52863D3E970
:10451000002380EA0206C7F850644B40C7F85434C1
:1045200007F58A63D3E9002307F6F821C1E90023E0
:10453000D7F8FC3A5A03D7F8F83ADB0C1343C7F81C
:104540004834D7F8F83A5A03D7F8FC3ADB0C13434F
:10455000C7F84C3407F58963D3E9002307F698219F
:10456000C1E9002307F6C823D3E9000107F6782341
:10457000D3E9002380EA0206C7F840644B40C7F83D
:10458000443407F58863D3E9002307F6C821C1E95D
:104590000023D7F8CC3A5A07D7F8C83ADB081343B8
:1045A000C7F83834D7F8C83A5A07D7F8CC3ADB08F6
:1045B0001343C7F83C3407F58763D3E9002307F5B5
:1045C0002961C1E9002307F6A823D3E90023D143D9
:1045D000C7F8A018DB43C7F8A43807F52A63D3E966
:1045E0000023D7F8A0181140C7F89818D7F8A418D6
:1045F0000B40C7F89C3807F52B63D3E90023D7F8A5
:1046000098185140C7F83014D7F89C184B40C7F899
:10461000343407F58663D3E9002307F63821C1E96E
:10462000002307F52A63D3E90023D14302E000BF4A
:10463000E0220208C7F89018DB43C7F8943807F661
:104640009823D3E90023D7F890181140C7F88818A9
:10465000D7F894180B40C7F88C3807F6A823D3E98D
:104660000023D7F888185140C7F82814D7F88C18B9
:104670004B40C7F82C3407F58563D3E9002307F5D1
:104680002361C1E9002307F69823D3E90023D1432E
:10469000C7F88018DB43C7F8843807F52963D3E9E6
:1046A0000023D7F880181140C7F87818D7F8841875
:1046B0000B40C7F87C3807F52A63D3E90023D7F805
:1046C00078185140C7F82014D7F87C184B40C7F829
:1046D000243407F58463D3E9002307F62821C1E9D0
:1046E000002307F52963D3E90023D143C7F87018E5
:1046F000DB43C7F8743807F52B63D3E90023D7F8F9
:1047000070181140C7F86818D7F874180B40C7F82C
:104710006C3807F69823D3E90023D7F8681851407E
:10472000C7F81814D7F86C184B40C7F81C3407F5B5
:104730008363D3E9002307F52261C1E9002307F56C
:104740002B63D3E90023D143C7F86018DB43C7F8D4
:10475000643807F6A823D3E90023D7F8601811407E
:10476000C7F85818D7F864180B40C7F85C3807F535
:104770002963D3E90023D7F858185140C7F810141B
:10478000D7F85C184B40C7F8143407F58263D3E9B7
:10479000002307F61821C1E9002307F53763D3E9A1
:1047A000000107F52863D3E9002380EA0206C7F871
:1047B00008644B40C7F80C3407F58163D3E9002344
:1047C00007F53761C1E90023D7F8743BDA0FD7F852
:1047D000703B5B001343C7F80034D7F8703BDA0F27
:1047E000D7F8743B5B001343C7F8043407F58063C4
:1047F000D3E9002307F52B61C1E9002307F53463F2
:10480000D3E9000107F67823D3E9002380EA020602
:10481000C7F8F8634B40C7F8FC33D7E9FE2307F528
:104820003461C1E90023D7F8443B9A0ED7F8403BE6
:104830009B011343C7F8F033D7F8403B9A0ED7F8E3
:10484000443B9B011343C7F8F433D7E9FC2307F635
:10485000A821C1E9002307F53163D3E9000107F579
:104860002763D3E9002380EA0206C7F8E8634B40D8
:10487000C7F8EC33D7E9FA2307F53161C1E9002322
:10488000D7F8143BDA09D7F8103B5B061343C7F897
:10489000E033D7F8103BDA09D7F8143B5B06134333
:1048A000C7F8E433D7E9F82307F52A61C1E9002303
:1048B00007F52E63D3E9000107F66823D3E9002347
:1048C00080EA0206C7F8D8634B40C7F8DC33D7E963
:1048D000F62307F52E61C1E90023D7F8E43A1A0E52
:1048E000D7F8E03A1B021343C7F8D033D7F8E03AC1
:1048F0001A0ED7F8E43A1B021343C7F8D433D7E9AA
:10490000F42307F69821C1E9002307F6D823D3E959
:10491000000107F68823D3E9002380EA0206C7F8DE
:10492000C8634B40C7F8CC33D7E9F22307F6D82148
:10493000C1E90023D7F8DC3A9A0BD7F8D83A9B04A0
:104940001343C7F8C033D7F8D83A9A0BD7F8DC3AF4
:104950009B041343C7F8C433D7E9F02307F5296153
:10496000C1E9002307F6A823D3E90023D143C7F800
:104970005018DB43C7F8543807F52A63D3E90023FE
:10498000D7F850181140C7F84818D7F854180B40FA
:10499000C7F84C3807F52B63D3E90023D7F848183C
:1049A0005140C7F8B813D7F84C184B40C7F8BC3380
:1049B000D7E9EE2307F52161C1E9002307F52A6352
:1049C000D3E90023D143C7F84018DB43C7F8443884
:1049D00007F69823D3E90023D7F840181140C7F809
:1049E0003818D7F844180B40C7F83C3807F6A82306
:1049F000D3E90023D7F838185140C7F8B013D7F8D7
:104A00003C184B40C7F8B433D7E9EC2307F608212C
:104A1000C1E9002307F69823D3E90023D143C7F85F
:104A20003018DB43C7F8343807F52963D3E900238E
:104A3000D7F830181140C7F82818D7F834180B40A9
:104A4000C7F82C3807F52A63D3E90023D7F82818CC
:104A50005140C7F8A813D7F82C184B40C7F8AC330F
:104A6000D7E9EA2307F52061C1E9002307F52963A7
:104A7000D3E90023D143C7F82018DB43C7F8243813
:104A800007F52B63D3E90023D7F820181140C7F8A6
:104A90001818D7F824180B40C7F81C3807F69823C5
:104AA000D3E90023D7F818185140C7F8A013D7F856
:104AB0001C184B40C7F8A433D7E9E82307F6F811D0
:104AC000C1E9002307F52B63D3E90023D143C7F8DD
:104AD0001018DB43C7F8143807F6A823D3E90023DE
:104AE000D7F810181140C7F80818D7F814180B4059
:104AF000C7F80C3807F52963D3E90023D7F808185D
:104B00005140C7F89813D7F80C184B40C7F89C339E
:104B1000D7E9E62307F51F61C1E9002307F65833FB
:104B2000D3E9000107F66823D3E9002380EA0206EF
:104B3000C7F890634B40C7F89433D7E9E42307F6EE
:104B40005831C1E90023D7F85C3B5A09D7F8583BE4
:104B5000DB061343C7F88833D7F8583B5A09D7F810
:104B60005C3BDB061343C7F88C33D7E9E22307F538
:104B70002B61C1E9002307F53563D3E9000107F68E
:104B80008823D3E9002380EA0206C7F880634B40FC
:104B9000C7F88433D7E9E02307F53561C1E900237D
:104BA000D7F8543B1A01D7F8503B1B0F1343C7F8F3
:104BB0007833D7F8503B1A01D7F8543B1B0F1343F7
:104BC000C7F87C33D7E9DE2307F6A821C1E9002323
:104BD00007F53263D3E9000107F52863D3E9002321
:104BE00080EA0206C7F870634B40C7F87433D7E910
:104BF000DC2307F53261C1E90023D7F8243B9A0D85
:104C0000D7F8203B9B021343C7F86833D7F8203B03
:104C10009A0DD7F8243B9B021343C7F86C33D7E9AE
:104C2000DA2307F52A61C1E9002307F52F63D3E9E9
:104C3000000107F67823D3E9002380EA0206C7F8CB
:104C400060634B40C7F86433D7E9D82307F52F6179
:104C5000C1E90023D7F8F43A5A0CD7F8F03ADB034D
:104C60001343C7F85833D7F8F03A5A0CD7F8F43A48
:104C7000DB031343C7F85C33D7E9D62307F6982143
:104C8000C1E9002307F52C63D3E9000107F5276389
:104C9000D3E9002380EA0206C7F850634B40C7F807
:104CA0005433D7E9D42307F52C61C1E90023D7F8A1
:104CB000C43A1A06D7F8C03A1B0A1343C7F8483358
:104CC000D7F8C03A1A06D7F8C43A1B0A1343C7F8F4
:104CD0004C33D7E9D22307F52961C1E9002307F650
:104CE000A823D3E90023D143C7F80018DB43C7F852
:104CF000043807F52A63D3E90023D7F800181140D8
:104D0000C7F8F817D7F804180B40C7F8FC3707F5B1
:104D10002B63D3E90023D7F8F8175140C7F84013A5
:104D2000D7F8FC174B40C7F84433D7E9D02307F630
:104D3000E811C1E9002307F52A63D3E90023D14331
:104D4000C7F8F017DB43C7F8F43707F69823D3E921
:104D50000023D7F8F0171140C7F8E817D7F8F41771
:104D60000B40C7F8EC3707F6A823D3E90023D7F8A0
:104D7000E8175140C7F83813D7F8EC174B40C7F87D
:104D80003C33D7E9CE2307F51E61C1E9002307F6BE
:104D90009823D3E90023D143C7F8E017DB43C7F8D2
:104DA000E43707F52963D3E90023D7F8E01711406A
:104DB000C7F8D817D7F8E4170B40C7F8DC3707F562
:104DC0002A63D3E90023D7F8D8175140C7F8301326
:104DD000D7F8DC174B40C7F83433D7E9CC2307F6B4
:104DE000D811C1E9002307F52963D3E90023D14392
:104DF000C7F8D017DB43C7F8D43707F52B63D3E9DF
:104E00000023D7F8D0171140C7F8C817D7F8D41720
:104E10000B40C7F8CC3707F69823D3E90023D7F81F
:104E2000C8175140C7F82813D7F8CC174B40C7F81C
:104E30002C33D7E9CA2307F51D61C1E9002307F523
:104E40002B63D3E90023D143C7F8C017DB43C7F86E
:104E5000C43707F6A823D3E90023D7F8C0171140B9
:104E6000C7F8B817D7F8C4170B40C7F8BC3707F511
:104E70002963D3E90023D7F8B8175140C7F82013A6
:104E8000D7F8BC174B40C7F82433D7E9C82307F637
:104E9000C811C1E9002307F66833D3E9000107F61A
:104EA0007823D3E9002380EA0206C7F818634B4051
:104EB000C7F81C33D7E9C62307F66831C1E90023D8
:104EC000D7F86C3B9A07D7F8683B9B081343C7F8A1
:104ED0001033D7F8683B9A07D7F86C3B9B0813430D
:104EE000C7F81433D7E9C42307F52B61C1E90023C0
:104EF00007F63833D3E9000107F52763D3E9002328
:104F000080EA0206C7F808634B40C7F80C33D7E9BC
:104F1000C22307F63831C1E90023D7F83C3BDA0554
:104F2000D7F8383B5B0A1343C7F80033D7F8383B50
:104F3000DA05D7F83C3B5B0A1343C7F80433D7E9DB
:104F4000C02307F6A821C1E9002307F60833D3E9F7
:104F5000000107F66823D3E9002380EA0206C7F8B8
:104F6000F8624B40C7F8FC32D7E9BE2307F6083198
:104F7000C1E90023D7F80C3BDA01D7F8083B5B0EF8
:104F80001343C7F8F032D7F8083BDA01D7F80C3BE7
:104F90005B0E1343C7F8F432D7E9BC2307F52A6147
:104FA000C1E9002307F53063D3E9000107F6882340
:104FB000D3E9002380EA0206C7F8E8624B40C7F84D
:104FC000EC32D7E9BA2307F53061C1E90023D7F8FD
:104FD000043B5A02D7F8003BDB0D1343C7F8E0321D
:104FE000D7F8003B5A02D7F8043BDB0D1343C7F850
:104FF000E432D7E9B82307F69821C1E9002307F581
:105000002D63D3E9000107F52863D3E9002380EA83
:105010000206C7F8D8624B40C7F8DC32D7E9B6239E
:1050200007F52D61C1E90023D7F8D43A9A0FD7F8D4
:10503000D03A9B001343C7F8D032D7F8D03A9A0F32
:10504000D7F8D43A9B001343C7F8D432D7E9B42336
:1050500007F52961C1E9002307F6A823D3E9002356
:10506000D143C7F8B017DB43C7F8B43707F52A6355
:10507000D3E90023D7F8B0171140C7F8A817D7F81D
:10508000B4170B40C7F8AC3707F52B63D3E90023FF
:10509000D7F8A8175140C7F8C812D7F8AC174B403B
:1050A000C7F8CC32D7E9B22307F51C61C1E9002368
:1050B00007F52A63D3E90023D143C7F8A017DB43E0
:1050C000C7F8A43707F69823D3E90023D7F8A01729
:1050D0001140C7F89817D7F8A4170B40C7F89C37AA
:1050E00007F6A823D3E90023D7F898175140C7F84B
:1050F000C012D7F89C174B40C7F8C432D7E9B02389
:1051000007F6B811C1E9002307F69823D3E9002375
:10511000D143C7F89017DB43C7F8943707F52963E5
:10512000D3E90023D7F890171140C7F88817D7F8AC
:1051300094170B40C7F88C3707F52A63D3E900238F
:10514000D7F888175140C7F8B812D7F88C174B40DA
:10515000C7F8BC32D7E9AE2307F51B61C1E90023CC
:1051600007F52963D3E90023D143C7F88017DB4350
:10517000C7F8843707F52B63D3E90023D7F88017E6
:105180001140C7F87817D7F884170B40C7F87C3759
:1051900007F69823D3E90023D7F878175140C7F8CA
:1051A000B012D7F87C174B40C7F8B432D7E9AC231C
:1051B00007F6A811C1E9002307F52B63D3E9002303
:1051C000D143C7F87017DB43C7F8743707F6A82335
:1051D000D3E90023D7F870171140C7F86817D7F83C
:1051E00074170B40C7F86C3707F52963D3E9002320
:1051F000D7F868175140C7F8A812D7F86C174B407A
:10520000C7F8AC32D7E9AA2307F51A61C1E9002330
:1052100007F52663D3E9000107F63823D3E9002315
:1052200080EA0206C7F860674B40C7F8643707F5A5
:105230002163D3E90023D7F860175140C7F8581706
:10524000D7F864174B40C7F85C3707F6E813D3E983
:105250000023D7F858175140C7F85017D7F85C17F4
:105260004B40C7F8543707F51C63D3E90023D7F840
:1052700050175140C7F8A012D7F854174B40C7F841
:10528000A432D7E9A82307F52B61C1E9002307F66B
:105290005823D3E9000107F52363D3E9002380EA0B
:1052A0000206C7F848674B40C7F84C3707F6082393
:1052B000D3E90023D7F848175140C7F84017D7F86B
:1052C0004C174B40C7F8443707F51E63D3E900235A
:1052D000D7F840175140C7F83817D7F844174B4054
:1052E000C7F83C3707F6B813D3E90023D7F83817C7
:1052F0005140C7F89812D7F83C174B40C7F89C327A
:10530000D7E9A62307F6A821C1E9002307F52563FD
:10531000D3E9000107F62823D3E9002380EA020637
:10532000C7F830674B40C7F8343707F52063D3E937
:105330000023D7F830175140C7F82817D7F834178B
:105340004B40C7F82C3707F6D813D3E90023D7F81A
:1053500028175140C7F82017D7F82C174B40C7F82B
:10536000243707F51B63D3E90023D7F820175140F2
:10537000C7F89012D7F824174B40C7F89432D7E9F2
:10538000A42307F52A61C1E9002307F64823D3E9DE
:10539000000107F52263D3E9002380EA0206C7F87B
:1053A00018674B40C7F81C3707F6F813D3E90023FA
:1053B000D7F818175140C7F81017D7F81C174B40EB
:1053C000C7F8143707F51D63D3E90023D7F8101782
:1053D0005140C7F80817D7F814174B40C7F80C37D7
:1053E00007F6A813D3E90023D7F808175140C7F8E8
:1053F0008812D7F80C174B40C7F88C32D7E9A22394
:1054000007F69821C1E9002307F52463D3E90001D9
:1054100007F61823D3E9002380EA0206C7F80067DD
:105420004B40C7F8043707F51F63D3E90023D7F8CB
:1054300000175140C7F8F816D7F804174B40C7F8C3
:10544000FC3607F6C813D3E90023D7F8F816514005
:10545000C7F8F016D7F8FC164B40C7F8F43607F536
:105460001A63D3E90023D7F8F0165140C7F8801229
:10547000D7F8F4164B40C7F88432D7E9A02307F5D4
:105480002961C1E90023D7F8AC3ADA0FD7F8A83A76
:105490005B001343C7F8E836D7F8A83ADA0FD7F815
:1054A000AC3A5B001343C7F8EC3607F52963D3E940
:1054B0000023D7F8E8165140C7F87812D7F8EC1651
:1054C0004B40C7F87C32D7E99E2307F68821C1E913
:1054D0000023D7F8A43ADA0FD7F8A03A5B001343B9
:1054E000C7F8E036D7F8A03ADA0FD7F8A43A5B004D
:1054F0001343C7F8E43607F52B63D3E90023D7F845
:10550000E0165140C7F87012D7F8E4164B40C7F8C0
:105510007432D7E99C2307F52861C1E90023D7F845
:105520009C3ADA0FD7F8983A5B001343C7F8D8369D
:10553000D7F8983ADA0FD7F89C3A5B001343C7F8CC
:10554000DC3607F6A823D3E90023D7F8D816514054
:10555000C7F86812D7F8DC164B40C7F86C32D7E9A9
:105560009A2307F67821C1E90023D7F8943ADA0F95
:10557000D7F8903A5B001343C7F8D036D7F8903A83
:10558000DA0FD7F8943A5B001343C7F8D43607F51F
:105590002A63D3E90023D7F8D0165140C7F8601228
:1055A000D7F8D4164B40C7F86432D7E9982307F5EB
:1055B0002761C1E90023D7F8B43ADA0FD7F8B03A37
:1055C0005B001343C7F8C836D7F8B03ADA0FD7F8FC
:1055D000B43A5B001343C7F8CC3607F69823D3E9F7
:1055E0000023D7F8C8165140C7F85812D7F8CC1680
:1055F0004B40C7F85C32D7E9962307F66821C1E92A
:10560000002307F52663D3E9000107F68823D3E9D1
:10561000002380EA0206C7F850624B40C7F85432B4
:10562000D7E9942307F52661C1E9002307F526632E
:10563000D3E9002307F52B61C1E9002307F52363B4
:10564000D3E9000107F52863D3E9002380EA0206C5
:10565000C7F848624B40C7F84C32D7E9922307F5A8
:105660002361C1E9002307F68833A3F5AA7007F682
:105670008833A3F5AC7103681A030B681B0D134341
:10568000C7F840320B681A0303681B0D1343C7F8B1
:105690004432D7E9902307F6A821C1E9002307F592
:1056A0002063D3E9000107F67823D3E9002380EAD9
:1056B0000206C7F838624B40C7F83C32D7E98E2360
:1056C00007F52061C1E9002307F68833A3F5C2700E
:1056D00007F68833A3F5C4710368DA020B685B0D23
:1056E0001343C7F830320B68DA0203685B0D1343CB
:1056F000C7F83432D7E98C2307F52A61C1E90023C2
:1057000007F51D63D3E9000107F52763D3E90023FB
:1057100080EA0206C7F828624B40C7F82C32D7E966
:105720008A2307F51D61C1E9002307F68833A3F535
:10573000DA7007F68833A3F5DC710368DA0A0B68C0
:105740005B051343C7F820320B68DA0A03685B0570
:105750001343C7F82432D7E9882307F69821C1E913
:10576000002307F51A63D3E9000107F66823D3E99C
:10577000002380EA0206C7F818624B40C7F81C32C3
:10578000D7E9862307F51A61C1E9002307F68833B4
:10579000A3F5F27007F68833A3F5F47103689A0C49
:1057A0000B689B031343C7F810320B689A0C03680D
:1057B0009B031343C7F81432D7E9842307F5296103
:1057C000C1E9002307F6A823D3E90023D143C7F892
:1057D000C016DB43C7F8C43607F52A63D3E90023B4
:1057E000D7F8C0161140C7F8B816D7F8C4160B4042
:1057F000C7F8BC3607F52B63D3E90023D7F8B816F2
:105800005140C7F80812D7F8BC164B40C7F80C3205
:10581000D7E9822307F67831C1E90023D7F8843B22
:105820000133F44ADB001344D3E9000107F678336F
:10583000D3E9002382EA0006C7F800624B40C7F8AC
:105840000432D7E9802307F67831C1E9002307F550
:105850002A63D3E90023D143C7F8B016DB43C7F866
:10586000B43607F69823D3E90023D7F8B0161140D1
:10587000C7F8A816D7F8B4160B40C7F8AC3607F629
:10588000A823D3E90023D7F8A8165140C7F8F81188
:10589000D7F8AC164B40C7F8FC31D7E97E2307F5A3
:1058A0003761C1E9002307F69823D3E90023D143E8
:1058B000C7F8A016DB43C7F8A43607F52963D3E978
:1058C0000023D7F8A0161140C7F89816D7F8A416E9
:1058D0000B40C7F89C3607F52A63D3E90023D7F8B5
:1058E00098165140C7F8F011D7F89C164B40C7F8EE
:1058F000F431D7E97C2307F66831C1E9002307F5C5
:105900002963D3E90023D143C7F89016DB43C7F8D6
:10591000943607F52B63D3E90023D7F8901611408E
:10592000C7F88816D7F894160B40C7F88C3607F6D8
:105930009823D3E90023D7F888165140C7F8E81117
:10594000D7F88C164B40C7F8EC31D7E97A2307F526
:105950003661C1E9002307F52B63D3E90023D14366
:10596000C7F88016DB43C7F8843607F6A823D3E9C7
:105970000023D7F880161140C7F87816D7F8841698
:105980000B40C7F87C3607F52963D3E90023D7F825
:1059900078165140C7F8E011D7F87C164B40C7F88D
:1059A000E431D7E9782307F65831C1E9002307F637
:1059B0004823D3E9000107F52763D3E9002380EAF0
:1059C0000206C7F8D8614B40C7F8DC31D7E9762327
:1059D00007F64821C1E9002307F68833A3F59E7036
:1059E00007F68833A3F5A07103681A090B681B0733
:1059F0001343C7F8D0310B681A0903681B07134318
:105A0000C7F8D431D7E9742307F52B61C1E9002326
:105A100007F61823D3E9000107F66823D3E900232A
:105A200080EA0206C7F8C8614B40C7F8CC31D7E915
:105A3000722307F61821C1E9002307F68833A3F57E
:105A4000B67007F68833A3F5B87103681A0B0B68B4
:105A50001B051343C7F8C0310B681A0B03681B05FD
:105A60001343C7F8C431D7E9702307F6A821C1E969
:105A7000002307F52163D3E9000107F68823D3E962
:105A8000002380EA0206C7F8B8614B40C7F8BC3172
:105A9000D7E96E2307F52161C1E9002307F68833B2
:105AA000A3F5BA7007F68833A3F5BC7103685A0FE3
:105AB0000B68DB001343C7F8B0310B685A0F03685B
:105AC000DB001343C7F8B431D7E96C2307F52A612B
:105AD000C1E9002307F51E63D3E9000107F5286338
