:10000000203E0120B1830000794A02009D83000058
:100010009D8300009D8300009D8300009D83000060
:100020000000000000000000000000000D8500003E
:100030009D83000000000000AD8400009D8300004F
:10004000D5860000D5860000D5860000D586000044
:10005000D5860000D5860000D5860000D586000034
:10006000D5860000D5860000D5860000D586000024
:10007000D5860000D5860000D5860000D586000014
:10008000D5860000D5860000D5860000D586000004
:10009000D5860000D5860000D5860000D5860000F4
:1000A000D5860000D5860000D5860000D5860000E4
:1000B000D5860000D5860000D5860000D5860000D4
:1000C000D5860000D5860000D5860000D5860000C4
:1000D000D5860000D5860000D5860000D5860000B4
:1000E000D5860000D5860000D5860000D5860000A4
:1000F000D5860000D5860000D5860000D586000094
:10010000D5860000D5860000D5860000D586000083
:10011000D5860000D5860000D5860000D586000073
:10012000D5860000D5860000D5860000D586000063
:10013000D5860000D5860000D5860000D586000053
:10014000D5860000D5860000D5860000D586000043
:04015000D586000050
:1001580080EA101404F0F01480EA0410604081EA88
:10016800111404F0F01481EA0411614082EA1214B7
:1001780004F0F01482EA0412624083EA131404F0D3
:10018800F01483EA0413634080EA102404F47F44E3
:1001980080EA0420604081EA112404F47F4481EA63
:1001A8000421614082EA122404F47F4482EA042292
:1001B800624083EA132404F47F4483EA04236340FF
:1001C80081EA500404F0553480EA4400614083EA2F
:1001D800520404F0553482EA4402634082EA9004EF
:1001E80004F0333480EA8400624083EA910404F026
:1001F800333481EA84016340704700BF82EA900487
:1002080004F0333480EA8400624083EA910404F005
:10021800333481EA8401634081EA500404F05534A0
:1002280080EA4400614083EA520404F0553482EACB
:100238004402634080EA102404F47F4480EA0420E6
:10024800604081EA112404F47F4481EA042161407A
:1002580082EA122404F47F4482EA0422624083EA98
:10026800132404F47F4483EA0423634080EA1014CF
:1002780004F0F01480EA0410604081EA111404F0DC
:10028800F01481EA0411614082EA121404F0F014B7
:1002980082EA0412624083EA131404F0F01483EA39
:1002A80004136340704700BF2DE9F14F94464FEAAD
:1002B800930B8A68CB6808684968FFF749FF0BF118
:1002C800060E33E083EA134480EA134582EA1347B3
:1002D80046BA96EA3444604000F00F1684EA0634C1
:1002E80020F00F1684EA161054BA94EA01067240F8
:1002F80002F00F1486EA043622F00F1486EA14126C
:100308004CBA6540694001F00F1485EA043521F0C4
:100318000F1485EA14115CBA67407B4003F00F1490
:1003280087EA043723F00F1487EA1413BCE8F000B7
:100338006040694072407B4000F0E03400F01035C6
:1003480000F00F3040EA540040EAC50080EA90040B
:1003580004F0332480EA8400604001F0E03401F0C6
:10036800103501F00F3141EA540141EAC50181EA33
:10037800910404F0332481EA8401614002F0E034FE
:1003880002F0103502F00F3242EA540242EAC50286
:1003980082EA920404F0332482EA8402624003F081
:1003A800E03403F0103503F00F3343EA540343EA13
:1003B800C50383EA930404F0332483EA8403634087
:1003C80081EA324787EA134581EA354690EA06040E
:1003D80084EA034B82EA1B4280EA044484EA054427
:1003E80083EA144A85EA14448BEA044B84EA3744C6
:1003F80081EA0B4181EA164104EA0A00454082EA93
:1004080004082BEA080041408AEA0B0602EA0600C3
:1004180084EA34438AEA3A4603EA060778404540C4
:10042800414088EA38478BEA3B4007EA000985EAF9
:10043800090583EA0709464006EA0906714085EA84
:10044800010005EA3546464006EA314181EA304175
:1004580081EA364606EA304686EA3546344008EAF6
:10046800010886EA01052A4086EA364003405A40D8
:1004780081EA31431F407C4080EA030709EA070903
:1004880088EA0908544088EA020806EA0A0601EAE6
:100498000B018AEA0B0215408AEA3A4210404540AD
:1004A8008BEA3B4003405E404240174079404D4054
:1004B8004E40E443F64386EA18435D4085EA05402A
:1004C80083EA134386EA034183EA384284EA114304
:1004D80083EA04435FEA3343BEF1010E3FF6F2AE0E
:1004E8001ED4BCE8F0006040694072407B4020BCEC
:1004F800FFF784FE28606960AA60EB60BDE8F08FB2
:100508002DE9E0414FF2F00280EA1031114080EA13
:100518000130484041088208C3084FF0000E4FE7F9
:1005280000F0113001F0113102F0113203F01133F3
:1005380040EA410040EA820040EAC3004FF2F0027C
:1005480080EA1031114080EA01304840BDE8E0817E
:100558002DE9F04F02F11C050646074600EB850819
:1005680051F8040B043A46F8040BF9D14FF0010C8A
:10057800FFF7C6FF5FEA302080EA0C001ECF41403B
:100588004A4053405C401EC62000464517D04FEAFB
:100598004C0C1CF4807F18BFACF1E50C2C2DE7D077
:1005A8003C2D06D1FFF7ACFF06CF41404A4006C6B6
:1005B800100006CF41404A4006C61000D8E736E989
:1005C8000F00FFF7C5FD043D86E80F00F7D1BDE831
:1005D800F08F00BF2DE9F14F03F11C0402EB840CEE
:1005E8004FEA930B8A68CB6808684968FFF7B0FD43
:1005F8003CE9F0006040694072407B400BF1060E18
:100608004EE083EA134480EA134582EA134746BA68
:1006180096EA3444604000F00F1684EA063420F06D
:100628000F1684EA161054BA94EA0106724002F0D2
:100638000F1486EA043622F00F1486EA14124CBA14
:100648006540694001F00F1485EA043521F00F1464
:1006580085EA14115CBA67407B4003F00F1487EAFF
:10066800043723F00F1487EA141344BA44404DBAF0
:100678004D4056BA56405FBA5F4087EA174886EA47
:10068800174B84EA17464FEA38488BEA1B4485EA39
:100698001B4788EA1B4580EA3440694072407B402A
:1006A80000F0703400F0803500F00F3040EA44006C
:1006B80040EAD50080EA900404F0332480EA8400FC
:1006C800604001F0703401F0803501F00F3141EAEB
:1006D800440141EAD50181EA910404F0332481EA16
:1006E8008401614002F0703402F0803502F00F326C
:1006F80042EA440242EAD50282EA920404F0332430
:1007080082EA8402624003F0703403F0803503F01B
:100718000F3343EA440343EAD50383EA930404F01E
:10072800332483EA84036340C943DB4381EA00043A
:1007380083EA044686EA020183EA014382EA3345F2
:1007480083EA14435C4084EA00077FEA040A8AEAE1
:10075800024A8AEA010B87EA11488AEA374A80EA9C
:10076800060181EA1A418AEA030A04EA0A004540B6
:1007780088EA040707EA0B0041408AEA0B0608EA00
:10078800060084EA34428AEA3A4602EA06035840F6
:100798004540414087EA37438BEA3B4003EA00097A
:1007A80085EA090582EA0309464006EA0906714016
:1007B80085EA010005EA3546464006EA314181EA04
:1007C800304181EA364606EA304686EA3546344004
:1007D8000F4086EA010508EA050886EA3640024025
:1007E80088EA020881EA314213405C4080EA020349
:1007F80009EA030987EA0907674088EA040806EA5C
:100808000A0601EA0B018AEA0B0425408AEA3A44FF
:10081800204045408BEA3B4B02EA0B02564084EAF3
:100828000B04234059406E40694087EA364080EA0D
:10083800384080EA060380EA104481EA134585EAD5
:10084800344585EA17427D4082EA354180EA054011
:100858003CE9F0006040694072407B40BEF1010E07
:100868003FF6CFAE20BCFFF7C9FC28606960AA60DC
:10087800EB60BDE8F08F00BFFFF76ABE2DE9F00717
:1008880091E8F807B2E802105B1854EB0C04B2E8E0
:1008980002104D4156EB0C06B2E802104F4158EBDE
:1008A8000C08B2E8021059EB01095AEB0C0A80E86F
:1008B800F80780410130BDE8F00770472DE9F007DF
:1008C80091E8F807B2E802105B1A74EB0C04B2E87E
:1008D80002108D4176EB0C06B2E802108F4178EBDE
:1008E8000C08B2E8021079EB01097AEB0C0A80E8EF
:1008F800F80780414042BDE8F00770472DE9F0074E
:10090800524290E87800B1E880071740DB1918EAEE
:10091800020854EB080419EA020955EB09051AEA1A
:10092800020A56EB0A0678C090E87800B1E880071A
:1009380017407B4118EA020854EB080419EA020937
:1009480055EB09051AEA020A56EB0A0678C08041F7
:100958000130BDE8F00770472DE9F007524290E8F2
:100968007800B1E880071740DB1B18EA020874EB2F
:10097800080419EA020975EB09051AEA020A76EB76
:100988000A0678C090E87800B1E880071740BB41B4
:1009980018EA020874EB080419EA020975EB09055C
:1009A8001AEA020A76EB0A0678C080414042BDE89E
:1009B800F00770472DE9F00152424FF0040890E823
:1009C800300091E8C000A31B1340E41AF618EB1B93
:1009D8001340ED1AFF1830C0C0C1B8F10108EED1BC
:1009E800BDE8F001704700BF00B592E8DC072DE9CB
:1009F800DC07B1E8805702B4A7FB02510A95A8FBAF
:100A0800020BE7FB6310E9FB62B00B91A8FB0351F3
:100A1800EAFB6201E7FB64B5E7FB6605E8FB6615E0
:100A2800CDF830B0A9FB03B6EAFB6316ECFB6356BE
:100A3800E8FB640BE9FB641BEAFB645BECFB646B9F
:100A48000D90ACFB0230059CEEFB6250E9FB646044
:100A5800EAFB64B0E7FB6431E8FB6451069CE8FB01
:100A68006461E9FB64B1EAFB64010E93A7FB0432FD
:100A7800079CE7FB6462E8FB64B2E9FB6402EAFBFB
:100A88006412049CE9FB6453EAFB6463089CE7FB7B
:100A980064B3E8FB6403E9FB6413EAFB64230F9582
:100AA8005DF8049B99E80006DDF80080A9FB08546E
:100AB800EAFB68B4DDF81080ECFB6804EEFB681410
:100AC800E9FB6824EAFB6834DDF80480EEFB68651E
:100AD800E9FB68B5EAFB6805DDF81480ECFB6815EE
:100AE800EEFB6825E9FB6835EAFB68450F96DDF8FB
:100AF8000880AEFB0876E9FB6806EAFB6816DDF8B5
:100B08001880ECFB6826EEFB6836E9FB6846EAFBD2
:100B18006856DDF80C80ECFB68B7EEFB6807E9FB6C
:100B28006817EAFB6827DDF81C80ECFB6837EEFBEA
:100B38006847E9FB6857EAFB686708B000BD00BF73
:100B48002DE9F14F87B0FFF74FFFDDF81C8008F162
:100B5800200888E8FF00FFBC87E87F08BDE8F08F21
:100B680000B591E89857A3FB03520195A3FB040134
:100B7800E3FB6420E3FB67100292A3FB0752E3FB4D
:100B88006802E4FB6415E3FB6805E3FB6925039150
:100B9800A4FB07B6E3FB6926E3FB6A56E4FB670B95
:100BA800E4FB682BE3FB6A5BE3FB6C6B0490A4FB40
:100BB8000810E4FB6950E3FB6C60E3FB6EB0E7FBF5
:100BC8006721E4FB6951E4FB6A61E3FB6EB1E4FB76
:100BD8006E010592A7FB0832E4FB6A62E4FB6CB283
:100BE800E4FB6E02E7FB6E12E7FB6853E7FB696301
:100BF800E4FB6CB3E7FB6C03E7FB6E13E8FB6E23C7
:100C08000695A7FB0954E7FB6AB4E7FB6C04E8FB0D
:100C18006C14E8FB6E24E9FB6E34E8FB6865E7FBBF
:100C28006AB5E8FB6A05E8FB6C15E9FB6C25E9FB8E
:100C38006E35EAFB6E450796A8FB0976E8FB6A065F
:100C4800E9FB6A16E9FB6C26EAFB6C36EAFB6E46A2
:100C5800ECFB6E56E8FB69B7E9FB6907E9FB6A1725
:100C6800EAFB6A27EAFB6C37ECFB6C47ECFB6E5738
:100C7800EEFB6E6700BD00BF2DE9F14F87B0FFF7AF
:100C88006FFFDDF81C8008F1200888E8FF00FFBC32
:100C980087E87F08BDE8F08F30B44FF0000310F804
:100CA800014B11F8015B013A84EA050443EA0403A5
:100CB800F5D1A3F101034FEAD37030BC704700BFF0
:100CC8004FF0000310F8012B013943EA0203F9D170
:100CD800A3F101034FEAD370704700BF30B411F895
:100CE800014B12F8015B6C4000F8014B013BF6D157
:100CF80030BC70472DE9F00791E8F807B2E8021018
:100D08005B1854EB0C04B2E802104D4156EB0C068C
:100D1800B2E802104F4158EB0C08B2E8021059EB48
:100D280001095AEB0C0A8941B3F1FF3374F1FF341E
:100D380075F1FF3576F1000677F1000778F10008C4
:100D480079F101097AF1FF3A51F100015B184C4140
:100D58004D4156F1000657F1000758F1000859EBCC
:100D6800D1795AEB010A80E8F807BDE8F007704727
:100D78002DE9F00791E8F807B2E802105B1A74EB66
:100D88000C04B2E802108D4176EB0C06B2E80210B2
:100D98008F4178EB0C08B2E8021079EB01097AEB85
:100DA8000C0A89415B184C414D4156F1000657F138
:100DB800000758F1000859EBD1795AEB010A80E88D
:100DC800F807BDE8F007704718EB040859EB050968
:100DD8005AEB060A5BEB070B5FF0000C4CF1000CBA
:100DE80018EB050859EB06095AEB070A5BEB070BEA
:100DF80050EB0C005FF0000C51EB0C0152EB0C02B5
:100E080063414CF1000CB8EB070879F100097AF15D
:100E1800000A7BEB040BA841B141A241B3416CF13C
:100E2800000CBBEB050BB041B941AA41BB416CF1C9
:100E3800000C4CF001068CF0020718EB060859EB81
:100E48006C095AEB6C0A7BEB6C0B70EB6C0471EB66
:100E58006C0572EB670653EB6C076CEB6C0C18EBCC
:100E68000C0059EB0C015AEB0C025BF1000354F136
:100E7800000455F1000556EBDC7657EB0C0770477C
:100E88002DE9F14F87B0FFF7AFFDDDF81080DDF8F1
:100E98001490DDF818A0FFF797FFBDE8000FFFF7E3
:100EA80093FF03B05DF8048B88E8FF00BDE8F08F7E
:100EB8002DE9F14F87B0FFF753FEDDF81080DDF81C
:100EC8001490DDF818A0FFF77FFFBDE8000FFFF7CB
:100ED8007BFF03B05DF8048B88E8FF00BDE8F08F66
:100EE80053B94AB9002908BF00281CBF4FF0FF3189
:100EF8004FF0FF3000F00CB8ADF1080C6DE904CEEE
:100F080000F022F8DDF804E0DDE9022304B07047C0
:100F1800704700BF10F8012B11F8013B012A28BFC8
:100F28009A42F7D0D01A7047034611F8012B03F8FC
:100F3800012B002AF9D17047034613F8012B002A28
:100F4800FBD1181A013870472DE9F04786468C46C0
:100F58000846089E154674461946002B40F0C18085
:100F68008542B2FA82F245D94AB1C2F1200300FAA9
:100F780002FC954094402EFA03F343EA0C0C4FEA26
:100F8800154EA8B2230CBCFBFEF80EFB18CC08FBD0
:100F980000F943EA0C43994528D9EB1808F1FF37C3
:100FA80004D2994502D9A8F102072B44A3EB0903FF
:100FB800A4B2B3FBFEFC0EFB1C330CFB00F044EAAE
:100FC8000344A04214D92C190CF1FF3304D2A042D7
:100FD80002D9ACF102032C44241A43EA07401EB19B
:100FE800D440002334607360BDE8F0874746DDE7EE
:100FF8006346F1E792BB431B01214FEA154EAFB29E
:10100800200CB3FBFEFC0EFB1C330CFB07F840EA7C
:101018000343984561D9EB180CF1FF3004D2984589
:1010280002D9ACF102002B44A3EB0803A4B2B3FB32
:10103800FEFC0EFB1C330CFB07F744EA0344A742F3
:101048004DD92C190CF1FF3304D2A74202D9ACF1C7
:1010580002032C44E41B43EA0040C0E7C2F120032A
:101068009540944020FA03F12EFA03F34FEA154E07
:101078009040AFB20343B1FBFEFC0EFB1C10190CF1
:101088000CFB07F841EA0041884522D969180CF1A0
:10109800FF3004D2884502D9ACF102002944A1EB03
:1010A80008019BB2B1FBFEFC0EFB1C110CFB07F701
:1010B80043EA01439F420ED9EB180CF1FF3104D2E9
:1010C8009F4202D9ACF102012B44DB1B41EA0041EB
:1010D80093E76046E3E76146F7E76046A4E76346BF
:1010E800B8E7834206D916B9002108467CE7C6E965
:1010F80000E0F9E7B3FA83F78FB9834201D3724569
:1011080008D8BEEB020460EB030301209C461EB91D
:10111800002169E73846FAE7C6E9004CF8E7C7F165
:10112800200CBB400EFA07F522FA0CF42EFA0CF14B
:10113800BA401C4320FA0CF3B8404FEA1449014363
:101148001FFA84FEB3FBF9F809FB18300B0C08FBF7
:101158000EFA43EA00439A4540D9E31808F1FF30F4
:1011680004D29A4502D9A8F102002344A3EB0A034A
:1011780089B2B3FBF9F809FB183308FB0EFE41EA04
:1011880003418E452CD9611808F1FF3304D28E45EE
:1011980002D9A8F10203214443EA0040A1EB0E0161
:1011A800A0FB02984145CE46434602D306D14D45A1
:1011B80004D20138B9EB020E68EB0403002EA7D065
:1011C800B5EB0E0261EB030101FA0CFC22FA07F3FE
:1011D800F9404CEA0303C6E9003199E74046C5E700
:1011E8004346D9E7000000000022F0B585B011465B
:1011F80040F6034002AF09F0DBFD0446002840F04A
:10120800A58009F015FB214641F203003A1D09F0BB
:10121800CFFD0446002840F099807A684D4DD1688A
:1012280005F17803D1F80100D1F8051003C3104681
:1012380007F096FF214641F201003A1D09F0B8FD7A
:101248000446002840F082807868C3685A7885F898
:1012580070205A88A5F872201A7985F87120B3F899
:101268000720A5F87420B3F80530A5F8763007F004
:1012780077FF214641F202003A1D09F099FD044624
:10128800002863D1D7F804C005F18006DCF80C20EB
:10129800531C4132344618685968083303C49342D2
:1012A8002646F7D1604607F05BFF0BF053F904467A
:1012B80000284BD195F88A30990610D40221264A85
:1012C800264823F0D3FD95F87C305A064AD40121EC
:1012D800234A224823F0CAFD6FF0120436E04FF08B
:1012E800FF304FF0FF3109F0C7FA0646002800F03A
:1012F800428207210C3008F0B9F86FF0040303703C
:101308000A23C0F802408471447004712246C370F5
:10131800314640F6334009F04BFD0446B0B94FF072
:10132800FF304FF0FF3109F0A7FA0646002800F019
:10133800228201210C3023F05BFC2246314640F624
:10134800314009F035FD04460028BCD020460C3752
:10135800BD46F0BDC00400204DE002006CA10200B3
:101368007BE00200002142F203003A1D09F020FD53
:1013780004460028EAD17A68A94BD168D1F801005F
:10138800D1F8051003C3104607F0EAFE214642F2E1
:1013980002003A1D09F00CFD04460028D6D17E68EB
:1013A800F468B4F801309AB292B1E27882B1A5F843
:1013B8000431E378032B06D00322022100929948D6
:1013C800994A22F0DCFFE2789848114627F0FEFAA5
:1013D800304607F0C5FE95F87C6016F0200619D156
:1013E8004FF0FF304FF0FF3109F046FA044600286D
:1013F80000F0C18102210C3008F038F801232146A1
:1014080003704670324640F66D4009F0D1FC044640
:1014180000289BD195F89C301B0712D5002142F279
:101428001C003A1D09F0C4FC044600288ED17868D7
:10143800C368D3F80120D3F80530C5E9382307F08D
:101448008FFE95F8D8309E0623D53846B91C09F08A
:1014580057FD044600287FF479AF4FF0FF304FF076
:10146800FF3109F009FA0646002800F084810421BA
:101478000C3007F0FBFF3B88224603807B8831460F
:10148800438042F2240009F093FC044600287FF4CC
:101498005DAF95F8D8305C0610D5002142F22A00DD
:1014A8003A1D09F085FC044600287FF44FAF7868A0
:1014B800C3685B7885F8203107F052FE4FF0FF30A3
:1014C8004FF0FF3109F0D8F90446002800F05381A5
:1014D80008210C3007F0CAFF95F8D81040F2022313
:1014E80011F0400F08BF0323024688074CBF43F0A2
:1014F8002C0043F00C008B0695F8D93048BF40F01B
:10150800400013F0090F18BF40F40060CE0748BF31
:1015180040F01000002123F0C4FC2146002242F2D2
:10152800010009F045FC044600287FF40FAF95F848
:101538007C30B5F8041198065DD4C9B941F20500AC
:101548003A1D09F035FC044600287FF4FFAEB5F8D3
:1015580004317C684BB9E368B3F80120A5F804218D
:101568009A883248114627F031FA204607F0F8FDEC
:101578004FF0FF304FF0FF3109F07EF904460028A4
:1015880000F0F98008210C3007F070FF95F8D8308A
:101598000246D90739D44FF00051254823F081FC81
:1015A8002146002240F6014009F002FC04460028CA
:1015B8007FF4CCAE01463A1D4FF6014009F0F8FB26
:1015C80000283BD01B4A0221164823F04FFCEB7938
:1015D800002B40F0C08023F021FE044600287FF451
:1015E800B5AE0CF05FFD044600287FF4AFAE09F0FD
:1015F800E3FA0446AAE60029BAD101210E4A0948AD
:1016080023F034FC6FF00404A0E603A1D1E9000143
:10161800C4E700BFAFF3008090880002008000207C
:10162800980500206CA102009FE00200C805002078
:101638001088000208E10200E5E002007B686E46BF
:10164800DC688AB0B4F80130042B96BF574A584971
:1016580052F8231002AAD3614FF40073554813843B
:10166800554BC2E9050142F8103F4FF41351534856
:1016780023F00BFCB4F80120B546022AB4F8033075
:1016880049D1052B47D84E4A52F823106E468AB0E6
:1016980002AAD3614FF400734A481384464BC2E947
:1016A800050142F8103F4FF41351444823F0EDFB75
:1016B800B546637994F806C0032B98BF424AB4F83C
:1016C8000760D4F809006C468CB094BF52F8231018
:1016D800374902AAC2E9073C4FF40073DFF8ECE08F
:1016E80093853B4BC2E905E1C2E909604FF47351A8
:1016F80042F8103F314823F0C8FBA546786807F048
:101708002FFD00214FF602403A1D09F051FB044617
:1017180018B1304A57E72649B8E77868C368B3F87C
:101728000130A5F8C13007F01BFD95F8C1305A0704
:101738007FF54DAF21464FF603403A1D09F038FBBF
:1017480008B1254A3FE77868C3685B7885F8C030F8
:1017580007F006FD3BE72E78002E7FF43CAF95F8A6
:10176800C1309B061FD54FF0FF304FF0FF3109F015
:1017780083F8044610B96FF06804E7E506210C30D9
:1017880007F074FED5F8013021460360134B32464A
:101798009B8883804FF6064009F00AFB0446002820
:1017A8003FF419AFD2E56FF08504CFE53CAB0200FA
:1017B80019DD02002CE10200040000016CA1020006
:1017C80024AB020045E1020014AB02005DE1020017
:1017D800070000018AE10200B3E10200C104002011
:1017E8000B46024A0221024820F00FBFA4B30200B0
:1017F800CCA102000321024A024820F008BF00BF22
:10180800D0B30200CCA102000221024A024820F013
:10181800FEBE00BFE2B30200CCA1020070B50446D0
:101828000D46124A0321124820F0F1FE29462046AF
:1018380006F08AF8284606F043F9204623F087F890
:1018480005220C490C4806F051F8034630B1BDE8B2
:1018580070400121094A064820F0D7BE0321BDE89F
:101868007040074A024820F0D2BE00BFF4B302001D
:10187800CCA10200FCBB0200BC20002010B4020076
:1018880029B4020008B508460BF0CEFB014B1860DE
:1018980008BD00BF00210020002370B586B08DF878
:1018A800033023F089F8044640B10346224A012157
:1018B800224820F0AAFE204606B070BD05F06AFE58
:1018C80001AA15461E4B03F11006144618685968FC
:1018D800083303C4B3422246F7D11B782946237044
:1018E800032005F0C3FD044610B10346154ADEE7A0
:1018F8009DF80330144943F004030DF103028DF8F9
:10190800033012F0CFFB21469DF8030005F06EFE70
:10191800044610B103460D4AC9E7012005F0D6FF79
:10192800044610B103460A4AC1E70321094A03489D
:1019380020F06DFEBFE700BF42B40200CCA1020058
:10194800D4A3020063B402004D20000087B4020053
:10195800ACB40200CEB4020003460221014A024898
:1019680020F053BEDBB40200CCA10200084621B926
:101978000321034A034820F04ABEFFF7EDBF00BF2A
:10198800FAB40200CCA10200F0B587B001AA05465E
:1019980016460E4B03F110071446186859680833A9
:1019A80003C4BB422246F7D11B7831462370284630
:1019B800074B084A05F046FC034620B10121064AB8
:1019C800064820F022FE07B0F0BD00BFD4A30200F5
:1019D800BC200020680600200CB50200CCA1020043
:1019E8004FF424720023014819F0A8BDB80E002056
:1019F800052210B50D490E4805F078FF034630B9A9
:101A0800BDE8104003210B4A0B4820F000BE10F13E
:101A1800780F03D1BDE81040FFF7E2BF0121BDE810
:101A28001040064A044820F0F0BD00BFF6BB020093
:101A3800BC20002029B40200CCA1020010B402008E
:101A48004FF424720023014819F078BD180F0020C4
:101A5800072210B50D490E4805F048FF034630B976
:101A6800BDE8104003210B4A0B4820F0D0BD10F10F
:101A7800780F03D1BDE81040FFF7E2BF0121BDE8B0
:101A88001040064A044820F0C0BD00BFE6BB020073
:101A9800BC20002044B50200CCA102005FB50200C2
:101AA80008B503210448054A20F0B1FDBDE8084007
:101AB8000349044826F0EFBFCCA102007AB5020022
:101AC80004210020180E0020072210B50D490E48E9
:101AD80005F00CFF034618B9BDE81040FFF7E0BF5A
:101AE80010F1780F07D1BDE810404FF4247200239D
:101AF800064819F023BD0121BDE81040044A0548F5
:101B080020F083BDEEBB0200BC200020E80E0020C0
:101B180095B50200CCA1020010B5064A064802217C
:101B280020F075FDBDE8104040F2676200230348CD
:101B380019F004BDB0B50200CCA10200480F002086
:101B480003460221014A024820F05FBDD9B50200D0
:101B5800CCA102002DE9F041454D00AF287870BBBB
:101B6800444E30888418B4F5A46F25DC424B1844E1
:101B780027F064FFA3B2B3F5A46F338012D1012418
:101B880003213E4A3E482C7020F041FD06223D4983
:101B98003D4805F0ABFE034640B121463B4A384874
:101BA80020F033FD0120BD46BDE8F0810321384A0D
:101BB800334820F02CFDF5E7364A0121F8E7364D89
:101BC800287800BB40F67416DFF8D080B8F800001B
:101BD8008418B44215DC324B184427F02FFFA3B207
:101BE800B342A8F80030DDD101232E4A244803214E
:101BF8002B7020F00CFD002200232B4819F09EFCCE
:101C0800D0E72A4AD9E7DFF8A88098F8000000282A
:101C1800C8D1284D28888418122C27DC264E304439
:101C280027F00CFFA3B2122B2B80BBD10123032179
:101C3800224A134888F800306C4620F0E8FC8AB045
:101C48006A462B881E49D661C2E9051340F2013362
:101C580013841C4B0A4842F8103F4FF4135120F0EC
:101C6800DAFC0022A54600231748C7E7174AA4E76D
:101C7800D74800202C3F0020D8480020F0B50200AB
:101C8800CCA10200DFBB0200BC2000200EB602007F
:101C980028B6020042B60200623F00202A3F002018
:101CA800633F00205DB60200180F00207AB60200DC
:101CB8004F3F0020283F0020503F002094B60200EC
:101CC800A5B6020004000001E80E0020B3B6020029
:101CD80010B50C4620F0ADFC044818F06BFC24B19C
:101CE8002046BDE81040FFF72BBF10BDF00B0020C9
:101CF80008B51C201BF026FD38B100230383011D05
:101D0800BDE80840034820F089BCBDE80840FFF75B
:101D180003BF00BF409D020070B503788AB0044637
:101D28000E4607AD032B20D8DFE803F002191B1D70
:101D380011492846FFF7F8F8059563781E210493A2
:101D4800A37830460393E3780C4A029323790193EE
:101D580063790093A37920F055F90AB070BD08495A
:101D6800E7E70849E5E70849E3E70A212846074A7B
:101D780020F048F9E0E700BFCBB60200EDB602005C
:101D8800D2B60200D9B60200E3B60200E4020300AC
:101D980090B589B000AF0C4623F085FB3946FFF7B4
:101DA800BBFF8AB06A46094BD461C2E90537084BC4
:101DB8004FF442511362074B07485362074B42F8EE
:101DC800103F20F028FC2437BD4690BD10B7020014
:101DD800BB18030000020204CCA1020005000002A7
:101DE80080B588B000AF23F05EFB3946FFF794FF5B
:101DF80088B06A46084B4FF4E651C2E905374FF4FC
:101E080000739383054B064842F8103F20F003FC0B
:101E18002037BD4680BD00BF36B702000300000171
:101E2800CCA1020090B589B000AF0C4623F03BFB73
:101E38003946FFF771FF8AB06A46094BD461C2E997
:101E480005374FF400731384064B4FF413510648BB
:101E580042F8103F20F0DFFB2437BD4690BD00BF9D
:101E68004CB7020004000001CCA1020090B589B073
:101E7800036800AF186839461446FFF74DFF8AB06B
:101E88006B46094ADC61C3E905274FF400721A84DE
:101E98001A46064B4FF41351054842F8103F20F0FC
:101EA800BAFB2437BD4690BD6EB70200040000019E
:101EB800CCA10200F0B589B000AF0C46054623F06E
:101EC800F2FA3946FFF728FF6E468AB06A46114B88
:101ED800D461C2E90537104B104C1362104B4FF414
:101EE800435153620F4B104842F8103F20F093FBC8
:101EF8002368B5469D420AD1002020F099FB20684E
:101F08000BF0BCF800230948236018F073FF24374E
:101F1800BD46F0BD9BB70200BB180300002100209E
:101F28000002020405000002CCA1020014210020D6
:101F3800F0B50D4689B000AF044623F0B4FA39462F
:101F4800FFF7EAFE15B36E468AB06A462F4BD56195
:101F5800C2E905372E4B2F4D13622F4B4FF44351D7
:101F680053622E4B2E4842F8103F20F054FB2B684A
:101F7800B5469C4207D120460BF080F8002329483B
:101F88002B6018F037FF2437BD46F0BD6D4688B08A
:101F98006A46254B4FF4E651C2E905374FF4007302
:101FA8009383224B1E4842F8103F20F034FB012057
:101FB800AD4620F03DFB1E4B1E4920460B600FF03E
:101FC8005DFB034620B102211B4A154820F01DFB8A
:101FD8000221204623F0E3F9034658B10221174AAB
:101FE8000F4820F012FB0B4B1B689C4202D1204685
:101FF800FFF7CAFC22F0E0FC03460028C3D0012109
:102008000F4A074820F001FBBDE700BFBEB702003A
:10201800BB18030000210020000202040500000292
:10202800CCA1020014210020E1B702000300000146
:1020380075190000B8200020EFB702000CB80200A4
:1020480027B80200B0B5054688B000AF0C4639463F
:10205800FFF762FE294600200BF0FAFD20B10BF0D5
:102068000DF82037BD46B0BD2946022005F0FEF91F
:1020780098B16C468AB06A46134BD761C2E90530FD
:1020880040F201331384114B4FF41151104842F8B8
:10209800103F20F0C0FAA546E3E76D4688B06A46CF
:1020A8000C4B4FF4E651C2E905374FF400739383A4
:1020B800094B074842F8103F20F0ADFA2378AD46A7
:1020C80043F002032370CCE744B802000400000187
:1020D800CCA1020070B802000300000110B54268EC
:1020E8000369126892010ED40F4940F2A2630F4AA5
:1020F8000F4821F088FA0F4821F085FA40F2A261D2
:102108000A4821F077FA1B689B0148BF81F001015A
:1021180031B18368DB684FF00071BDE810401847A3
:1021280083681B69F7E700BFBAB8020089B80200E4
:10213800F8B8020015B902002DE9F04F83B002AFDC
:1021480026F030FD4FF47A78A0FB080908FB0199C6
:102158004FEAD03A01212D48FFF7C0FF2C4E2D4AF7
:10216800338840F6741100922B482C4A20F09BFDCE
:102178000021834625484AEA494AFFF7AFFF4FEA5C
:10218800D93926F00FFDA0FB080508FB0155C40B43
:1021980044EA4544ED0BBBF1000F34D10321204A3A
:1021A800204820F034FAE84688B002AA1E4BB4EB67
:1021B8000A0453614FF0040365EB0905C2E90645BB
:1021C8004FF4035142F8103F164820F024FA032137
:1021D800C546164A134820F01AFA0023144A3380D9
:1021E8001380144A14481370144A1380144A137045
:1021F800144A13704FF42472002319F09FF904371E
:10220800BD46BDE8F08F01210F4AC9E7089D0200CD
:10221800283F0020D8480020633F0020503F00207E
:1022280027B90200CCA1020078B9020093B90200D4
:102238002C3F0020D7480020B80E00202A3F00205D
:10224800623F00204F3F002050B902002DE9F041C5
:10225800154688B000AF0E46044623F024F93946E7
:10226800FFF75AFDEDB96D468AB06A46184BD6613C
:10227800C2E905374FF400731384164B4FF413511A
:10228800154842F8103F20F0C6F9AD46134B1B68BD
:102298009C4202D12046FFF777FB2037BD46BDE8B8
:1022A800F081E8468CB06B460D4AC3E90765C3E97F
:1022B80005270C4A4FF462515A620B4A06489A6243
:1022C8001A460A4B42F8103F20F0A5F9C546DDE74B
:1022D800B8B9020004000001CCA1020000210020CE
:1022E800D6B90200BB18030000020305060000026D
:1022F80070B50B78052B00F29D80DFE803F00384AE
:102308003065764A8B68002B00F094804868002876
:1023180000F09080484A1368FBB1181F002313602F
:10232800464A136026F0F1FC00220023444818F0C6
:10233800B5F8014600287DD0028B424804318368F5
:102348005C684FF0FF33A047002873D03E4A022153
:10235800BDE870403D4820F05AB90438E2E74A68C1
:10236800CB68908A03443A489BB293820278002A49
:1023780060D14A68134413F8013C0A2B01D00D2B95
:1023880058D1012303702F48BDE8704083685B690A
:10239800184700242E4B1C201C701BF0D3F930B1B9
:1023A8000483011DBDE87040264820F037B9294A4A
:1023B8002648022120F02BF9BDE8704040F2676200
:1023C8000023254819F0BAB81C201BF0BBF90146B8
:1023D80048B1002303831B481422BDE8704083687A
:1023E80004311B6918471B4AB1E74B68191F9B8AC0
:1023F80023B1BDE87040194826F0CFBA0846BDE8B9
:10240800704026F082BC0C4B1A680AB94A681A60F8
:102418000A4A896810681C6801441160A28A521A25
:102428000848214483685D684FF0FF33AC46BDE837
:102438007040604770BD00BFB4200020B02000206D
:102448003C0C0020409D0200FDB90200CCA1020016
:102458004E3F0020B0B50200480F0020200C00209D
:102468002DE9F0438BB020F0E2F8964C204626F098
:1024780026FA40B9944A0121944820F0C8F800206F
:102488000BB0BDE8F0836368A1681B6822699B01F3
:102498000ED48F4940F211438E4A8F4821F0B3F889
:1024A8008E4821F0B0F840F211418A4821F0A2F894
:1024B8001368204623F0007313600B684FF4C022A2
:1024C8001921984786480BF0B3FD08B1854AD2E731
:1024D80085480BF0C7FD18B1844821F07EF8CEE797
:1024E80008F050FF044630B10346814A012177487D
:1024F80020F08BF8C3E703217E4A744820F087F860
:1025080022F016F87C4E304626F0D9F940B9012160
:102518007A4A6E4820F07BF86FF01203784AE5E7B4
:102528001C201BF00FF9054650B304837549764803
:1025380018F074FEB3681B682BB322463046734903
:10254800984703460028E9D13046291D20F066F84F
:1025580003460028E2D1002305936D4B6D48039391
:102568006D4B03A9049322F05DFA044670B103464B
:102578006A4A0121554820F048F82346684AB5E7D9
:102588006FF00B03CAE76FF05703C7E7654A0321EB
:102598004E4820F03CF86449644818F03FFE64490E
:1025A800644818F03BFE6449644818F037FE6448F4
:1025B80018F01CFD4FF420426FF008036149604891
:1025C800009418F02DFD6049604818F0EBFA0123DB
:1025D80003A8CDE9034405948DF8103005F03EF9C1
:1025E8005B4804F033FF5B495B4818F0DBFA0321D2
:1025F8005A4A364820F00BF8FFF74EF904460028EF
:102608007FF43DAF564820F0E8FF1C22214603A87E
:1026180027F03BFA534FDFF8FC80DFF84C914FF07E
:10262800FF334FF0FF32384617F038FFBDF824402B
:10263800038BC4F114049C42054628BF1C4600269F
:102648001CB9284626F061FBE9E7BDF82400311DD6
:1026580003AB043022462944184427F0EFF9BDF8AB
:1026680024202644224492B2132AADF8242008D804
:1026780002F128036B4413F8193C0A2B01D00D2BE7
:1026880019D1404604A905F031F9034620B10221C9
:10269800364A0E481FF0B9FF41F23432002348464B
:1026A80018F00CF820B10221314A08481FF0AFFF9A
:1026B8000023ADF824302C8BA41B142C28BF142421
:1026C800BEE700BF089D02001BBA0200CCA10200B1
:1026D800BAB8020089B80200F8B8020015B90200B9
:1026E8004806002032BA0200380600205EBA02000E
:1026F80090BA0200AFBA0200409D0200C5BA0200BB
:10270800DBBA0200F91C0000480F0020F922000083
:102718005D1B0000BC200020D91C0000F5BA020097
:102728001FBB02003FBB0200591A0000180F00200F
:10273800D11A0000E80E0020F9190000B80E002098
:10274800180E0020585100204121000004210020CB
:10275800600600201B260200142100205DBB020039
:1027680075BB0200200C0020F00B00209DBB02006E
:10277800CEBB02002DE9F74F06464FF0080A4FF08E
:1027880000098025174A002309F1010952F8291088
:10279800EF189F42019122D906EB8708C34606EB42
:1027A8008304D8F80010019B83FB010100F09EF818
:1027B80021680C4A091A48F8041B54F8041B014400
:1027C8005C4544F8041CECD1EB19FF2BDCD9BAF1B9
:1027D800010A4FEA5505D6D103B0BDE8F08F1F4670
:1027E800F2E700BF28A502002DE9F74F05464FF094
:1027F800080A4FF4807901271E4B002409F1FF399C
:1028080053F8292004EB070B05EB8B06C2F10008EF
:10281800324605EB8404216830680192084444F884
:10282800040B56F8040B091A46F8041C88FB01012E
:1028380000F05CF8019A0F4B944246F8040CEAD178
:102848000BEB0704FF2CD9D9BAF1010A4FEA470765
:10285800D3D14AF2FA362C1F05F57F7554F8041FB8
:1028680081FB060100F042F8A5422060F6D103B0D2
:10287800BDE8F08F28A50200F0B5054600200E4FF0
:10288800C2F10306B418A34214D3947892F801E075
:1028980092F800C0240444EA0E2444EA0C04C4F369
:1028A8001604BC429CBF45F820400130884202F122
:1028B8000302E7D3F0BD00BF00E07F000A4B10B56C
:1028C80099420EDC021F00F57F7052F8043FDC17B6
:1028D80004EA43041B1B994203DD8242F5D1002020
:1028E80010BD0120FCE700BF00FC0F0003460846AE
:1028F800C3EBC302034903EB822203EB4232C2FB60
:1029080001307047FF1F80FF034A00F58003DB1585
:1029180002FB0300704700BFFF1F80FF024B03EA62
:10292800E0731844704700BF01E07F00024642F69A
:102938000B4001F17F03DB11434303F500031B1632
:10294800C3F12B00C01723EA0000074B10B503FBA7
:102958000011064BC1F57F1404F5405403EAE473F3
:10296800C91A116010BD00BF0018FDFF01E07F000B
:102978002DE9F041ADF5074DACB01E460DF5074306
:10298800D3F8CC70CC330DF50743FF2F03F1D003F8
:1029980004461546D3F8008000F2D18040F674133F
:1029A800994240F0CC800DF5BD514246103104A843
:1029B8001FF040FE0DF55E52234630320DF5F661EC
:1029C8000CA81FF052FE002840F0B9805D490DF5B3
:1029D800F66020F0E6F80446002840F0B0804FF496
:1029E800A463424640211CA820F0A6FB03A820F0BF
:1029F80067FB40221CA903A820F070FB1CAB1946FA
:102A0800022203A81C705F7020F068FB0DF50743D5
:102A1800D3F8C8103A4603A8C83320F05FFB324603
:102A2800294603A820F05AFB03A820F05DFB03AA5F
:102A380040211CA820F05DFB03A820F05EFB0CA938
:102A4800ECA81FF014FF0DF58F4004A9303020F0DA
:102A58001BF80DF5F66020F042F80DF58F410DF5E5
:102A68001E500DF5F6623031303020F088F8ECA8B1
:102A78001FF091FE0DF5BD50103020F0C7F80DF590
:102A8800BD50103020F0D4F80DF5BD52103210466C
:102A9800ECA920F0D1F80DF51E5130310DF5BD52DD
:102AA8000846103220F0A2F80DF51E50303020F004
:102AB80089F80DF51E50303020F0BCF80DF51E5089
:102AC800303020F081F80DF51E5130310DF55E5291
:102AD8003032084620F0B2F80DF51E5130312CA8DE
:102AE80020F0BCF803A820F0EBFA40221CA903A8A8
:102AF80020F0F4FA4FF440722CA903A820F0EEFA63
:102B080003A820F0F1FA14AB1846202103AA019378
:102B180020F0EFFA03A820F0F0FA2146019A0CAB56
:102B280013F8015B12F8010B854208D10131202905
:102B3800F6D120460DF5074D2CB0BDE8F0814FF0D9
:102B4800FF34F6E7B2FF01002DE9F04F0368BDB08E
:102B58000A9343680B9383680C93C3680D930369C6
:102B68000E9343690F9383691093C3691193036AA2
:102B78001293436A1393836A1493C36A1593036B7E
:102B88001693436B1793836B1893C36B1993036C5A
:102B98001A93436C1B93836C1C93C36C1D93036D36
:102BA8001E93436D1F93836D2093C36D2193036E12
:102BB8002293436E2393836E2493C36E2593036FEE
:102BC8002693436F2793836F2893C36F2993D0F875
:102BD80080302A93D0F884302B93D0F888302C9307
:102BE800D0F88C302D93D0F890302E93D0F89430C4
:102BF8002F93D0F898303093D0F89C303193D0F898
:102C0800A0303293D0F8A4303393D0F8A83034935E
:102C1800D0F8AC303593D0F8B0303693D0F8B43023
:102C28003793D0F8B8303893D0F8BC303993D0F80F
:102C3800C030D0F8C4603A93014B009302E000BF63
:102C480058A40200149A0A9B159953400B9A82EAD9
:102C580001051E9A53401F9A5540289A5340299AB5
:102C68005540329A5340339A089355400C9B169A14
:102C780083EA02090D9B179A83EA0208209B189A97
:102C880089EA0309219B88EA03082A9B89EA030940
:102C98002B9B88EA0308349B89EA0309359B4FEA92
:102CA800490B88EA03080E9B4BEAD87B83EA020C9F
:102CB8000F9B199A4FEA480A83EA0207229B239A34
:102CC8008CEA030C57402C9B2D9A8CEA030C574036
:102CD800369B379A8CEA030C5740109B1A9ADDF8FA
:102CE80074E083EA0204119B1B9A4AEAD97A83EAC0
:102CF8000201249A129B5440259A51402E9A54401E
:102D08002F9A5140389A5440399A51401C9A5A4047
:102D1800139B83EA0E0E269B5A40279B8EEA030ECE
:102D2800309B5A40319B8EEA030E3A9B8EEA060E80
:102D38005A408BEA020301938AEA0E0302934FEA90
:102D48004C0B089B4BEAD77B4FEA470A4AEADC7AE6
:102D58008BEA030303938AEA05034FEA410A4AEA26
:102D6800D47A04938AEA08034FEA4E0848EAD278EC
:102D7800520042EADE72059382EA0C03069388EA5F
:102D880007030793089B6A0042EAD3725B0043EA91
:102D9800D5736340089382EA01034FEA440B0A9A09
:102DA8000993019B4BEAD17B8BEA090B83EA020961
:102DB800029B0B9A179983EA020A039B169A239C93
:102DC8005A40049B150D4B4045EA03351B0D43EA59
:102DD8000233229A05998BEA02024C404FEA525874
:102DE80048EAC428640D44EAC2242E99069A2F9F03
:102DF8005140079A7A404FEA425E4EEAD12E490581
:102E08003A9F41EAD221089A7A40099F7E404FEAC8
:102E1800863C4CEA924C920342EA9642009ED6E9DE
:102E280000768AEA06060B9689EA070728EA050665
:102E38007E400B9F0A9624EA030677402EEA040692
:102E48005E400B9721EA08076F40239625EA09059B
:102E58002CEA0E0623EA0A03744083EA0C0329EAE3
:102E68000206229722EA01076A4071403B942E929B
:102E78002AEA0C04109A2F93069B87EA08071691F2
:102E880084EA0E013A97179183EA0201079B119A87
:102E98001D9C53404FEA037C4CEA111C090741EA88
:102EA80013111C9A089B2B9F5340099A62401605E0
:102EB80046EA13361B051E9C43EA1233019A82EA3E
:102EC80004051F9C029A62404FEAC20848EA5578F6
:102ED800ED002A9C45EA5275039A25EA030A6240E6
:102EE800049C4FEAD24E7C404EEA443EE40C44EA4D
:102EF8004234369A379F8BEA0209059A8AEA010A10
:102F08007A404FEAD90747EA4277D20842EA49723B
:102F180028EA060989EA0C09CDF8A8A02EEA050ACC
:102F28008AEA030ACDF8AC9024EA080989EA060976
:102F3800CDF840A023EA010327EA0E0A8AEA05052C
:102F480026EA0C067B40CDF8449022EA04091E9537
:102F58001C9389EA080586EA02031F951D932CEA4B
:102F68000205039B0C9A21EA070883EA0201049BE5
:102F78000D9A88EA0E0E53404FEA430C4CEAD17C76
:102F88006C40490041EAD371CDF8D8E0189B3794DA
:102F9800059A199C8BEA03036240960146EA9366F8
:102FA8009B01249C43EA9263069A319F82EA0405B6
:102FB800259C079ADDF8CC9062404FEA426848EABF
:102FC800D5186D0645EAD215309C089A25EA030AF9
:102FD8005440099A8AEA010A7A404FEA022E4EEAD8
:102FE800146E2402329F44EA1264019ACDF860A05C
:102FF8007A40029F24EA050A87EA09094FEA8947C5
:1030080047EA9237920442EA993228EA060989EA9D
:103018000C098AEA030ACDF8649023EA01032EEA30
:10302800080989EA0609534026EA0C06CDF8C0A02B
:1030380022EA040A8AEA0505CDF8C490329327EA01
:103048000E0986EA07030C95339389EA0805089B5D
:1030580021EA0208129A0D9583EA0201139A099B44
:103068002CEA070553404FEAC36C4CEA511CC906C9
:1030780041EA531188EA0404019B149A249485EACE
:103088000E045A402594029B159C160F634046EA8D
:1030980003161B0F43EA0213039A209C2D9F82EA12
:1030A8000405219C049A62404FEA822848EA955810
:1030B800AD0245EA92552C9A25EA060A8BEA0204E3
:1030C800059A8AEA010A7A404FEAC23E4EEA544E0D
:1030D800E403389F44EA5244069ACDF8E0A082EA15
:1030E8000709399F079A24EA050A7A404FEA1927FF
:1030F80047EA0267120A42EA096228EA030989EAEA
:103108000C098AEA060ACDF8E4902EEA080989EA49
:103118000309CDF850A023EA0C0327EA040A8AEA37
:1031280005055340CDF8549026EA010622EA0E0917
:103138002C95219389EA08050E9B21EA070886EA5F
:10314800070188EA04042D9520912CEA02050F99BD
:10315800059A8BEA0303129485EA0E0413949D08DA
:1031680082EA010445EA8475A40844EA83741A9A39
:10317800069B269E83EA0201079B1B9A279F5A40BB
:103188004B0A43EAC253520A42EAC15208997140B3
:10319800099E4FEA516C77404CEAC71C7F0E47EAFC
:1031A800C1170199289EDDF8A4E07140029E4FEAFC
:1031B800D15886EA0E0648EA4628F60DDDF8D0E032
:1031C80046EA41260399DDF8D49081EA0E01DDF83C
:1031D80010E02CEA030A8EEA09094FEA890E4EEA42
:1031E800917E890041EA99718AEA050A27EA02096B
:1031F800CDF898A089EA040928EA0C0ACDF89C9031
:103208008AEA030A26EA070923EA050389EA020982
:103218004B4022EA04020E9382EA0E03CDF8D0A0B6
:103228002A9A21EA080ACDF8D4900F932EEA0609C3
:103238000A9B8AEA0C0C89EA0707CDF868C01B9735
:1032480025EA010C24EA0E072B995A400B9B7E4075
:10325800299683EA01061899229B4A4019998CEA13
:10326800080C4E403899CDF8A0C04A4039994E40D4
:1032780026994A4027994E40109983EA01091199E5
:10328800239B83EA0108309B1E9989EA0309319B35
:10329800DDF8CCE088EA0308149B89EA0309159B4A
:1032A80088EA0308349B89EA0309359B4FEA490BEE
:1032B80088EA03083A9B4BEAD87B83EA010C3B9BDC
:1032C8001F994FEA480A83EA01070C9B0D998CEA7B
:1032D800030C4F402C9B2D998CEA030C4F401A9BF2
:1032E8001B998CEA030C4F40169B36994AEAD97A07
:1032F80083EA0105179B379983EA010424991C9BEB
:103308004D4025994C4012994D4013994C402899AD
:103318004D4029994C40329959401D9B83EA0E0E25
:103328002E9B59402F9B8EEA030E209B5940219BD0
:103338008EEA030E0E9B59400F9B8EEA030E8BEA12
:1033480001034FEA4C0B01934BEAD77B8AEA0E0341
:103358004FEA470A02934AEADC7A8BEA02030393AC
:103368008AEA06034FEA440A4AEAD57A04938AEAC3
:1033780008034FEA4E0848EAD178490041EADE716D
:10338800059381EA0C03710041EAD2715200069359
:1033980042EAD67288EA0703079382EA050308938C
:1033A80081EA0403019A09934FEA450B0A9B4BEA09
:1033B800D47B8BEA090B83EA02090B9B029A059CD2
:1033C80083EA020A109B039A079E83EA0201119B73
:1033D800049A0D0D5A400C9B45EA0235120D42EA3B
:1033E800013283EA0B010D9B4FEA51585C4048EAD1
:1033F800C428640D44EAC124129B0699099F5940C8
:10340800139B5E404FEA465E4EEAD12E490541EADB
:10341800D621089B0E9E5E4033460F9E7E404FEAA3
:10342800863C4CEA934C9B0343EA9643009ED6E9BC
:1034380002768AEA06060B9689EA070728EA05064D
:103448007E400B9F0A9624EA020677402EEA04067D
:1034580056400B9721EA08076F400D9625EA0905A3
:103468002CEA0E06744022EA0A0229EA03060C979F
:1034780023EA01076B40129382EA0C037140069A13
:103488000F9413932AEA0C04169B109184EA0E01F8
:10349800119183EA0201079A179B099C53404FEA4E
:1034A800037C4CEA111C090741EA1311089A1C9B7A
:1034B80087EA080753401D9A0E976240160546EAA8
:1034C80013361B0543EA1233019C189A049F82EABB
:1034D8000405029C199A62404FEAC20848EA5578E6
:1034E800ED0045EA5275039C149A25EA030A6240E6
:1034F800159C4FEAD24E7C404EEA443EE40C44EA26
:1035080042341A9A8AEA010A82EA0B091B9A059F31
:10351800CDF850A07A404FEAD90747EA4277D20857
:1035280042EA497228EA060989EA0C092EEA050ADC
:103538008AEA030ACDF8549024EA080989EA0609B8
:10354800CDF858A023EA010327EA0E0A8AEA0505FE
:1035580026EA0C067B40CDF85C9022EA040918950F
:103568001C9389EA080586EA020319951D932CEA3B
:103578000205229B039A21EA070883EA0201049ABA
:10358800239B6C4053404FEA430C4CEAD17C1F9A72
:103598001B944900059C41EAD3711E9B624083EA53
:1035A8000B03960146EA93669B0143EA9263069CE5
:1035B800249A88EA0E0E82EA0405079C259A099F38
:1035C80062404FEA426848EAD5186D0645EAD215C6
:1035D800089C209ACDF868E05440219ADDF80890BC
:1035E8007A404FEA022E4EEA146E240244EA12642C
:1035F800019F269A25EA030A7A40279F8AEA010A48
:1036080087EA09094FEA894747EA9237920442EA6A
:10361800993228EA060989EA0C09CDF878A024EA43
:10362800050ACDF87C908AEA030A2EEA080923EAFB
:10363800010389EA0609534026EA0C06CDF880A062
:1036480022EA040A8AEA0505CDF88490269327EA37
:103658000E0986EA07032295279389EA08052E9B17
:1036680021EA0208089A239583EA0201099A2F9B06
:103678002CEA070553404FEAC36C4CEA511CC906B3
:1036880041EA531188EA04042A9B019A249485EAA2
:103698000E045A4025942B9B029C160F634046EA61
:1036A80003161B0F43EA0213039C309A059F82EA14
:1036B8000405049C319A62404FEA822848EA9558EA
:1036C800AD0245EA92552C9A25EA060A82EA0B04CD
:1036D8002D9A8AEA010A7A404FEAC23E4EEA544ECF
:1036E800E40344EA5244069F289ACDF8A0A082EA4F
:1036F8000709299A079F24EA050A7A404FEA1927F9
:1037080047EA0267120A42EA096228EA030989EAD3
:103718000C098AEA060ACDF8A4902EEA080989EA73
:103728000309CDF8A8A027EA040A8AEA0505CDF816
:10373800AC9023EA0C0322EA0E0953402C9526EAA2
:10374800010689EA08052D9521EA0708319386EADA
:1037580007013A9B2CEA020530913B9A059983EAC6
:103768000B034A404FEA930C4CEA827C920842EAE7
:1037780083720699369B88EA04042E9485EA0E041F
:103788004B402F943799079C5D0A81EA040645EA65
:10379800C655760A46EAC3560899329B099C4B409F
:1037A80033994FEA53684C4048EAC418640E44EA17
:1037B800C3140199389B029F4B4039994FEAD35E55
:1037C80079404EEA412EC90D41EA4321039F349BBB
:1037D800DDF810907B40359F28EA050A87EA090939
:1037E8004FEA890747EA93779B0043EA997324EAEB
:1037F800060989EA02098AEA0C0ACDF8C8A0CDF8B8
:10380800CC902EEA080A21EA04098AEA050A89EA1C
:103818000609CDF8D0A0CDF8D49023EA0E0A27EAFD
:1038280001098AEA080889EA0404CDF8D88037949F
:103838002CEA030822EA070425EA0C056B4088EA0B
:103848000E0E6140CDF8E0E039913A93009B26EAEC
:10385800020610330093009A3C4B7E4093427FF45B
:10386800F1A90A9B03600B9B43600C9B83600D9B33
:10387800C3600E9B03610F9B4361109B8361119B87
:10388800C361129B0362139B4362149B8362159B63
:10389800C362169B0363179B4363189B8363199B3F
:1038A800C3631A9B03641B9B43641C9B83641D9B1B
:1038B800C3641E9B03651F9B4365209B8365219BF7
:1038C800C365229B0366239B4366249B8366259BD3
:1038D800C366269B0367279B4367289B8367299BAF
:1038E800C3672A9BC0F8B8E0C0F880302B9BC0F8AB
:1038F800BC10C0F884302C9BC0F888302D9BC0F8D1
:103908008C302E9BC0F890302F9BC0F89430309BA1
:10391800C0F89830319BC0F89C30329BC0F8A0307A
:10392800339BC0F8A430349BC0F8A830359BC0F84E
:10393800AC30369BC0F8B030379BC0F8B4303A9BF7
:10394800C0E930363DB0BDE8F08F00BF18A50200D1
:10395800F8B50F4600293BD00668012230461FF013
:1039680046FC0146044630461FF009FCC3070DD447
:10397800AF23184A184919481FF045FE3946184818
:103988001FF041FEAF2113481FF034FE2146304698
:103998001FF00BFC25182946002230461FF0EFFBCC
:1039A8002D1AAC420BD0B7230A4A0E490B481FF018
:1039B8002AFE39460C481FF026FEB721E3E72146C8
:1039C80030461FF0F8FB2146BDE8F8401FF02DBD3A
:1039D800F8BD00BF0FBC020032BC0200F8B80200FC
:1039E80043BC02007BBC0200A1BC02002DE9F843E5
:1039F80006681446B5684A1EB5F5004F34BF04235F
:103A080008230A400F4610D0C1F1000909EA01094C
:103A18004B4502F1FF3128BF4B4611420CD11746E6
:103A2800DCB900252846BDE8F883994213D8214619
:103A3800BDE8F8431FF03BBD34494FF4A673344A40
:103A480034481FF0E0FD34481FF0DDFD4FF4A67147
:103A58002F481FF0CFFD9146E2E7B5F5004F2CBF88
:103A680008200420FB1AE10804F0070201EBD30147
:103A7800073203F007031344034401EBD301A942BF
:103A880028BF294630461FF010FC80460028C8D0C1
:103A9800B36809EBC005B3F5004F34BF042308230E
:103AA8001D4435447B1E1D44B5FBF7F57D43A5EB4E
:103AB8000905294630461FF09AFB2C44073424F0A8
:103AC8000704A41B804507464FEAE40408D20246CF
:103AD800414630461FF022FC414630461FF063FC49
:103AE800394630461FF061FB3844844208D23946D3
:103AF800304622461FF012FC214630461FF053FC88
:103B08000122394630461FF056FB8BE7DDBC020028
:103B18000FBC0200F8B80200F8BC0200B2F5802F12
:103B28002DE9F04110D2042A28D8454940F21A2339
:103B3800444A45481FF067FD44481FF064FD40F2C1
:103B48001A2140481FF056FD0823D21ACC1D1144F3
:103B580024F0070421F00701091B17294FEAD106B1
:103B68000ED83B4940F22323364A37481FF04BFD15
:103B780036481FF048FD40F22321E2E70423E4E73A
:103B88000025046031462046A660E5601FF039FB39
:103B9800B6F5004F2CBF08230423421D92000833BA
:103BA800D11DDB0803EBD103B3424FEAD10739D863
:103BB80001302946A2F1100204F11000B8BF2A46CC
:103BC80025F063FF3A46294620461FF00CFB2B469A
:103BD8002A46294620461FF0DDFAA6EB07082046AC
:103BE800294601221FF0E7FA424639461FF0FBFA40
:103BF8003B462A46394620461FF0CCFA3146204635
:103C08001FF0F1FA43462A46314620461FF0C2FA11
:103C18003146204601221FF0CEFA3946BDE8F04170
:103C28001FF0C1BB0B494FF40E73064A06481FF03C
:103C3800EAFC06481FF0E7FC4FF40E7181E700BF6D
:103C480015BD02000FBC0200F8B8020036BD020024
:103C58004FBD020078BD02002DE9F04F97B000AFCC
:103C680089460446D7F880B0FA623B6258B9A94938
:103C780040F29933A84AA9481FF0C5FC40F299318F
:103C8800A5481FF0B7FCCBF3C00390F802A07B61F6
:103C980041B9457800780AEB800020444D4517D893
:103CA800A0EB0409E378FB61BAF1000F02D01BF026
:103CB800010F16D1FB6953BBFB6A1BB1494620466D
:103CC8003A6A98474D4628465C37BD46BDE8F08FAE
:103CD800461C3046FDF730F90130304409F101093E
:103CE800DCE7626823787A62FA6A9900B96104EBC2
:103CF8008301002A40F002810E464FF000084D462D
:103D080001EB0A094E454CD101EB0A0610E01BF005
:103D1800020FD1D023789A00BA61626804EB83015C
:103D28007A62FA6A002A77D14D46904601EB0A0674
:103D38001BF0050F0CBF02230123FB62FB6906EB96
:103D4800430A0BF00203BB625645BCD016F8021BAF
:103D580016F8013C54F82390714B994502D3714BE6
:103D6800994536D37B69002B40D0786A1FF00EFC4A
:103D780000283BD0E9468AB06A466B4B53617B6AA0
:103D8800C2E906314FF400731384684B42F8103FC0
:103D980000234FF41251664802F04CFA023DCD461A
:103DA800D2E716F8013BF96254F82300FDF7C4F88E
:103DB800D7F88430F96A01304BB1D7F88830984584
:103DC8003EBFD7F8843023F8180008F101080544ED
:103DD80098E77B6923B1786A1FF0D8FB0028C9D11E
:103DE8001BF0010F05D1FB6AED1AADE7BB6A002B8A
:103DF800AAD04846FDF7A0F8D7F8843053B1D7F8D1
:103E0800883098453FBFD7F88420431C22F81830E3
:103E180008F10108054497E7BAF1000F74D01BF0C8
:103E2800040674D0D046002607F1480052463B618C
:103E3800B96225F003FEB96A3B6901EB0A02BA626E
:103E4800FA69F9695200FA60BA6A02EB41023A610A
:103E58000BF00202BA60BA6A39698A426AD162789A
:103E68001BF0020F18BF00217A6208BF4FEA580101
:103E7800B2181BF0010FD2B240F0E5801BF0040F1E
:103E880014BF404600207B616270A070E17020463C
:103E98003A6AB969FB6A9847051EFFF614AF7B6951
:103EA800414623707B6A3A6A6370FB6984F802A012
:103EB800E37007F14800FB6A9847B0F10008C0F2C8
:103EC800F680BB69A9EB0A01C91AFB683A6AC91AE4
:103ED800D7E90A0398470028C0F2EB804FF0000B9F
:103EE800A84408EB000507F1380AB345C0F0AD80D7
:103EF80000213A6A0846FB6A9847E4E656464FF0BE
:103F0800000807F1380091E75646D04695E7B046D5
:103F180093E700BF38BE0200A3BD0200F8B8020054
:103F2800F09B02009823030053BE02000400000126
:103F3800C4A10200BA6A12F8021B12F8015CBA6244
:103F480054F825005C4A904202D35C4A904218D348
:103F58007A693AB1786A7B601FF018FB7B680028A1
:103F68007FF479AFBA68002A4CD00F2E40D9544953
:103F780040F24D43534A54481FF045FB40F24D412F
:103F88007EE67A693AB1786A7B601FF0FFFA7B684F
:103F980000287FF460AF1BF0010F0BD00F2E27D93C
:103FA800474940F24343474A47481FF02CFB40F239
:103FB800434165E61BF0040F3FF44DAFB8F10F0F16
:103FC80009D9424940F246433E4A3F481FF01BFB8D
:103FD80040F2464154E608F1280207F1300008F1A2
:103FE800010102EB000808F8105C5FFA81F832E77B
:103FF80006F1280207F13000711C161806F8205C3B
:10400800CEB228E7B8F10F0F09D930494FF48A63C7
:104018002C4A2D481FF0F7FA4FF48A6130E608F170
:10402800280207F1300C08F10100944407F1580206
:1040380008F1020852FA80F00CF8101C5FFA88F8B0
:1040480000F8105C07E700201DE71BF80A3054F859
:10405800239087F83730D7F884302BB3D7F88830D7
:104068009B4521D2D7F8843033F81B8001213A6A66
:10407800FB6A07F13700984700281ADB0544B8F1B6
:10408800000F06D14846FCF757FF00F101081FFA58
:1040980088F8414648463A6AFB6A9847002808DB90
:1040A80005440BF1010B20E74FF00008DEE7454619
:1040B80009E6054607E600BFF09B020098230300C7
:1040C800F6BE0200A3BD0200F8B8020015BF020048
:1040D800014B1B68184700BF74060020014B18608D
:1040E800704700BF7406002030B585B004460D4601
:1040F80010220021684625F0C8FC02238DF8023002
:10410800044B2A462146684601931EF00DF805B077
:1041180030BD00BFD940000080B505460E461746A1
:10412800984618F081FB034625F054FDDFF83C90D3
:10413800044649F80030424639463046A8470C4BF9
:104148001B7873B90B4940F246330B4A0B481FF0F2
:104158005AFA0B481FF057FA40F2463106481FF04A
:1041680049FA54F8090004F087F900BF0800000074
:104178005251002071BF020046BF0200F8B8020089
:1041880084BF020038B50D4604462022002125F0E0
:104198007CFC0022EB68E361AB68A3612B682362B7
:1041A8006B68A26263622A6923B1591E194208BF6B
:1041B80042F0010222610122002104F12C0024F0C6
:1041C80005FC48B1054906482F23064A1FF01BFA8B
:1041D8002F2104481FF00EFA38BD00BFA1010300CB
:1041E800F8B80200A6BF02002DE9F04F002789B0F9
:1041F800CDE90123436A04468B428846BA460597AF
:10420800079754D300F11406EFF31185202383F3A5
:104218001288BFF36F8F3046A94618F085FD58B94C
:1042280088234D4A4D494E481FF0EDF931464D4817
:104238001FF0E9F9882163E0304618F099FD079AE4
:104248002AB1394620461FF0C8FA0023079306A969
:1042580020461FF0E5F906998346414530D3226888
:10426800236A204613F8221003EB820A21F0030187
:1042780003F82210216842461FF0F6F9E36820602F
:10428800984218D04FF0000B304618F05BFD50B341
:1042980089F31188BFF36F8F059929B1A2690AB113
:1042A8002046904700230593BBF1000FACD1504640
:1042B80009B0BDE8F08F236943F008032361E1E703
:1042C80018B120461FF0EAF9DEE7DDE901321343B1
:1042D80039D0039124F0EFFB0399A0BB9DBB304676
:1042E80018F030FD78B94FF49A731B4A1E491C48E0
:1042F8001FF089F931461D481FF085F94FF49A716E
:1043080015481FF077F985F31188BFF36F8F04F113
:104318002C00DDE9012316F0D1F98346EFF311896A
:10432800202383F31288BFF36F8F304618F0FCFC0C
:1043380000283FF475AFBBFA8BFB304618F018FD28
:104348004FEA5B1BA0E7204607AB05AA27681FF0CA
:10435800C4F9834698E700BFCCBF0200F9BF02004A
:10436800F8B802000EC0020024C002003BC00200E0
:104378002DE9F0410446C36908460E46984704F102
:1043880014050746EFF31188202383F31288BFF33F
:104398006F8F284618F0C8FC68B988231A4A1B4949
:1043A8001B481FF030F929461A481FF02CF98821BC
:1043B80015481FF01FF9284618F0DAFC33783A46FA
:1043C80043F001033370616820461FF04DF96060C7
:1043D80020461FF01DFA284618F0B4FC68B94FF4BF
:1043E8009A73094A0C490A481FF00DF929460B48E7
:1043F8001FF009F94FF49A71DAE788F31188BFF3CF
:104408006F8FBDE8F08100BFCCBF0200F9BF02008A
:10441800F8B802000EC0020024C002003BC002002F
:104428002DE9F0470446002700F11406EFF3118840
:10443800202383F31288BFF36F8F304618F074FC83
:10444800054668B988233A4A3A493B481FF0DBF8E1
:1044580031463A481FF0D7F8882135481FF0CAF886
:10446800304618F085FC2369A16813F0080F02D1C3
:104478006368994200D9636A5B1A002B41D0206AAD
:1044880010F8213000EB810913F003023CD0022A16
:1044980004D150F821205FEA920A05D1DA0720D426
:1044A8004846E36998478246A168524620461FF06D
:1044B800DBF85146A06020461FF0E4F82F4630464E
:1044C80018F040FC10BB4FF49A73194A1C491A485B
:1044D8001FF099F831461B481FF095F84FF49A7170
:1044E800BBE743F0020300F82130E3694846A568BA
:1044F80098472946024620461FF0B6F80025A060D6
:10450800DDE71D46A946DAE71546FBE788F311887B
:10451800BFF36F8F002D89D137B1B9F1000F03D1E7
:1045280004F12C0016F046F84846BDE8F08700BFB5
:10453800CCBF0200F9BF0200F8B802000EC00200AA
:1045480024C002003BC002002DE9F0410446C369C3
:1045580008460D46984704F114060746EFF31188FC
:10456800202383F31288BFF36F8F304618F0DCFBEB
:1045780068B98823274A284928481FF044F8314653
:1045880027481FF040F8882122481FF033F83046AA
:1045980018F0EEFB2B786FF300032B7023699B0751
:1045A80005D5E268236A03EB82039D4222D12B786A
:1045B8006FF341032B70D4E90231994204D13A4692
:1045C80020461FF051F8A060394620461FF05AF8DF
:1045D800304618F0B7FB90B94FF49A730D4A114959
:1045E8000E481FF010F831460F481FF00CF84FF432
:1045F8009A71C9E72B6867F39F032B60E8E788F394
:104608001188BFF36F8F04F12C00BDE8F04115F05D
:10461800D1BF00BFCCBF0200F9BF0200F8B802004A
:104628000EC0020024C002003BC0020070B5044660
:1046380000F11405EFF31186202383F31288BFF3EA
:104648006F8F284618F070FB68B988231A4A1B49EF
:104658001B481EF0D8FF29461A481EF0D4FF8821AF
:1046680015481EF0C7FF284618F082FB2369A0688A
:1046780013F0080F02D16368984213D9646A241AA8
:10468800284618F05FFB78B94FF49A730A4A0E4926
:104698000B481EF0B8FF29460C481EF0B4FF4FF433
:1046A8009A71DDE71C1AEBE786F31188BFF36F8F69
:1046B800201E18BF012070BDCCBF0200F9BF020048
:1046C800F8B802000EC0020024C002003BC002007D
:1046D8002DE9F84F0446A38B08461907154612D44E
:1046E800022803F0070165D120461FF017F988B1A9
:1046F8000138042800F23781DFE810F05C0035014A
:104708008200D400040101280CBF43F0100143F0DB
:104718002001A1831434204618F014FB002840F02F
:104728009D819A494FF49A73994A9A481EF06BFFF3
:104738002146B1E003F00702501F01281ED80020CF
:10474800062A2768C4E9000014D13A4603E0E08B42
:104758000130E0831268002AF9D123F0070343F0FF
:1047680002022046A2831FF0D9F890B342F020023B
:10477800A2832EE023F007039AB2F2E7042A33D18A
:1047880023F007039AB22046A2831FF0C7F810B19E
:1047980042F02002A283A38B03F00709894540F069
:1047A800EC80A18BCA0640F1508121F01003A3834D
:1047B80001F00701D4F81880A38BB8F1000FB9DA1B
:1047C8000022276823F00703C4E9002243F001030D
:1047D800A383A38B03F00709894540F0CF80002FFE
:1047E800DFD00026B24644E06B4940F21B136B4A07
:1047F80068481EF008FF40F21B1168481EF0FAFED8
:1048080049B167494FF4AB73644A62481EF0FBFE36
:104818004FF4AB71F1E723684BB9624940F2571383
:104828005E4A5C481EF0EFFE40F25711E5E7236947
:104838001E684EB95C494FF4AD73584A55481EF08E
:10484800E2FE4FF4AD71D8E70F4688464FF00609EF
:10485800A38B23F0070343F006039BB2A383A2684C
:10486800002A40F08D80002F40F08D80002E98D0D7
:10487800BA4643F0080304F1140B5846A38318F012
:1048880061FA002840F09A8040494FF49A73404AF0
:1048980040481EF0B8FE594644481EF0B4FE4FF496
:1048A8009A71ADE0022909D0414940F25D133B4AB3
:1048B80038481EF0A8FE40F25D119EE7E78B4FB125
:1048C8003C494FF4AF73354A32481EF09CFE4FF412
:1048D800AF7192E723695E684EB9334940F26113BC
:1048E8002E4A2C481EF08FFE40F2611185E7A38BFB
:1048F800B84623F0070343F004039BB24FF00409C2
:10490800A383ACE7012909D02B494FF4B273234A9A
:1049180020481EF078FE4FF4B2716EE723684BB959
:10492800204940F265131D4A1A481EF06CFE40F2F9
:10493800651162E723699E684EB91B494FF4B47349
:10494800164A14481EF05FFE4FF4B47155E700276D
:10495800A38BB84623F0070343F005039BB24FF03F
:104968000509A3837BE70C4940F26B130B4A0948FE
:104978001EF049FE40F26B113FE7002700266EE764
:104988004FF0010A75E7924673E700BF24C00200A2
:10499800CCBF0200F8B80200811603005BC0020019
:1049A80080C002008CC00200AFC002003BC0020001
:1049B800C6C00200DCC00200EBC0020085F311880B
:1049C800BFF36F8FBAF1000F1CD177BB16B1204629
:1049D8002549B047EFF31185202383F31288BFF3ED
:1049E8006F8F584618F0A0F938BB88231F4A204912
:1049F80020481EF008FE59461F481EF004FE882174
:104A08001A48FBE6A1680029DFD00D680029DCD030
:104A180043464A462046D1F804A0D0471DB12B682A
:104A280029461D46F2E72B46FAE7394643464A46E9
:104A380020463F681EF09EFFC7E7584618F098F9D1
:104A4800A38B23F00803A383ABE68B067FF562AE46
:104A580021F02003A38301F0070145E685F31188BF
:104A6800BFF36F8FBDE8F88F854A0000CCBF020006
:104A7800F9BF0200F8B802000EC00200F8B50446FB
:104A88000D4600F11406EFF31187202383F31288F3
:104A9800BFF36F8F304618F047F968B988230C4A7E
:104AA8000C490D481EF0AFFD31460C481EF0ABFD19
:104AB800882107481EF09EFD304618F059F9A56177
:104AC8003A462046BDE8F8400121FFF701BE00BF85
:104AD800CCBF0200F9BF0200F8B802000EC0020005
:104AE8002DE9F04704460F461EF034FF051E68DB2B
:104AF80004F11409EFF3118A202383F31288BFF31A
:104B08006F8F484618F010F9804660B98823384AF4
:104B1800384939481EF077FD494638481EF073FD7C
:104B28008821334842E0484618F022F94FF6FF72D0
:104B3800E38BA68B934206F0070645D0022E15D1CB
:104B480035460133E383484618F0FCF8002841D184
:104B58004FF49A73264A2A4927481EF054FD4946BD
:104B680028481EF050FD4FF49A71DAE7062E13D844
:104B7800DFE806F0092D1212090409006FF0850517
:104B88004FF00008DFE700233B60636883B9C4E99E
:104B9800007786B13546F3E71B4917484FF4E473AD
:104BA8001A4A1EF030FD4FF4E47118481EF022FD39
:104BB8001F606760EDE7524602212046FFF788FD37
:104BC80035462846BDE8F0876FF00A05D8E76FF04C
:104BD8000405D5E78AF31188BFF36F8FB8F1000F8A
:104BE800EFD000233246394620461EF0C3FEE8E7E0
:104BF800CCBF0200F9BF0200F8B802000EC00200E4
:104C080024C002003BC00200EBC002005BC00200EF
:104C1800F8B5054600F11406EFF31187202383F356
:104C28001288BFF36F8F304618F07EF860B988237A
:104C3800254A264926481EF0E6FC314625481EF03E
:104C4800E2FC882120482BE0304618F091F8AC8B24
:104C580004F00704022C17D0012C0CBF6FF00404D9
:104C68006FF08504304618F06DF838BB4FF49A732E
:104C7800154A194916481EF0C6FC314617481EF059
:104C8800C2FC4FF49A71DDE7EB8B5BB9144910480D
:104C980040F2EF13134A1EF0B6FC40F2EF11114830
:104CA8001EF0A8FC013B9BB2EB83002BDAD13A46FD
:104CB80021462846FFF70CFD2046F8BD87F31188EA
:104CC800BFF36F8FF8E700BFCCBF0200F9BF020047
:104CD800F8B802000EC0020024C002003BC0020067
:104CE80001C102005BC0020008B54268034602F039
:104CF8000302022A81600AD0032A4FF0000103D080
:104D0800012A0AD1596006E01868596008BD186878
:104D180000225A6058B90020F8E70649064845239A
:104D2800064A1EF070FC452104481EF063FC18F08A
:104D380013FCF0E781160300F8B802000FC1020067
:104D48002DE9F7430F4606460821C06A1EF0BAFE51
:104D580080463C68DFF84890241A3C6004EA09055C
:104D6800AC4203D8002003B0BDE8F08308236A46AC
:104D7800214630461EF03CFE0028F4D169463046F4
:104D88001EF0AAFE40B1BDF80230BDF8042005EAC5
:104D9800090513441D443C60A4EB0804E0E700BF88
:104DA8000000FFFF73B504464FF6FF72C06A082182
:104DB8001EF088FE002563680F4EADF800208DF8C0
:104DC8000620E268191833401344181A60606846D0
:104DD800ADF80210ADF804501EF06BFE694620468F
:104DE8001EF03AFF2046211D1EF03BFE2846636850
:104DF8003340A36002B070BD0000FFFF2DE9F0470B
:104E080004468AB000F11407384623F0A6FDA06ACC
:104E18008368DB689847E06250B98D4A01218D4864
:104E28001EF02CFE6FF0150528460AB0BDE8F08785
:104E3800A06A8368DB6898470368013B1F2B01D988
:104E4800854AEBE7E368B3F5803F08D94FF4803231
:104E5800012100927F48814A1FF091FAE2E7A06A97
:104E6800216807AA22F075FA08B17D4AD6E7E568F5
:104E78002DB1089BB5FBF3F203FB12550DB1794A2E
:104E8800CCE7238A012B01D8774AC7E7E36A029562
:104E980093F805904FF0FF334FF0FF32384615F086
:104EA80075F80821E06A1EF00DFEA8460646238A1A
:104EB8001FFA85FA534508D8238A434523D1384633
:104EC80015F034F96FF02C05AEE7E1682B04891B67
:104ED80013FA81F14A460823204602911EF096FDF6
:104EE80078B1204602A91EF0BCFD08F1010808238C
:104EF8004A46204602991FFA88F81EF087FD0028C6
:104F0800DAD00135D3E79A450BD1029908234A46EE
:104F18002046891B1EF07AFD18B9204602A91EF00A
:104F2800A0FD204602A9FFF70BFF054618B1384639
:104F380015F0FCF878E7029B4FEA13484FEA084857
:104F48006360C4F80880D4E9011399420FD3082399
:104F5800204603AA1EF04CFD05460028E7D103AB06
:104F680013F8012B91453DD10135082DF8D163681F
:104F780020461B0C1B0402A902931EF072FD4A4630
:104F88002046E36802991EF041FD051ECFDB6368E9
:104F98007ED04FF6FF7906EB0308E3681FFA88F224
:104FA8009B1B9A42CDF8088038D303212F4A294801
:104FB8001EF064FD204661681EF062FD054600286B
:104FC800B5D163682A4AE16813400B44A3EB460352
:104FD800636013402046A3601EF066FE0546002D60
:104FE80072D0A4E7204603A91EF076FD626810B9C6
:104FF800921B6260A7E7BDF81050BDF80E10E06A7A
:10500800C4F8088029441EF05DFD40449042A06029
:10501800EED1002DECD06FF01C0580E0082341464E
:10502800204605AA1EF0E4FC054600287FF47FAF61
:10503800204605A91EF050FD38B1BDF814304B4587
:1050480003D1BDF81830002B6FD0B044A5E700BFDE
:1050580049C10200ECA102006BC1020088C1020034
:10506800B1C10200C9C10200DDC102004FC2020085
:105078000000FFFF4A4620465B1A1EF0C7FC051ECB
:10508800FFF655AF08D0E26AA36812681344A3601C
:10509800D4E901318B42EDD86168E36801EB46023F
:1050A8009A429CD1DFF8A880A26801EA08039A42D4
:1050B80095D020461EF0E4FC054600287FF437AF63
:1050C800636803EA0803A360E368A288A3EB4603C6
:1050D8009A4220D0384615F029F80123E268A374D3
:1050E800238A032100921B481B4A1FF048F9636872
:1050F8009AB200920321194A16481B0C1FF03FF977
:10510800A3689AB200920321154A12481B0C1FF09B
:1051180036F9002588E620461EF0AFFD05463846DC
:1051280015F004F8002DD8D07EE60E4A0321094870
:105138001EF0A4FC636820461B0C1B0402A9029302
:105148001EF08FFC204602991EF09AFC46E700BF2D
:105158000000FFFFECA1020000C2020017C202001B
:1051680029C202003AC202002DE9F04F1D46837C95
:1051780091B004460291009253B90121634A6448F0
:105188001EF07CFC6FF00C06304611B0BDE8F08FC5
:10519800C26A082110461EF095FC29460190104667
:1051A8001EF090FCE368019A0746A3EB8203AB422A
:1051B800C0F0A9801DB1009B002B00F0A48063689B
:1051C8000593204606AA05A9DDF814A01EF0C1FC27
:1051D80006460028D8D1BDF81830029A934206D066
:1051E8006268059B9A42ECD1002D36D1CCE7204667
:1051F80006A91EF071FC0028F2D0BDF81A80BDF88F
:105208001C3045B39D4228D14FEA1A4A4FEA0A4A50
:10521800D044AA46E36ADDF800B01B685B4203F09D
:1052280020030393DDF80C904146D14528BFD146B1
:1052380020464B4608AA1EF0DBFB00284AD14A4606
:10524800584608A924F029FC38B9BAEB090AC84419
:10525800CB44E7D198E7002B96D0002F3DD1B84634
:1052680004F1140A4FF0FF324FF0FF33504614F0A8
:105278008DFE238A9E4243D0A168626808EB010331
:105288009A422FD3029B2046ADF82030FF23009A84
:105298008DF826302B46ADF82210ADF824501EF0BC
:1052A800A2FC29460746E06A1EF00CFCA3680344EA
:1052B800A36057B908A81EF0FCFB204608A91EF0F9
:1052C800CBFC002814BF07462F46504614F02EFF8B
:1052D8003E4659E7C1DC064656E7019B1F441FFAC4
:1052E80087F8BDE72046FFF75DFD07460028ECD1AB
:1052F80020461EF0D9FC07460028E6D10136B8E75B
:105308006FF01B07E1E76FF015063DE735C10200B6
:10531800ECA102002DE9FF471E46837C04460F4698
:105328009046BDF830904BB92C4801212C4A1EF00C
:10533800A5FB6FF00C0004B0BDE8F0870821C06A37
:105348001EF0C0FBE368A3EB4003B34243D3002540
:10535800D4F804A0CDF804A04D455146DDF804A0CA
:1053680009D9636853451ED1BDF80830BB421AD02D
:105378006FF00100DFE7204602AA01A91EF0E9FB51
:105388000028D8D1BDF80830BB4206D1204602A972
:105398001EF0A2FB08B10135ADB26268019B9A42CA
:1053A800DAD15146E0E7BDF80C30002BE0D0A94532
:1053B800DED8BDF80A00090CB3424FEA014128BF04
:1053C80033460144424620461EF012FB0028B2D163
:1053D800BDF80C00AFE76FF01500ACE7ECA10200D8
:1053E80035C1020010B530B90B480C491EF034FD28
:1053F8006FF0150010BD836833B9074808491EF0DF
:105408002BFD6FF00400F5E71B6813B1BDE81040F1
:1054180018471846EEE700BFF4A102007DC202005B
:105428008EC2020010B530B90B480C491EF014FDAD
:105438006FF0150010BD836833B9074808491EF09E
:105448000BFD6FF00400F5E75B6813B1BDE8104091
:1054580018471846EEE700BFF4A102007DC202001B
:105468008EC2020070B508B101B132B90B480C49BF
:105478001EF0F2FC6FF0150070BD84680CB1256950
:1054880035B9064807491EF0E7FC6FF00400F3E75A
:1054980041F8040B2369BDE870401847F4A10200E5
:1054A800ACC202008EC2020010B5044630B91048E2
:1054B80010491EF0D1FC6FF0150010BD006830B91E
:1054C8000B480D491EF0C8FC6FF00100F5E7836832
:1054D8000BB15B6933B9064808491EF0BDFC6FF093
:1054E8000400EAE7616898470028E6D12060E4E70D
:1054F800F4A10200D8C20200E9C202008EC2020072
:1055080070B51346044630B9104811491EF0A4FC82
:105518006FF0150070BD006830B90C480D491EF0D9
:105528009BFC6FF00100F5E782680AB1956835B910
:10553800064809491EF090FC6FF00400EAE70A46A5
:10554800AC466168BDE87040604700BFF4A1020046
:10555800D8C20200E9C202008EC20200034A1368E0
:105568000BB9526813600020704700BF780600200E
:1055780030B50C460E4985B00291D0F8D4110546D5
:10558800CDE9003100F1F0014FF0FF33204613F070
:10559800A5FC50B9012384F86C30D5F8D03123B17B
:1055A800204605B0BDE83040184705B030BD00BF03
:1055B800593F020038B50C46114605461EF0CAFC94
:1055C800034638B9284604491EF0C4FC03460020A7
:1055D800236038BD0120FBE7BB1803002DE9F04F1D
:1055E800012381460569466889B005F55D77D7E8E6
:1055F800EF2F002A03D1C7E8E13F0029F7D10CBFFC
:105608001A46002240F0B180B368B16A05F5F8780F
:105618001C1F10461EF025FD84426FD8013A00F089
:105628009E80B2FA82F24FF00044D440726820465D
:10563800073222F00302C5F83C22B16A1EF011FDC0
:10564800C5F84002B36A40466343033323F00303BB
:1056580002EB4302230103EB4403093323F0030362
:1056680003EBC403C5F834221A440832C5F83022C3
:105678007368C5F83842C5F82C323D4BC5E9AD63AF
:10568800316800F0E5F90446002835D1D9F810B0A2
:10569800D9F804A0D9F800300BF53479CDE9060023
:1056A80005934846DAE90734012B08BF103C15F08A
:1056B8009DFCDAF824002F4905AB01EB80214FF45B
:1056C800806248460093234615F0AAFC2A490BF548
:1056D800307015F067FADAE9050183685C684CB147
:1056E8005B46264AA047044630B9DAE905018368D3
:1056F8001B692BB96FF05704002129E0013288E7B4
:105708000122984704460028F6D11D4B2846C5F8C3
:10571800D0311C4BC5F8D4311B4B0393D5F840321C
:105728000293D5F83C32CDE9008305F51173B26ACE
:10573800D5F8701300F054F904460028DCD105F1BF
:10574800F00013F071FC0028C5F878030ADB022189
:1057580038461EF033FC204609B0BDE8F08F6FF0E4
:105768000B04C9E76FF01504C6E76FF07704F2E79A
:10577800AF3F020058F10020953F0200893F020028
:105788009557000041410200F53F020013B5044659
:1057980040B100230122CDE90032074BD0E90912BC
:1057A80013F070FB236F1B6823B1606F02B0BDE874
:1057B8001040184702B010BDBB18030013B50446CB
:1057C8000846216901F55D71D1E8AF1F022910D1A2
:1057D80093B1A0B10121CDE900311346D0E90912F6
:1057E80013F050FB074B984208BF6FF00B0002B054
:1057F80010BD6FF00F00FAE76FF04C00F7E76FF09D
:105808000100F4E72EF8FFFF2DE9F3478946154616
:10581800066906F55D73D3E8AF3F022B64D11368C0
:1058280023B96FF0150002B0BDE8F0871B78002B94
:10583800F7D0D6F870A3BAF1000F36D106F5EC7799
:105848004FF0FF324FF0FF33384614F09FFB3046DD
:105858002A6801A9FFF7AEFE019C80461CB93846AC
:105868001EF0AAFBDDE705F108032367AB6984F89E
:105878006CA06367646460B138461EF09DFB2146E6
:105888003046A36E2A68FFF773FE0020C9F800406F
:10589800C9E71F22296804F1480024F020F9384696
:1058A80084F867801EF088FBEFE7304610491EF049
:1058B80051FB04460028B4D0002705F1080303670C
:1058C800AB6980F86C70436740641F2229684830D0
:1058D80024F005F922460121304684F8677000F06B
:1058E80061F80028D1D09CE76FF00F009BE700BF5C
:1058F800BB18030010B50C46006900F55D73D3E8CA
:10590800AF3F022B0FD189B10A4900F5307015F06D
:1059180077FA204622F0D8FD78220021204624F08C
:10592800B4F8002010BD6FF00F00FBE76FF0010026
:10593800F8E700BF242100202DE9F04F05460E4668
:1059480090460027D0F8C4A085B0AAF5BE742146B9
:105958003046FBF7DFFAE0B9114BA4F1480B02938C
:10596800DAF810303246CDE9008329464FF0FF338C
:105978005846AAF5E27913F0B1FA60B97823012202
:1059880003FB079383F86C20DAF80C300BB1584608
:105998009847783417B105B0BDE8F08F0127D6E7EE
:1059A8006F4102001FB5144690B18AB1012912D186
:1059B8000A4B00F1F0010293D0F8D4314832019338
:1059C8004FF0FF332046009313F088FA04B010BD5F
:1059D8006FF01500FAE70020F8E700BF6F410200FA
:1059E8002DE9F04387B00E46DDE90E811446DDE966
:1059F80010251F4630B329B3DFF850C000F1F00975
:105A0800002D08BF65469EB9CDE9034400F5E27450
:105A18002046059622F010FF03ABCDE900432A4645
:105A28003B464146484613F0BBFC07B0BDE8F0834F
:105A3800002241460E9248462A4607B0BDE8F04388
:105A480013F004BE6FF01500EFE700BF41590000E6
:105A5800F0B504462B4A87B004AB0E4692E8030023
:105A680083E80300002C49D0184613F011F90546C5
:105A7800B0B94FF0FF33E16C04F15407A163CDE9ED
:105A8800010000933846236D04F1380222F0CCF966
:105A9800A06C1EF097FBC4F8BC0020B96FF00B0592
:105AA800284607B0F0BDA06C1EF08CFBC4F8C000FF
:105AB8000028F3D0236CD4F8BC10C4F89030042329
:105AC800C4F89430C4F8AC300223E3620E4BB4F847
:105AD8004820C4F88C10616C236204F18C03C4F86C
