:10000000E8A0012089770000E9310200757700003F
:100010007577000075770000757700007577000030
:10002000000000000000000000000000E578000073
:1000300075770000000000008578000075770000EB
:10004000AD7A0000AD7A0000AD7A0000AD7A000014
:10005000AD7A0000AD7A0000AD7A0000AD7A000004
:10006000AD7A0000AD7A0000AD7A0000AD7A0000F4
:10007000AD7A0000AD7A0000AD7A0000AD7A0000E4
:10008000AD7A0000AD7A0000AD7A0000AD7A0000D4
:10009000AD7A0000AD7A0000AD7A0000AD7A0000C4
:1000A000AD7A0000AD7A0000AD7A0000AD7A0000B4
:1000B000AD7A0000AD7A0000AD7A0000AD7A0000A4
:1000C000AD7A0000AD7A0000AD7A0000AD7A000094
:1000D000AD7A0000AD7A0000AD7A0000AD7A000084
:1000E000AD7A0000AD7A0000AD7A0000AD7A000074
:1000F000AD7A0000AD7A0000AD7A0000AD7A000064
:10010000AD7A0000AD7A0000AD7A0000AD7A000053
:10011000AD7A0000AD7A0000AD7A0000AD7A000043
:10012000AD7A0000AD7A0000AD7A0000AD7A000033
:10013000AD7A0000AD7A0000AD7A0000AD7A000023
:10014000AD7A0000AD7A0000AD7A0000AD7A000013
:04015000AD7A000084
:1001580080EA101404F0F01480EA0410604081EA88
:10016800111404F0F01481EA0411614082EA1214B7
:1001780004F0F01482EA0412624083EA131404F0D3
:10018800F01483EA0413634080EA102404F47F44E3
:1001980080EA0420604081EA112404F47F4481EA63
:1001A8000421614082EA122404F47F4482EA042292
:1001B800624083EA132404F47F4483EA04236340FF
:1001C80081EA500404F0553480EA4400614083EA2F
:1001D800520404F0553482EA4402634082EA9004EF
:1001E80004F0333480EA8400624083EA910404F026
:1001F800333481EA84016340704700BF82EA900487
:1002080004F0333480EA8400624083EA910404F005
:10021800333481EA8401634081EA500404F05534A0
:1002280080EA4400614083EA520404F0553482EACB
:100238004402634080EA102404F47F4480EA0420E6
:10024800604081EA112404F47F4481EA042161407A
:1002580082EA122404F47F4482EA0422624083EA98
:10026800132404F47F4483EA0423634080EA1014CF
:1002780004F0F01480EA0410604081EA111404F0DC
:10028800F01481EA0411614082EA121404F0F014B7
:1002980082EA0412624083EA131404F0F01483EA39
:1002A80004136340704700BF2DE9F14F94464FEAAD
:1002B800930B8A68CB6808684968FFF749FF0BF118
:1002C800060E33E083EA134480EA134582EA1347B3
:1002D80046BA96EA3444604000F00F1684EA0634C1
:1002E80020F00F1684EA161054BA94EA01067240F8
:1002F80002F00F1486EA043622F00F1486EA14126C
:100308004CBA6540694001F00F1485EA043521F0C4
:100318000F1485EA14115CBA67407B4003F00F1490
:1003280087EA043723F00F1487EA1413BCE8F000B7
:100338006040694072407B4000F0E03400F01035C6
:1003480000F00F3040EA540040EAC50080EA90040B
:1003580004F0332480EA8400604001F0E03401F0C6
:10036800103501F00F3141EA540141EAC50181EA33
:10037800910404F0332481EA8401614002F0E034FE
:1003880002F0103502F00F3242EA540242EAC50286
:1003980082EA920404F0332482EA8402624003F081
:1003A800E03403F0103503F00F3343EA540343EA13
:1003B800C50383EA930404F0332483EA8403634087
:1003C80081EA324787EA134581EA354690EA06040E
:1003D80084EA034B82EA1B4280EA044484EA054427
:1003E80083EA144A85EA14448BEA044B84EA3744C6
:1003F80081EA0B4181EA164104EA0A00454082EA93
:1004080004082BEA080041408AEA0B0602EA0600C3
:1004180084EA34438AEA3A4603EA060778404540C4
:10042800414088EA38478BEA3B4007EA000985EAF9
:10043800090583EA0709464006EA0906714085EA84
:10044800010005EA3546464006EA314181EA304175
:1004580081EA364606EA304686EA3546344008EAF6
:10046800010886EA01052A4086EA364003405A40D8
:1004780081EA31431F407C4080EA030709EA070903
:1004880088EA0908544088EA020806EA0A0601EAE6
:100498000B018AEA0B0215408AEA3A4210404540AD
:1004A8008BEA3B4003405E404240174079404D4054
:1004B8004E40E443F64386EA18435D4085EA05402A
:1004C80083EA134386EA034183EA384284EA114304
:1004D80083EA04435FEA3343BEF1010E3FF6F2AE0E
:1004E8001ED4BCE8F0006040694072407B4020BCEC
:1004F800FFF784FE28606960AA60EB60BDE8F08FB2
:100508002DE9E0414FF2F00280EA1031114080EA13
:100518000130484041088208C3084FF0000E4FE7F9
:1005280000F0113001F0113102F0113203F01133F3
:1005380040EA410040EA820040EAC3004FF2F0027C
:1005480080EA1031114080EA01304840BDE8E0817E
:100558002DE9F04F02F11C050646074600EB850819
:1005680051F8040B043A46F8040BF9D14FF0010C8A
:10057800FFF7C6FF5FEA302080EA0C001ECF41403B
:100588004A4053405C401EC62000464517D04FEAFB
:100598004C0C1CF4807F18BFACF1E50C2C2DE7D077
:1005A8003C2D06D1FFF7ACFF06CF41404A4006C6B6
:1005B800100006CF41404A4006C61000D8E736E989
:1005C8000F00FFF7C5FD043D86E80F00F7D1BDE831
:1005D800F08F00BF2DE9F14F03F11C0402EB840CEE
:1005E8004FEA930B8A68CB6808684968FFF7B0FD43
:1005F8003CE9F0006040694072407B400BF1060E18
:100608004EE083EA134480EA134582EA134746BA68
:1006180096EA3444604000F00F1684EA063420F06D
:100628000F1684EA161054BA94EA0106724002F0D2
:100638000F1486EA043622F00F1486EA14124CBA14
:100648006540694001F00F1485EA043521F00F1464
:1006580085EA14115CBA67407B4003F00F1487EAFF
:10066800043723F00F1487EA141344BA44404DBAF0
:100678004D4056BA56405FBA5F4087EA174886EA47
:10068800174B84EA17464FEA38488BEA1B4485EA39
:100698001B4788EA1B4580EA3440694072407B402A
:1006A80000F0703400F0803500F00F3040EA44006C
:1006B80040EAD50080EA900404F0332480EA8400FC
:1006C800604001F0703401F0803501F00F3141EAEB
:1006D800440141EAD50181EA910404F0332481EA16
:1006E8008401614002F0703402F0803502F00F326C
:1006F80042EA440242EAD50282EA920404F0332430
:1007080082EA8402624003F0703403F0803503F01B
:100718000F3343EA440343EAD50383EA930404F01E
:10072800332483EA84036340C943DB4381EA00043A
:1007380083EA044686EA020183EA014382EA3345F2
:1007480083EA14435C4084EA00077FEA040A8AEAE1
:10075800024A8AEA010B87EA11488AEA374A80EA9C
:10076800060181EA1A418AEA030A04EA0A004540B6
:1007780088EA040707EA0B0041408AEA0B0608EA00
:10078800060084EA34428AEA3A4602EA06035840F6
:100798004540414087EA37438BEA3B4003EA00097A
:1007A80085EA090582EA0309464006EA0906714016
:1007B80085EA010005EA3546464006EA314181EA04
:1007C800304181EA364606EA304686EA3546344004
:1007D8000F4086EA010508EA050886EA3640024025
:1007E80088EA020881EA314213405C4080EA020349
:1007F80009EA030987EA0907674088EA040806EA5C
:100808000A0601EA0B018AEA0B0425408AEA3A44FF
:10081800204045408BEA3B4B02EA0B02564084EAF3
:100828000B04234059406E40694087EA364080EA0D
:10083800384080EA060380EA104481EA134585EAD5
:10084800344585EA17427D4082EA354180EA054011
:100858003CE9F0006040694072407B40BEF1010E07
:100868003FF6CFAE20BCFFF7C9FC28606960AA60DC
:10087800EB60BDE8F08F00BFFFF76ABE2DE9F00717
:1008880091E8F807B2E802105B1854EB0C04B2E8E0
:1008980002104D4156EB0C06B2E802104F4158EBDE
:1008A8000C08B2E8021059EB01095AEB0C0A80E86F
:1008B800F80780410130BDE8F00770472DE9F007DF
:1008C80091E8F807B2E802105B1A74EB0C04B2E87E
:1008D80002108D4176EB0C06B2E802108F4178EBDE
:1008E8000C08B2E8021079EB01097AEB0C0A80E8EF
:1008F800F80780414042BDE8F00770472DE9F0074E
:10090800524290E87800B1E880071740DB1918EAEE
:10091800020854EB080419EA020955EB09051AEA1A
:10092800020A56EB0A0678C090E87800B1E880071A
:1009380017407B4118EA020854EB080419EA020937
:1009480055EB09051AEA020A56EB0A0678C08041F7
:100958000130BDE8F00770472DE9F007524290E8F2
:100968007800B1E880071740DB1B18EA020874EB2F
:10097800080419EA020975EB09051AEA020A76EB76
:100988000A0678C090E87800B1E880071740BB41B4
:1009980018EA020874EB080419EA020975EB09055C
:1009A8001AEA020A76EB0A0678C080414042BDE89E
:1009B800F00770472DE9F00152424FF0040890E823
:1009C800300091E8C000A31B1340E41AF618EB1B93
:1009D8001340ED1AFF1830C0C0C1B8F10108EED1BC
:1009E800BDE8F001704700BF00B592E8DC072DE9CB
:1009F800DC07B1E8805702B4A7FB02510A95A8FBAF
:100A0800020BE7FB6310E9FB62B00B91A8FB0351F3
:100A1800EAFB6201E7FB64B5E7FB6605E8FB6615E0
:100A2800CDF830B0A9FB03B6EAFB6316ECFB6356BE
:100A3800E8FB640BE9FB641BEAFB645BECFB646B9F
:100A48000D90ACFB0230059CEEFB6250E9FB646044
:100A5800EAFB64B0E7FB6431E8FB6451069CE8FB01
:100A68006461E9FB64B1EAFB64010E93A7FB0432FD
:100A7800079CE7FB6462E8FB64B2E9FB6402EAFBFB
:100A88006412049CE9FB6453EAFB6463089CE7FB7B
:100A980064B3E8FB6403E9FB6413EAFB64230F9582
:100AA8005DF8049B99E80006DDF80080A9FB08546E
:100AB800EAFB68B4DDF81080ECFB6804EEFB681410
:100AC800E9FB6824EAFB6834DDF80480EEFB68651E
:100AD800E9FB68B5EAFB6805DDF81480ECFB6815EE
:100AE800EEFB6825E9FB6835EAFB68450F96DDF8FB
:100AF8000880AEFB0876E9FB6806EAFB6816DDF8B5
:100B08001880ECFB6826EEFB6836E9FB6846EAFBD2
:100B18006856DDF80C80ECFB68B7EEFB6807E9FB6C
:100B28006817EAFB6827DDF81C80ECFB6837EEFBEA
:100B38006847E9FB6857EAFB686708B000BD00BF73
:100B48002DE9F14F87B0FFF74FFFDDF81C8008F162
:100B5800200888E8FF00FFBC87E87F08BDE8F08F21
:100B680000B591E89857A3FB03520195A3FB040134
:100B7800E3FB6420E3FB67100292A3FB0752E3FB4D
:100B88006802E4FB6415E3FB6805E3FB6925039150
:100B9800A4FB07B6E3FB6926E3FB6A56E4FB670B95
:100BA800E4FB682BE3FB6A5BE3FB6C6B0490A4FB40
:100BB8000810E4FB6950E3FB6C60E3FB6EB0E7FBF5
:100BC8006721E4FB6951E4FB6A61E3FB6EB1E4FB76
:100BD8006E010592A7FB0832E4FB6A62E4FB6CB283
:100BE800E4FB6E02E7FB6E12E7FB6853E7FB696301
:100BF800E4FB6CB3E7FB6C03E7FB6E13E8FB6E23C7
:100C08000695A7FB0954E7FB6AB4E7FB6C04E8FB0D
:100C18006C14E8FB6E24E9FB6E34E8FB6865E7FBBF
:100C28006AB5E8FB6A05E8FB6C15E9FB6C25E9FB8E
:100C38006E35EAFB6E450796A8FB0976E8FB6A065F
:100C4800E9FB6A16E9FB6C26EAFB6C36EAFB6E46A2
:100C5800ECFB6E56E8FB69B7E9FB6907E9FB6A1725
:100C6800EAFB6A27EAFB6C37ECFB6C47ECFB6E5738
:100C7800EEFB6E6700BD00BF2DE9F14F87B0FFF7AF
:100C88006FFFDDF81C8008F1200888E8FF00FFBC32
:100C980087E87F08BDE8F08F30B44FF0000310F804
:100CA800014B11F8015B013A84EA050443EA0403A5
:100CB800F5D1A3F101034FEAD37030BC704700BFF0
:100CC8004FF0000310F8012B013943EA0203F9D170
:100CD800A3F101034FEAD370704700BF30B411F895
:100CE800014B12F8015B6C4000F8014B013BF6D157
:100CF80030BC70472DE9F00791E8F807B2E8021018
:100D08005B1854EB0C04B2E802104D4156EB0C068C
:100D1800B2E802104F4158EB0C08B2E8021059EB48
:100D280001095AEB0C0A8941B3F1FF3374F1FF341E
:100D380075F1FF3576F1000677F1000778F10008C4
:100D480079F101097AF1FF3A51F100015B184C4140
:100D58004D4156F1000657F1000758F1000859EBCC
:100D6800D1795AEB010A80E8F807BDE8F007704727
:100D78002DE9F00791E8F807B2E802105B1A74EB66
:100D88000C04B2E802108D4176EB0C06B2E80210B2
:100D98008F4178EB0C08B2E8021079EB01097AEB85
:100DA8000C0A89415B184C414D4156F1000657F138
:100DB800000758F1000859EBD1795AEB010A80E88D
:100DC800F807BDE8F007704718EB040859EB050968
:100DD8005AEB060A5BEB070B5FF0000C4CF1000CBA
:100DE80018EB050859EB06095AEB070A5BEB070BEA
:100DF80050EB0C005FF0000C51EB0C0152EB0C02B5
:100E080063414CF1000CB8EB070879F100097AF15D
:100E1800000A7BEB040BA841B141A241B3416CF13C
:100E2800000CBBEB050BB041B941AA41BB416CF1C9
:100E3800000C4CF001068CF0020718EB060859EB81
:100E48006C095AEB6C0A7BEB6C0B70EB6C0471EB66
:100E58006C0572EB670653EB6C076CEB6C0C18EBCC
:100E68000C0059EB0C015AEB0C025BF1000354F136
:100E7800000455F1000556EBDC7657EB0C0770477C
:100E88002DE9F14F87B0FFF7AFFDDDF81080DDF8F1
:100E98001490DDF818A0FFF797FFBDE8000FFFF7E3
:100EA80093FF03B05DF8048B88E8FF00BDE8F08F7E
:100EB8002DE9F14F87B0FFF753FEDDF81080DDF81C
:100EC8001490DDF818A0FFF77FFFBDE8000FFFF7CB
:100ED8007BFF03B05DF8048B88E8FF00BDE8F08F66
:100EE80053B94AB9002908BF00281CBF4FF0FF3189
:100EF8004FF0FF3000F00CB8ADF1080C6DE904CEEE
:100F080000F022F8DDF804E0DDE9022304B07047C0
:100F1800704700BF10F8012B11F8013B012A28BFC8
:100F28009A42F7D0D01A7047034611F8012B03F8FC
:100F3800012B002AF9D17047034613F8012B002A28
:100F4800FBD1181A013870472DE9F04786468C46C0
:100F58000846089E154674461946002B40F0C18085
:100F68008542B2FA82F245D94AB1C2F1200300FAA9
:100F780002FC954094402EFA03F343EA0C0C4FEA26
:100F8800154EA8B2230CBCFBFEF80EFB18CC08FBD0
:100F980000F943EA0C43994528D9EB1808F1FF37C3
:100FA80004D2994502D9A8F102072B44A3EB0903FF
:100FB800A4B2B3FBFEFC0EFB1C330CFB00F044EAAE
:100FC8000344A04214D92C190CF1FF3304D2A042D7
:100FD80002D9ACF102032C44241A43EA07401EB19B
:100FE800D440002334607360BDE8F0874746DDE7EE
:100FF8006346F1E792BB431B01214FEA154EAFB29E
:10100800200CB3FBFEFC0EFB1C330CFB07F840EA7C
:101018000343984561D9EB180CF1FF3004D2984589
:1010280002D9ACF102002B44A3EB0803A4B2B3FB32
:10103800FEFC0EFB1C330CFB07F744EA0344A742F3
:101048004DD92C190CF1FF3304D2A74202D9ACF1C7
:1010580002032C44E41B43EA0040C0E7C2F120032A
:101068009540944020FA03F12EFA03F34FEA154E07
:101078009040AFB20343B1FBFEFC0EFB1C10190CF1
:101088000CFB07F841EA0041884522D969180CF1A0
:10109800FF3004D2884502D9ACF102002944A1EB03
:1010A80008019BB2B1FBFEFC0EFB1C110CFB07F701
:1010B80043EA01439F420ED9EB180CF1FF3104D2E9
:1010C8009F4202D9ACF102012B44DB1B41EA0041EB
:1010D80093E76046E3E76146F7E76046A4E76346BF
:1010E800B8E7834206D916B9002108467CE7C6E965
:1010F80000E0F9E7B3FA83F78FB9834201D3724569
:1011080008D8BEEB020460EB030301209C461EB91D
:10111800002169E73846FAE7C6E9004CF8E7C7F165
:10112800200CBB400EFA07F522FA0CF42EFA0CF14B
:10113800BA401C4320FA0CF3B8404FEA1449014363
:101148001FFA84FEB3FBF9F809FB18300B0C08FBF7
:101158000EFA43EA00439A4540D9E31808F1FF30F4
:1011680004D29A4502D9A8F102002344A3EB0A034A
:1011780089B2B3FBF9F809FB183308FB0EFE41EA04
:1011880003418E452CD9611808F1FF3304D28E45EE
:1011980002D9A8F10203214443EA0040A1EB0E0161
:1011A800A0FB02984145CE46434602D306D14D45A1
:1011B80004D20138B9EB020E68EB0403002EA7D065
:1011C800B5EB0E0261EB030101FA0CFC22FA07F3FE
:1011D800F9404CEA0303C6E9003199E74046C5E700
:1011E8004346D9E7000000000022F0B585B011465B
:1011F80040F6034002AF08F0E5FF0446002840F03F
:10120800A58008F025FD214641F203003A1D08F0AB
:10121800D9FF0446002840F099807A684D4DD1687E
:1012280005F17803D1F80100D1F8051003C3104681
:1012380007F082F9214641F201003A1D08F0C2FF89
:101248000446002840F082807868C3685A7885F898
:1012580070205A88A5F872201A7985F87120B3F899
:101268000720A5F87420B3F80530A5F8763007F004
:1012780063F9214641F202003A1D08F0A3FF044633
:10128800002863D1D7F804C005F18006DCF80C20EB
:10129800531C4132344618685968083303C49342D2
:1012A8002646F7D1604607F047F90AF067FA044680
:1012B80000284BD195F88A30990610D40221264A85
:1012C800264822F07DF995F87C305A064AD4012147
:1012D800234A224822F074F96FF0120436E04FF0E6
:1012E800FF304FF0FF3108F0D3FC0646002800F02D
:1012F800428207210C3007F061FA6FF00403037093
:101308000A23C0F802408471447004712246C370F5
:10131800314640F6334008F055FF0446B0B94FF067
:10132800FF304FF0FF3108F0B3FC0646002800F00C
:10133800228201210C3022F00DF82246314640F677
:10134800314008F03FFF04460028BCD020460C3747
:10135800BD46F0BDC0040020C0BC0200A48002004D
:10136800EEBC0200002142F203003A1D08F02AFFF9
:1013780004460028EAD17A68A94BD168D1F801005F
:10138800D1F8051003C3104607F0D6F8214642F2FB
:1013980002003A1D08F016FF04460028D6D17E68E0
:1013A800F468B4F801309AB292B1E27882B1A5F843
:1013B8000431E378032B06D00322022100929948D6
:1013C800994A21F01FFDE2789848114625F091FAD4
:1013D800304607F0B1F81F2395F87C60A5F8203156
:1013E80016F0200619D14FF0FF304FF0FF3108F00A
:1013F8004FFC0446002800F0BE8102210C3007F0A3
:10140800DDF90123214603704670324640F66D40EF
:1014180008F0D8FE0446002898D195F89C301B07A0
:1014280012D5002142F21C003A1D08F0CBFE0446FA
:1014380000288BD17868C368D3F80120D3F8053029
:10144800C5E9382307F078F895F8D8309E0623D5F3
:101458003846B91C08F05EFF044600287FF476AFD2
:101468004FF0FF304FF0FF3108F012FC064600281D
:1014780000F0818104210C3007F0A0F93B88224656
:1014880003807B883146438042F2240008F09AFEAC
:10149800044600287FF45AAF95F8D8305C0610D57A
:1014A800002142F22A003A1D08F08CFE044600286A
:1014B8007FF44CAF7868C3685B7885F8223107F011
:1014C8003BF84FF0FF304FF0FF3108F0E1FB0446E6
:1014D800002800F0508108210C3007F06FF995F8CA
:1014E800D81040F2022311F0400F08BF0323024630
:1014F80088074CBF43F02C0043F00C008B0695F88E
:10150800D93048BF40F0400013F0090F18BF40F42D
:101518000060CE0748BF40F01000002122F07FF89D
:101528002146002242F2010008F04CFE0446002841
:101538007FF40CAF95F87C30B5F8041198065DD4AB
:10154800C9B941F205003A1D08F03CFE04460028DE
:101558007FF4FCAEB5F804317C684BB9E368B3F8A6
:101568000120A5F804219A883048114625F0C1F9D0
:10157800204606F0E1FF4FF0FF304FF0FF3108F052
:1015880087FB0446002800F0F68008210C3007F09D
:1015980015F995F8D8300246D90739D44FF00051DB
:1015A800234822F03CF82146002240F6014008F08A
:1015B80009FE044600287FF4C9AE01463A1D4FF6DD
:1015C800014008F0FFFD002838D01A4A02211548CA
:1015D80021F0F6FFEB79002B40F0BD8022F0E1F915
:1015E800044600287FF4B2AE0BF06EFD04460028D6
:1015F8007FF4ACAE08F0EAFC0446A7E60029BAD1AD
:1016080001210D4A074821F0DBFF6FF004049DE635
:1016180001A1D1E90001C4E7908800020080002000
:1016280098050020A480020012BD0200C805002011
:10163800108800027BBD020058BD02007B686E4620
:10164800DC688AB0B4F80130042B96BF574A584971
:1016580052F8231002AAD3614FF40073554813843B
:10166800554BC2E9050142F8103F4FF41351534856
:1016780021F0B5FFB4F80120B546022AB4F80330CA
:1016880049D1052B47D84E4A52F823106E468AB0E6
:1016980002AAD3614FF400734A481384464BC2E947
:1016A800050142F8103F4FF41351444821F097FFC9
:1016B800B546637994F806C0032B98BF424AB4F83C
:1016C8000760D4F809006C468CB094BF52F8231018
:1016D800374902AAC2E9073C4FF40073DFF8ECE08F
:1016E80093853B4BC2E905E1C2E909604FF47351A8
:1016F80042F8103F314821F072FFA546786806F09D
:101708001BFF00214FF602403A1D08F05BFD04461E
:1017180018B1304A5AE72649B8E77868C368B3F879
:101728000130A5F8C13006F007FF95F8C1305A0717
:101738007FF550AF21464FF603403A1D08F042FDB1
:1017480008B1254A42E77868C3685B7885F8C030F5
:1017580006F0F2FE3EE72E78002E7FF43FAF95F8B4
:10176800C1309B061FD54FF0FF304FF0FF3108F016
:101778008FFA044610B96FF06804E7E506210C30CB
:1017880007F01CF8D5F8013021460360134B3246A8
:101798009B8883804FF6064008F014FD0446002815
:1017A8003FF41CAFD2E56FF08504CFE59C8A0200B8
:1017B8000FBA02009FBD020004000001A4800200CD
:1017C800848A0200B8BD0200748A0200D0BD0200FB
:1017D80007000001FDBD020026BE0200C104002072
:1017E80010B5064A064802211FF097F8BDE81040D8
:1017F80040F267620023034818F028B800930200FB
:1018080074810200580F002030B50E4D89B003AC2A
:101818000FCD0FC42B680222236001230A490093CD
:1018280003A80A4B09F05CFD024628B1084909489B
:101838001FF086F809B030BD0321074A05481FF09C
:101848006CF8F7E75082020000840200F883020077
:1018580029930200748102004E93020070B50122A0
:1018680043688A401B6886681A4205690ED10C498C
:1018780040F211430B4A0C4820F008FC0B4820F0BA
:1018880005FC40F21141074820F0F7FB2B6823EADA
:1018980002032B6033684FF4C022BDE8704018473C
:1018A800A09302006F930200DE930200FB930200F4
:1018B80008B530201AF0CEF838B100238385011D11
:1018C800BDE8084003481FF040B8BDE80840FFF7EE
:1018D80087BF00BF3C7C020070B503788AB004461D
:1018E8000E4607AD032B20D8DFE803F002191B1DB5
:1018F80011492846FFF718FB059563781E210493C4
:10190800A37830460393E3780C4A02932379019332
:1019180063790093A3791EF0FDFC0AB070BD0849F5
:10192800E7E70849E5E70849E3E70A212846074ABF
:101938001EF0F0FCE0E700BF0D9402002F940200B7
:10194800149402001B94020025940200B9DB0200E3
:10195800F0B5144689B000AF0D4622F024F9394697
:10196800FFF7BAFFACB96C468AB06A46144BD5612A
:10197800C2E905374FF400731384124B4FF4135127
:10198800114842F8103F1EF0D8FFA5462437BD463F
:10199800F0BD6E468CB06B460C4AC3E90754C3E9E8
:1019A80005270B4A4FF462515A620A4A06489A625E
:1019B8001A46094B42F8103F1EF0BFFFB546E5E74F
:1019C8005294020004000001748102007094020025
:1019D8000BF80200000203050600000290B589B06A
:1019E80000AF0C4622F0DFF83946FFF775FF8AB0E2
:1019F8006A46094BD461C2E90537084B4FF4435195
:101A08001362074B07485362074B42F8103F1EF01A
:101A180094FF2437BD4690BD979402000BF802004E
:101A280000020204748102000500000290B589B02A
:101A380000AF0C4622F0B7F83946FFF74DFF8AB0E1
:101A48006A46094BD461C2E905374FF40073138421
:101A5800064B4FF41351064842F8103F1EF06DFF35
:101A68002437BD4690BD00BFBD94020004000001AC
:101A78007481020090B589B000AF0C4622F093F84B
:101A88003946FFF729FF8AB06A46094BD461C2E993
:101A980005374FF400731384064B4FF4135106486F
:101AA80042F8103F1EF049FF2437BD4690BD00BFE5
:101AB800DF9402000400000174810200B0B588B010
:101AC80000AF0C4622F06FF83946FFF705FF6D4668
:101AD8008AB06A46124BD461C2E90537114B124CE1
:101AE8001362124B12485362124B4FF4435142F89F
:101AF800103F1EF022FF2068AD4618B10AF0B2FB75
:101B0800002323600C4C206830B10AF0ABFB0023A3
:101B18000120236023F00BFF2037BD46B0BD00BF76
:101B2800F49402000BF802008C200020000202044A
:101B3800748102000500000290200020B0B588B032
:101B480000AF0C4605460AF065FB124B18602846A4
:101B580022F029F83946FFF7BFFE6D468AB06A467B
:101B68000D4BD461C2E905374FF400730B4C138455
:101B78000B4B204642F8103F4FF413511EF0DDFE88
:101B88000321AD462046074A1EF0C7FE2037BD4652
:101B9800B0BD00BF8C200020DF94020074810200D9
:101BA8000400000117950200B0B588B0044600AFE4
:101BB800B1B16C468AB06A46194B1A48C2E9053178
:101BC800194B4FF41151D36140F201331384174B71
:101BD80042F8103F1EF0B1FEA5462037BD46B0BD05
:101BE80021F0E1FF3946FFF777FE6D4688B06A4677
:101BF8000F4B4FF4E651C2E905374FF40073938356
:101C08000C4B084842F8103F1EF097FE2046AD46A0
:101C18000AF000FB084B1860012023F085FEDCE782
:101C280046950200748102000BF8020004000001CE
:101C380067950200030000019020002080B588B05D
:101C480000AF21F0B0FF3946FFF746FE88B06A467C
:101C5800084B4FF4E651C2E905374FF400739383FC
:101C6800054B064842F8103F1EF067FE2037BD4678
:101C780080BD00BF7495020003000001748102005A
:101C8800012310B503FA01F1436804691B6819427E
:101C98000ED10E4940F2A2630D4A0E4820F0F6F923
:101CA8000D4820F0F3F940F2A261094820F0E5F967
:101CB8002368194218BF82F0010222B18368DB68E9
:101CC800BDE81040184783681B69F9E7A093020034
:101CD8006F930200DE930200FB9302000A46C1B232
:101CE8000148FFF7CDBF00BFE87B02000A46C1B23A
:101CF8000148FFF7C5BF00BF047C020010B50B7890
:101D0800052B00F29580DFE803F003802C61724612
:101D18008B68002B00F08C804868002800F08880D1
:101D2800444A1368DBB1181F00231360424A13604A
:101D380024F07EFF00220023404816F0F7FD00281B
:101D480076D0828D011D3E481EF008FE00286FD017
:101D58003C4A0221BDE810403B481EF0DEBD043875
:101D6800E6E74A68CB68108D034438489BB2138570
:101D78000278002A5CD14A68134413F8013C0A2B04
:101D880001D00D2B54D1012303702D48BDE810401C
:101D980083685B69184700242C4B30201C7019F0AD
:101DA80059FE30B18485011DBDE8104024481EF05D
:101DB800CCBD274A244802211EF0AFFDBDE81040E3
:101DC80040F267620023234817F040BD302019F025
:101DD80041FE014648B10023838519482822BDE801
:101DE8001040836804311B691847194AB1E74B68EA
:101DF800191F1B8D23B1BDE81040174824F060BDA2
:101E08000846BDE8104024F013BF0A4A13680BB90E
:101E18004B68136008488B6801680B4411680360BD
:101E28000A8D0748D21A1944BDE810401EF096BD25
:101E380010BD00BF7420002070200020800C0020FE
:101E48003C7C02008A95020074810200903C0020CC
:101E580000930200580F0020640C00202DE9F04385
:101E68008DB04FF0FF324FF0FF33284816F06EFE6A
:101E780030220021684625F08AFD254FDFF894803E
:101E8800DFF894904FF0FF334FF0FF32384616F0EA
:101E98004DFDBDF82C40838DC4F128049C420546B5
:101EA80028BF1C4600261CB9284624F0C1FEE9E7D5
:101EB800BDF82C00311D043022462944684425F021
:101EC8003FFDBDF82C202644224492B2272AADF8C3
:101ED8002C2008D802F130036B4413F82D3C0A2B50
:101EE80001D00D2B0CD1002001A904F0EDFF20B189
:101EF8004246022148461EF010FD0023ADF82C3062
:101F0800AC8DA41B282C28BF2824CCE7040C002067
:101F1800640C0020A895020074810200014816F0A4
:101F280091BD00BF340C002008B505480321054ABF
:101F38001EF0F3FCBDE80840034817F0A3B900BF42
:101F480074810200D09502007C200020F8B51E4C58
:101F58000546206800AF002833D00D40EA0716D5A3
:101F680021F050FE6E4688B023686A461749184823
:101F7800C2E9051303234FF4C65142F8103F1EF07F
:101F8800DCFCB54620680AF06DF900232360AB0736
:101F980017D5206821F03EFE6D4688B023686A4652
:101FA8000C490B48C2E9051303234FF4C65142F804
:101FB800103F1EF0C2FCAD4620680AF053F900231A
:101FC8002360BD46F8BD00BF8C2000201896020093
:101FD800748102002F9602002DE9F04F85B002AF00
:101FE8001EF09DFC534D81468A4619200121FFF7BA
:101FF8007DFE294650481FF001FB83461EF08FFCEA
:1020080004460E4619200021FFF770FEBBF1000FB1
:1020180008D05A4649494A481EF092FC0C37BD463A
:10202800BDE8F08F0321474A45481EF076FCE84694
:1020380088B002AAB4EB09044FF00409424B66EBDE
:102048000A06C2E9064653614FF4035142F8109F4D
:102058003B481EF072FCC5461EF061FC06468A46E7
:102068001A200121FFF742FE384A12233849009509
:1020780038481FF043FB78601EF051FC04460D46BB
:102088001A205946FFF732FE7A68F2B90321324A1C
:102098002B481EF042FC88B002AA304BA41B65EB0B
:1020A8000A05C2E9064553614FF40351244842F832
:1020B800109F1EF042FCC546294E336853B90121D2
:1020C800284A1F481EF029FCA8E727491C481EF08B
:1020D80037FCF1E701210420FFF700FE1EF01FFC8A
:1020E8000024224BDFF85080C3E90001C4F5A46541
:1020F800F42D28BFF4253068AAB208EB040104F0D7
:10210800E3FE58B1012100902346194A0C4820F0FB
:1021180079FE00210420FFF7E1FD7FE72C44A4208D
:10212800002118F077FCB4F5A46FDFD30321114A1E
:10213800C7E700BF0546002005500020479602006B
:1021480074810200659602007C960200790A0020DC
:1021580078200020913C002099960200A996020060
:1021680090200020D6960200BF960200980F00200B
:10217800F2960200269702002DE9F04F0024064649
:10218800154691B008AF1A228846381D21463C6092
:1021980025F0FDFB304621F006FD3946FFF79CFB94
:1021A800052D37D12A464046A64925F0F8FB0646B4
:1021B80070B1A54EDFF89492A54227D0302019F0CF
:1021C80049FC8246002840F00E810221A04A4EE0D8
:1021D8000321A04AA0481EF0A0FB03219F4A9E4865
:1021E8001EF09BFB00220023CDE90356CDE9062310
:1021F800CDE901664FF48032994B9A4900969A4886
:1022080017F038FD9949984824F0EEFB2437BD466D
:10221800BDE8F08F062D6CD12A464046944925F03A
:10222800BEFB06460028C4D101460420FFF756FD30
:102238001EF075FB6C468F4A88B0D2E90032C01A8E
:1022480061EB020122468C4BDFF83092C4E905307D
:102258000423E161804842F8103F4FF403511EF017
:102268006CFBD9F80030A5462BB90121844A7A487D
:102278001EF053FBCAE701210520FFF72FFD814B14
:102288003446D3F800801EF04AFB7F4BDFF8FCA1F0
:10229800C3E90001DFF8F8B1A04502D87D4A03215F
:1022A800E5E7A8EB0406F42E28BFF426D9F80000C9
:1022B800B2B20AEB040104F007FE58B10121009004
:1022C8002346754A644820F09DFD00210520FFF74C
:1022D80005FD9BE734444FF480320023584616F03E
:1022E80035FC0028D8D001216C4A5B481EF015FB4C
:1022F800EBE7072D7FF45DAF2A464046684925F095
:102308004EFB0646002849D101460520FFF7E6FCAA
:102318001EF005FB6C465C4A88B0D2E90032C01A50
:1023280061EB020122465F4BE161C4E905300423F9
:102338004FF4035142F8103F47481EF0FEFAA546F5
:102348004E4C2368002B90D001210620FFF7C6FCD5
:102358001EF0E5FA544B1222C3E9000120685349E4
:1023680004F0B2FD044648B1012100903346504ABA
:10237800394820F047FD31460620A8E74FF480325F
:102388000023434816F0E2FB30B10121434A3248AA
:102398001EF0C3FA2146EFE7464A80E746492A4637
:1023A800404625F0FCFA014600287FF402AF0620DB
:1023B800FFF794FC1EF0B3FA6C463B4A88B0D2E9AA
:1023C8000032C01A61EB020122463C4BE161C4E9CC
:1023D800053004234FF403511F4842F8103F1EF004
:1023E800ACFAA54612E72A1B272A8CBF272292B2ED
:1023F800031D828508EB0401184625F0A1FABAF8F6
:102408002C2003461444A4B2A5420CD108EB0501C4
:1024180011F8011C0D2906D10A200AEB020101322C
:102428000871AAF82C2019463046BAF82C201EF05C
:1024380095FA00283FF4C0AE5146484624F040FAC9
:10244800BAE600BF469702003C7C0200800C0020E0
:102458002C9902004C9702007481020080970200B8
:10246800E11F0000885C0020D80E0020B59702000C
:10247800FA9A0200980F0020C297020090200020CC
:10248800D696020078200020880F0020913C00207A
:10249800340C002051980200FA9702002D9802008F
:1024A8001D9B020070980200900F0020790A0020FE
:1024B800A8980200D99802003F9B0200F6980200F3
:1024C800F8B5834824F08EF930B9824A0121824850
:1024D8001EF023FA1EF04AFA804824F083F908B95E
:1024E8007F4AF3E719217A48FFF7B8F9024620B185
:1024F8007C4979481EF024FAECE71A217448FFF762
:10250800ADF9024608B17849F3E704217348FFF7AB
:10251800A5F9024608B17549EBE705216F48FFF7B1
:102528009DF9024608B17249E3E706216B48FFF7B7
:1025380095F9044610B102466E49DAE701461920BA
:10254800FFF7D4FB21461A20FFF7D0FB21460420D1
:10255800FFF7C4FB21460520FFF7C0FB21460620F4
:10256800FFF7BCFB0321644A5B481EF0D6F9032140
:10257800624A59481EF0D1F90321614A56481EF0B3
:10258800CCF903215F4A54481EF0C7F903215E4A7B
:1025980051481EF0C2F95D4A03214F481EF0BDF9AB
:1025A8005B4812F0A9FD024618B15A494A481EF084
:1025B800C7F912F06FFD024618B1574946481EF098
:1025C800BFF9564E304624F00DF9002882D030204D
:1025D80019F040FA044600283FF47CAF0025504922
:1025E8008585504816F0FAFFB3681B6823B9204662
:1025F80024F01EFB4C4A69E72A4630464B49984767
:102608000028F4D1302019F025FA054650B3031DEF
:1026180018464749FEF788FC25220146AA85304618
:102628001EF09CF9074640B1204624F001FB2846DD
:1026380024F0FEFA3A463F495BE73046211D1EF07A
:1026480084F9024650B93C480AF004FD024668B1D4
:102658003A4921481EF074F90020F8BD38491E484F
:102668001EF06EF9204624F0E3FA33E735480AF005
:102678000BFD024608B13449EBE707F0ABFF002831
:102688007FF428AF0321314A13481EF046F9304839
:1026980016F0D8F920F08FFC2E4804F009FC044607
:1026A80010B102462C49D4E72C482D4916F0C2FC3B
:1026B8002A4816F0E7FD013404F00101002012F069
:1026C800ADFD00214FF4004018F0A4F9F3E700BF76
:1026D800047C02005799020074810200E87B020022
:1026E800719902008B990200BE990200F2990200CA
:1026F800299A02005F9A0200939A0200B29A020095
:10270800CB9A0200DD9A0200019B0200259B020081
:10271800551F0000479B0200659B02003C7C02009D
:10272800B9180000580F0020809B0200051D00000A
:10273800A09B0200C69B020054060020169C0200C3
:10274800EF9B0200440600204C9C0200879C02007C
:10275800040C0020380600209D9C02007C200020EC
:10276800111800002DE9F74F06464FF0080A4FF000
:1027780000098025174A002309F1010952F8291098
:10278800EF189F42019122D906EB8708C34606EB52
:102798008304D8F80010019B83FB010100F09EF828
:1027A80021680C4A091A48F8041B54F8041B014410
:1027B8005C4544F8041CECD1EB19FF2BDCD9BAF1C9
:1027C800010A4FEA5505D6D103B0BDE8F08F1F4680
:1027D800F2E700BF108402002DE9F74F05464FF0DD
:1027E800080A4FF4807901271E4B002409F1FF39AC
:1027F80053F8292004EB070B05EB8B06C2F1000800
:10280800324605EB8404216830680192084444F894
:10281800040B56F8040B091A46F8041C88FB01013E
:1028280000F05CF8019A0F4B944246F8040CEAD188
:102838000BEB0704FF2CD9D9BAF1010A4FEA470775
:10284800D3D14AF2FA362C1F05F57F7554F8041FC8
:1028580081FB060100F042F8A5422060F6D103B0E2
:10286800BDE8F08F10840200F0B5054600200E4F39
:10287800C2F10306B418A34214D3947892F801E085
:1028880092F800C0240444EA0E2444EA0C04C4F379
:102898001604BC429CBF45F820400130884202F132
:1028A8000302E7D3F0BD00BF00E07F000A4B10B57C
:1028B80099420EDC021F00F57F7052F8043FDC17C6
:1028C80004EA43041B1B994203DD8242F5D1002030
:1028D80010BD0120FCE700BF00FC0F0003460846BE
:1028E800C3EBC302034903EB822203EB4232C2FB70
:1028F80001307047FF1F80FF034A00F58003DB1596
:1029080002FB0300704700BFFF1F80FF024B03EA72
:10291800E0731844704700BF01E07F00024642F6AA
:102928000B4001F17F03DB11434303F500031B1642
:10293800C3F12B00C01723EA0000074B10B503FBB7
:102948000011064BC1F57F1404F5405403EAE47303
:10295800C91A116010BD00BF0018FDFF01E07F001B
:102968002DE9F04FADF5454D91B099460DF545432C
:102978006C331B680446FF2B9046059100F24C818E
:1029880000250DF5454370331B680DF58A460DF19A
:10299800800B40360DF5A86710A95A46029308A87F
:1029A8000DF55553019600971EF04DF80DF545426B
:1029B8006C32126807A808AB83F8A12083F8A050EE
:1029C8001FF0BFF840220DF1C00A0DEB020107A865
:1029D8001FF0C5F85146022207A81FF0C0F80DF5F0
:1029E8004543DA6E6C330DF54543996E07A8683395
:1029F8001FF0B5F84A46414607A81FF0B0F807A8E7
:102A08001FF0B3F807AA402150461FF0B3F807A8F3
:102A18001FF0B4F80DF58078202128A81FF0F0F8F1
:102A280080235A46402140461FF0C7F80DF505405F
:102A380008A940301EF084FC38461EF0DDFC304604
:102A48001EF075FD0DF555501EF071FDDFF8D091A3
:102A5800DFF8D0A14146AAB20DF5AA501EF099FCA4
:102A68004FF480520DF5AA510DF5155024F068FF6A
:102A78000DF515501EF0C0FC0DF505410DF5AA40E9
:102A88000DF51552403140301EF006FD0DF5AA40F7
:102A980040301EF026FD0DF5AA4040301EF049FDDD
:102AA8000DF5AA4040301EF01EFD0DF5AA42403239
:102AB8000DF5CA41104640311EF051FD0DF5AA41F1
:102AC800403120461EF071FD07A81FF03AF8402259
:102AD8000DEB020303F1800107A81FF040F84FF443
:102AE8004072214607A81FF03AF807A81FF03DF8E2
:102AF80007AA202120461FF03DF807A81FF03EF83E
:102B0800214650A81EF043F950A81EF08AF80DF58A
:102B1800A86250A90DF515501EF092FC0DF5155040
:102B28001EF07CFC0DF5155108460DF5AA521EF055
:102B380053FC0DF515501EF03DFC49460DF515509A
:102B48001EF0BCFC002865D10DF5EA40324650A9BC
:102B580040301EF0F0FC0DF5EA4040301EF0E9FC74
:102B68000DF5CA4140310DF5EA42084640321EF0E3
:102B7800CEFC0DF5CA4040301EF0B3FC0DF5CA403E
:102B8800514640301EF0D9FC002843D10DF5EA40EB
:102B98000DF5555250A940301EF0CDFC0DF5EA4018
:102BA80040301EF0C6FC0DF5EA4040301EF099FC9E
:102BB8000DF5EA404FF4BA3140301EF0BEFC07462E
:102BC80040BB0DF5CA4140310DF5EA420846403296
:102BD8001EF09BFC0DF5AA420DF5CA410DF5EA4021
:102BE8004032403140301EF0CAFC502812D80DF552
:102BF800EA4340330DF51552214620461DF06BFF80
:102C080040F67413059A136038460DF5454D11B01A
:102C1800BDE8F08F01351DE74FF0FF37F4E700BF3F
:102C2800B2FF0100B27301002DE9F04F0368BDB097
:102C38000A9343680B9383680C93C3680D930369E5
:102C48000E9343690F9383691093C3691193036AC1
:102C58001293436A1393836A1493C36A1593036B9D
:102C68001693436B1793836B1893C36B1993036C79
:102C78001A93436C1B93836C1C93C36C1D93036D55
:102C88001E93436D1F93836D2093C36D2193036E31
:102C98002293436E2393836E2493C36E2593036F0D
:102CA8002693436F2793836F2893C36F2993D0F894
:102CB80080302A93D0F884302B93D0F888302C9326
:102CC800D0F88C302D93D0F890302E93D0F89430E3
:102CD8002F93D0F898303093D0F89C303193D0F8B7
:102CE800A0303293D0F8A4303393D0F8A83034937E
:102CF800D0F8AC303593D0F8B0303693D0F8B43043
:102D08003793D0F8B8303893D0F8BC303993D0F82E
:102D1800C030D0F8C4603A93014B009302E000BF82
:102D280038830200149A0A9B159953400B9A82EA39
:102D380001051E9A53401F9A5540289A5340299AD4
:102D48005540329A5340339A089355400C9B169A33
:102D580083EA02090D9B179A83EA0208209B189AB6
:102D680089EA0309219B88EA03082A9B89EA03095F
:102D78002B9B88EA0308349B89EA0309359B4FEAB1
:102D8800490B88EA03080E9B4BEAD87B83EA020CBE
:102D98000F9B199A4FEA480A83EA0207229B239A53
:102DA8008CEA030C57402C9B2D9A8CEA030C574055
:102DB800369B379A8CEA030C5740109B1A9ADDF819
:102DC80074E083EA0204119B1B9A4AEAD97A83EADF
:102DD8000201249A129B5440259A51402E9A54403D
:102DE8002F9A5140389A5440399A51401C9A5A4067
:102DF800139B83EA0E0E269B5A40279B8EEA030EEE
:102E0800309B5A40319B8EEA030E3A9B8EEA060E9F
:102E18005A408BEA020301938AEA0E0302934FEAAF
:102E28004C0B089B4BEAD77B4FEA470A4AEADC7A05
:102E38008BEA030303938AEA05034FEA410A4AEA45
:102E4800D47A04938AEA08034FEA4E0848EAD2780B
:102E5800520042EADE72059382EA0C03069388EA7E
:102E680007030793089B6A0042EAD3725B0043EAB0
:102E7800D5736340089382EA01034FEA440B0A9A28
:102E88000993019B4BEAD17B8BEA090B83EA020980
:102E9800029B0B9A179983EA020A039B169A239CB2
:102EA8005A40049B150D4B4045EA03351B0D43EA78
:102EB8000233229A05998BEA02024C404FEA525893
:102EC80048EAC428640D44EAC2242E99069A2F9F22
:102ED8005140079A7A404FEA425E4EEAD12E4905A0
:102EE8003A9F41EAD221089A7A40099F7E404FEAE8
:102EF800863C4CEA924C920342EA9642009ED6E9FE
:102F080000768AEA06060B9689EA070728EA050684
:102F18007E400B9F0A9624EA030677402EEA0406B1
:102F28005E400B9721EA08076F40239625EA0905BA
:102F38002CEA0E0623EA0A03744083EA0C0329EA02
:102F48000206229722EA01076A4071403B942E92BA
:102F58002AEA0C04109A2F93069B87EA0807169111
:102F680084EA0E013A97179183EA0201079B119AA6
:102F78001D9C53404FEA037C4CEA111C090741EAA7
:102F880013111C9A089B2B9F5340099A62401605FF
:102F980046EA13361B051E9C43EA1233019A82EA5D
:102FA80004051F9C029A62404FEAC20848EA557815
:102FB800ED002A9C45EA5275039A25EA030A624005
:102FC800049C4FEAD24E7C404EEA443EE40C44EA6C
:102FD8004234369A379F8BEA0209059A8AEA010A2F
:102FE8007A404FEAD90747EA4277D20842EA49725B
:102FF80028EA060989EA0C09CDF8A8A02EEA050AEC
:103008008AEA030ACDF8AC9024EA080989EA060995
:10301800CDF840A023EA010327EA0E0A8AEA05054B
:1030280026EA0C067B40CDF8449022EA04091E9556
:103038001C9389EA080586EA02031F951D932CEA6A
:103048000205039B0C9A21EA070883EA0201049B04
:103058000D9A88EA0E0E53404FEA430C4CEAD17C95
:103068006C40490041EAD371CDF8D8E0189B3794F9
:10307800059A199C8BEA03036240960146EA936617
:103088009B01249C43EA9263069A319F82EA0405D5
:10309800259C079ADDF8CC9062404FEA426848EADE
:1030A800D5186D0645EAD215309C089A25EA030A18
:1030B8005440099A8AEA010A7A404FEA022E4EEAF7
:1030C800146E2402329F44EA1264019ACDF860A07B
:1030D8007A40029F24EA050A87EA09094FEA8947E4
:1030E80047EA9237920442EA993228EA060989EABD
:1030F8000C098AEA030ACDF8649023EA01032EEA50
:10310800080989EA0609534026EA0C06CDF8C0A04A
:1031180022EA040A8AEA0505CDF8C490329327EA20
:103128000E0986EA07030C95339389EA0805089B7C
:1031380021EA0208129A0D9583EA0201139A099B63
:103148002CEA070553404FEAC36C4CEA511CC906E8
:1031580041EA531188EA0404019B149A249485EAED
:103168000E045A402594029B159C160F634046EAAC
:1031780003161B0F43EA0213039A209C2D9F82EA31
:103188000405219C049A62404FEA822848EA95582F
:10319800AD0245EA92552C9A25EA060A8BEA020402
:1031A800059A8AEA010A7A404FEAC23E4EEA544E2C
:1031B800E403389F44EA5244069ACDF8E0A082EA34
:1031C8000709399F079A24EA050A7A404FEA19271E
:1031D80047EA0267120A42EA096228EA030989EA09
:1031E8000C098AEA060ACDF8E4902EEA080989EA69
:1031F8000309CDF850A023EA0C0327EA040A8AEA57
:1032080005055340CDF8549026EA010622EA0E0936
:103218002C95219389EA08050E9B21EA070886EA7E
:10322800070188EA04042D9520912CEA02050F99DC
:10323800059A8BEA0303129485EA0E0413949D08F9
:1032480082EA010445EA8475A40844EA83741A9A58
:10325800069B269E83EA0201079B1B9A279F5A40DA
:103268004B0A43EAC253520A42EAC15208997140D2
:10327800099E4FEA516C77404CEAC71C7F0E47EA1B
:10328800C1170199289EDDF8A4E07140029E4FEA1B
:10329800D15886EA0E0648EA4628F60DDDF8D0E051
:1032A80046EA41260399DDF8D49081EA0E01DDF85B
:1032B80010E02CEA030A8EEA09094FEA890E4EEA61
:1032C800917E890041EA99718AEA050A27EA02098A
:1032D800CDF898A089EA040928EA0C0ACDF89C9050
:1032E8008AEA030A26EA070923EA050389EA0209A2
:1032F8004B4022EA04020E9382EA0E03CDF8D0A0D6
:103308002A9A21EA080ACDF8D4900F932EEA0609E2
:103318000A9B8AEA0C0C89EA0707CDF868C01B9754
:1033280025EA010C24EA0E072B995A400B9B7E4094
:10333800299683EA01061899229B4A4019998CEA32
:10334800080C4E403899CDF8A0C04A4039994E40F3
:1033580026994A4027994E40109983EA0109119904
:10336800239B83EA0108309B1E9989EA0309319B54
:10337800DDF8CCE088EA0308149B89EA0309159B69
:1033880088EA0308349B89EA0309359B4FEA490B0D
:1033980088EA03083A9B4BEAD87B83EA010C3B9BFB
:1033A8001F994FEA480A83EA01070C9B0D998CEA9A
:1033B800030C4F402C9B2D998CEA030C4F401A9B11
:1033C8001B998CEA030C4F40169B36994AEAD97A26
:1033D80083EA0105179B379983EA010424991C9B0A
:1033E8004D4025994C4012994D4013994C402899CD
:1033F8004D4029994C40329959401D9B83EA0E0E45
:103408002E9B59402F9B8EEA030E209B5940219BEF
:103418008EEA030E0E9B59400F9B8EEA030E8BEA31
:1034280001034FEA4C0B01934BEAD77B8AEA0E0360
:103438004FEA470A02934AEADC7A8BEA02030393CB
:103448008AEA06034FEA440A4AEAD57A04938AEAE2
:1034580008034FEA4E0848EAD178490041EADE718C
:10346800059381EA0C03710041EAD2715200069378
:1034780042EAD67288EA0703079382EA05030893AB
:1034880081EA0403019A09934FEA450B0A9B4BEA28
:10349800D47B8BEA090B83EA02090B9B029A059CF1
:1034A80083EA020A109B039A079E83EA0201119B92
:1034B800049A0D0D5A400C9B45EA0235120D42EA5A
:1034C800013283EA0B010D9B4FEA51585C4048EAF0
:1034D800C428640D44EAC124129B0699099F5940E7
:1034E800139B5E404FEA465E4EEAD12E490541EAFB
:1034F800D621089B0E9E5E4033460F9E7E404FEAC3
:10350800863C4CEA934C9B0343EA9643009ED6E9DB
:1035180002768AEA06060B9689EA070728EA05066C
:103528007E400B9F0A9624EA020677402EEA04069C
:1035380056400B9721EA08076F400D9625EA0905C2
:103548002CEA0E06744022EA0A0229EA03060C97BE
:1035580023EA01076B40129382EA0C037140069A32
:103568000F9413932AEA0C04169B109184EA0E0117
:10357800119183EA0201079A179B099C53404FEA6D
:10358800037C4CEA111C090741EA1311089A1C9B99
:1035980087EA080753401D9A0E976240160546EAC7
:1035A80013361B0543EA1233019C189A049F82EADA
:1035B8000405029C199A62404FEAC20848EA557805
:1035C800ED0045EA5275039C149A25EA030A624005
:1035D800159C4FEAD24E7C404EEA443EE40C44EA45
:1035E80042341A9A8AEA010A82EA0B091B9A059F51
:1035F800CDF850A07A404FEAD90747EA4277D20877
:1036080042EA497228EA060989EA0C092EEA050AFB
:103618008AEA030ACDF8549024EA080989EA0609D7
:10362800CDF858A023EA010327EA0E0A8AEA05051D
:1036380026EA0C067B40CDF85C9022EA040918952E
:103648001C9389EA080586EA020319951D932CEA5A
:103658000205229B039A21EA070883EA0201049AD9
:10366800239B6C4053404FEA430C4CEAD17C1F9A91
:103678001B944900059C41EAD3711E9B624083EA72
:103688000B03960146EA93669B0143EA9263069C04
:10369800249A88EA0E0E82EA0405079C259A099F57
:1036A80062404FEA426848EAD5186D0645EAD215E5
:1036B800089C209ACDF868E05440219ADDF80890DB
:1036C8007A404FEA022E4EEA146E240244EA12644B
:1036D800019F269A25EA030A7A40279F8AEA010A67
:1036E80087EA09094FEA894747EA9237920442EA8A
:1036F800993228EA060989EA0C09CDF878A024EA63
:10370800050ACDF87C908AEA030A2EEA080923EA1A
:10371800010389EA0609534026EA0C06CDF880A081
:1037280022EA040A8AEA0505CDF88490269327EA56
:103738000E0986EA07032295279389EA08052E9B36
:1037480021EA0208089A239583EA0201099A2F9B25
:103758002CEA070553404FEAC36C4CEA511CC906D2
:1037680041EA531188EA04042A9B019A249485EAC1
:103778000E045A4025942B9B029C160F634046EA80
:1037880003161B0F43EA0213039C309A059F82EA33
:103798000405049C319A62404FEA822848EA955809
:1037A800AD0245EA92552C9A25EA060A82EA0B04EC
:1037B8002D9A8AEA010A7A404FEAC23E4EEA544EEE
:1037C800E40344EA5244069F289ACDF8A0A082EA6E
:1037D8000709299A079F24EA050A7A404FEA192718
:1037E80047EA0267120A42EA096228EA030989EAF3
:1037F8000C098AEA060ACDF8A4902EEA080989EA93
:103808000309CDF8A8A027EA040A8AEA0505CDF835
:10381800AC9023EA0C0322EA0E0953402C9526EAC1
:10382800010689EA08052D9521EA0708319386EAF9
:1038380007013A9B2CEA020530913B9A059983EAE5
:103848000B034A404FEA930C4CEA827C920842EA06
:1038580083720699369B88EA04042E9485EA0E043E
:103868004B402F943799079C5D0A81EA040645EA84
:10387800C655760A46EAC3560899329B099C4B40BE
:1038880033994FEA53684C4048EAC418640E44EA36
:10389800C3140199389B029F4B4039994FEAD35E74
:1038A80079404EEA412EC90D41EA4321039F349BDA
:1038B800DDF810907B40359F28EA050A87EA090958
:1038C8004FEA890747EA93779B0043EA997324EA0A
:1038D800060989EA02098AEA0C0ACDF8C8A0CDF8D7
:1038E800CC902EEA080A21EA04098AEA050A89EA3C
:1038F8000609CDF8D0A0CDF8D49023EA0E0A27EA1D
:1039080001098AEA080889EA0404CDF8D8803794BE
:103918002CEA030822EA070425EA0C056B4088EA2A
:103928000E0E6140CDF8E0E039913A93009B26EA0B
:10393800020610330093009A3C4B7E4093427FF47A
:10394800F1A90A9B03600B9B43600C9B83600D9B52
:10395800C3600E9B03610F9B4361109B8361119BA6
:10396800C361129B0362139B4362149B8362159B82
:10397800C362169B0363179B4363189B8363199B5E
:10398800C3631A9B03641B9B43641C9B83641D9B3A
:10399800C3641E9B03651F9B4365209B8365219B16
:1039A800C365229B0366239B4366249B8366259BF2
:1039B800C366269B0367279B4367289B8367299BCE
:1039C800C3672A9BC0F8B8E0C0F880302B9BC0F8CA
:1039D800BC10C0F884302C9BC0F888302D9BC0F8F0
:1039E8008C302E9BC0F890302F9BC0F89430309BC1
:1039F800C0F89830319BC0F89C30329BC0F8A0309A
:103A0800339BC0F8A430349BC0F8A830359BC0F86D
:103A1800AC30369BC0F8B030379BC0F8B4303A9B16
:103A2800C0E930363DB0BDE8F08F00BFF883020032
:103A3800F8B50F4600293BD00668012230461EF033
:103A480019F90146044630461EF0DCF8C3070DD4C8
:103A5800AF23184A184919481EF018FB3946184868
:103A68001EF014FBAF2113481EF007FB2146304619
:103A78001EF0DEF825182946002230461EF0C2F84E
:103A88002D1AAC420BD0B7230A4A0E490B481EF038
:103A9800FDFA39460C481EF0F9FAB721E3E721464A
:103AA80030461EF0CBF82146BDE8F8401EF000BABB
:103AB800F8BD00BF019D0200249D0200DE930200B4
:103AC800359D02006D9D0200939D02002DE9F8438B
:103AD80006681446B5684A1EB5F5004F34BF04237E
:103AE80008230A400F4610D0C1F1000909EA01096C
:103AF8004B4502F1FF3128BF4B4611420CD1174606
:103B0800DCB900252846BDE8F883994213D8214638
:103B1800BDE8F8431EF00EBA34494FF4A673344A90
:103B280034481EF0B3FA34481EF0B0FA4FF4A671C8
:103B38002F481EF0A2FA9146E2E7B5F5004F2CBFD8
:103B480008200420FB1AE10804F0070201EBD30166
:103B5800073203F007031344034401EBD301A942DE
:103B680028BF294630461EF0E3F880460028C8D012
:103B7800B36809EBC005B3F5004F34BF042308232D
:103B88001D4435447B1E1D44B5FBF7F57D43A5EB6D
:103B98000905294630461EF06DF82C44073424F0F8
:103BA8000704A41B804507464FEAE40408D20246EE
:103BB800414630461EF0F5F8414630461EF036F9CB
:103BC800394630461EF034F83844844208D2394623
:103BD800304622461EF0E5F8214630461EF026F90A
:103BE8000122394630461EF029F88BE7CF9D0200A6
:103BF800019D0200DE930200EA9D0200B2F5802FCB
:103C08002DE9F04110D2042A28D8454940F21A2358
:103C1800444A45481EF03AFA44481EF037FA40F242
:103C28001A2140481EF029FA0823D21ACC1D114443
:103C380024F0070421F00701091B17294FEAD106D0
:103C48000ED83B4940F22323364A37481EF01EFA65
:103C580036481EF01BFA40F22321E2E70423E4E78A
:103C68000025046031462046A660E5601EF00CF889
:103C7800B6F5004F2CBF08230423421D92000833D9
:103C8800D11DDB0803EBD103B3424FEAD10739D882
:103C980001302946A2F1100204F11000B8BF2A46EB
:103CA80023F075FE3A46294620461DF0DFFF2B46D5
:103CB8002A46294620461DF0B0FFA6EB07082046F5
:103CC800294601221DF0BAFF424639461DF0CEFFB3
:103CD8003B462A46394620461DF09FFF314620467E
:103CE8001DF0C4FF43462A46314620461DF095FF85
:103CF8003146204601221DF0A1FF3946BDE8F041BA
:103D08001EF094B80B494FF40E73064A06481EF08D
:103D1800BDF906481EF0BAF94FF40E7181E700BFED
:103D2800079E0200019D0200DE930200289E020009
:103D3800419E02006A9E02002DE9F04F97B000AF45
:103D480089460446D7F880B0FA623B6258B9A94957
:103D580040F29933A84AA9481EF098F940F29931DF
:103D6800A5481EF08AF9CBF3C00390F802A07B6146
:103D780041B9457800780AEB800020444D4517D8B2
:103D8800A0EB0409E378FB61BAF1000F02D01BF045
:103D9800010F16D1FB6953BBFB6A1BB1494620468C
:103DA8003A6A98474D4628465C37BD46BDE8F08FCD
:103DB800461C3046FDF7C0F80130304409F10109CE
:103DC800DCE7626823787A62FA6A9900B96104EBE1
:103DD8008301002A40F002810E464FF000084D464C
:103DE80001EB0A094E454CD101EB0A0610E01BF025
:103DF800020FD1D023789A00BA61626804EB83017C
:103E08007A62FA6A002A77D14D46904601EB0A0693
:103E18001BF0050F0CBF02230123FB62FB6906EBB5
:103E2800430A0BF00203BB625645BCD016F8021BCE
:103E380016F8013C54F82390714B994502D3714B05
:103E4800994536D37B69002B40D0786A1EF0E1F89B
:103E580000283BD0E9468AB06A466B4B53617B6ABF
:103E6800C2E906314FF400731384684B42F8103FDF
:103E780000234FF41251664802F04CFA023DCD4639
:103E8800D2E716F8013BF96254F82300FDF754F81D
:103E9800D7F88430F96A01304BB1D7F888309845A3
:103EA8003EBFD7F8843023F8180008F1010805440C
:103EB80098E77B6923B1786A1EF0ABF80028C9D16E
:103EC8001BF0010F05D1FB6AED1AADE7BB6A002BA9
:103ED800AAD04846FDF730F8D7F8843053B1D7F860
:103EE800883098453FBFD7F88420431C22F8183003
:103EF80008F10108054497E7BAF1000F74D01BF0E8
:103F0800040674D0D046002607F1480052463B61AB
:103F1800B96223F015FDB96A3B6901EB0A02BA627E
:103F2800FA69F9695200FA60BA6A02EB41023A6129
:103F38000BF00202BA60BA6A39698A426AD16278B9
:103F48001BF0020F18BF00217A6208BF4FEA580120
:103F5800B2181BF0010FD2B240F0E5801BF0040F3D
:103F680014BF404600207B616270A070E17020465B
:103F78003A6AB969FB6A9847051EFFF614AF7B6970
:103F8800414623707B6A3A6A6370FB6984F802A031
:103F9800E37007F14800FB6A9847B0F10008C0F2E7
:103FA800F680BB69A9EB0A01C91AFB683A6AC91A03
:103FB800D7E90A0398470028C0F2EB804FF0000BBE
:103FC800A84408EB000507F1380AB345C0F0AD80F6
:103FD80000213A6A0846FB6A9847E4E656464FF0DD
:103FE800000807F1380091E75646D04695E7B046F5
:103FF80093E700BF2A9F0200959E0200DE9302000D
:10400800F47A0200E8020300459F02000400000160
:10401800FC800200BA6A12F8021B12F8015CBA624C
:1040280054F825005C4A904202D35C4A904218D367
:104038007A693AB1786A7B601DF0EBFF7B680028EB
:104048007FF479AFBA68002A4CD00F2E40D9544972
:1040580040F24D43534A54481EF018F840F24D417F
:104068007EE67A693AB1786A7B601DF0D2FF7B6898
:1040780000287FF460AF1BF0010F0BD00F2E27D95B
:10408800474940F24343474A47481DF0FFFF40F283
:10409800434165E61BF0040F3FF44DAFB8F10F0F35
:1040A80009D9424940F246433E4A3F481DF0EEFFD7
:1040B80040F2464154E608F1280207F1300008F1C1
:1040C800010102EB000808F8105C5FFA81F832E79A
:1040D80006F1280207F13000711C161806F8205C5A
:1040E800CEB228E7B8F10F0F09D930494FF48A63E7
:1040F8002C4A2D481DF0CAFF4FF48A6130E608F1BA
:10410800280207F1300C08F10100944407F1580225
:1041180008F1020852FA80F00CF8101C5FFA88F8CF
:1041280000F8105C07E700201DE71BF80A3054F878
:10413800239087F83730D7F884302BB3D7F88830F6
:104148009B4521D2D7F8843033F81B8001213A6A85
:10415800FB6A07F13700984700281ADB0544B8F1D5
:10416800000F06D14846FCF7E7FE00F101081FFAE8
:1041780088F8414648463A6AFB6A9847002808DBAF
:1041880005440BF1010B20E74FF00008DEE7454638
:1041980009E6054607E600BFF47A0200E8020300D4
:1041A800E89F0200959E0200DE93020007A002002D
:1041B800014B1B68184700BF6C060020014B1860B4
:1041C800704700BF6C06002030B585B004460D4628
:1041D80010220021684623F0DAFB02238DF8023012
:1041E800044B2A462146684601931CF025F905B080
:1041F80030BD00BFB941000080B505460E461746E0
:10420800984616F099FC034623F066FCDFF83C90CC
:10421800044649F80030424639463046A8470C4B18
:104228001B7873B90B4940F246330B4A0B481DF013
:104238002DFF0B481DF02AFF40F2463106481DF0BD
:104248001CFF54F8090003F003FB00BF080000003E
:104258008158002063A0020038A00200DE9302000B
:1042680076A0020038B50D4604462022002123F02E
:104278008EFB0022EB68E361AB68A3612B682362C5
:104288006B68A26263622A6923B1591E194208BF8A
:1042980042F0010222610122002104F12C0022F0E7
:1042A80028FB48B1054906482F23064A1DF0EEFEB3
:1042B8002F2104481DF0E1FE38BD00BF8FDA02004F
:1042C800DE93020098A002002DE9F04F002789B084
:1042D800CDE90123436A04468B428846BA460597CE
:1042E800079754D300F11406EFF31185202383F3C5
:1042F8001288BFF36F8F3046A94616F09DFE58B955
:1043080088234D4A4D494E481DF0C0FE31464D4860
:104318001DF0BCFE882163E0304616F0B1FE079A16
:104328002AB1394620461DF09BFF0023079306A9B2
:1043380020461DF0B8FE06998346414530D32268D1
:10434800236A204613F8221003EB820A21F00301A6
:1043580003F82210216842461DF0C9FEE368206078
:10436800984218D04FF0000B304616F073FE50B349
:1043780089F31188BFF36F8F059929B1A2690AB132
:104388002046904700230593BBF1000FACD150465F
:1043980009B0BDE8F08F236943F008032361E1E722
:1043A80018B120461DF0BDFEDEE7DDE901321343FA
:1043B80039D0039122F012FB0399A0BB9DBB304674
:1043C80016F048FE78B94FF49A731B4A1E491C48E8
:1043D8001DF05CFE31461D481DF058FE4FF49A71E1
:1043E80015481DF04AFE85F31188BFF36F8F04F15D
:1043F8002C00DDE9012314F0A9FB8346EFF31189B2
:10440800202383F31288BFF36F8F304616F014FE13
:1044180000283FF475AFBBFA8BFB304616F030FE30
:104428004FEA5B1BA0E7204607AB05AA27681DF0EB
:1044380097FE834698E700BFBEA00200EBA00200EB
:10444800DE93020000A1020016A102002DA10200C5
:104458002DE9F0410446C36908460E46984704F121
:1044680014050746EFF31188202383F31288BFF35E
:104478006F8F284616F0E0FD68B988231A4A1B4951
:104488001B481DF003FE29461A481DF0FFFD882130
:1044980015481DF0F2FD284616F0F2FD33783A462D
:1044A80043F001033370616820461DF020FE606010
:1044B80020461DF0F0FE284616F0CCFD68B94FF4F2
:1044C8009A73094A0C490A481DF0E0FD29460B4831
:1044D8001DF0DCFD4FF49A71DAE788F31188BFF319
:1044E8006F8FBDE8F08100BFBEA00200EBA0020004
:1044F800DE93020000A1020016A102002DA1020015
:104508002DE9F0470446002700F11406EFF311885F
:10451800202383F31288BFF36F8F304616F08CFD8B
:10452800054668B988233A4A3A493B481DF0AEFD2A
:1045380031463A481DF0AAFD882135481DF09DFDF9
:10454800304616F09DFD2369A16813F0080F02D1CB
:104558006368994200D9636A5B1A002B41D0206ACC
:1045680010F8213000EB810913F003023CD0022A35
:1045780004D150F821205FEA920A05D1DA0720D445
:104588004846E36998478246A168524620461DF08E
:10459800AEFD5146A06020461DF0B7FD2F463046BF
:1045A80016F058FD10BB4FF49A73194A1C491A4863
:1045B8001DF06CFD31461B481DF068FD4FF49A71E3
:1045C800BBE743F0020300F82130E3694846A568D9
:1045D80098472946024620461DF089FD0025A0601F
:1045E800DDE71D46A946DAE71546FBE788F311889B
:1045F800BFF36F8F002D89D137B1B9F1000F03D107
:1046080004F12C0014F01EFA4846BDE8F08700BFFC
:10461800BEA00200EBA00200DE93020000A102008F
:1046280016A102002DA102002DE9F0410446C3693C
:1046380008460D46984704F114060746EFF311881B
:10464800202383F31288BFF36F8F304616F0F4FCF3
:1046580068B98823274A284928481DF017FD31469C
:1046680027481DF013FD882122481DF006FD30461D
:1046780016F006FD2B786FF300032B7023699B0758
:1046880005D5E268236A03EB82039D4222D12B7889
:104698006FF341032B70D4E90231994204D13A46B1
:1046A80020461DF024FDA060394620461DF02DFD52
:1046B800304616F0CFFC90B94FF49A730D4A114961
:1046C8000E481DF0E3FC31460F481DF0DFFC4FF4A7
:1046D8009A71C9E72B6867F39F032B60E8E788F3B3
:1046E8001188BFF36F8F04F12C00BDE8F04114F07E
:1046F800A9B900BFBEA00200EBA00200DE93020031
:1047080000A1020016A102002DA1020070B5044606
:1047180000F11405EFF31186202383F31288BFF309
:104728006F8F284616F088FC68B988231A4A1B49F7
:104738001B481DF0ABFC29461A481DF0A7FC882130
:1047480015481DF09AFC284616F09AFC2369A068C3
:1047580013F0080F02D16368984213D9646A241AC7
:10476800284616F077FC78B94FF49A730A4A0E492E
:104778000B481DF08BFC29460C481DF087FC4FF4B4
:104788009A71DDE71C1AEBE786F31188BFF36F8F88
:10479800201E18BF012070BDBEA00200EBA00200C1
:1047A800DE93020000A1020016A102002DA1020062
:1047B8002DE9F84F0446A38B08461907154612D46D
:1047C800022803F0070165D120461DF0EAFD88B1F3
:1047D8000138042800F23781DFE810F05C00350169
:1047E8008200D400040101280CBF43F0100143F0FB
:1047F8002001A1831434204616F02CFC002840F038
:104808009D819A494FF49A73994A9A481DF03EFC43
:104818002146B1E003F00702501F01281ED80020EE
:10482800062A2768C4E9000014D13A4603E0E08B61
:104838000130E0831268002AF9D123F0070343F01E
:1048480002022046A2831DF0ACFD90B342F0200284
:10485800A2832EE023F007039AB2F2E7042A33D1A9
:1048680023F007039AB22046A2831DF09AFD10B1E7
:1048780042F02002A283A38B03F00709894540F088
:10488800EC80A18BCA0640F1508121F01003A3836C
:1048980001F00701D4F81880A38BB8F1000FB9DA3A
:1048A8000022276823F00703C4E9002243F001032C
:1048B800A383A38B03F00709894540F0CF80002F1D
:1048C800DFD00026B24644E06B4940F21B136B4A26
:1048D80068481DF0DBFB40F21B1168481DF0CDFB5A
:1048E80049B167494FF4AB73644A62481DF0CEFB87
:1048F8004FF4AB71F1E723684BB9624940F25713A3
:104908005E4A5C481DF0C2FB40F25711E5E7236997
:104918001E684EB95C494FF4AD73584A55481DF0AE
:10492800B5FB4FF4AD71D8E70F4688464FF006093E
:10493800A38B23F0070343F006039BB2A383A2686B
:10494800002A40F08D80002F40F08D80002E98D0F6
:10495800BA4643F0080304F1140B5846A38316F033
:1049680079FB002840F09A8040494FF49A73404AF6
:1049780040481DF08BFB594644481DF087FB4FF417
:104988009A71ADE0022909D0414940F25D133B4AD2
:1049980038481DF07BFB40F25D119EE7E78B4FB175
:1049A8003C494FF4AF73354A32481DF06FFB4FF462
:1049B800AF7192E723695E684EB9334940F26113DB
:1049C8002E4A2C481DF062FB40F2611185E7A38B4B
:1049D800B84623F0070343F004039BB24FF00409E1
:1049E800A383ACE7012909D02B494FF4B273234ABA
:1049F80020481DF04BFB4FF4B2716EE723684BB9AA
:104A0800204940F265131D4A1A481DF03FFB40F249
:104A1800651162E723699E684EB91B494FF4B47368
:104A2800164A14481DF032FB4FF4B47155E70027BD
:104A3800A38BB84623F0070343F005039BB24FF05E
:104A48000509A3837BE70C4940F26B130B4A09481D
:104A58001DF01CFB40F26B113FE7002700266EE7B4
:104A68004FF0010A75E7924673E700BF16A10200EE
:104A7800BEA00200DE930200D1F502004DA10200A3
:104A880072A102007EA10200A1A102002DA10200D4
:104A9800B8A10200CEA10200DDA1020085F31188B1
:104AA800BFF36F8FBAF1000F1CD177BB16B1204648
:104AB8002549B047EFF31185202383F31288BFF30C
:104AC8006F8F584616F0B8FA38BB88231F4A20491A
:104AD80020481DF0DBFA59461F481DF0D7FA8821F7
:104AE8001A48FBE6A1680029DFD00D680029DCD050
:104AF80043464A462046D1F804A0D0471DB12B684A
:104B080029461D46F2E72B46FAE7394643464A4608
:104B180020463F681DF071FCC7E7584616F0B0FA0A
:104B2800A38B23F00803A383ABE68B067FF562AE65
:104B380021F02003A38301F0070145E685F31188DE
:104B4800BFF36F8FBDE8F88F654B0000BEA0020071
:104B5800EBA00200DE93020000A10200F8B50446B3
:104B68000D4600F11406EFF31187202383F3128812
:104B7800BFF36F8F304616F05FFA68B988230C4A86
:104B88000C490D481DF082FA31460C481DF07EFA9A
:104B9800882107481DF071FA304616F071FAA561B0
:104BA8003A462046BDE8F8400121FFF701BE00BFA4
:104BB800BEA00200EBA00200DE93020000A10200EA
:104BC8002DE9F04704460F461DF007FC051E68DB7B
:104BD80004F11409EFF3118A202383F31288BFF339
:104BE8006F8F484616F028FA804660B98823384AFD
:104BF800384939481DF04AFA494638481DF046FAFE
:104C08008821334842E0484616F03AFA4FF6FF72D8
:104C1800E38BA68B934206F0070645D0022E15D1EA
:104C280035460133E383484616F014FA002841D18B
:104C38004FF49A73264A2A4927481DF027FA49460D
:104C480028481DF023FA4FF49A71DAE7062E13D894
:104C5800DFE806F0092D1212090409006FF0850536
:104C68004FF00008DFE700233B60636883B9C4E9BD
:104C7800007786B13546F3E71B4917484FF4E473CC
:104C88001A4A1DF003FA4FF4E47118481DF0F5F9BB
:104C98001F606760EDE7524602212046FFF788FD56
:104CA80035462846BDE8F0876FF00A05D8E76FF06B
:104CB8000405D5E78AF31188BFF36F8FB8F1000FA9
:104CC800EFD000233246394620461DF096FBE8E730
:104CD800BEA00200EBA00200DE93020000A10200C9
:104CE80016A102002DA10200DDA102004DA10200C3
:104CF800F8B5054600F11406EFF31187202383F376
:104D08001288BFF36F8F304616F096F960B9882382
:104D1800254A264926481DF0B9F9314625481DF08F
:104D2800B5F9882120482BE0304616F0A9F9AC8B5C
:104D380004F00704022C17D0012C0CBF6FF00404F8
:104D48006FF08504304616F085F938BB4FF49A7336
:104D5800154A194916481DF099F9314617481DF0AA
:104D680095F94FF49A71DDE7EB8B5BB9144910485C
:104D780040F2EF13134A1DF089F940F2EF11114880
:104D88001DF07BF9013B9BB2EB83002BDAD13A464D
:104D980021462846FFF70CFD2046F8BD87F3118809
:104DA800BFF36F8FF8E700BFBEA00200EBA00200C0
:104DB800DE93020000A1020016A102002DA102004C
:104DC800F3A102004DA1020008B54268034602F0B3
:104DD8000302022A81600AD0032A4FF0000103D09F
:104DE800012A0AD1596006E01868596008BD186898
:104DF80000225A6058B90020F8E7064906484523BA
:104E0800064A1DF043F9452104481DF036F916F00D
:104E18002BFDF0E7D1F50200DE93020001A20200AB
:104E28002DE9F7430F4606460821C06A1DF08DFBA1
:104E380080463C68DFF84890241A3C6004EA09057B
:104E4800AC4203D8002003B0BDE8F08308236A46CB
:104E5800214630461DF00FFB0028F4D16946304644
:104E68001DF07DFB40B1BDF80230BDF8042005EA15
:104E7800090513441D443C60A4EB0804E0E700BFA7
:104E88000000FFFF73B504464FF6FF72C06A0821A1
:104E98001DF05BFB002563680F4EADF800208DF810
:104EA8000620E268191833401344181A60606846EF
:104EB800ADF80210ADF804501DF03EFB69462046DF
:104EC8001DF00DFC2046211D1DF00EFB28466368D1
:104ED8003340A36002B070BD0000FFFF2DE9F0472A
:104EE80004468AB000F11407384621F0C9FCA06ACC
:104EF8008368DB689847E06250B98D4A01218D4884
:104F08001DF0FFFA6FF0150528460AB0BDE8F087D6
:104F1800A06A8368DB6898470368013B1F2B01D9A7
:104F2800854AEBE7E368B3F5803F08D94FF4803250
:104F3800012100927F48814A1DF064FFE2E7A06AE0
:104F4800216807AA20F085F908B17D4AD6E7E56807
:104F58002DB1089BB5FBF3F203FB12550DB1794A4D
:104F6800CCE7238A012B01D8774AC7E7E36A029581
:104F780093F805904FF0FF334FF0FF32384613F0A7
:104F88004DFA0821E06A1DF0E0FAA8460646238A91
:104F98001FFA85FA534508D8238A434523D1384652
:104FA80013F00CFB6FF02C05AEE7E1682B04891BAE
:104FB80013FA81F14A460823204602911DF069FA46
:104FC80078B1204602A91DF08FFA08F101080823DC
:104FD8004A46204602991FFA88F81DF05AFA002816
:104FE800DAD00135D3E79A450BD1029908234A460E
:104FF8002046891B1DF04DFA18B9204602A91DF05C
:1050080073FA204602A9FFF70BFF054618B1384688
:1050180013F0D4FA78E7029B4FEA13484FEA08489E
:105028006360C4F80880D4E9011399420FD30823B8
:10503800204603AA1DF01FFA05460028E7D103AB56
:1050480013F8012B91453DD10135082DF8D163683E
:1050580020461B0C1B0402A902931DF045FA4A4680
:105068002046E36802991DF014FA051ECFDB636839
:105078007ED04FF6FF7906EB0308E3681FFA88F243
:105088009B1B9A42CDF8088038D303212F4A294820
:105098001DF037FA204661681DF035FA05460028EC
:1050A800B5D163682A4AE16813400B44A3EB460371
:1050B800636013402046A3601DF039FB0546002DB0
:1050C80072D0A4E7204603A91DF049FA626810B916
:1050D800921B6260A7E7BDF81050BDF80E10E06A99
:1050E800C4F8088029441DF030FA40449042A0607A
:1050F800EED1002DECD06FF01C0580E0082341466E
:10510800204605AA1DF0B7F9054600287FF47FAFB1
:10511800204605A91DF023FA38B1BDF814304B45D7
:1051280003D1BDF81830002B6FD0B044A5E700BFFD
:105138003BA20200248102005DA202007AA20200C2
:10514800A3A20200BBA20200CFA2020041A3020058
:105158000000FFFF4A4620465B1A1DF09AF9051E1B
:10516800FFF655AF08D0E26AA36812681344A3603B
:10517800D4E901318B42EDD86168E36801EB46025E
:105188009A429CD1DFF8A880A26801EA08039A42F3
:1051980095D020461DF0B7F9054600287FF437AFB3
:1051A800636803EA0803A360E368A288A3EB4603E5
:1051B8009A4220D0384613F001FA0123E268A3741A
:1051C800238A032100921B481B4A1DF01BFE6368BB
:1051D8009AB200920321194A16481B0C1DF012FEC0
:1051E800A3689AB200920321154A12481B0C1DF0BD
:1051F80009FE002588E620461DF082FA0546384655
:1052080013F0DCF9002DD8D07EE60E4A03210948B8
:105218001DF077F9636820461B0C1B0402A9029352
:105228001DF062F9204602991DF06DF946E700BFAE
:105238000000FFFF24810200F2A2020009A302007D
:105248001BA302002CA302002DE9F04F1D46837C0E
:1052580091B004460291009253B90121634A64480F
:105268001DF04FF96FF00C06304611B0BDE8F08F15
:10527800C26A082110461DF068F9294601901046B7
:105288001DF063F9E368019A0746A3EB8203AB427A
:10529800C0F0A9801DB1009B002B00F0A4806368BA
:1052A8000593204606AA05A9DDF814A01DF094F977
:1052B80006460028D8D1BDF81830029A934206D085
:1052C8006268059B9A42ECD1002D36D1CCE7204686
:1052D80006A91DF044F90028F2D0BDF81A80BDF8DF
:1052E8001C3045B39D4228D14FEA1A4A4FEA0A4A70
:1052F800D044AA46E36ADDF800B01B685B4203F0BD
:1053080020030393DDF80C904146D14528BFD146D0
:1053180020464B4608AA1DF0AEF800284AD14A4656
:10532800584608A922F03BFB38B9BAEB090AC84429
:10533800CB44E7D198E7002B96D0002F3DD1B84653
:1053480004F1140A4FF0FF324FF0FF33504613F0C8
:1053580065F8238A9E4243D0A168626808EB01037E
:105368009A422FD3029B2046ADF82030FF23009AA3
:105378008DF826302B46ADF82210ADF824501DF0DC
:1053880075F929460746E06A1DF0DFF8A36803446B
:10539800A36057B908A81DF0CFF8204608A91DF04A
:1053A8009EF9002814BF07462F46504613F006F909
:1053B8003E4659E7C1DC064656E7019B1F441FFAE3
:1053C80087F8BDE72046FFF75DFD07460028ECD1CA
:1053D80020461DF0ACF907460028E6D10136B8E7AB
:1053E8006FF01B07E1E76FF015063DE727A2020003
:1053F800248102002DE9FF471E46837C04460F46A0
:105408009046BDF830904BB92C4801212C4A1DF02C
:1054180078F86FF00C0004B0BDE8F0870821C06A86
:105428001DF093F8E368A3EB4003B34243D3002590
:10543800D4F804A0CDF804A04D455146DDF804A0E9
:1054480009D9636853451ED1BDF80830BB421AD04C
:105458006FF00100DFE7204602AA01A91DF0BCF8A1
:105468000028D8D1BDF80830BB4206D1204602A991
:105478001DF075F808B10135ADB26268019B9A421A
:10548800DAD15146E0E7BDF80C30002BE0D0A94551
:10549800DED8BDF80A00090CB3424FEA014128BF23
:1054A80033460144424620461CF0E5FF0028B2D1AD
:1054B800BDF80C00AFE76FF01500ACE724810200DF
:1054C80027A2020010B530B90B480C491DF007FAA5
:1054D8006FF0150010BD836833B9074808491DF0FF
:1054E800FEF96FF00400F5E71B6813B1BDE8104042
:1054F80018471846EEE700BF2C8102006FA3020090
:1055080080A3020010B530B90B480C491DF0E7F92B
:105518006FF0150010BD836833B9074808491DF0BE
:10552800DEF96FF00400F5E75B6813B1BDE81040E1
:1055380018471846EEE700BF2C8102006FA302004F
:1055480080A3020070B508B101B132B90B480C490B
:105558001DF0C5F96FF0150070BD84680CB12569A0
:1055680035B9064807491DF0BAF96FF00400F3E7AA
:1055780041F8040B2369BDE8704018472C810200EC
:105588009EA3020080A3020010B5044630B910485B
:1055980010491DF0A4F96FF0150010BD006830B96E
:1055A8000B480D491DF09BF96FF00100F5E7836882
:1055B8000BB15B6933B9064808491DF090F96FF0E3
:1055C8000400EAE7616898470028E6D12060E4E72C
:1055D8002C810200CAA30200DBA3020080A3020000
:1055E80070B51346044630B9104811491DF077F9D3
:1055F8006FF0150070BD006830B90C480D491DF0FA
:105608006EF96FF00100F5E782680AB1956835B95F
:10561800064809491DF063F96FF00400EAE70A46F5
:10562800AC466168BDE87040604700BF2C8102004D
:10563800CAA30200DBA3020080A30200034A136886
:105648000BB9526813600020704700BF7006002035
:1056580030B50C460E4985B00291D0F8D4110546F4
:10566800CDE9003100F1F0014FF0FF33204611F091
:105678007DFE50B9012384F86C30D5F8D03123B1C0
:10568800204605B0BDE83040184705B030BD00BF22
:10569800DF29020038B50C46114605461DF09DF974
:1056A800034638B9284604491DF097F903460020F7
:1056B800236038BD0120FBE70BF802002DE9F04F0D
:1056C800012381460569466889B005F55D77D7E805
:1056D800EF2F002A03D1C7E8E13F0029F7D10CBF1B
:1056E8001A46002240F0B180B368B16A05F5F8782F
:1056F8001C1F10461DF0F8F984426FD8013A00F0DB
:105708009E80B2FA82F24FF00044D440726820467C
:10571800073222F00302C5F83C22B16A1DF0E4F911
:10572800C5F84002B36A40466343033323F00303DA
:1057380002EB4302230103EB4403093323F0030381
:1057480003EBC403C5F834221A440832C5F83022E2
:105758007368C5F83842C5F82C323D4BC5E9AD63CE
:10576800316800F0E5F90446002835D1D9F810B0C1
:10577800D9F804A0D9F800300BF53479CDE9060042
:1057880005934846DAE90734012B08BF103C13F0AB
:105798000DFEDAF824002F4905AB01EB80214FF408
:1057A800806248460093234613F01AFE2A490BF5F7
:1057B800307013F03FFCDAE9050183685C684CB18E
:1057C8005B46264AA047044630B9DAE905018368F2
:1057D8001B692BB96FF05704002129E0013288E7D3
:1057E8000122984704460028F6D11D4B2846C5F8E3
:1057F800D0311C4BC5F8D4311B4B0393D5F840323C
:105808000293D5F83C32CDE9008305F51173B26AED
:10581800D5F8701300F054F904460028DCD105F1DE
:10582800F00011F049FE0028C5F878030ADB0221D0
:1058380038461DF006F9204609B0BDE8F08F6FF034
:105848000B04C9E76FF01504C6E76FF07704F2E7B9
:10585800352A0200885C01201B2A02000F2A020058
:1058680075580000C72B02007B2A020013B50446B6
:1058780040B100230122CDE90032074BD0E90912DB
:1058880011F048FD236F1B6823B1606F02B0BDE8BB
:105898001040184702B010BD0BF8020013B50446BB
:1058A8000846216901F55D71D1E8AF1F022910D1C1
:1058B80093B1A0B10121CDE900311346D0E9091215
:1058C80011F028FD074B984208BF6FF00B0002B09B
:1058D80010BD6FF00F00FAE76FF04C00F7E76FF0BC
:1058E8000100F4E72EF8FFFF2DE9F3478946154636
:1058F800066906F55D73D3E8AF3F022B64D11368E0
:1059080023B96FF0150002B0BDE8F0871B78002BB3
:10591800F7D0D6F870A3BAF1000F36D106F5EC77B8
:105928004FF0FF324FF0FF33384612F077FD304624
:105938002A6801A9FFF7AEFE019C80461CB93846CB
:105948001DF07DF8DDE705F108032367AB6984F8EE
:105958006CA06367646460B138461DF070F8214636
:105968003046A36E2A68FFF773FE0020C9F800408E
:10597800C9E71F22296804F1480022F032F83846A6
:1059880084F867801DF05BF8EFE7304610491DF09A
:1059980024F804460028B4D0002705F1080303675B
:1059A800AB6980F86C70436740641F2229684830EF
:1059B80022F017F822460121304684F8677000F07B
:1059C80061F80028D1D09CE76FF00F009BE700BF7B
:1059D8000BF8020010B50C46006900F55D73D3E8BA
:1059E800AF3F022B0FD189B10A4900F5307013F08F
:1059F8004FFC204620F0FBFC78220021204621F0B5
:105A0800C6FF002010BD6FF00F00FBE76FF001002C
:105A1800F8E700BF942000202DE9F04F05460E4618
:105A280090460027D0F8C4A085B0AAF5BE742146D8
:105A38003046FBF76FFAE0B9114BA4F1480B02931B
:105A4800DAF810303246CDE9008329464FF0FF33AB
:105A58005846AAF5E27911F089FC60B97823012249
:105A680003FB079383F86C20DAF80C300BB1584627
:105A78009847783417B105B0BDE8F08F0127D6E70D
:105A8800F52B02001FB5144690B18AB1012912D135
:105A98000A4B00F1F0010293D0F8D4314832019357
:105AA8004FF0FF332046009311F060FC04B010BDA6
:105AB8006FF01500FAE70020F8E700BFF52B0200A9
:105AC8002DE9F04387B00E46DDE90E811446DDE985
:105AD80010251F4630B329B3DFF850C000F1F00994
