:020000040100F9
:10000000C8820021D9A80101CD2E0201C5A8010195
:10001000C5A80101C5A80101C5A801010000000093
:1000200000000000000000000000000035AA0101EF
:10003000C5A8010100000000D5A90101C5A8010162
:10004000DDAB0101DDAB0101DDAB0101DDAB010188
:10005000DDAB0101DDAB0101DDAB0101DDAB010178
:10006000A1330201DDAB0101DDAB0101DDAB01011B
:10007000B7330201DDAB0101DDAB0101DDAB0101F5
:10008000DDAB010187330201DDAB0101DDAB010115
:10009000DDAB0101DDAB0101DDAB0101DDAB010138
:1000A000DDAB0101DDAB0101DDAB0101DDAB010128
:0800B000DDAB0101DDAB010134
:1000B800054B00221B78826001330260034A4260CC
:1000C800C371FF23037270474003002180010800B9
:1000D800064A074B02604FF424729B7882800822FC
:1000E800C371002382710372704700BF75900101CC
:1000F80040030021064A074B02604FF44072DB7848
:1001080082800822C371002382710372704700BF86
:10011800A58D010140030021064A074B02604FF4F8
:10012800C472DB7A82800822C371FF238271037252
:10013800704700BF11890101400300212DE9F341F7
:10014800C41D0028064624F007040CBF00202046E2
:1001580000F06AFC071E04DA6FF00B0002B0BDE87D
:10016800F081374DE988A88803316B7A03302A7A01
:1001780089B280B215F01FFA0028EDDB3C44A9785B
:10018800EB78002E04F10304194424F0030400FB67
:1001980001F10CBF0020204600F0CCFD20440EB930
:1001A8000028D9DBEA7A0446B2B1EB7B697C1344B8
:1001B8001944FF29D0D80330002EAA89C9B220F0EB
:1001C80003040CBF0020204600F026FE0028C3DBF5
:1001D80004440EB9002CBFDB012000F01BFCB0B1B9
:1001E800A97BA1B195F82A3033B340234FF481722B
:1001F8000734002E24F007040CBF0020204605F029
:10020800B9FA0028A8DB04440EB9002CA4DBAB7AA9
:10021800FBB1EB7AB3B10734002EA97A24F00704B6
:100228000CBF002020460AF01BFF002894DB044482
:100238007EB9002C0DDA8FE725232822D8E700BFE6
:1002480040030021012000F0E5FB10B1AB7B002B3F
:10025800E1D1734B1B6893B1A97D81B10334002EA2
:10026800EA7D24F003040CBF0020204698470028AC
:10027800FFF672AF044416B9002CFFF66DAF694B58
:100288001B688BB1297C79B10334002E24F0030458
:100298000CBF0020204698470028FFF65DAF0444B5
:1002A80016B9002CFFF658AF5F4B1F68B7B1697CD1
:1002B800A1B10334002E2B7D24F0030408BF0020D5
:1002C800009318BF2046EB7CAA7CB8470028FFF6AD
:1002D80043AF044416B9002CFFF63EAF072000F0E8
:1002E80099FB98B1A97D89B10334002E2A7E24F0A8
:1002F80003040CBF0020204600F07CFE0028FFF617
:100308002BAF044416B9002CFFF626AFB6FA86F7D1
:1003180095F823007F09A0B103346B7FA97E24F0F0
:10032800070419443B4644F00404C9B2224600F0CD
:10033800A1FE0028FFF610AF044416B9002CFFF602
:100348000BAF95F8241000294CD004F10708002EB3
:10035800EA8C28F007080CBF0020404615F03FF94A
:10036800041EFFF6F9AE4444002E3ED1002CFFF6E1
:10037800F3AEA97F002945D095F82230002B41D053
:100388002A8C0734002E02F1240224F007080CBF3F
:100398000020404692B215F022F90028FFF6DCAEA4
:1003A800404416B90028FFF6D7AE03302B7FA97E4C
:1003B80020F0070019443B4640F0040495F8220059
:1003C800C9B2224600F048FE0028FFF6C5AE044434
:1003D80086B9002CFFF6C0AEEB6AF3B1C6B1EC6289
:1003E8000020BBE6002EC4D08846E98C404611F0B8
:1003F800C7FBBEE72A8C4046A97F083292B211F0AB
:10040800C5FBE9E7002EE7D0002211461046F6E7C3
:1004180028343FF5A1AE2046A0E6002EE0D1FAE749
:1004280044100021481000214C1000211FB572B65D
:10043800194B1C6BECB9BFF34F8F1849184BCA689E
:1004480002F4E0621343CB60BFF34F8F00BFFDE7B8
:10045800B2FBF6F22B465D1C002AF9D1DBB203F1A0
:1004680010056D4405F80C2C0A2233B901A8A047E1
:10047800E1E7024600230A26EDE7013BDBB203F180
:1004880010050DEB0506B0FBF2F502FB1500303048
:1004980006F80C0C2846E8E74003002100ED00E0D0
:1004A8000400FA0513B5124C68462389ADF80030EC
:1004B800E388ADF80430A388ADF8023008F0F6FC04
:1004C80018B1FC219C20FFF7B1FF207D08F044FD06
:1004D80008B1FF21F6E7E07C08F038FD10B14FF4D1
:1004E8008071EFE794F828000FF084FC02B010BD8B
:1004F8004003002138B5054600283DD013F0F8FF29
:1005080010B94FF0FF3038BD11F000FFB0F5FA7F99
:10051800F7D81B4C002125631B2504F10F0084F834
:1005280034102A46217084F82A10E16214F044FA43
:100538000123032108200222A370E370E372A3744D
:100548002376F72321722384FB23A0721F20A17333
:100558004921E3840A23A580E5806272A081E174C1
:10056800E27584F82830EFF3108472B600F092FD3B
:1005780004B962B60020C6E76FF01500C3E700BFF4
:100588004003002138B51446002840F0C480634D6C
:1005980095F83430032B00F0BB80B9B112B96FF075
:1005A800150038BD0139172900F2B580DFE801F0E0
:1005B8000C1D20366069873C6C6F814248565B8D04
:1005C800909FA2A596B3B3A81378AB700020FFF74D
:1005D800B5FD0028B7BF012302236FF00B0085F893
:1005E8003430A8BF85F83430DBE71378EB70EDE7DB
:1005F8001379002BD3D05379002BD0D01288FB2A43
:10060800CDD863881B3B9BB2E02BC8D81A2AC6D921
:100618002368A2886B60424B9A80D7E71378EA7BFD
:100628009342BCD3EB72D1E71378EA7A9342B6D8F7
:10063800EB73CBE71378EA7A9342B0D86B74C5E7CB
:100648001378002BABD05378013BDBB2F82BA6D83C
:10065800138892786B82334B9A70B7E71078687575
:100668000FF086FBB2E71378002B98D02B76ADE716
:10067800012000F0CFF9237808B1012B8FD9AB7393
:10068800A4E71388AB81A1E71378AB759EE7072031
:1006980000F0C0F910B92378012B80D9072000F0A9
:1006A800B9F918B12378002B3FF479AF2378EB75AB
:1006B8008CE71378082B3FF672AF2B7486E7138804
:1006C800FF2B3FF66CAFAB7280E713786B767DE754
:1006D80013780E2B3FF663AFAB7677E72368124AA1
:1006E800C5F81E3063685360238913816EE7137859
:1006F800EB766BE713786B7768E713782B7765E70A
:1007080013785A1E092A3FF64AAF85F828305DE764
:100718004FF0FF3045E76FF02C0042E7400300211F
:1007280044030021520300215E030021F8B50D4661
:10073800064630B329B311F0070422D1124F97F8B7
:100748003430012B02D16FF00B00F8BD032B02D11E
:100758004FF0FF30F9E700F07DF80028F8D0284680
:10076800FFF7ECFC0028EEDB0FF04AFB3046F96A95
:1007780008F086FCFFF796FE0323204687F83430FE
:10078800E3E76FF01500E0E74003002110B5074CE0
:1007980094F83430032B03D108F08AFC09F036FCB6
:1007A80015F060F8002084F8340010BD40030021E3
:1007B80050B1074B03F1140253F8041B934240F85D
:1007C800041BF9D1002070476FF01500704700BF77
:1007D8000F6E020108B508F0DDFB03490320BDE8F0
:1007E800084000F00FB900BF2101000108B508F06A
:1007F800E5FB03490220BDE8084000F003B900BF4B
:10080800FD00000108B5094B93F82A305BB108F0E8
:1008180015FC0749012000F0F5F806490020BDE85D
:10082800084000F0EFB808F0EBFBF2E740030021C6
:10083800B9000001D900000102680020014B1A60CC
:10084800704700BF78030021014B1B68184700BFA1
:1008580078030021024B1868003818BF0120704740
:1008680078030021074B4FF0FF3141F6FF72C3E9CF
:10087800001205490022C1E900221F21C3E9021222
:10088800704700BF000000217C0300213F280CD8DE
:1008980001380B4BC0F3421200F01F0053F822300E
:1008A80023FA00F000F001007047FF2806D0403816
:1008B800044BC0F3421200F01F00EFE7012070471D
:1008C800000000217C030021074B014600684968AD
:1008D8001A4603C240F48C2200201A6041F01072BC
:1008E80042F4FF625A607047000000210246034B41
:1008F8000068516803C30020704700BF7C030021D3
:100908000246034B0068516803C30020704700BFCC
:10091800080000210138064BC0F3421200F01F0006
:1009280003EB82039B6823FA00F000F00100704794
:10093800000000210A8870B595B2C67CC2F30E0289
:100948000488023602F118033444C35AA4B233446B
:100958002344013BB3FBF4F303FB0422438892B224
:100968009342044B8BBF2B40AB4313439BB20B808A
:1009780070BD00BF0080FFFF4A1E062A08B5034667
:10098800084604D84FF4D1711520FFF74FFD094AE6
:10099800914202D940F2A311F6E711B903B11960E7
:1009A80008BD2BB11B680022C3E901211A1D1A607A
:1009B8000430F5E7FAFFFF7F10B5114B00EB410457
:1009C8001A786389B3FBF2F303FB0223013A1A4452
:1009D800B2F5706F0279807828BF00231A440B188B
:1009E800B2FBF0F100FB11215B1AB3FBF0F100FB45
:1009F800113313446FEA43436FEA5343638110BDD5
:100A080084030021024B03EB80035960704700BF49
:100A180084030021034B03EB80035868003818BF98
:100A280001207047840300212DE9F04F10F0070AD8
:100A380085B0054604D040F26F111720FFF7F6FC89
:100A4800534F04464FF0010B07F14C06B146B04630
:100A580057F8043B8DF80BA03BB101A898479DF8C7
:100A68000A30082B01D9F521E7E79DF80B1041BBA7
:100A780005B131604F4506F10406E9D1002D6FD06C
:100A88000022DFF810911227964689F8002058F8BE
:100A980027A0013FBAF1000F55D09AF804609AF8E0
:100AA80002C0FF2E60D039460023481C38D19C4430
:100AB800BCF1FF0F3FD90AB189F800E04FF49A71F1
:100AC800BBE79DF80AC04B1D60465A0004EB430380
:100AD800022838BF0220441E40422344BDF8084083
:100AE8006444CCF1000C0340013C04EA0C04B4F566
:100AF800803F02D340F205119FE775B19A1A326020
:100B08009170148082F803B09DF80C001071019860
:100B18004FEA104C1081A2F806C004FB0134A9E783
:100B280058F8210028B190F804B0B34504BF807884
:100B38001B180139B9E7DBB2E6458AF804303CBF37
:100B48005FFA8CFE01227B1CA1D10AB189F800E072
:100B5800122640F6FF6A58F82670B7B9013EFAD255
:100B6800601B05B0BDE8F08F0023E5E707EB410304
:100B780009F101093846A3F80AA0FFF71DFF5FFA3B
:100B880089F1BB788B42F1D8E8E74FF00009F6E726
:100B9800880300218403002138B54FF6FF7302460D
:100BA8000380184B03EB8103186DA8B1847803798F
:100BB800B3FBF4F104FB1133DBB2194600EB41053A
:100BC800B5F90A50002D0EDB0131B1FBF4F504FB39
:100BD8001511C9B28B42F1D1002038BD6381BDE83F
:100BE800384014F0C4BC00EB41046389C3F30E031E
:100BF8001380C278002AF1D14FF4E5711720FFF76E
:100C080015FC00BF840300211C4B03EB810370B566
:100C18001C6D054644B3030404D54FF4EC7117204A
:100C2800FFF704FC0146204614F084FCFF28014627
:100C380004D02046BDE8704014F099BCA078B5FBFC
:100C4800F0F300FB1353DBB219460A1D04EB42060E
:100C5800B6F90260002E09DB0131B1FBF0F200FBAE
:100C68001211C9B28B42F0D1002070BD8B4201D065
:100C78000023E37004EB42025580DAE78403002185
:100C8800094B03EB8103014610B51C6D204614F097
:100C980051FCFF28014604D02046BDE8104014F05E
:100CA80066BC002010BD00BF84030021F8B5104BBE
:100CB800074603EB810301461C6D204614F03AFCFD
:100CC800FF28054611D0E288238953EA024606D058
:100CD8000146204614F04BFC01463846B0472046F2
:100CE8002946FFF769FE0020F8BD0520FCE700BF94
:100CF8008403002138B50E4B0446827903EB820346
:100D0800186D08B9052038BD8278E1799142F9D289
:100D18004B1CE37100EB41035D89B3F90A30002BEA
:100D2800F3DBA58014F023FC20600020EBE700BF74
:100D38008403002170B5044610F003000E4603D06A
:100D48004E211820FFF772FBFFF716FE054624B167
:100D5800034831460460FFF70FFE284670BD00BF08
:100D6800200400212DE9F14FDFF870B01E46074638
:100D78000D46DBF8003090469DF828A09DF82C9091
:100D88001BB960211820FFF751FB52460921404644
:100D980014F054FA4A4684B20921304614F04EFA47
:100DA80081B2DBF80000214414F098FB386018B9D0
:100DB800286001B0BDE8F08F04445346414609223B
:100DC8002C60386814F0FDF94B4609223146286832
:100DD80001B0BDE8F04F14F0F4B900BF20040021C1
:100DE80070B50E46044614F03CFA0546304614F039
:100DF80038FA044B2A1821461868BDE8704014F0E8
:100E080092BB00BF20040021024B186808B114F0FF
:100E180059BB7047200400211F2AF8B50446134621
:100E28000ED89200033222F00303B3F5803F2DD28F
:100E3800184DACB1A00710D068210920FFF7F6FAC9
:100E4800FF2B4FEA420204D9FF339A42A8BF1A4641
:100E5800E8E77C2AB8BF7C22E4E729706C602B8124
:100E680022F0030228230127120403FB01F06B6818
:100E78000025120CEEB2B14200D8F8BD14B1261804
:100E88001F705E60104401352833F3E74FF0FF30E0
:100E9800F3E700BF24040021154A002170B5536808
:100EA8001578C8B2854203D8BA210920FFF7BEFADF
:100EB8001C461846013114F8286B0EB92346F0E792
:100EC8000021997001241289996103F126055C704B
:100ED8009208D96103F11E04596824F8022FA5422B
:100EE80043F8041F1144F8D100234361037070BD17
:100EF800240400210A4B1B89B3F5FF7F4FEA9300B6
:100F080006D25A089B1A9BB2984238BF18467047B7
:100F1800B3F5EE6F01D8FF22F4E740F27263F3E70E
:100F2800240400214B782DE9F04106460C4602F0D6
:100F3800040702F0FB05E3B1A5BBFF23A3707B0800
:100F480004EB57073A7D032A02D1022D18BF01335B
:100F5800E2180121117503F10C01002204EB83034F
:100F680024F811205B68A27030463360B280BDE877
:100F7800F081002DE1D1012301F11E028D6120468F
:100F88004B7004F1260C1A4BCD611B8949689B08EC
:100F980022F8023F944540F8041F1944F8D1002371
:100FA8006361CAE7D1F8048014220021A018617097
:100FB80013F002FD0E4B1B89B3F5FF7F0FD25A08C1
:100FC8009B1A9BB208EB0301C4F804802384A16038
:100FD8006284C4F80C80A3842161E284ADE7B3F590
:100FE800EE6F4FF0FF02EBD940F27263EAE700BF01
:100FF800240400212DE9F84305460C46F720052175
:10100800914614F01BF9061E21DB1DB906FB04F0FE
:10101800BDE8F88315F0030703D098211920FFF7DE
:1010280005FADFF83080C8F81050A8F81460BBB291
:101038009C42EBD9B8F814504B46D8F8100005225A
:10104800F72107FB0500013714F0BBF8EFE74FF075
:10105800FF30DDE73804002107B5CDE900230B4652
:1010680003490246081D14F0D7FB03B05DF804FBE2
:101078005004002113B5064CCDE900230B46024667
:1010880004F1080104F10C0014F0C6FB02B010BD15
:1010980050040021144B012200214FF0FF309A60C8
:1010A800C3F80012C3F80803C3F80015C3F80425F1
:1010B8009A60C3F808034FF48040C3F80015C3F8DA
:1010C800042503F5805341F6F8720849C3F808254A
:1010D800C1F88000BFF34F8FBFF36F8FC1F8800155
:1010E800C3F80825704700BF00E0004100E100E0B8
:1010F8008C463422064B00B50CF8032B8E4607CBE2
:10110800CEF80300CCF80410CCF808205DF804FBF6
:101118006C0400212DE9F0411C4D044600F0010744
:1011280095F82460B6F1000818BF4FF001081EB109
:1011380017B1AB8D1A0714D4012916D82B6B20468A
:10114800984790B195F834307BB98EB987B1A88D9E
:1011580058B995F835304BB995F8360080F001004C
:1011680004E095F82E30002BE6D00120BDE8F08190
:1011780084F0010010EA0800F8D0A88D8307E7D5AD
:1011880095F82E0080F00100F0E700BF6004002110
:1011980010B5154C0FF03EFD10F0F4FB0021E36B89
:1011A800208F9847237E9BB9104B228F93E803002A
:1011B8000AF012F9A36A188809F008FF636C94F81A
:1011C800341094F840009847002384F8483010BD44
:1011D80094E8070004F10C0383E80700044904F1CC
:1011E800190016F021FBDFE76004002184040021C8
:1011F800F9100001034B93F8483003B97047FFF723
:10120800C7BF00BF60040021F8B5254C4FF48173B7
:101218000646A56AA4F8543095F8932094F86030EF
:10122800E76C03EB820095F875102765FF2804D159
:101238001EB995F874308B4218D00FF059FA95F80A
:1012480093303BB3606E0FF0FFFD616E206D10F0C0
:101258005FFB96B1A88E0FF0B3F9002095F87410D3
:101268000FF0E8FE022384F84830F8BD002AE9D1DF
:1012780038460FF0E9FD10F085FB95F875302A8F98
:10128800033B012B8CBF00202820104480B20FF0B4
:1012980077FEDFE7206D0FF0D7FD10F073FBD8E77E
:1012A8006004002108B5094B93F84820022A07D1A9
:1012B800DA7A42F00102DA72BDE80840FFF768BF47
:1012C80040F2E6212720FFF7B1F800BF60040021B3
:1012D800F0B5194C83B0A56E4DB3A36D3BB3B4F80C
:1012E8005C3001F003012F4606466B702B7823F023
:1012F80003030B4307F8033B3846B4F85C20A16DA1
:1013080013F006FC0DF1020201A9E06E2565A76540
:1013180014F0CEF8019814F0B9F80346B4F85C104C
:101328000122E06E336014F05CF803B0F0BD40F2C7
:10133800E9712720FFF77AF8600400212DE9F04FC2
:10134800BB4C85B0A76A94F8603097F8932097F85B
:10135800741003EB8203FF2B05D120B997F8753081
:101368008B4200F02A81FF200FF0C2F9D4F828B090
:1013780000239BF888808DF80930ADF80A30B8F161
:10138800050F00F2E381DFE818F0C900E90030003A
:101398003000060006000DF10A0103A808F084F8E1
:1013A800002800F02C81039E002E00F028810123E4
:1013B8004FF0050ABDF80A2084F874308BF888A02D
:1013C80062BBA4F88820C4F884209BF889309BF875
:1013D8008A20E667AAF1040A5FFA8AFABAF1010FCD
:1013E80000F2B181002109782FE0BBF864300DF1DB
:1013F80009020DF10A01A06FADF80A3013F058FF89
:101408000646002800F09A810123BDF80A209BF8BF
:1014180088A084F87430002A00F0FD80F31CBAF12B
:10142800020FA4F88820C4F884309BF88A209BF81F
:101438008930E66700F09E80AAF1040A5FFA8AFA0A
:10144800BAF1010F00F27F81F178022900F0DC8007
:10145800A06FCDE9003213F083FFD4F884100501A2
:1014680081460978EDB21B29DDE9003200F00581DB
:101478000021E66F4FF0030A8846DB00B8F1010F40
:101488004FEA820203F00800337802F0040203F006
:10149800F30343EA000343EA020323F0100345EA97
:1014A800030525F003054AEA05053570B4F88830C8
:1014B80073704FF00203E26FA4F88030137823F0C2
:1014C800200341EA030111700AD1A36A197C5B7CED
:1014D800032903F01F0308BF002143EA8113937017
:1014E80097F8923084F835901BB1B4F88830002B07
:1014F8005BD1E06F0FF0A8FC10F044FAF88E0FF003
:101508005FF8012097F875100FF094FD012384F817
:101518008C3084F8483005B0BDE8F08F002303A86C
:101528000DF10A01ABF8C43094F87330ABF86430AD
:10153800ADF80A3007F0B8FF002845D0039E002E0A
:1015480042D001234FF0040ABDF80A2084F8743011
:101558008BF888A0002A7FF461AF32E7354BC2468A
:101568009BF88A20E3670023A4F88830C4F8843005
:101578009BF88930A06FCDE9003213F0F1FE814667
:101588000546DDE90032D0B9A846CDE9003207F0BA
:10159800A5FF494680F00109E66F5FFA89F94FEA2D
:1015A8000915DDE90032EDB267E7606E0FF04CFC1B
:1015B800E16F606E10F070F9A0E7BB46D8E6002135
:1015C800E66F1025884658E79BF8D330A3B300256B
:1015D80000214FF0010A174E9BF889309BF88A20AA
:1015E800ADF80A10A4F88810C4F884108BF888A005
:1015F800E667002DBED08946454641463DE740F2A4
:101608001D512720FEF712FF00254FF0030AA946B7
:101618002946A84631E7BAF1020FA4F88820C4F891
:1016280084209BF889309BF88A20E667A2D0D1E60F
:1016380060040021D00400210DF10A010DF1090216
:10164800A06F13F035FE06460028C0D09DF809505B
:101658001DBBBDF80A20002A53D14FF0010AA4F897
:101668008820C4F884209BF889309BF88A20E66794
:101678008BF888A084F874A07CE701210BF1100096
:101688004FF0030A4FF00108CDE900320FF072F86D
:101698002021E66FDDE90032EFE60146A06F13F086
:1016A800F1FE13F0F3FE0368D0F804A0814653EA74
:1016B8000A0233D10023BDF80A2089F8003089F8DE
:1016C800013089F8023089F8033089F8043089F844
:1016D800053089F8063089F80730002ABDD09DF812
:1016E800091071B1317801F0030101291FD04FF0C1
:1016F800020A8BF8953001238BF888A084F874309F
:101708008CE600234FF0030A3380B3700123BDF841
:101718000A208BF888A084F874307CE6009310F0D7
:10172800D5FF009B83427AEB0101C3D250E74FF00B
:10173800030A84F874108BF888A06FE640F20E5103
:101748002720FEF773FE4FF0010A13E740F22751F6
:101758002720FEF76BFE00BF2DE9F041404C86B014
:1017680094F84830012B71D1A56A5FFA83F80646D0
:101778000F4695F88430ABB995F88830042B25D0FE
:1017880095F89330002B3BD1012F06D12EB9314665
:101798003046FFF7BFFC002853D006B0BDE8F04143
:1017A800FFF7F6BCA38D0021042043F0040385F85D
:1017B8008410A385E36B984794F82430002BDBD082
:1017C80095F8883085F88580042BD9D1A38D02201F
:1017D800244943F00203A385E36B984794F8243027
:1017E800002BCDD0D4F884301B78A3F10203B3FAD0
:1017F80083F35B0984F82E3095F89330002BC3D01F
:10180800A36A05F5807194F860C005F5887593F8AA
:10181800750094F8243001381C1EC0B218BF01248A
:10182800032855E9062316D800940F4C205C0024A1
:1018380003900120CDE9015CCDE904400FF09CFF45
:10184800A2E706B0BDE8F041FFF7DEBC40F6310183
:101858002720FEF7EBFD40F22C410620FEF7E6FDBF
:1018680060040021E4040021784802012DE9F04FCA
:10187800C64C8BB0002394F84820A56A022ACDE90B
:10188800083340F02782236D03220F46064693F85B
:1018980000805978134495F893004FEA281AA365F5
:1018A80008EA0203A4F85420A4F85C100693002E5A
:1018B80040F08480002840F08B8194F88F30013309
:1018C80084F88F30238F43F48063238795F875302D
:1018D800033B012B40F2E18008F044FD002840F072
:1018E800DC804FF00008C146C34695F89230002BC3
:1018F80040F0E980A36E002B00F01A81012303EA6F
:101908000A0384F836303FB994F88F100120FFF7A6
:1019180001FC002800F05F810FF0D8FBB9F1000F3F
:1019280040F02E814FF00108218F11F0400106D1BF
:10193800E36B40209847238F43F040032387BBF194
:10194800000F09D094F82430002B40F03181B4F80E
:1019580009300133A4F80930002E00F0EF80B4F804
:1019680005300022013384F88F20A4F80530884818
:1019780009F01AFB089830B113F088FD00220272B2
:10198800294608F06BFC099B33B100221A720C221D
:101998002946099808F030FCB8F1000F40F0EB80B8
:1019A800238F1B0607D4E36B414680209847238F7B
:1019B80043F0800323870BB0BDE8F08FC8F3C0095C
:1019C800002840F0C180002940F01081002095F8DF
:1019D8008930228F0133A06642F40072DBB222877D
:1019E80083EA980818F0010840F0D68095F8881026
:1019F800002900F0E880013985F88930C9B2042946
:101A080000F26D81634B0B441B79002B00F0C480FE
:101A1800B5F8C420022BA5F8C62000F0FF80032BE0
:101A280000F04081002194F8243085F888105BB1DB
:101A380095F8853043B1A38D102085F8851043F0C3
:101A48001003A385E36B984795F88A304FF0000B95
:101A5800228F03F0010142F400628945228740F099
:101A6800A380B4F85C10002900F0C4800698411ED9
:101A7800012940F2E5800133032885F88A3000F017
:101A8800BF80D5F8F8300133C5F8F830D5F8FC3008
:101A980043F10003C5F8FC3086E00EF0A7FD0428EA
:101AA8007FF41FAFB4F85C804FF0000995F89230CE
:101AB800B8F11B0FCB4694BF4FF000084FF0010858
:101AC800002B3FF417AF95F874C005F5887194F8AA
:101AD80024300CF1FF3C95F87E00B3FA83FE05F53F
:101AE80080735FFA8CFC80000793BCF1030F4FEA08
:101AF8005E1EC0B2D5E93C2300F2F680CDE900E1D4
:101B0800DFF890E005F580711EF80CC04FF0010E6B
:101B1800CDF80CC04FF0000CCDE904CE4FF0FB0C13
:101B2800CDF808C00FF028FEA36E002B7FF4E6AEB8
:101B3800B4F85C30B3FA83F35B09E0E6B4F8073035
:101B48000133A4F8073012E70FF044FF831EDBB21D
:101B5800012B10D9B4F85C1000287FF434AF0029A9
:101B68003FF434AF95F88A3003F0010399453DD12D
:101B7800012384F84030FFF70BFB0BB0BDE8F08F72
:101B8800069909A8FFF7A4FBCCE600BF6004002172
:101B9800840400217848020195F88A30B34603F09E
:101BA800010189453FF45DAF4FF00008C1469CE64E
:101BB800B4F80720B4F805301343B5F8862013436A
:101BC8003FF4CAAEC3E6B5F8C430A5F8C63029E775
:101BD8000FF040FF71E6FFF7B1FBB9F1000F3FF4DA
:101BE800A3AE069909A8FFF773FB9DE6E06E13F014
:101BF800D8FBECE6013385F88A30069B032BD3D15A
:101C0800A38D012042F480523F4943F0010385F837
:101C180084002287A385E36B984732E708A9A06F61
:101C280013F068FB002869D0D5F8F0300133C5F807
:101C3800F030D5F8F43043F10003C5F8F430F1E69C
:101C480042F4805295F8938022870EF0CFFC042846
:101C580094F88D3007D1B8F1000F0CBF1F221B225A
:101C6800934228BF1346B4F85C209A4226D8A36E44
:101C7800002B99D094F88E80B8F1000F25D1D5F8B3
:101C8800F830B1460133C5F8F83095F88A3003F1D9
:101C9800010385F88A30D5F8FC3043F10003C5F814
:101CA800FC3022E607F00EFC18B3A38D414608204D
:101CB80043F00803A385E36B9847B5E794F83430FD
:101CC80043F0100384F834306EE7E36B00212020E2
:101CD800984769E740F6C2012720FEF7A7FB40F2C4
:101CE800D7612720FEF7A2FB40F22C410620FEF721
:101CF8009DFB40F203712720FEF798FB40F2F96143
:101D08002720FEF793FB00BFB804002110B50C4C48
:101D18000C4A0D4994F84830116023B14FF4A4716E
:101D28002720FEF783FB03F0FF02227609F04CFB25
:101D380007F0D6F9E06407F0D7F9606610BD00BF78
:101D48006004002150100021FC200001074A10B552
:101D580092F8483013B10C24204610BD03F0FF045C
:101D6800147609F031FB204610BD00BF6004002145
:101D78002DE9F04389B0AF4C06AD9DF8446085E885
:101D8800030094F848101098002940F08381002B34
:101D980018BF002A00F07E81B0FA80F149090028B6
:101DA80000F07881236304F12403606484F834101C
:101DB80084F88F1084F8401084F88C10A18521874E
:101DC80084F8351084F8361084F8741084F82E10CE
:101DD800E167C4F88410A4F888102165A165A4F807
:101DE8005C10E26384F88E6095E8030083E80300E2
:101DF800A56A0EF0F1FC0FF0C5FD95F97C000EF018
:101E080071FDAE6A286A0EF073FD30460FF000F8D7
:101E180095F8A4000EF076FDAB8E5D2B02D9EB8E03
:101E28005D2B01D80EF0D2FB94F82460002E76D0FA
:101E380016F068FA014695F875200120A4310EF0D5
:101E48008DFE7D4B18680EF0E9FFA36AD5E90512EF
:101E580093F87470E26693F88D20A167A2F12A01C5
:101E6800012970D993F88E102A296CD0253A012AB5
:101E780040F2B980282900F09780032F08BF042773
:101E880005F13C063946304615F052FD394614F046
:101E9800E5FFB5F84830024695F87510304693428C
:101EA80028BF134684F8733015F0F7FC95F87510C1
:101EB80095F893700429B5F8506008BF032114F011
:101EC800CDFF0FB9043080B2864228BF0646F6B26D
:101ED80084F88D6008F046FA002859D194F8243027
:101EE80084F86060002B46D195F89220002A40F0D3
:101EF800AB800120FFF722FA0023B5F8860095F899
:101F0800A420A360C4E90033AB6F298860802180D6
:101F180022710BB101221A6009B0BDE8F08316F0F6
:101F2800F1F995F87420454B01463046444E33F894
:101F3800123003F5FA73A6FB036301EB93118A31A0
:101F48000EF00CFE7DE794F8242042BB93F83A3259
:101F5800002B95D0FA1ED2B2012A4FD9DA1E012AD7
:101F68004CD9012B18BF012F0CBF01230023C3F14B
:101F78000203DFB284E795F89330002B40D10120AB
:101F8800FFF742F9A36AD3F8E0010EF0C5FFB3E703
:101F980008F0EEF9B04238BF3046C6B29EE793F873
:101FA800CA32002BD6D16BE794F82420002A3FF4DC
:101FB80064AF93F8362193F86D3013405A071DD457
:101FC80013F001025FD19B077FF55AAFFB1EDBB20E
:101FD800012B13D9A7F10107B7FA87F77F09C7F1D2
:101FE8000207FFB24CE72829DED094F82420002A03
:101FF8003FF443AF93F836315907E1D504273FE75B
:1020080095F8750005F5807105F588770138C0B237
:102018000328D5E93E2342D8CDE90176094E305C44
:102028000026039001200496059000900FF0A4FB71
:10203800A5E700BF6004002150100021004B0201F9
:10204800D34D62107848020195F8746005F58071E7
:1020580095F87E0005F58872013E8000F6B2C0B2A0
:10206800032ED5E93C891AD80F4F04934B46BE5D21
:10207800019242460396012605960096FB26029693
:102088000FF07AFB35E7FB1EDBB2022B2CBF17469D
:102098000427F5E64FF408712720FEF7C7F940F248
:1020A8002C410620FEF7C2F978480201FFF770B804
:1020B800014B93F88C00704760040021054B1A8F80
:1020C80012F4C06F03D093F8740000B17047C2F3E4
:1020D8000030704760040021024B93F83900C0F3C8
:1020E800C000704760040021014B93F88F007047CF
:1020F80060040021AD12000175180001611700018C
:10210800FD11000106220B4603F8032BB0F809C0A5
:10211800C27AA1F803C09A70704700BF40F2BD218F
:10212800322008B5FEF782F990F8DE2012B902F0E5
:10213800FF00704710B5363882B00C4604F04AFAF2
:1021480018230420237002B010BD00BF70B500280A
:102158005BD0437A04460D46002B3BD000214089D2
:10216800FEF78EFD002855D000210088FEF79EFD61
:10217800002854D194F8546094F8A6302BB194F800
:10218800A7301E43002384F8A630204604F022FA24
:10219800B30730D113212B4604F10902293403F87F
:1021A800031BD2F800C0103252F80C6C103352F8EE
:1021B800080C52F8041CA24243F810CC43F80C6CEB
:1021C80043F8080C43F8041CEBD11178002219706D
:1021D800AA7170BD036DD0F80E20C3F80320428A9F
:1021E800A3F80720437B026D03F0FD03003B18BFF3
:1021F80001239370BEE726F004060022204611460C
:1022080084F8546004F0A8FFC4E740F20631322095
:10221800FEF70CF940F212313220FEF707F940F2CE
:1022280015313220FEF702F9044B00221B68A3F88F
:10223800792183F87B2183F870207047F00400210E
:1022480008B50DF0ADFD034B18700EF0E3FC03204C
:1022580008BD00BF1000002108B50DF0A1FD024B1C
:10226800024601201A7008BD1000002138B5114C33
:1022780020686C3003F0F0FA656803F09DFA636833
:102288002860186858B103F0C5FA68B10EF0DCFD93
:1022980000200EF075FE042263681A7138BD40F202
:1022A800F5413220FEF7C2F840F2F7413220FEF73E
:1022B800BDF800BFF004002108B50DF071FD044918
:1022C8000246044B48681A7003F03EFB012008BD23
:1022D800F004002110000021F0B5524C00220E46F7
:1022E80083B02368054641F27070196D5A72CA6945
:1022F800B1F800C0A3F80AC0A2F57A7C844575D964
:102308004948A0FB0202C2F38F221A848A8C5A849D
:10231800CA8C9A844FF47F42DA844FF6FF721A858A
:10232800002D49D00121304615F0D6F83278D2096F
:10233800236893F8481009B1002A47D10021596150
:102348001983207B082859D003F10E0203F10D01EF
:1023580007F04AFB00285FD023685A7B03F11A076D
:1023680042F002025A73002D3AD103F17800026854
:102378003A608288BA8093F95810186D07F0A6FC65
:1023880020682A4915F047FA236829491A6D1088E8
:10239800A3F8330003F12A0092F8962083F8352039
:1023A80015F042FA0221206805F07AF820686C30AE
:1023B80003F052FA03B0F0BDA068694614F054FF68
:1023C800A36868461A78C2F38012B1E7427902F02E
:1023D800C002402AB2D102685A6182881A83B0E7E3
:1023E8000021304615F078F82368C0E71148A0FBB3
:1023F8000202920902F5506292B286E793F87E10C3
:102408009A6FB3F87C0059730021C3F80E205882E4
:10241800C3F81A10D983AEE741F228413220FEF7FB
:1024280005F800BFF00400215917B7D15521000164
:102438000D210001D34D621040F29B31322008B5C6
:10244800FDF7F4FF10B504788CB004F00F0402A96E
:10245800224603F03BFD0DF0A3FC234A042C107028
:1024680002D003200CB010BD204C0399236891F8CA
:1024780000E093F878C0E645F3D191F801E093F8CD
:1024880079C0E645EDD191F802E093F87AC0E645C7
:10249800E7D191F803E093F87BC0E645E1D191F8E4
:1024A80004E093F87CC0E645DBD191F805C093F8C9
:1024B8007D108C45D5D193F87E309DF8191099423E
:1024C800CFD17F280DD04FF07F0C009002A9606813
:1024D80082F800C0237C227B03F062FC03200CB04E
:1024E80010BDFFF7A9FF00BF10000021F004002174
:1024F8000E4A536810B5197902290CD91979082997
:102508000ED8197952690A4B92680B44BDE81040FD
:1025180052F82330184741F2D1413220FDF786FFA7
:1025280041F2D2413220FDF781FF00BFF0040021C3
:10253800FDFFFF3F38B5194D6B681B79022B28D872
:102548002B680446027C83F8A4201A44C168996663
:1025580092F87C2183F878214268C3F88820037AAE
:10256800022B0ED00EF038F90EF03AFD0DF092FC69
:102578000B480EF053FC0B480EF04AFC0A480EF0CC
:10258800B7F9637C23B12B685B6E0BB101221A602B
:1025980038BD40F608113220FDF748FFF00400214D
:1025A8002C51000155555500D6BE898E70B53A4C50
:1025B800064663681A79032A41D01A79042A3ED05C
:1025C800226892F8542092073ED1A568002D4AD07F
:1025D800236893F85430002B3BD03EB1284615F0C1
:1025E80041F8D8B9284615F058F8B8B963681A7987
:1025F800022A3DD91A79082A3FD819796269274BE6
:1026080052690B4452F8233098470C2826D863693E
:10261800DB68BDE8704053F82030184763681A79C2
:10262800022A2FD91A79082A31D8197928466269D5
:102638001A4B12690B4452F823309847E5E718689B
:1026480003F0E8F80546C1E7186803F0E5F8054621
:10265800BCE741F2DF313220FDF7E8FE41F2F2310A
:102668003220FDF7E3FE41F2D9313220FDF7DEFEDC
:1026780041F2BF313220FDF7D9FE4FF49E5132208E
:10268800FDF7D4FE41F25F313220FDF7CFFE4FF463
:102698009B513220FDF7CAFEF0040021FDFFFF3FE9
:1026A80070B5154D2C6894F84830EBB16FF00043C5
:1026B800D4E920129A4208BFB1F1FF3F14D00FF0BD
:1026C800A5FED4E92023904299410DD32E6896F8AF
:1026D800483053B907F082F904460FF097FE074BCC
:1026E800E4FB0301C6E9200170BD012007F038FAB8
:1026F8000028F9D02E68EDE7F004002140420F00D1
:102708001B4B2DE9F04793F9008084B0B8F17F0F97
:102718002CD0184C7F2281460F4666681A70337990
:10272800032B1AD03379062B14BF4FF0010A4FF050
:10273800030A236803F142050DF058FF00903A465A
:102748002B4649463046CDE9028A257B019503F0A0
:1027580047F928B904B0BDE8F0874FF0000AE8E768
:10276800606804B0BDE8F04703F0AEB8FFF764FE58
:1027780010000021F004002138B505460C4606F08B
:1027880005FD420704D4A37803F0E003402B0DD0E5
:1027980006F0FCFC830704D4A37803F0E003202BA5
:1027A80004D0237803F03F03242B01D9002038BD3F
:1027B8000DF022FF94F900206378002AA27802F035
:1027C8001F0CB4BF4FF496711E2143EA0C2301FB82
:1027D80003F3191AB1F5877FE8D39842E6D806487B
:1027E800294623880068A0F8793180F87B21BDE864
:1027F800384003F0B5BF00BFF00400212DE9F047D1
:10280800334F84B0D7F8048098F80630002B4DD0A9
:102818003D6804460E4695F8953033B90378002B89
:1028280014BF0223012385F8953098F80430062B4D
:10283800DAB23FD0072A0CBF4FF0020A4FF0010A64
:10284800244B93F90090B9F17F0F3ED07F221A7084
:102858000DF0CCFE009005F1420332464046CDE92A
:10286800029A397B0191214603F0BAF8F0B16378F6
:10287800DB0618D5A1690220FFF77EFFE8B1002327
:102888003A6882F896306369DBB15978C1F303116D
:1028980082F8971059781B7801F00F0143EA012359
:1028A800A2F8983003E0786803F00EF8002004B02E
:1028B800BDE8F0874FF0030AC2E7786803F044F8F0
:1028C800F4E7FF2382F89730F1E7FFF7B5FD00BF83
:1028D800F00400211000002110B504468AB00DF064
:1028E8005FFA194A2378107003F00F03072B02D000
:1028F80001200AB010BD2046694603F08DFB6846EA
:1029080003F072FC9DF80030002BF1D19DF80130E6
:10291800DB07EDD50D4C019922689DF8110002F1F5
:10292800780392F87E2014F0F9F90028E0D02068A6
:102938000121A03013F0FBFEFF216846FFF75EFF80
:102948000130C0B2D5E700BF10000021F00400211B
:102958002DE9F04304468BB00DF022FA434A237860
:10296800107003F00F03082B04D0012528460BB084
:10297800BDE8F0836946204603F0E0FA9DF8005070
:10298800002DF2D19DF8013003F00303032BECD1A5
:10299800374F3E6896F84D308BB396F84E807B7B68
:1029A8008BBB4FF0000906F1780396F87E20019959
:1029B8009DF8110014F0B2F910B9B9F1000FD4D094
:1029C80096F848203E6896F841904236002A3CD155
:1029D8009DF81200334602994A4601281FD014F088
:1029E8009DF90028C1D038680121A03013F09FFE5E
:1029F8007B7B9BBB21460120FFF76EFCB6E77B681B
:102A080093F80580CBE714F0CDF90828C9D0A0EBDE
:102A180008093873B9FA89F94FEA5919C3E74E79A1
:102A280014F07CF980F0010306F0C006DBB2A6F1D1
:102A38004006B6FA86F67609002BD2D0002ED0D002
:102A48000299404607F0C0F8CBE7404607F0F6F891
:102A58000028BDD006464FF00109B9E70EF0C0FACC
:102A68000DF018FA00237B73C4E700BF10000021A3
:102A7800F00400212DE9F04FDFF8DCA093469846DA
:102A8800827CDAF8003083B0012A044693F8485073
:102A9800894685F001053DD0002637469AF80D2075
:102AA8003AB393F8542052072DD46368B3B1DAF8D7
:102AB80004305B79082B18D01846019306F0A2FE63
:102AC8002843C5B2B7B19AF80F20019B6AB314F036
:102AD80073F9002307468AF80F300BE0DAF8043060
:102AE800186803F0D5F90028E1D11FB19AF80E1043
:102AF80009B300278BF8007089F8006088F8005047
:102B080003B0BDE8F08F93F84D20002ACDD093F89C
:102B18004E30CFE78268567906F0C006A6F1400627
:102B2800B6FA86F676093746B8E7A168184607F078
:102B38004BF80746DEE7A06806F06EFF07468AF8FE
:102B48000D000028D5D014F02DF90828D1D0DAF8D6
:102B580004305871CEE700BFF00400212DE9F04F92
:102B6800044687B006290AD8DFE801F0522E0F097B
:102B780009090400B34D68688379002B72D10EF0FF
:102B880049F8032007B0BDE8F08F0EF043F8AD4ACE
:102B9800136893F854108F07F3D05068817900298F
:102BA800EFD0A94D95F900107F2900F01C82029101
:102BB8002146127B7F2442330192FF220092022297
:102BC8002C7003F045F8DCE79E4DA27C2968686804
:102BD800012A91F8483090F806A090F8079083F001
:102BE80001035BD00027BB4691F854C01CF00406D3
:102BF80000F0D78091F84D60002E5AD091F84E80A1
:102C0800B8F1080F5BD191F84180002640466FE08B
:102C18008C4DD5E9003093F8542057071AD5C2795E
:102C2800002A00F0C680626893F85B1016788E421E
:102C380000F0328193F85620012A00F0518193F870
:102C48004E30082B03D042799A4200F049810DF0AA
:102C5800E1FF68688379002B40F0AF80C379002BCF
:102C68008FD18CE72B6893F85420960740F1CF80DA
:102C7800754A92F900107F2900F0B581029121462A
:102C88002C7B42330194FF2400947F241470062285
:102C980002F0DEFF002309202B7473E7A26857793E
:102CA80007F0C007A7F14007B7FA87F77F09BB46C7
:102CB8009AE790F80580B8F1080F00F0DD804046EB
:102CC800049306F09FFD049B0590BBF1000F40F0B4
:102CD800388129685E4691F854C091F841800CF01B
:102CE8000402404692B3059A43EA020B5FFA8BF35B
:102CF800626891F85BC092F800E0E64500F0F38066
:102D08004FF0000B6A685279082A00F0308191F878
:102D18004EC0ACEB0202B2FA82F252090492002EC3
:102D280000F0B680B9F1000F0BD091F85630012BA6
:102D380000F0D6804E4623B9049B53EA0B0B40F0B3
:102D4800CF800DF067FF2B6893F854C01CF0030F79
:102D58003FF417AF0DF05EFFBAF1000F3FF411AF6B
:102D68002868A36800F14201A27C90F8410013F0A2
:102D7800D5FF16B9002800F01481334E96F90030BB
:102D88007F2B00F03081029321462B7B7F24012288
:102D9800CDE90083D5E900303470423302F058FFA2
:102DA800EFE690F80580B8F1080F88D191F84180D6
:102DB800CCE78379002B3FF4E2AE2B6893F85420DC
:102DC800960743D4D0077FF5DCAE510700F1E680C3
:102DD8001D4B93F900207F2A00F005817F20029285
:102DE8002A7B21461870FF202B6801920022009050
:102DF8004233686802F02CFF03206B68DA79002AF6
:102E08007FF4C0AE9B79002B7FF4BCAEB7E6D10748
:102E18007FF5B5AE530700F1BE800B4B93F9002048
:102E28007F2A00F0E0807F20029221462A7B1870DA
:102E3800FF24D5E90030019206224233009402F0C3
:102E480007FF9EE6F004002110000021674A92F96E
:102E580000107F2900F0C780029121462C7B423365
:102E68000194FF2400947F241470002202F0F0FEE5
:102E7800012309202B74C0E7626891F85B0092F87F
:102E880000C091F8418084452CD0B3464046049652
:102E9800002B6FD1002654E7567893F85C108E42C9
:102EA8007FF4C8AE967893F85D108E427FF4C2AE78
:102EB800D67893F85E108E427FF4BCAE167993F8FC
:102EC8005F108E427FF4B6AE517993F8602091423C
:102ED8007FF4B0AE617C93F85A2091427FF4AAAE99
:102EE8000A204FE6404692F801E091F85CC0E645BA
:102EF8007FF406AF92F802E091F85DC0E6457FF4F2
:102F0800FFAE92F803E091F85EC0E6457FF4F8AEB4
:102F180092F804E091F85FC0E6457FF4F1AE92F8CC
:102F280005C091F8602094457FF4EAAE94F811B09A
:102F380091F85A20ABEB0202D2F1000B4BEB020BDB
:102F4800E0E6A1684046049306F03EFE296806467E
:102F5800049B91F854C091F841000CF00402002E33
:102F68003CD040F00208002A7FF4BDAEEEE6002215
:102F78000492D4E64231A368A27C13F0CFFE002865
:102F880088D0B9F1000F85D02B6893F85630012B03
:102F9800A6D00026CFE60DF03DFE3EE70DF03AFE46
:102FA80016E72B6893F85520023A012A3FF6E9AD57
:102FB800002F3FF4E6AD0D4E96F900207F2A12D07F
:102FC800029221462A7B7F24686842330192FE22BE
:102FD80000920122347002F03BFED2E58046002ABE
:102FE8007FF481AEB2E6FFF727FA00BF1000002198
:102FF80008B5054B586802F067FC0CF0D1FE034B8E
:10300800024601201A7008BDF004002110000021BA
:103018002DE9F843724D002207468946AB68D5F87A
:10302800008018461A800DF045FF002800F0B18096
:10303800AC68032F0646237800F0B78023F02F03EF
:10304800296843EA491343F0050323702223637078
:103058000B6D1B6AC4F80F300A6D936AE374180A83
:103068001B0C2075637592F87EC0108ED36ABCF174
:10307800000F40F0A280DFF86CC1ACFB00E0ACFBB5
:1030880003C3800A9B0AE375C3F30723A07541F2C3
:1030980070702376D369A3F57A7C844540F29880D2
:1030A8005048A0FB0303C3F38F23002063F30700FA
:1030B8001B0A63F30F20938C63F317401B0A63F317
:1030C8001F60C4F81900D38C63771B0AA377D2F862
:1030D8009730C4F81F3092F89B3094F8242084F875
:1030E80023300B6D22F01F0293F8A23003F01F0368
:1030F800134384F8243006F06FF894F8243003F072
:103108001F0343EA401384F82430AC68D8F87830B9
:103118002046C4F80930B8F87C30A4F80D3098F887
:103128007E1014F0B5F82B6893F8482003F1420993
:1031380093F84180A2B393F85420520732D593F8FC
:103148004D207AB393F84E0006F078FD044638B364
:103158004FF0010823684146A868C0F80330A388E7
:10316800A0F8073014F087F81F4BD3F8043173B96F
:10317800052F12D12B68304621681A6DC2F80A1043
:10318800A188D1811B6D83F80980BDE8F8830DF013
:1031980041FD0026032007F04FF83046BDE8F883CC
:1031A8004C46D7E76B685879CEE723F00F0343F016
:1031B800030323700C236370A8E7DFF830C0ACFB6F
:1031C80000E0ACFB033CC0F347104FEA5C135AE73E
:1031D8000748A0FB03039B0903F550639BB264E710
:1031E800F00400215917B7D1008000411F85EB5129
:1031F800D34D621038B5154C236893F854309B07AB
:1032080018D1A568E5B12368FF2093F878110DF06F
:103218006FFA28460DF018FE236893F87831033BBF
:10322800012B94BF282000200DF0AAFE0722636816
:103238001A7138BD6368186802F0EEFA0546E1E7CE
:1032480040F21C513220FDF7F1F800BFF0040021D4
:1032580038B51E4C0E20236893F878110DF048FA03
:10326800236893F854309B0724D1A56845B32846B2
:103278000DF0EAFD236893F87831033B012B94BFE6
:10328800282000200DF07CFE2368681D93F87851F3
:1032980006F0F0FB607348B1033D012D8CBF50254B
:1032A80055250CF0DBFD28460DF08EFE63680822DC
:1032B8001A7138BD6368186802F0AEFA0546D5E79A
:1032C80040F209513220FDF7B1F800BFF0040021A7
:1032D80070B50D4D0222D5E900031A7103F054FFB1
:1032E80000B170BD2E68044606F16C0002F02CFB9C
:1032F8002868A6F8794186F87B4186F87040BDE8D1
:10330800704004F0A3B800BFF004002110B50A4CC7
:103318000CF046FD094A637B10701BB90DF07AFC6E
:10332800032010BD0DF05CFE0CF0B4FD00236373A8
:103338000DF070FC032010BDF004002110000021E6
:1033480070B52D4C0546236893F87B215F2A2CD84D
:1033580051092A4A565C93F8790100F03F000DF0B4
:10336800D1FA236893F958000DF0BCFAFDB123682F
:1033780032460120996E0DF0F1FB2368314693F82F
:103388009630022B14BFFF2040200DF0B1F92368BE
:1033980093F85420920710D193F89530A568B3B1EB
:1033A8002846BDE870400DF04FBD0026D3E73246F1
:1033B800822101200DF0D2FBDFE76368186802F074
:1033C8002BFA2368054693F89530002BE8D1681D41
:1033D80006F050FB60730028E2D0042E14BF50247E
:1033E80055240CF03BFD20460DF0EEFD2846BDE8C7
:1033F80070400DF029BD00BFF0040021844802018F
:10340800F0B52E4C83B00646236893F87B215F2ADB
:1034180030D851092A4A575C9A6E7ABBD3F888008B
:103428000DF07AFD256895F854309A0703D595F87C
:103438009620022A33D05B072DD46368186816BB20
:1034480002F026FD63680646186802F027FD02466A
:1034580005F19A002568314695F8963095F8785127
:10346800009502F06BFE2268002382F87871A3733E
:1034780003B0F0BD9A6E0027002ACFD00120FFF7D5
:103488005FFF2368CAE702F015FD014605F19A00BF
:1034980002F048FEE7E795F89630012BCDD1042FCE
:1034A80005D0394600200DF0C5FD2568C5E795F81B
:1034B8005930012B0CBF03210421F3E7F00400214C
:1034C8008448020110B50B4C637B63B9A1680020E6
:1034D800FEF702FF23680022A3F8792183F87B21F5
:1034E80083F8702010BD0DF07BFD0CF0D3FC002399
:1034F8006373EBE7F004002110B50E4C637B8BB9C6
:10350800206801216268002311710246A0F8793110
:103518006C3082F87B3102F09FF92068BDE81040DA
:1035280003F094BF0DF05CFD0CF0B4FC0023637352
:10353800E6E700BFF004002107292DE9F04F044613
:1035480087B00D461646406852D1002808BF002AA9
:103558000CBF4FF0010A4FF0000A72D0002800F0AB
:10356800D580627C012A00F0B180AB4F7B68587926
:10357800082848D00DF10F0104AA06F035FA0028F2
:1035880000F05E8104A99DF80F0014F08BFE8246BE
:10359800D7E9000890F8543013F0030240F088800F
:1035A8005B0788F8062043D4002388F807309B4B34
:1035B8001B6833B131462046984788F80800D7F889
:1035C8000480636843B1617C3A6882F87E101968A8
:1035D80091679B88A2F87C3098F80830002B00F09F
:1035E8003481A06808B1072D4FD007B0BDE8F08F2F
:1035F800002800F08880627C874F012A79684FD0C4
:1036080048790828B6D16168607C14F04BFE7A6866
:10361800824661680532607C06F01CF9D7F80480A0
:1036280003460028B4D1A8F8060088F80800D8E7AF
:10363800062D90F84D9000F2B28049EA0A00C3B214
:10364800B3E7754FD7E9001091F8543013F003022F
:1036580018BF012213F00403827105D02378A3F167
:103668000103B3FA83F35B09C37191F89430002B1B
:10367800BBD03B68D3F89000503014F01DFE0028F2
:10368800B3D17B6801221A72AFE798F805100829B0
:10369800ABD0002BA9D006F0DDF90123FB73A4E71A
:1036A800437903F0C003402BAAD17B7BFBB9A7E782
:1036B800062D90F84C904FD849EA0A095A0788F81D
:1036C80006907FF571AF90F84D90B6E7427902F019
:1036D800C002402A7FF449AF4F4F7A7B002A3FF45B
:1036E80045AF26B93A6892F87811012960D0D7F821
:1036F800048013F057FB7B6888F80500587901238C
:103708003873BB7334E78246434F41E7424FD7E9EA
:10371800000890F854309A0745D1D14613F00403B5
:1037280088F806903FF441AF90F84D90311E98F814
:1037380007B018BF0121BBF1010F02D000297FF4A7
:1037480033AF6368002B7FF478AF002E3DD16378E8
:10375800D9063AD5012328E7082D03D9002388F88C
:10376800063021E798F806B0311E18BF0121BBF1D9
:10377800010F0DD061B14FF0000913F0040388F870
:1037880006903FF412AF90F84D9098F807B0D2E742
:1037980062689AB149EA0A095FFA89F9BEE7082D11
:1037A8003FF602AFC2E790F84C9098F806B0DBE716
:1037B80006F032F97873002899D1D7E6A6B962786D
:1037C800D20611D54FF00109D7E7D8F8000002F06A
:1037D8005FFB10B1BBF1000F02D1B9F1000F14D09B
:1037E800D7F804800123E0E6D8F80000019102F040
:1037F8004FFB1BEA000001991CD1B9F1000F0FD053
:10380800D7E9000890F85430B7E706F01DF8D7F864
:1038180004800346C9E600BFF004002158100021C7
:10382800019106F011F881460199D7E9000890F84E
:103838005430A2E78146D7E9000890F854309CE755
:1038480040F6BA313220FCF7F1FDB8F80630003BFB
:1038580018BF0123C5E600BF70B5194E8AB00546EA
:103868000CF09EFA3368174A93F85430107013F02E
:10387800060F16D12C782846694604F00F04224614
:1038880002F024FB214600226846FFF755FE214638
:103898006846FFF763F9737B044643B920460AB0CC
:1038A80070BD0122962100200DF06EF9E2E70DF0BF
:1038B80097FB0CF0EFFA0023204673730AB070BD33
:1038C800F00400211000002110B5104C0CF068FA2B
:1038D8000F4A637B10708BB920680121626800234E
:1038E80011710246A0F879316C3082F87B3101F011
:1038F800B3FF2068BDE8104003F0A8BD0DF070FBD1
:103908000CF0C8FA00236373E6E700BFF004002157
:103918001000002110B50F4C606802F015F8637BA9
:103928008BB9206801216268002311710246A0F852
:1039380079316C3082F87B3101F08EFF2068BDE868
:10394800104003F083BD0DF04BFB0CF0A3FA0023ED
:103958006373E6E7F004002110B5114C606801F0CC
:10396800F3FF0CF01DFA0F4A637B10708BB92068C7
:1039780001216268002311710246A0F879316C3088
:1039880082F87B3101F068FF2068BDE8104003F041
:103998005DBD0DF025FB0CF07DFA00236373E6E7AF
:1039A800F00400211000002110B5134C0CF0F8F9B8
:1039B800124A00212368107003F1A00012F0B7FE2C
:1039C800637B8BB92068012162680023117102466C
:1039D800A0F879316C3082F87B3101F03DFF206826
:1039E800BDE8104003F032BD0DF0FAFA0CF052FABF
:1039F80000236373E6E700BFF004002110000021F4
:103A080010B5144C606801F05FFF0CF0C9F902466C
:103A180020680021104BA0301A7012F088FE637BDA
:103A28008BB9206801216268002311710246A0F851
:103A380079316C3082F87B3101F00EFF2068BDE8E7
:103A4800104003F003BD0DF0CBFA0CF023FA00236D
:103A58006373E6E7F00400211000002110B500218F
:103A68000320164CFFF7D4FA20B10321206802F096
:103A780077FE98B9637BCBB920680121626800237F
:103A880011710246A0F879316C3082F87B3101F06F
:103A9800E3FE2068BDE8104003F0D8BC01210846C9
:103AA8000DF0C8FA092263681A7110BD0DF098FA72
:103AB8000CF0F0F900236373DEE700BFF004002187
:103AC80010B51C4C0C220121D4E900031A7103F033
:103AD800E7FC00210520FFF79BFA20B106212068AA
:103AE80002F03EFE98B9637BEBB920680121626859
:103AF800002311710246A0F879316C3082F87B31CD
:103B080001F0AAFE2068BDE8104003F09FBC2368BE
:103B1800012093F878110DF08DFA236801221B6DAE
:103B280083F8962010BD0DF05BFA0CF0B3F9002372
:103B38006373DAE7F004002170B5244C236893F826
:103B48007B215F2A29D85109214A565C9A6E42BBCB
:103B5800D3F888000DF0E0F9256895F854309A07F5
:103B680003D595F89620022A20D05B0703D595F84F
:103B78009630012B1AD06368186802F09BF9014649
:103B880005F19A0002F0CEFA0022D4E90013A273DC
:103B9800062281F878611A7170BD9A6E0026002A93
:103BA800D6D00120FFF7CCFB2368D1E7042E05D03F
:103BB800314600200DF03EFA2568DCE795F85930CB
:103BC800012B0CBF03210421F3E700BFF0040021FF
:103BD8008448020138B5234C6368186801F01AFE5E
:103BE80000283AD063680A22054600211A71206825
:103BF80003F056FC22682B780520126D92F8965037
:103C080005EA531505F001052946FFF701FA48B101
:103C18000421206802F0A4FD20B123681B6D83F8FD
:103C2800965038BD637B8BB92068012162680023F8
:103C380011710246A0F879316C3082F87B3101F0BD
:103C48000BFE2068BDE8384003F000BC0DF0C8F951
:103C58000CF020F900236373E6E740F2615132204B
:103C6800FCF7E4FBF004002138B5174C0521206867
:103C780002F076FD48B12368012093F878110DF021
:103C8800D9F90B2263681A7138BD0546606801F0DE
:103C98005BFE637B8BB92068012162680023117188
:103CA8000246A0F879316C3082F87B3101F0D4FDFE
:103CB8002068BDE8384003F0C9BB0DF091F90CF05D
:103CC800E9F86573E7E700BFF0040021F0B52B4C75
:103CD80083B0236893F87B215F2A37D85109284A93
:103CE800575C9A6E002A35D1D3F888000DF014F984
:103CF800256895F854309A0703D595F89620022A36
:103D08002DD05B0703D595F89630012B27D0636833
:103D1800186802F0BDF863680646186802F0BEF835
:103D2800024605F19A002568314695F8963095F8CF
:103D38007851009502F002FA0022D4E90013A27328
:103D4800052281F878711A7103B0F0BD9A6E0027C8
:103D5800002AC9D00120FFF7F3FA2368C4E7042F2B
:103D680005D0394600200DF065F92568CFE795F8AC
:103D78005930012B0CBF03210421F3E7F004002183
:103D88008448020110B501291D4C636810D178B927
:103D98001A79082A2AD91A790C2A2CD81979626929
:103DA800184B52680B44BDE8104052F823301847AE
:103DB800184601F0C9FD637B8BB920680121626850
:103DC800002311710246A0F879316C3082F87B31FA
:103DD80001F042FD2068BDE8104003F037BB0DF04C
:103DE800FFF80CF057F800236373E6E741F2A141AE
:103DF8003220FCF71BFB41F2A2413220FCF716FBF4
:103E0800F0040021F7FFFF3FF0B55A4C83B020685B
:103E18006C3001F021FD656801F0CEFC6368286014
:103E28001868002800F09C8001F0F4FC0546002882
:103E380000F09B80236893F8A630002B48D1D4E982
:103E4800000290F8A430034493F87C7180F87871EC
:103E5800137913B11379012B4BD190F8A520464B58
:103E6800134418790CF04EFD236893F8A4201344EA
:103E780093F87C61022E3AD04DD8012E4ED101F034
:103E880095FC31460CF034FC28460CF0DDFF314639
:103E980001200CF045FD012F31D1E81C05F0EAFDA9
:103EA800607328B140250BF0D9FF28460DF08CF837
:103EB8006268082100232068517121730321D3808F
:103EC8001372E38180F895302374117103B0F0BD4B
:103ED800236893F8542093F8A700196D0243C3F898
:103EE800101183F85420002283F8A620A7E70D209C
:103EF800C7E7002102F034FCA8B12068ADE7681DCF
:103F080005F0B8FD60730028D2D0033F012F8CBFA5
:103F180050255525C7E7F31E012BB0D940F60501FA
:103F28003220FCF783FA637B93B920680121626829
:103F3800002311710246A0F879316C3082F87B3188
:103F480001F08AFC206803B0BDE8F04003F07EBAB7
:103F580001900DF045F80BF09DFF01986073E4E7C0
:103F680040F252413220FCF761FA40F254413220CB
:103F7800FCF75CFAF00400218448020108B50BF054
:103F88000FFF044B18700CF045FEBDE80840FFF722
:103F98003BBF00BF1000002110B50C4C0BF000FF18
:103FA8000B4A637B10702BB90CF034FEBDE810404F
:103FB800FFF72ABF0DF014F80BF06CFF00236373B2
:103FC8000CF028FEBDE81040FFF71EBFF0040021EA
:103FD8001000002110B50446FEF7ACFA237A032B33
:103FE80034D01D4A12683BBB92F8A5301B490133F7
:103FF80092F84B00A1FB034C0CF4FF7404EB5C0437
:104008001B1B40FA03F4E40713D40133A1FB034C50
:104018002CF0010404EB5C041B1B40FA03F4E007DA
:1040280007D40133A1FB034121F0010404EB510142
:104038005B1ADBB282F8A53092F958000CF052FCFA
:10404800FFF7E2FEBDE81040FEF72ABB40F63A1142
:104058003220FCF7EBF900BFF0040021ABAAAAAAB2
:1040680010B50446FEF766FA237A032B4AD0012BD3
:1040780051D039D82F4C304A216891F8A53091F8A1
:104088004B000133A2FB03CE0EF4FF7C0CEB5E0C5D
:10409800A3EB0C0340FA03FC1CF0010F13D101330E
:1040A800A2FB03CE2EF0010C0CEB5E0CA3EB0C0371
:1040B8001841C00707D40133A2FB030222F0010014
:1040C80000EB52029B1ADBB281F8A53091F9580037
:1040D8000CF008FC2368002283F89520FFF794FE73
:1040E800BDE81040FEF7DCBA023B012B09D8114CA1
:1040F800236893F8950088B9FFF782F90522636869
:104108001A7110BD0B4B1B68986E70B9FFF718F940
:10411800237A012BADD1074C2168D7E70120FFF79F
:104128006FF9062263681A7110BD4FF415613220C9
:10413800FCF77CF9F0040021ABAAAAAA2DE9F04704
:10414800AE4F86B0D7F8008098F85730A3B17E6894
:104158000446B379A3B12578012D1AD0022D5CD07D
:1041680055B998F85420910706D0002B40F0898063
:10417800337A002B40F08580032006B0BDE8F08735
:10418800F279002AE7D1327A002AF5D02578012D74
:10419800E4D198F878216378022A00F0EA8003F0E5
:1041A8001803182BE8D198F854305A0700F1E78023
:1041B800934B93F900507F2D00F053817F221A70A2
:1041C8000CF014FA00210090029508F142030391C3
:1041D800FF22397B30460191214601F001FC00287D
:1041E800CAD0A1690120FEF7C7FA0028C4D001236C
:1041F8003A6882F896306369002B3ED05978C1F34B
:10420800031182F8971059781B7801F00F0143EADF
:104218000123A2F898300220AFE798F854309B07A2
:10422800AAD0637803F01803182BA5D1744B93F91F
:104238000090B9F17F0F00F014817F221A700CF002
:10424800D5F900220090CDF8089008F142030392B6
:1042580030463A7B21460192FF2201F0C1FB00283B
:104268008AD0A1690120FEF787FA002884D03A682D
:1042780082F896506369002BC0D1FF2382F89730EB
:10428800C9E7637813F0100FC3F300160CBF0122BF
:1042980008229A437FF470AF0023A2688DF8153086
:1042A8008DF81630002A00F0A4800DF117030DF1E7
:1042B80016010DF115022046FEF7DCFB39689DF862
:1042C800153091F84190002B40F0C1804231A3682D
:1042D800A27C484612F022FD68B93B6893F8553035
:1042E800023B012B3FF648AF9DF81630002B3FF4F8
:1042F80043AF4FF0FE09424B93F90080002E00F0C7
:104308008180B8F17F0F00F0AC807F221A70D7E966
:10431800003603F142050CF069F9CDF808804A46E9
:104328002B460025009030460395397B01912146A4
:1043380001F056FB00283FF41FAFA1690120FEF7EA
:104348001BFA00283FF418AF3B6883F8965062695F
:10435800002A00F082805178C1F3031183F8971086
:104368005178127801F00F0142EA0122A3F898204F
:1043780051E703F01903192B7FF4FEAE13E76368C6
:104388006BB9A368002B7FF4F7AEA3699B781F2B4A
:1043980024D898F84930002B7FF40AAFECE608F1EE
:1043A8005B0398F85A2008F1780198F87E0012F01B
:1043B800B5FC7E68D7F80080737998F85620082BEA
:1043C80003D098F84E10994244D0012AD9D0002A37
:1043D8007FF4D2AE00283FF4CFAED2E703F0E0037B
:1043E800402B7FF4E5AE98F84A30002B7FF4E0AE1E
:1043F800C2E64FF0FF098DF817207CE7F004002192
:1044080010000021B8F17F0F2BD07E687F221A7030
:104418003379032B04D03379062B14BF01250325E8
:104428003B6803F1420A0CF0E1F82146009053463C
:104438004A463046CDE902853C7B019401F0D0FA2A
:1044480000283FF499AE786801F03EFA94E649F006
:10445800020950E7012A94D98EE6FF2283F89720B3
:10446800D9E6FDF7E9FF00BF30B505468BB00BF084
:1044780097FC3E4B2C7802466946284604F00F0408
:104488001A703B4D01F0C8FD072C2B683DD093F8FE
:10449800542012F0060210D121466846FFF74CF866
:1044A8002B6893F87831042B1BD8022B54D903249A
:1044B8006B7BDBB920460BB030BD93F8A4201344C6
:1044C80093F87C21012A4CD0002221466846FFF748
:1044D80033F82B6893F87831012B10D0023B022B6C
:1044E800E5D941F25A213220FBF7A0FF0CF078FD04
:1044F8000BF0D0FC002320466B730BB030BD062CAC
:104508001BD018D90CF086FBD1E793F878116846D0
:1045180001F0BAFD002221466846FFF70DF82B6826
:1045280093F87831042BDCD8022B0CD96846FFF7B6
:1045380005FE0446BCE7022CE4D821466846FEF78F
:104548000DFB0446B4E7012BF0D0022BC9D19DF82E
:104558000030012BABD1E9E7012BD0D0022BA6D03C
:10456800BFE7962100200CF00FFBADE710000021FB
:10457800F00400212DE9F04F93B0AD4C0D4608A989
:1045880001F04AFD206808A99A3001F0FFFD236870
:104598009DF8201093F89620914205D1032D17D04D
:1045A8009DF82120120766D4606801F0CDF9012535
:1045B800637B1BB9284613B0BDE8F08F0CF010FDE3
:1045C8000BF068FC00232846637313B0BDE8F08F36
:1045D80093F89720FF2AE3D108A82A460721FEF777
:1045E800ABFF6068C38813B9037A002BDDD00023C2
:1045F8000A9F8DF81D308DF81E308DF81F30002F62
:104608004AD00DF11F030DF11D020DF11E0108A87E
:10461800FEF730FA23689DF81D8093F841509DF805
:10462800206045EA48059DF81E90012E9DF81F70F0
:10463800EDB238D0022E00F0AA80002EB4D1206846
:1046480090F854309E07B2D09DF82130990700F1B8
:10465800D180FF2563681B7A33B1764B1B681BB189
:104668000F9808B111999847294608A8FEF7C6F887
:10467800451CEDB29CE70D9993F897004A78B0EB8A
:10468800121F91D1097802F00F02B3F8983041EA6D
:1046980002229A4288D19FE79DF82060B946B84621
:1046A800FF25012EC6D19DF82130206803F00902AC
:1046B80090F89A10092A05D000293FF478AF1B0713
:1046C8007FF575AF90F85430D4F804A05A0713D585
:1046D8009AF8073083B1002900F00D810A9B1BB1BD
:1046E800B8F1000F00F05B81A03012F042F800280A
:1046F80040F0B681D4F804A09AF80630002B3FF4B5
:1047080056AF276897F854309B073FF450AF9DF891
:10471800213013F0020300F0CA80B8F1000F0AD16B
:104728000A9B07F142019DF8322097F8410012F0E8
:10473800F5FA00284ED0404B93F90090B9F17F0F5D
:1047480000F09481D4F804807F221A7098F804301D
:10475800032B00F0F28098F80430062B08BF0326DC
:10476800236803F142070BF041FF2A4600903B46BD
:1047780008A94046CDE90296257B019501F030F95C
:1047880000283FF414AF606801F09EF80FE7266830
:1047980096F854309A073FF40AAFD4F804A09AF870
:1047A8000620002A3FF403AF9DF8212002F00901FA
:1047B80009297FF4FCAE13F0020B02F002013DD090
:1047C800002900F0BC80B8F1000F40F02181002FD3
:1047D80040F01281236893F85530023B012B3FF6D5
:1047E800E6AEB9F1000F3FF4E2AEFE2108A8FDF7EE
:1047F80087FFDCE6B8F1000F7FF42CAF00F142012F
:104808000A9B9DF8322090F8410012F087FA0028A0
:104818007FF420AF236893F85530023B012B3FF615
:10482800C6AEB9F1000F3FF4C2AEFE2512E700BFD5
:10483800F00400215410002110000021002900F08C
:10484800BE80B8F1000F0AD10A9B06F142019DF81B
:10485800322096F8410012F061FA0028BAD0844B51
:1048680093F90080B8F17F0F00F0008167687F221C
:104878001A703B79032B06D03B79062B14BF4FF0F7
:10488800010B4FF0030B236803F142060BF0AEFE59
:104898002A460090334608A93846CDE9028B257B85
:1048A800019501F09DF800283FF481AE6BE7704A4E
:1048B80092F900507F2D00F0D9807F2111709AF86D
:1048C8000420032A00F096809AF80430062B08BFCB
:1048D80003260BF08BFE07F142030090CDE9025648
:1048E800257BFF2208A95046019501F079F8002898
:1048F8003FF45DAE47E700F15B0390F85A2000F102
:10490800780190F87E0012F009FA0346D4E9000A0B
:104918009AF8051090F85620082904D090F84EC04F
:104928008C4500F09F80012A3FF4D8AE002A7FF41E
:10493800E3AE002B3FF4E0AED0E6002610E74C4B88
:1049480093F90080B8F17F0F00F090807F22032058
:104958001A70FEF75DFB23680646D4F8049003F14D
:1049680042070BF043FE2A46012500903B46CDF84E
:10497800088008A903954846257B019501F030F881
:10498800002E3FF411AE00283FF40EAE2068A03090
:1049980011F0EFFE00283FF4F6AE0B2508E6002FD5
:1049A8003FF4AAAE00F142019DF8322090F8410090
:1049B80012F0B4F900283FF49DAE206894E62C4B21
:1049C80093F900507F2D51D07F221A709AF8043045
:1049D800032B05D09AF80430062B14BF01210321BC
:1049E80005910BF003FE059906F142030090CDE90D
:1049F800025175E71E466CE70A9B06F142019DF8D5
:104A0800322096F8410012F089F900283FF4E2AE0E
:104A1800174B93F90080B8F17F0F27D07F22002130
:104A280003201A70FEF7F4FA23680646D4F80490B7
:104A380003F142070BF0DAFD2A46012500903B46B8
:104A4800CDF8088008A903954846257B019500F014
:104A5800C7FF002E3FF44BAF00283FF4A8AD95E701
:104A68000C25A5E5012A7FF639AE45E6FDF7E4FCFD
:104A78001000002110B504460BF092F9094A23787A
:104A8800107003F00F03072B05D120460121BDE864
:104A98001040FFF76FBD044B586800F055FF012028
:104AA80010BD00BF10000021F004002110B504461D
:104AB8000BF076F9094A2378107003F00F03072BDF
:104AC80005D120460321BDE81040FFF753BD044B34
:104AD800586800F039FF012010BD00BF1000002108
:104AE800F004002190F83E00003818BF01207047FC
:104AF800007A003818BF0120704700BF036D10B559
:104B080083B10222FF21044642721A884FF6FF73CE
:104B180080F8271003850649428112F07CFE0023A5
:104B2800236510BD40F261313220FBF77FFC00BFE6
:104B38005521000138B5012105460020FCF7A0F8F1
:104B480020B3044601F034FD02E094F870301BB144
:104B580094F87030012BF8D13F22002120460FF045
:104B68002BFF002340F20111072284F8543084F807
:104B7800A530A4F84C1084F8585084F84B2063668C
:104B880084F89430C4F8903084F8A630012108469F
:104B9800FCF776F8044618B301F00AFD02E094F831
:104BA80070301BB194F87030012BF8D13F220021EE
:104BB80020460FF001FF002340F20111072284F87C
:104BC800543084F8A530A4F84C1084F8585084F870
:104BD8004B20636684F89430C4F8903084F8A6308B
:104BE800BDE8384000F0D8BDF8B506461D4F04F0C2
:104BF80077FA034601210020BB60FCF705F830B3C3
:104C08004FF4C072002104460FF0D6FE0121084679
:104C1800FBF7FAFF7F69054680B14FF4C0720021A7
:104C28000FF0CAFEC7B13046FFF784FF204601F0F7
:104C3800A1FC2846BDE8F84001F09CBC67B13046AD
:104C4800FFF778FF2046BDE8F84001F093BC40F636
:104C580091013220FBF7EAFB40F69B013220FBF77B
:104C6800E5FB00BFF0040021014B024A5A6170477E
:104C7800F00400211C520001014B024A5A6170479E
:104C8800F004002134520001036810B54BB1074A03
:104C980003F16C045169C2E900340B68BDE81040A7
:104CA800184740F67F113220FBF7C0FBF0040021C3
:104CB80010B50F4C606800F047FE637B8BB9206825
:104CC80001216268002311710246A0F879316C3025
:104CD80082F87B3100F0C0FD2068BDE8104002F08A
:104CE800B5BB0CF07DF90BF0D5F800236373E6E74C
:104CF800F004002180F84B10704700BF11F0010349
:104D08001FD04FF0010C0222634680F87CC111F0DD
:104D1800020F0ED000EB030C490700B54FF0020E4E
:104D28008CF87CE103D51044042380F87C315DF8CD
:104D380004FB4A0704D51844042380F87C317047E3
:104D480070470122E3E700BF80F85710704700BFA3
:104D580038B590F840C0ACF1020EBEF1010F98BF13
:104D680000290CBF0124002408D00CF0FD000038F5
:104D7800BDE8384018BF012004F0ECBB02F0FD028A
:104D880005461946101E18BF012012F001F8082820
:104D980001D0204638BD95F840C0E6E790F84000BD
:104DA80000F0FD00003818BF012004F0D3BB00BF9D
:104DB80090F8A6303BBB10B5044603F0FF0094F80A
:104DC8005430022B07D0012B08BF04290CBF012047
:104DD800002002D010BD0429FCD1D4F81031A3B9A9
:104DE800236DBBB106F072FA216D04F1E80001F001
:104DF80013FD06F071FA042384F8A730FF2384F822
:104E0800A630012010BD002070474FF420613220E9
:104E1800FBF70CFB40F601213220FBF707FB00BF34
:104E280080F84010704700BF38B5044690F840003D
:104E380000F0FD0004F14201003818BF012084F899
:104E4800410004F06DFB94F84030023BDBB2012BCB
:104E580094BF0123002384F8483000D938BD04F0FA
:104E6800BDFD05460DF0D2FA094BE5FB030194F8A8
:104E78004830C4E92001002BF0D0002004F070FE77
:104E88000028EBD140F629213220FBF7CFFA00BFEA
:104E980040420F00B1F1000C4FF0080110B5044674
:104EA8000CBF0120002084F856C084F84D0084F817
:104EB8004E1009D102F0FD021946101E18BF01203C
:104EC80011F066FF84F84E0010BD00BF08B5A2B10E
:104ED80080F85A10D2F800C0036DC0F85BC090F893
:104EE80041109288A0F85F205972D0F84220C3F888
:104EF8000A20B0F84620DA8108BD40F64721322062
:104F0800FBF794FA80F84910704700BF80F84A1000
:104F1800704700BFF0B5D0F8C8409DF814E094423F
:104F280003D190F840208A4201D00020F0BD1EF045
:104F3800020190F8455123D00024A4462146224678
:104F480011E0314300EB820253F82C600CF10107A9
:104F58000134D2F8CC205FFA87FC7632B242E4D131
:104F6800E2B2AA4226D8861896F87C61F71E012F6D
:104F7800E7D80CF1010C41F004015FFA8CFCE1E781
:104F88000E460A468418013694F87C41E71E012F24
:104F980053F8227088BF214300EB820498BF41F088
:104FA8000401F2B2D4F8CC4004F1760C6745BCD1C8
:104FB800AA42E7D90EF00500401AB0FA80F040097D
:104FC800F0BD00BF90F854305A070ED413F0030315
:104FD80001D11846704790F8550000F0FD00A0F187
:104FE8000100B0FA80F04009704790F85600A0F12F
:104FF8000100B0FA80F04009704700BF012938B5B8
:10500800044610D094F8543004F16C059B071AD16B
:10501800284600F021FC0023A4F8793184F87B317C
:1050280084F8703038BD0A4D6B7B002BEAD00BF04A
:10503800D7FF0AF02FFF00236B7304F16C0594F877
:1050480054309B07E4D0284600F07EFCE0E700BF20
:10505800F0040021A03011F095BB00BF01493630A3
:1050680012F0DCBB3121000110B5012104460020FB
:10507800FBF706FE80B36278034680F85420217857
:1050880011F0010223D1012011F0020F05D003EB2A
:10509800020C024602208CF87C01490703D51A4409
:1050A800042182F87C11A27883F84020E17801F08D
:1050B800FD0283F85510B2FA82F2520983F84C20A7
:1050C800227983F84B20627983F8572010BD01229A
:1050D800022083F87C21D7E74FF42E613220FBF7BA
:1050E800A5F900BF10B504466C3000F02DFC002374
:1050F800A4F8793184F87B3184F8703010BD00BF92
:1051080008B501210020FBF7BBFD28B190F89400F9
:10511800003818BF012008BD40F65F313220FBF788
:1051280085F900BFF9240001B52500018D3D000176
:105138001D39000175220001CD34000175220001DE
:10514800CD340001FD31000159320001A13F0001B9
:10515800853F0001A13F0001853F0001D1380001D2
:1051680061390001093A0001B13900013122000119
:105178000135000125210001113E00012521000112
:1051880025210001252100012521000125210001FB
:10519800653A0001DD3B00012521000125210001C0
:1051A8003122000101350001D9320001113E000110
:1051B80025210001D53C0001413B000125210001CA
:1051C80025210001653A0001DD3B0001713C000129
:1051D800C93A0001613800014D2400017144000101
:1051E8004D2400017D4A0001B54A0001E128000173
:1051F8005929000115330001492200011533000126
:1052080049220001C1220001C1220001F92F000139
:1052180061220001DD3F00013C51000154510001B1
:1052280074510001DC510001FC510001694000018A
:10523800445100015C510001A8510001E4510001F2
:10524800045200012DE9F04705468CB00E460020B7
:105258000121FBF715FD002800F075820446A830EF
:1052680001F0C2F9002846D094F85430042B42D0FB
:10527800AF6A002F00F05281BD4B9F4263D0043BC0
:105288009F4260D003F03AFF07F13B09804602A92C
:10529800484600F0C1FEEB7AB8F1000F00F0BC8080
:1052A800DC0606F10D0100F1F481002F00F05082B8
:1052B8009DF80830022B00F04B8295F83230E52239
:1052C800484612F053F995F83230044648462344CC
:1052D80085F8323012F042F995F83290A9EB0009BE
:1052E800B9FA89F94FEA5919B8F1000F31D104F127
:1052F8001803DBB29FE02046FFF7F4FB0028B7D184
:105308009C4C04F1080604F10C070023AA6A002A41
:1053180000F03481A96A0A68B142AA620B704B7026
:105328008B70CB70F2D0B942F0D0206810F08FF9B2
:10533800231DD3E84F3F0133211DDBB2C1E8423FB3
:10534800002AF5D1E1E703F0D9FE814600286ED0A6
:105358000024EA7AD10640F1FB815207AB7A697BD7
:1053680003D5EA7EFE2A00F0748104F10A02F37084
:10537800717102FB03F30322023332707370D5F8A4
:105388000E30C6F806306B8A3473344473812B7E32
:105398006373EB7A13F0080000F00481754C042362
:1053A80004F108083371474579D13379022262F351
:1053B8004613AA6A33716AB1EFF3108272B6AB6A08
:1053C8001968A962002A00F0C58000221A705A7074
:1053D8009A70DA70A5F10801206810F038F9231DD9
:1053E800D3E84F3F0133211DDBB2C1E8423F002A19
:1053F800F5D102274FF004088DF804808DF8057068
:105408009DF8042000209DF8053062F3070063F33F
:105418000F200CB0BDE8F087D80606F11C0100F19A
:10542800418127B19DF80830022B7FF446AF18233D
:1054380000244FF0010904223270AA7A02FB03F318
:10544800F27002337370D5F80B20D5F80F30D5F809
:105458001300D5F817107260B360F0603161D5F8A9
:105468001B20D5F81F307261B36195F8148095F848
:1054780015A003F081FE08F1FF338A05DBB253D58E
:10548800032B00F269813C4AD35C7373BAF1000FB5
:1054980062D1F476374C04F10808474585D004F109
:1054A8000C0A574500F08780002F00F0AC80B9F156
:1054B800000F2AD0AB6A63B1EFF3108272B6AB6A01
:1054C8001968A96202B962B600221A705A709A70F5
:1054D800DA703946206810F0BAF8231DD3E84F3F38
:1054E8000133211DDBB2C1E8423F002AF5D1AB6A86
:1054F80085F83220434500F0DF80534500F00081F5
:105508009DF80830022B00F0BD803379012262F348
:105518004613337101274FF004086DE703F0EEFDE1
:1055280005F133098046B2E6032B00F21E81124AC8
:1055380013441B797373BAF1000FAAD00AF1FF3A2A
:105548005FFA8AFABAF1030F00F20F815244137915
:10555800B3739EE762B638E70AF1FF3A5FFA8AFA50
:10556800BAF1030F00F2F88012F80A30B37390E72B
:1055780014050021080500218C480201A5F1080145
:10558800206810F064F8231DD3E84F3F0133211D34
:10559800DBB2C1E8423F002AF5D14FF40073ADF801
:1055A80004302DE703F00301032949D0580749D5F2
:1055B800012333716EE7AB6A63B1EFF3108272B601
:1055C800AB6A1968A96202B962B600221A705A70E9
:1055D8009A70DA706B7D83BB32794FF0040863F3FD
:1055E80046123271A5F10801206810F030F8231D29
:1055F800D3E84F3F0133211DDBB2C1E8423F002A07
:10560800F5D10227F8E695F80B8018F010083FF45A
:10561800F3AE3379A5F10801206867F346133371B7
:1056280010F015F8231DD3E84F3F0133211DDBB2DD
:10563800C1E8423F002AF5D1DBE64FF00008D1E788
:10564800307127E7022922D0002940F08A80327180
:1056580020E7F3701B0171710233737011233370EB
:1056680001233371D5F80E30C6F806306B8A3273D1
:105678007381EB69C6F80D302B8CA6F811302B7EA0
:10568800F37407E7337923F06803337142E7317124
:1056980000E79DF8184008460599C14622460FF0D4
:1056A80037FA56E69DF81840084605994FF0010963
:1056B80022460FF02DFA1AE63379022262F34613D6
:1056C800AA6A337162B1EFF3108272B6AB6A1968D5
:1056D800A96202B962B600221A705A709A70DA701A
:1056E800A5F1080120680FF0B2FF231DD3E84F3F52
:1056F8000133211DDBB2C1E8423F002AF5D178E62B
:10570800337962F34613AA6A337162B1EFF31082F8
:1057180072B6AB6A1968A96202B962B600221A7039
:105728005A709A70DA70A5F1080120680FF08FFF9F
:10573800231DD3E84F3F0133211DDBB2C1E8423FAF
:10574800002AF5D155E64FF4F0713320FAF76EFED2
:105758005B213320FAF76AFE4FF4E9713320FAF738
:1057680065FEA2213320FAF761FE40F211310620CE
:10577800FAF75CFE343270B5044692B21E460D4606
:105788000FF02DFF24B1034B1C601D745E741D7156
:1057980070BD00BF0805002110B5034C20680FF04C
:1057A80040FF237C237110BD08050021014B587C64
:1057B800704700BF0805002138B5154C20680FF068
:1057C80036FF00B30546231DD3E84F3F013B221D9A
:1057D800DBB2C2E8413F0029F5D105F108033422C4
:1057E800012418460FF0E8F8EA7C0346FF2147F643
:1057F800FF7064F346126975E883184685F823102C
:10580800EA74ED6238BD40F255113320FAF70EFE06
:10581800080500213330704738B50446406A08B19E
:105828003B3038BD0B4D28680FF001FF606260B156
:105838002B1DD3E84F3F013B291DDBB2C1E8423F96
:10584800002AF5D1606A3B3038BD4FF4B771332078
:10585800FAF7ECFD0805002138B503684BB39A6ADE
:1058680052BB596A054629B301F10800154C834219
:10587800206808BF2A600FF0EAFE231DD3E84F3FD7
:105888000133211DDBB2C1E8423F002AF5D12B6864
:105898007BB1A3F1080120680FF0D9FE231DD3E8DE
:1058A8004F3F0133211DDBB2C1E8423F002AF5D149
:1058B8002A6038BD034CECE740F28B113320FAF72D
:1058C800B5FD00BF0805002170B505680646F5B1AD
:1058D8001B49284611F0ABFF1A4C0023E360EFF395
:1058E800108272B6AB6A23B3E96A04F10C030B6049
:1058F800EB6202B962B63368596A29B101F1080549
:10590800AB421AD100236B620023336070BD696A11
:105918000029F9D00B4C20680FF099FE231DD3E81D
:105928004F3F0133211DDBB2C1E8423F002AF5D1C8
:10593800E8E704F10C03AB62DAE71D46EBE700BFCA
:105948004D5200010805002170B50668002E3CD0B4
:10595800716A0546002939D001F108031E4C9E42A0
:105968000DD020680FF073FE231DD3E84F3F01339D
:10597800211DDBB2C1E8423F002AF5D12B68002285
:1059880072625A7D8AB10022A260EFF3108172B66A
:105998009A6AF2B1D86A114A0260DA6201B962B64B
:1059A8002846BDE87040FFF78FBFA3F108012068C3
:1059B8000FF04DFE231DD3E84F3F0133211DDBB20D
:1059C800C1E8423F002AF5D12A6070BD3346024C37
:1059D800D7E7024A9A62E0E708050021100500218E
:1059E8002DE9F04704680D4698469DF820109DF86B
:1059F80024309DF928C09DF82C90002C00F00A81D5
:105A0800DFF840A2174606469AF80420002A7FD0FD
:105A1800626A002A00F0088182F81190EA684AB1A7
:105A280095F810E0228E724440F2726E724500F3CF
:105A3800BA802286012284F818C0A272B9F1000F38
:105A480072D061756A691AB15278C2F30312A275ED
:105A5800EA6912B15288A4F819202A78E17AA2F1E9
:105A68000100B0FA80F0400960F30001C8B2E172A9
:105A780011F0020140F08E80022A00F0BE80E07A28
:105A880061F34100C0F34001E072002A14BF002115
:105A980001F00101E27A61F3C302E272AA68002A06
:105AA80000F08B80E17A41F00401E172296A002953
:105AB8003CD091F90010E1756968002939D0082BAC
:105AC80004F10E0200F08F80184604F10D0103F076
